{"contracts/InvestmentPool.sol":{"InvestmentPool":{"abi":[{"inputs":[{"internalType":"address","name":"_cUSD","type":"address"},{"internalType":"address","name":"_feeRecipient","type":"address"}],"stateMutability":"nonpayable","type":"constructor"},{"inputs":[],"name":"AccessControlBadConfirmation","type":"error"},{"inputs":[{"internalType":"address","name":"account","type":"address"},{"internalType":"bytes32","name":"neededRole","type":"bytes32"}],"name":"AccessControlUnauthorizedAccount","type":"error"},{"inputs":[],"name":"EnforcedPause","type":"error"},{"inputs":[],"name":"ExpectedPause","type":"error"},{"inputs":[],"name":"ReentrancyGuardReentrantCall","type":"error"},{"inputs":[{"internalType":"address","name":"token","type":"address"}],"name":"SafeERC20FailedOperation","type":"error"},{"anonymous":false,"inputs":[{"indexed":true,"internalType":"uint256","name":"poolId","type":"uint256"},{"indexed":false,"internalType":"uint256","name":"amount","type":"uint256"},{"indexed":false,"internalType":"uint256","name":"milestoneIndex","type":"uint256"}],"name":"FundsReleased","type":"event"},{"anonymous":false,"inputs":[{"indexed":true,"internalType":"uint256","name":"poolId","type":"uint256"},{"indexed":true,"internalType":"address","name":"investor","type":"address"},{"indexed":false,"internalType":"uint256","name":"amount","type":"uint256"}],"name":"InvestmentMade","type":"event"},{"anonymous":false,"inputs":[{"indexed":false,"internalType":"address","name":"account","type":"address"}],"name":"Paused","type":"event"},{"anonymous":false,"inputs":[{"indexed":true,"internalType":"uint256","name":"poolId","type":"uint256"},{"indexed":false,"internalType":"enum InvestmentPool.PoolStatus","name":"status","type":"uint8"}],"name":"PoolClosed","type":"event"},{"anonymous":false,"inputs":[{"indexed":true,"internalType":"uint256","name":"poolId","type":"uint256"},{"indexed":true,"internalType":"address","name":"businessOwner","type":"address"},{"indexed":false,"internalType":"uint256","name":"targetAmount","type":"uint256"},{"indexed":false,"internalType":"uint256","name":"duration","type":"uint256"},{"indexed":false,"internalType":"string","name":"businessId","type":"string"}],"name":"PoolCreated","type":"event"},{"anonymous":false,"inputs":[{"indexed":true,"internalType":"uint256","name":"poolId","type":"uint256"},{"indexed":false,"internalType":"uint256","name":"amount","type":"uint256"},{"indexed":false,"internalType":"uint256","name":"scheduleIndex","type":"uint256"}],"name":"RepaymentMade","type":"event"},{"anonymous":false,"inputs":[{"indexed":true,"internalType":"bytes32","name":"role","type":"bytes32"},{"indexed":true,"internalType":"bytes32","name":"previousAdminRole","type":"bytes32"},{"indexed":true,"internalType":"bytes32","name":"newAdminRole","type":"bytes32"}],"name":"RoleAdminChanged","type":"event"},{"anonymous":false,"inputs":[{"indexed":true,"internalType":"bytes32","name":"role","type":"bytes32"},{"indexed":true,"internalType":"address","name":"account","type":"address"},{"indexed":true,"internalType":"address","name":"sender","type":"address"}],"name":"RoleGranted","type":"event"},{"anonymous":false,"inputs":[{"indexed":true,"internalType":"bytes32","name":"role","type":"bytes32"},{"indexed":true,"internalType":"address","name":"account","type":"address"},{"indexed":true,"internalType":"address","name":"sender","type":"address"}],"name":"RoleRevoked","type":"event"},{"anonymous":false,"inputs":[{"indexed":false,"internalType":"address","name":"account","type":"address"}],"name":"Unpaused","type":"event"},{"inputs":[],"name":"ADMIN_ROLE","outputs":[{"internalType":"bytes32","name":"","type":"bytes32"}],"stateMutability":"view","type":"function"},{"inputs":[],"name":"BASIS_POINTS","outputs":[{"internalType":"uint256","name":"","type":"uint256"}],"stateMutability":"view","type":"function"},{"inputs":[],"name":"BUSINESS_ROLE","outputs":[{"internalType":"bytes32","name":"","type":"bytes32"}],"stateMutability":"view","type":"function"},{"inputs":[],"name":"DEFAULT_ADMIN_ROLE","outputs":[{"internalType":"bytes32","name":"","type":"bytes32"}],"stateMutability":"view","type":"function"},{"inputs":[],"name":"PLATFORM_FEE","outputs":[{"internalType":"uint256","name":"","type":"uint256"}],"stateMutability":"view","type":"function"},{"inputs":[{"internalType":"uint256","name":"_poolId","type":"uint256"},{"internalType":"string","name":"_description","type":"string"},{"internalType":"uint256","name":"_amount","type":"uint256"},{"internalType":"uint256","name":"_dueDate","type":"uint256"}],"name":"addMilestone","outputs":[],"stateMutability":"nonpayable","type":"function"},{"inputs":[{"internalType":"uint256","name":"_poolId","type":"uint256"},{"internalType":"uint256","name":"_milestoneIndex","type":"uint256"}],"name":"approveMilestone","outputs":[],"stateMutability":"nonpayable","type":"function"},{"inputs":[{"internalType":"address","name":"","type":"address"},{"internalType":"uint256","name":"","type":"uint256"}],"name":"businessPools","outputs":[{"internalType":"uint256","name":"","type":"uint256"}],"stateMutability":"view","type":"function"},{"inputs":[],"name":"cUSD","outputs":[{"internalType":"contract IERC20","name":"","type":"address"}],"stateMutability":"view","type":"function"},{"inputs":[{"internalType":"uint256","name":"_targetAmount","type":"uint256"},{"internalType":"uint256","name":"_duration","type":"uint256"},{"internalType":"uint256","name":"_interestRate","type":"uint256"},{"internalType":"string","name":"_businessId","type":"string"},{"internalType":"string","name":"_purpose","type":"string"}],"name":"createPool","outputs":[{"internalType":"uint256","name":"","type":"uint256"}],"stateMutability":"nonpayable","type":"function"},{"inputs":[{"internalType":"uint256","name":"_poolId","type":"uint256"}],"name":"emergencyPause","outputs":[],"stateMutability":"nonpayable","type":"function"},{"inputs":[],"name":"feeRecipient","outputs":[{"internalType":"address","name":"","type":"address"}],"stateMutability":"view","type":"function"},{"inputs":[{"internalType":"address","name":"_business","type":"address"}],"name":"getBusinessPools","outputs":[{"internalType":"uint256[]","name":"","type":"uint256[]"}],"stateMutability":"view","type":"function"},{"inputs":[{"internalType":"address","name":"_investor","type":"address"}],"name":"getInvestorPools","outputs":[{"internalType":"uint256[]","name":"","type":"uint256[]"}],"stateMutability":"view","type":"function"},{"inputs":[{"internalType":"uint256","name":"_poolId","type":"uint256"}],"name":"getPool","outputs":[{"components":[{"internalType":"uint256","name":"id","type":"uint256"},{"internalType":"address","name":"businessOwner","type":"address"},{"internalType":"uint256","name":"targetAmount","type":"uint256"},{"internalType":"uint256","name":"currentAmount","type":"uint256"},{"internalType":"uint256","name":"duration","type":"uint256"},{"internalType":"uint256","name":"interestRate","type":"uint256"},{"internalType":"enum InvestmentPool.PoolStatus","name":"status","type":"uint8"},{"internalType":"uint256","name":"createdAt","type":"uint256"},{"internalType":"uint256","name":"fundingDeadline","type":"uint256"},{"internalType":"string","name":"businessId","type":"string"},{"internalType":"string","name":"purpose","type":"string"}],"internalType":"struct InvestmentPool.Pool","name":"","type":"tuple"}],"stateMutability":"view","type":"function"},{"inputs":[{"internalType":"uint256","name":"_poolId","type":"uint256"}],"name":"getPoolInvestments","outputs":[{"components":[{"internalType":"address","name":"investor","type":"address"},{"internalType":"uint256","name":"amount","type":"uint256"},{"internalType":"uint256","name":"timestamp","type":"uint256"},{"internalType":"bool","name":"withdrawn","type":"bool"}],"internalType":"struct InvestmentPool.Investment[]","name":"","type":"tuple[]"}],"stateMutability":"view","type":"function"},{"inputs":[{"internalType":"bytes32","name":"role","type":"bytes32"}],"name":"getRoleAdmin","outputs":[{"internalType":"bytes32","name":"","type":"bytes32"}],"stateMutability":"view","type":"function"},{"inputs":[{"internalType":"bytes32","name":"role","type":"bytes32"},{"internalType":"address","name":"account","type":"address"}],"name":"grantRole","outputs":[],"stateMutability":"nonpayable","type":"function"},{"inputs":[{"internalType":"uint256","name":"_poolId","type":"uint256"}],"name":"handleDefault","outputs":[],"stateMutability":"nonpayable","type":"function"},{"inputs":[{"internalType":"bytes32","name":"role","type":"bytes32"},{"internalType":"address","name":"account","type":"address"}],"name":"hasRole","outputs":[{"internalType":"bool","name":"","type":"bool"}],"stateMutability":"view","type":"function"},{"inputs":[{"internalType":"uint256","name":"_poolId","type":"uint256"},{"internalType":"uint256","name":"_amount","type":"uint256"}],"name":"invest","outputs":[],"stateMutability":"nonpayable","type":"function"},{"inputs":[{"internalType":"address","name":"","type":"address"},{"internalType":"uint256","name":"","type":"uint256"}],"name":"investorPools","outputs":[{"internalType":"uint256","name":"","type":"uint256"}],"stateMutability":"view","type":"function"},{"inputs":[],"name":"nextPoolId","outputs":[{"internalType":"uint256","name":"","type":"uint256"}],"stateMutability":"view","type":"function"},{"inputs":[],"name":"paused","outputs":[{"internalType":"bool","name":"","type":"bool"}],"stateMutability":"view","type":"function"},{"inputs":[{"internalType":"uint256","name":"","type":"uint256"},{"internalType":"uint256","name":"","type":"uint256"}],"name":"poolInvestments","outputs":[{"internalType":"address","name":"investor","type":"address"},{"internalType":"uint256","name":"amount","type":"uint256"},{"internalType":"uint256","name":"timestamp","type":"uint256"},{"internalType":"bool","name":"withdrawn","type":"bool"}],"stateMutability":"view","type":"function"},{"inputs":[{"internalType":"uint256","name":"","type":"uint256"},{"internalType":"uint256","name":"","type":"uint256"}],"name":"poolMilestones","outputs":[{"internalType":"uint256","name":"poolId","type":"uint256"},{"internalType":"string","name":"description","type":"string"},{"internalType":"uint256","name":"amount","type":"uint256"},{"internalType":"enum InvestmentPool.MilestoneStatus","name":"status","type":"uint8"},{"internalType":"uint256","name":"dueDate","type":"uint256"},{"internalType":"string","name":"evidence","type":"string"}],"stateMutability":"view","type":"function"},{"inputs":[{"internalType":"uint256","name":"","type":"uint256"}],"name":"pools","outputs":[{"internalType":"uint256","name":"id","type":"uint256"},{"internalType":"address","name":"businessOwner","type":"address"},{"internalType":"uint256","name":"targetAmount","type":"uint256"},{"internalType":"uint256","name":"currentAmount","type":"uint256"},{"internalType":"uint256","name":"duration","type":"uint256"},{"internalType":"uint256","name":"interestRate","type":"uint256"},{"internalType":"enum InvestmentPool.PoolStatus","name":"status","type":"uint8"},{"internalType":"uint256","name":"createdAt","type":"uint256"},{"internalType":"uint256","name":"fundingDeadline","type":"uint256"},{"internalType":"string","name":"businessId","type":"string"},{"internalType":"string","name":"purpose","type":"string"}],"stateMutability":"view","type":"function"},{"inputs":[{"internalType":"uint256","name":"_poolId","type":"uint256"},{"internalType":"uint256","name":"_scheduleIndex","type":"uint256"}],"name":"processRepayment","outputs":[],"stateMutability":"nonpayable","type":"function"},{"inputs":[{"internalType":"uint256","name":"_poolId","type":"uint256"},{"internalType":"uint256","name":"_milestoneIndex","type":"uint256"}],"name":"releaseFunds","outputs":[],"stateMutability":"nonpayable","type":"function"},{"inputs":[{"internalType":"bytes32","name":"role","type":"bytes32"},{"internalType":"address","name":"callerConfirmation","type":"address"}],"name":"renounceRole","outputs":[],"stateMutability":"nonpayable","type":"function"},{"inputs":[{"internalType":"uint256","name":"","type":"uint256"},{"internalType":"uint256","name":"","type":"uint256"}],"name":"repaymentSchedules","outputs":[{"internalType":"uint256","name":"poolId","type":"uint256"},{"internalType":"uint256","name":"amount","type":"uint256"},{"internalType":"uint256","name":"dueDate","type":"uint256"},{"internalType":"bool","name":"paid","type":"bool"}],"stateMutability":"view","type":"function"},{"inputs":[{"internalType":"bytes32","name":"role","type":"bytes32"},{"internalType":"address","name":"account","type":"address"}],"name":"revokeRole","outputs":[],"stateMutability":"nonpayable","type":"function"},{"inputs":[{"internalType":"bytes4","name":"interfaceId","type":"bytes4"}],"name":"supportsInterface","outputs":[{"internalType":"bool","name":"","type":"bool"}],"stateMutability":"view","type":"function"}],"evm":{"bytecode":{"linkReferences":{},"object":"60a034620000d457601f6200275d38819003918201601f19168301916001600160401b03831184841017620000d9578084926040948552833981010312620000d4576200005a60206200005283620000ef565b9201620000ef565b600160008190556009556001600160a01b03918216608052600a80546001600160a01b03191691909216179055620000923362000104565b506200009e3362000185565b5060405161251490816200022982396080518181816102d4015281816104250152818161103d015281816110fb01526115f80152f35b600080fd5b634e487b7160e01b600052604160045260246000fd5b51906001600160a01b0382168203620000d457565b6001600160a01b031660008181527fa6eef7e35abe7026729641147f7915573c7e97b47efa546f5f6e3230263bcb49602052604081205490919060ff16620001815781805260016020526040822081835260205260408220600160ff1982541617905533916000805160206200273d8339815191528180a4600190565b5090565b6001600160a01b031660008181527f50efbde2d46c37e9785f1791697f77e94bb7b701e19f1930a668820722d3769460205260408120549091907fa49807205ce4d355092ef5a8a18f56e8913cf4a201fbe287825b095693c217759060ff16620002235780835260016020526040832082845260205260408320600160ff198254161790556000805160206200273d833981519152339380a4600190565b50509056fe6080604052600436101561001257600080fd5b60003560e01c806301f6bf0e146118d157806301ffc9a71461187b578063068bcd8d146116bd5780630bcc1ec91461164557806318e56131146116275780631fccf672146115e257806320913da5146115a5578063248a9ca31461157657806327f505441461152c5780632f2ff15d146114ed5780633207247b146114b257806332ec57881461142e57806334fbc9a11461141257806336568abe146113cb57806346904840146113a25780634af37b231461133d5780635c975abb1461131a5780636c22f60b146112b85780636d52ddfa1461121357806371cadae114610fb657806375b238fc14610f7b57806384dab98414610f1157806391d1485414610ec457806393d17e2514610b14578063a217fddf14610af8578063ab56d0ce146109e9578063ac4afa3814610910578063ad3fbe30146108ab578063d547741f1461086a578063d87aa64314610392578063df7843ae14610201578063e1f1c4a7146101e45763fdf9bc1c1461018757600080fd5b346101df5760403660031901126101df576101a0611ef7565b6001600160a01b03166000908152600760205260409020805460243591908210156101df576020916101d191611f74565b90546040519160031b1c8152f35b600080fd5b346101df5760003660031901126101df5760206040516127108152f35b346101df5761020f36611f5e565b6102176120ba565b61021f61240c565b816000526003602052604060002060ff600682015416600481101561037c57600161024a911461242f565b826000526005602052610261826040600020611fbe565b5060ff600382015416600381101561037c5760010361033e576002019182549260c8840284810460c8148515171561032857612710900493848103908111610328576001909301547f24d2f6e8ac6c13d1e7610752ab0b7ce03d5043806a65d3d631ae859ad81d159b94604094610314927f0000000000000000000000000000000000000000000000000000000000000000916001600160a01b039161030a91908316846124a0565b600a5416906124a0565b549082519182526020820152a26001600055005b634e487b7160e01b600052601160045260246000fd5b60405162461bcd60e51b8152602060048201526016602482015275135a5b195cdd1bdb99481b9bdd08185c1c1c9bdd995960521b6044820152606490fd5b634e487b7160e01b600052602160045260246000fd5b346101df576103a036611f5e565b6103a861240c565b60ff6002541661085857816000526003602052604060002060ff600682015416600481101561037c5761082157600881015442116107dc57811561078c576103f482600383015461230e565b60028201541061074f57670de0b6b3a7640000821061070a576802b5e3af16b188000082116106c5576104498230337f0000000000000000000000000000000000000000000000000000000000000000612350565b82600052600460205260406000206040519061046482611e18565b338252836020830152426040830152600060608301528054600160401b8110156106a45761049791600182018155611fa2565b61068e57600360606104ee9360018060a01b038151166bffffffffffffffffffffffff60a01b85541617845560208101516001850155604081015160028501550151151591019060ff801983541691151516179055565b6104fc82600383015461230e565b600382015533600052600760205261051883604060002061231b565b60038101546002820154111561055e575b50906040519182527f89728d542d77fad9fe42c7d1f032c2b85f64cf938d754183b0e95359fbfac8a160203393a36001600055005b6006600160ff198284015416179101558160005260036020526040600020906105b660028301546105b161059660058601548361246d565b916201d4c06105aa6004880154809561246d565b049061230e565b612480565b9060005b60048401548110156106ba57846000526006602052604060002090600181018082116103285762278d008181810204811482151715610328576105fe91024261230e565b916040519261060c84611e18565b8784528560208501526040840152600060608401528054600160401b8110156106a45761063e91600182018155611fa2565b91909161068e5761068261068792600360608660049751845560208101516001850155604081015160028501550151151591019060ff801983541691151516179055565b6122ff565b90506105ba565b634e487b7160e01b600052600060045260246000fd5b634e487b7160e01b600052604160045260246000fd5b509150839050610529565b60405162461bcd60e51b815260206004820152601d60248201527f4d6178696d756d20696e766573746d656e7420697320353020635553440000006044820152606490fd5b60405162461bcd60e51b815260206004820152601c60248201527f4d696e696d756d20696e766573746d656e7420697320312063555344000000006044820152606490fd5b60405162461bcd60e51b8152602060048201526015602482015274115e18d959591cc81d185c99d95d08185b5bdd5b9d605a1b6044820152606490fd5b60405162461bcd60e51b815260206004820152602260248201527f496e766573746d656e7420616d6f756e74206d75737420626520706f73697469604482015261766560f01b6064820152608490fd5b60405162461bcd60e51b815260206004820152601760248201527f46756e64696e6720646561646c696e65207061737365640000000000000000006044820152606490fd5b60405162461bcd60e51b815260206004820152600f60248201526e506f6f6c206e6f742061637469766560881b6044820152606490fd5b60405163d93c066560e01b8152600490fd5b346101df5760403660031901126101df576108a9600435610889611f0d565b908060005260016020526108a4600160406000200154612134565b612288565b005b346101df5760203660031901126101df576004356108c76120ba565b8060005260036020526006604060002001600260ff198254161790557ff904335b6224ded662a2fc2c71e26fe596a5f9622a67726f3c609af2fc5fac58602060405160028152a2005b346101df5760203660031901126101df576004356000526003602052602060406000206109e58154916109d660018060a01b0360018301541691600281015460038201546109b96004840154600585015460ff6006870154169160078701549460088801549661098e600a61098760098c01612014565b9a01612014565b9a6040519e8f9e8f908152015260408d015260608c015260808b015260a08a015260c0890190611eaa565b60e087015261010086015261016080610120870152850190611eb7565b90838203610140850152611eb7565b0390f35b346101df576020806003193601126101df576004356000526004815260406000209081546001600160401b0381116106a45760405190610a2e838260051b0183611e33565b8082528282018094600052836000206000915b838310610aac5760408051878152865181890181905289928201908960005b828110610a6d5784840385f35b855180516001600160a01b0316855280830151858401526040808201519086015260609081015115159085015294810194608090930192600101610a60565b600486600192604051610abe81611e18565b848060a01b03865416815284860154838201526002860154604082015260ff60038701541615156060820152815201920192019190610a41565b346101df5760003660031901126101df57602060405160008152f35b346101df5760803660031901126101df576004356024356001600160401b0381116101df57610b47903690600401611e54565b600082815260036020526040902060018101546001600160a01b03163303610e89576006015460ff16600481101561037c576001610b85911461242f565b8160005260056020526040600020906040519260c084018481106001600160401b038211176106a4576040528352602083015260443560408301526000606083015260643560808301526040518060208101106001600160401b036020830111176106a457602081016040526000815260a08301528054600160401b8110156106a457610c1791600182018155611fbe565b91909161068e578051825560208101519182516001600160401b0381116106a457610c456001830154611fda565b601f8111610e42575b506020601f8211600114610dd45781929394600092610dc9575b50508160011b916000199060031b1c19161760018201555b604082015160028201556003810190606083015190600382101561037c5760a09260059260ff8019835416911617905560808401516004820155019101519081516001600160401b0381116106a457610cd98254611fda565b601f8111610d81575b50602092601f8211600114610d205792819293600092610d15575b5050600019600383901b1c191660019190911b179055005b015190508380610cfd565b601f198216938360005260206000209160005b868110610d695750836001959610610d50575b505050811b019055005b015160001960f88460031b161c19169055838080610d46565b91926020600181928685015181550194019201610d33565b826000526020600020601f830160051c81019160208410610dbf575b601f0160051c01905b818110610db35750610ce2565b60008155600101610da6565b9091508190610d9d565b015190508480610c68565b6001830160005260206000209060005b601f1984168110610e2a5750600193949583601f19811610610e11575b505050811b016001820155610c80565b015160001960f88460031b161c19169055848080610e01565b9091602060018192858a015181550193019101610de4565b600183016000526020600020601f830160051c810160208410610e82575b601f830160051c82018110610e76575050610c4e565b60008155600101610e60565b5080610e60565b60405162461bcd60e51b815260206004820152601360248201527227b7363c90313ab9b4b732b9b99037bbb732b960691b6044820152606490fd5b346101df5760403660031901126101df57610edd611f0d565b600435600052600160205260406000209060018060a01b0316600052602052602060ff604060002054166040519015158152f35b346101df57610f1f36611f5e565b906000526004602052604060002080548210156101df57608091610f4291611fa2565b5060018060a01b038154169060018101549060ff6003600283015492015416916040519384526020840152604083015215156060820152f35b346101df5760003660031901126101df5760206040517fa49807205ce4d355092ef5a8a18f56e8913cf4a201fbe287825b095693c217758152f35b346101df57610fc436611f5e565b90610fcd61240c565b6000818152600360205260409020600101546001600160a01b031633036111ce57806000526006602052611005826040600020611fa2565b5090600382019260ff938481541661119a576002908185015462093a80810180911161032857421161115c57611061600186015430337f0000000000000000000000000000000000000000000000000000000000000000612350565b600160ff19825416179055600184015494836000526003602052604060002093600460205260406000209360005b855481101561111f57808460036110a96110b7948a611fa2565b50015416156110bc576122ff565b61108f565b6106826110e46110da60016110d1858c611fa2565b5001548d61246d565b888b015490612480565b6110ee838a611fa2565b50546001600160a01b03167f00000000000000000000000000000000000000000000000000000000000000006124a0565b5060407f1ad611755e340443b2da9ad4b0ba6431ca00c2f6bbda5b5bdf5c7306f9ffb84a9160018901549082519182526020820152a26001600055005b60405162461bcd60e51b815260206004820152601660248201527514185e5b595b9d081dda5b991bddc8195e1c1a5c995960521b6044820152606490fd5b60405162461bcd60e51b815260206004820152600c60248201526b105b1c9958591e481c185a5960a21b6044820152606490fd5b60405162461bcd60e51b815260206004820152601d60248201527f4f6e6c7920627573696e657373206f776e65722063616e2072657061790000006044820152606490fd5b346101df5761122136611f5e565b90600052600560205260406000209081548110156101df5761124291611fbe565b5080549061125260018201612014565b600282015460ff6003840154169161128c611274600560048701549601612014565b9160405196875260c0602088015260c0870190611eb7565b916040860152600383101561037c5784936109e5936060860152608085015283820360a0850152611eb7565b346101df576112c636611f5e565b906000526006602052604060002080548210156101df576080916112e991611fa2565b5080549060018101549060ff6003600283015492015416916040519384526020840152604083015215156060820152f35b346101df5760003660031901126101df57602060ff600254166040519015158152f35b346101df5760203660031901126101df576004356113596120ba565b8060005260036020526006604060002001600360ff198254161790557ff904335b6224ded662a2fc2c71e26fe596a5f9622a67726f3c609af2fc5fac58602060405160038152a2005b346101df5760003660031901126101df57600a546040516001600160a01b039091168152602090f35b346101df5760403660031901126101df576113e4611f0d565b336001600160a01b03821603611400576108a990600435612288565b60405163334bd91960e11b8152600490fd5b346101df5760003660031901126101df57602060405160c88152f35b346101df576020806003193601126101df576001600160a01b03611450611ef7565b1660005260078152604060002090604051908181845491828152019360005281600020916000905b82821061149b576109e58561148f81890382611e33565b60405191829182611f23565b835486529485019460019384019390910190611478565b346101df5760003660031901126101df5760206040517f966a00e53c991954f9346cf783097be60911b589dd69ff02c7a9fd1c792150298152f35b346101df5760403660031901126101df576108a960043561150c611f0d565b90806000526001602052611527600160406000200154612134565b61220d565b346101df5760403660031901126101df57611545611ef7565b6001600160a01b03166000908152600860205260409020805460243591908210156101df576020916101d191611f74565b346101df5760203660031901126101df5760043560005260016020526020600160406000200154604051908152f35b346101df5760036115d36115b836611f5e565b906115c16120ba565b60005260056020526040600020611fbe565b5001805460ff19166001179055005b346101df5760003660031901126101df576040517f00000000000000000000000000000000000000000000000000000000000000006001600160a01b03168152602090f35b346101df5760003660031901126101df576020600954604051908152f35b346101df576020806003193601126101df576001600160a01b03611667611ef7565b1660005260088152604060002090604051908181845491828152019360005281600020916000905b8282106116a6576109e58561148f81890382611e33565b83548652948501946001938401939091019061168f565b346101df5760203660031901126101df5760606101406040516116df81611dfc565b60008152600060208201526000604082015260008382015260006080820152600060a0820152600060c0820152600060e082015260006101008201528261012082015201526004356000526003602052604060002060405161174081611dfc565b8154815260018201546001600160a01b0316602082015260028201546040820152600382015460608201526004808301546080830152600583015460a0830152600683015460ff16929083101561037c57600a6117cd916109e59460c0850152600781015460e085015260088101546101008501526117c160098201612014565b61012085015201612014565b610140820152604051918291602083528051602084015260018060a01b0360208201511660408401526040810151606084015260608101516080840152608081015160a084015260a081015160c084015261183060c082015160e0850190611eaa565b60e0810151610100840152610100810151610120840152610120810151610140611867610160928383880152610180870190611eb7565b92015190601f198584030190850152611eb7565b346101df5760203660031901126101df5760043563ffffffff60e01b81168091036101df57602090637965db0b60e01b81149081156118c0575b506040519015158152f35b6301ffc9a760e01b149050826118b5565b346101df5760a03660031901126101df576064356001600160401b0381116101df57611901903690600401611e54565b6084356001600160401b0381116101df57611920903690600401611e54565b9060043515611db757602435151580611daa575b15611d65576101f4604435101580611d57575b15611d125760095490611959826122ff565b60095562278d0042014211610328576040519261197584611dfc565b828452336020850152600435604085015260006060850152602435608085015260443560a0850152600060c08501524260e085015262278d00420161010085015281610120850152610140840152816000526003602052604060002092805184556001840160018060a01b036020830151166bffffffffffffffffffffffff60a01b82541617905560408101516002850155606081015160038501556080810151600485015560a081015160058501556006840160c0820151600481101561037c5760ff8019835416911617905560e0810151600785015561010081015160088501556101208101518051906001600160401b0382116106a457611a7c6009870154611fda565b601f8111611ccb575b50602090601f8311600114611c595761014093929160009183611c4e575b50508160011b916000199060031b1c19161760098601555b01519283516001600160401b0381116106a457611adb600a830154611fda565b94601f8611611c03575b602095508590601f8311600114611b9757600a929160009183611b8c575b50508160011b916000199060031b1c1916179101555b3360005260088352611b2f82604060002061231b565b611b383361215a565b50817f0a28c57e091eb4161701253b973f2584fbc406a6d01452625f6d2e74cccb03336040516004358152602435868201526060604082015280611b8133956060830190611eb7565b0390a3604051908152f35b015190508780611b03565b90601f19831691600a8501600052876000209260005b818110611bec5750916001939185600a969410611bd3575b505050811b01910155611b19565b015160001960f88460031b161c19169055878080611bc5565b929389600181928786015181550195019301611bad565b600a83016000526020600020601f830160051c81019660208410611c44575b601f0160051c01955b868110611c385750611ae5565b60008155600101611c2b565b9096508690611c22565b015190508780611aa3565b90601f198316916009880160005260206000209260005b818110611cb3575091600193918561014097969410611c9a575b505050811b016009860155611abb565b015160001960f88460031b161c19169055878080611c8a565b92936020600181928786015181550195019301611c70565b600987016000526020600020601f840160051c810160208510611d0b575b601f830160051c82018110611cff575050611a85565b60008155600101611ce9565b5080611ce9565b60405162461bcd60e51b815260206004820152601b60248201527f496e7465726573742072617465206d75737420626520352d31352500000000006044820152606490fd5b506105dc6044351115611947565b60405162461bcd60e51b815260206004820152601c60248201527f4475726174696f6e206d75737420626520312d3630206d6f6e746873000000006044820152606490fd5b50603c6024351115611934565b60405162461bcd60e51b815260206004820152601e60248201527f54617267657420616d6f756e74206d75737420626520706f73697469766500006044820152606490fd5b61016081019081106001600160401b038211176106a457604052565b608081019081106001600160401b038211176106a457604052565b90601f801991011681019081106001600160401b038211176106a457604052565b81601f820112156101df578035906001600160401b0382116106a45760405192611e88601f8401601f191660200185611e33565b828452602083830101116101df57816000926020809301838601378301015290565b90600482101561037c5752565b919082519283825260005b848110611ee3575050826000602080949584010152601f8019910116010190565b602081830181015184830182015201611ec2565b600435906001600160a01b03821682036101df57565b602435906001600160a01b03821682036101df57565b6020908160408183019282815285518094520193019160005b828110611f4a575050505090565b835185529381019392810192600101611f3c565b60409060031901126101df576004359060243590565b8054821015611f8c5760005260206000200190600090565b634e487b7160e01b600052603260045260246000fd5b8054821015611f8c5760005260206000209060021b0190600090565b8054821015611f8c576000526006602060002091020190600090565b90600182811c9216801561200a575b6020831014611ff457565b634e487b7160e01b600052602260045260246000fd5b91607f1691611fe9565b906040519182600082549261202884611fda565b9081845260019485811690816000146120975750600114612054575b505061205292500383611e33565b565b9093915060005260209081600020936000915b81831061207f57505061205293508201013880612044565b85548884018501529485019487945091830191612067565b91505061205294506020925060ff191682840152151560051b8201013880612044565b3360009081527f50efbde2d46c37e9785f1791697f77e94bb7b701e19f1930a668820722d3769460205260409020547fa49807205ce4d355092ef5a8a18f56e8913cf4a201fbe287825b095693c217759060ff16156121165750565b6044906040519063e2517d3f60e01b82523360048301526024820152fd5b80600052600160205260406000203360005260205260ff60406000205416156121165750565b6001600160a01b031660008181527f249a641c682c1e9c5dc7dbab36c26f96131373e43e5b4319a60d61bcefc6b16260205260408120549091907f966a00e53c991954f9346cf783097be60911b589dd69ff02c7a9fd1c792150299060ff166122085780835260016020526040832082845260205260408320600160ff198254161790557f2f8788117e7eff1d82e926ec794901d17c78024a50270940304540a733656f0d339380a4600190565b505090565b906000918083526001602052604083209160018060a01b03169182845260205260ff604084205416156000146122085780835260016020526040832082845260205260408320600160ff198254161790557f2f8788117e7eff1d82e926ec794901d17c78024a50270940304540a733656f0d339380a4600190565b906000918083526001602052604083209160018060a01b03169182845260205260ff604084205416600014612208578083526001602052604083208284526020526040832060ff1981541690557ff6391f5c32d9c69d2a47ea670b442974b53935d1edc7fd64eb21e047a839171b339380a4600190565b60001981146103285760010190565b9190820180921161032857565b8054600160401b8110156106a45761233891600182018155611f74565b819291549060031b91821b91600019901b1916179055565b6040516323b872dd60e01b60208201526001600160a01b03928316602482015292909116604483015260648083019390935291815260a08101918183106001600160401b038411176106a457612052926040525b906000602091828151910182855af115612400576000513d6123f757506001600160a01b0381163b155b6123d55750565b604051635274afe760e01b81526001600160a01b039091166004820152602490fd5b600114156123ce565b6040513d6000823e3d90fd5b60026000541461241d576002600055565b604051633ee5aeb560e01b8152600490fd5b1561243657565b60405162461bcd60e51b815260206004820152600f60248201526e141bdbdb081b9bdd08199d5b991959608a1b6044820152606490fd5b8181029291811591840414171561032857565b811561248a570490565b634e487b7160e01b600052601260045260246000fd5b60405163a9059cbb60e01b60208201526001600160a01b039092166024830152604480830193909352918152612052916124d982611e18565b6123a456fea2646970667358221220d8da36f67b90544fdb76b9bc20cf2664c38cb4473da5ed875d52d501d23e282c64736f6c634300081400332f8788117e7eff1d82e926ec794901d17c78024a50270940304540a733656f0d","opcodes":"PUSH1 0xA0 CALLVALUE PUSH3 0xD4 JUMPI PUSH1 0x1F PUSH3 0x275D CODESIZE DUP2 SWAP1 SUB SWAP2 DUP3 ADD PUSH1 0x1F NOT AND DUP4 ADD SWAP2 PUSH1 0x1 PUSH1 0x1 PUSH1 0x40 SHL SUB DUP4 GT DUP5 DUP5 LT OR PUSH3 0xD9 JUMPI DUP1 DUP5 SWAP3 PUSH1 0x40 SWAP5 DUP6 MSTORE DUP4 CODECOPY DUP2 ADD SUB SLT PUSH3 0xD4 JUMPI PUSH3 0x5A PUSH1 0x20 PUSH3 0x52 DUP4 PUSH3 0xEF JUMP JUMPDEST SWAP3 ADD PUSH3 0xEF JUMP JUMPDEST PUSH1 0x1 PUSH1 0x0 DUP2 SWAP1 SSTORE PUSH1 0x9 SSTORE PUSH1 0x1 PUSH1 0x1 PUSH1 0xA0 SHL SUB SWAP2 DUP3 AND PUSH1 0x80 MSTORE PUSH1 0xA DUP1 SLOAD PUSH1 0x1 PUSH1 0x1 PUSH1 0xA0 SHL SUB NOT AND SWAP2 SWAP1 SWAP3 AND OR SWAP1 SSTORE PUSH3 0x92 CALLER PUSH3 0x104 JUMP JUMPDEST POP PUSH3 0x9E CALLER PUSH3 0x185 JUMP JUMPDEST POP PUSH1 0x40 MLOAD PUSH2 0x2514 SWAP1 DUP2 PUSH3 0x229 DUP3 CODECOPY PUSH1 0x80 MLOAD DUP2 DUP2 DUP2 PUSH2 0x2D4 ADD MSTORE DUP2 DUP2 PUSH2 0x425 ADD MSTORE DUP2 DUP2 PUSH2 0x103D ADD MSTORE DUP2 DUP2 PUSH2 0x10FB ADD MSTORE PUSH2 0x15F8 ADD MSTORE RETURN JUMPDEST PUSH1 0x0 DUP1 REVERT JUMPDEST PUSH4 0x4E487B71 PUSH1 0xE0 SHL PUSH1 0x0 MSTORE PUSH1 0x41 PUSH1 0x4 MSTORE PUSH1 0x24 PUSH1 0x0 REVERT JUMPDEST MLOAD SWAP1 PUSH1 0x1 PUSH1 0x1 PUSH1 0xA0 SHL SUB DUP3 AND DUP3 SUB PUSH3 0xD4 JUMPI JUMP JUMPDEST PUSH1 0x1 PUSH1 0x1 PUSH1 0xA0 SHL SUB AND PUSH1 0x0 DUP2 DUP2 MSTORE PUSH32 0xA6EEF7E35ABE7026729641147F7915573C7E97B47EFA546F5F6E3230263BCB49 PUSH1 0x20 MSTORE PUSH1 0x40 DUP2 KECCAK256 SLOAD SWAP1 SWAP2 SWAP1 PUSH1 0xFF AND PUSH3 0x181 JUMPI DUP2 DUP1 MSTORE PUSH1 0x1 PUSH1 0x20 MSTORE PUSH1 0x40 DUP3 KECCAK256 DUP2 DUP4 MSTORE PUSH1 0x20 MSTORE PUSH1 0x40 DUP3 KECCAK256 PUSH1 0x1 PUSH1 0xFF NOT DUP3 SLOAD AND OR SWAP1 SSTORE CALLER SWAP2 PUSH1 0x0 DUP1 MLOAD PUSH1 0x20 PUSH3 0x273D DUP4 CODECOPY DUP2 MLOAD SWAP2 MSTORE DUP2 DUP1 LOG4 PUSH1 0x1 SWAP1 JUMP JUMPDEST POP SWAP1 JUMP JUMPDEST PUSH1 0x1 PUSH1 0x1 PUSH1 0xA0 SHL SUB AND PUSH1 0x0 DUP2 DUP2 MSTORE PUSH32 0x50EFBDE2D46C37E9785F1791697F77E94BB7B701E19F1930A668820722D37694 PUSH1 0x20 MSTORE PUSH1 0x40 DUP2 KECCAK256 SLOAD SWAP1 SWAP2 SWAP1 PUSH32 0xA49807205CE4D355092EF5A8A18F56E8913CF4A201FBE287825B095693C21775 SWAP1 PUSH1 0xFF AND PUSH3 0x223 JUMPI DUP1 DUP4 MSTORE PUSH1 0x1 PUSH1 0x20 MSTORE PUSH1 0x40 DUP4 KECCAK256 DUP3 DUP5 MSTORE PUSH1 0x20 MSTORE PUSH1 0x40 DUP4 KECCAK256 PUSH1 0x1 PUSH1 0xFF NOT DUP3 SLOAD AND OR SWAP1 SSTORE PUSH1 0x0 DUP1 MLOAD PUSH1 0x20 PUSH3 0x273D DUP4 CODECOPY DUP2 MLOAD SWAP2 MSTORE CALLER SWAP4 DUP1 LOG4 PUSH1 0x1 SWAP1 JUMP JUMPDEST POP POP SWAP1 JUMP INVALID PUSH1 0x80 PUSH1 0x40 MSTORE PUSH1 0x4 CALLDATASIZE LT ISZERO PUSH2 0x12 JUMPI PUSH1 0x0 DUP1 REVERT JUMPDEST PUSH1 0x0 CALLDATALOAD PUSH1 0xE0 SHR DUP1 PUSH4 0x1F6BF0E EQ PUSH2 0x18D1 JUMPI DUP1 PUSH4 0x1FFC9A7 EQ PUSH2 0x187B JUMPI DUP1 PUSH4 0x68BCD8D EQ PUSH2 0x16BD JUMPI DUP1 PUSH4 0xBCC1EC9 EQ PUSH2 0x1645 JUMPI DUP1 PUSH4 0x18E56131 EQ PUSH2 0x1627 JUMPI DUP1 PUSH4 0x1FCCF672 EQ PUSH2 0x15E2 JUMPI DUP1 PUSH4 0x20913DA5 EQ PUSH2 0x15A5 JUMPI DUP1 PUSH4 0x248A9CA3 EQ PUSH2 0x1576 JUMPI DUP1 PUSH4 0x27F50544 EQ PUSH2 0x152C JUMPI DUP1 PUSH4 0x2F2FF15D EQ PUSH2 0x14ED JUMPI DUP1 PUSH4 0x3207247B EQ PUSH2 0x14B2 JUMPI DUP1 PUSH4 0x32EC5788 EQ PUSH2 0x142E JUMPI DUP1 PUSH4 0x34FBC9A1 EQ PUSH2 0x1412 JUMPI DUP1 PUSH4 0x36568ABE EQ PUSH2 0x13CB JUMPI DUP1 PUSH4 0x46904840 EQ PUSH2 0x13A2 JUMPI DUP1 PUSH4 0x4AF37B23 EQ PUSH2 0x133D JUMPI DUP1 PUSH4 0x5C975ABB EQ PUSH2 0x131A JUMPI DUP1 PUSH4 0x6C22F60B EQ PUSH2 0x12B8 JUMPI DUP1 PUSH4 0x6D52DDFA EQ PUSH2 0x1213 JUMPI DUP1 PUSH4 0x71CADAE1 EQ PUSH2 0xFB6 JUMPI DUP1 PUSH4 0x75B238FC EQ PUSH2 0xF7B JUMPI DUP1 PUSH4 0x84DAB984 EQ PUSH2 0xF11 JUMPI DUP1 PUSH4 0x91D14854 EQ PUSH2 0xEC4 JUMPI DUP1 PUSH4 0x93D17E25 EQ PUSH2 0xB14 JUMPI DUP1 PUSH4 0xA217FDDF EQ PUSH2 0xAF8 JUMPI DUP1 PUSH4 0xAB56D0CE EQ PUSH2 0x9E9 JUMPI DUP1 PUSH4 0xAC4AFA38 EQ PUSH2 0x910 JUMPI DUP1 PUSH4 0xAD3FBE30 EQ PUSH2 0x8AB JUMPI DUP1 PUSH4 0xD547741F EQ PUSH2 0x86A JUMPI DUP1 PUSH4 0xD87AA643 EQ PUSH2 0x392 JUMPI DUP1 PUSH4 0xDF7843AE EQ PUSH2 0x201 JUMPI DUP1 PUSH4 0xE1F1C4A7 EQ PUSH2 0x1E4 JUMPI PUSH4 0xFDF9BC1C EQ PUSH2 0x187 JUMPI PUSH1 0x0 DUP1 REVERT JUMPDEST CALLVALUE PUSH2 0x1DF JUMPI PUSH1 0x40 CALLDATASIZE PUSH1 0x3 NOT ADD SLT PUSH2 0x1DF JUMPI PUSH2 0x1A0 PUSH2 0x1EF7 JUMP JUMPDEST PUSH1 0x1 PUSH1 0x1 PUSH1 0xA0 SHL SUB AND PUSH1 0x0 SWAP1 DUP2 MSTORE PUSH1 0x7 PUSH1 0x20 MSTORE PUSH1 0x40 SWAP1 KECCAK256 DUP1 SLOAD PUSH1 0x24 CALLDATALOAD SWAP2 SWAP1 DUP3 LT ISZERO PUSH2 0x1DF JUMPI PUSH1 0x20 SWAP2 PUSH2 0x1D1 SWAP2 PUSH2 0x1F74 JUMP JUMPDEST SWAP1 SLOAD PUSH1 0x40 MLOAD SWAP2 PUSH1 0x3 SHL SHR DUP2 MSTORE RETURN JUMPDEST PUSH1 0x0 DUP1 REVERT JUMPDEST CALLVALUE PUSH2 0x1DF JUMPI PUSH1 0x0 CALLDATASIZE PUSH1 0x3 NOT ADD SLT PUSH2 0x1DF JUMPI PUSH1 0x20 PUSH1 0x40 MLOAD PUSH2 0x2710 DUP2 MSTORE RETURN JUMPDEST CALLVALUE PUSH2 0x1DF JUMPI PUSH2 0x20F CALLDATASIZE PUSH2 0x1F5E JUMP JUMPDEST PUSH2 0x217 PUSH2 0x20BA JUMP JUMPDEST PUSH2 0x21F PUSH2 0x240C JUMP JUMPDEST DUP2 PUSH1 0x0 MSTORE PUSH1 0x3 PUSH1 0x20 MSTORE PUSH1 0x40 PUSH1 0x0 KECCAK256 PUSH1 0xFF PUSH1 0x6 DUP3 ADD SLOAD AND PUSH1 0x4 DUP2 LT ISZERO PUSH2 0x37C JUMPI PUSH1 0x1 PUSH2 0x24A SWAP2 EQ PUSH2 0x242F JUMP JUMPDEST DUP3 PUSH1 0x0 MSTORE PUSH1 0x5 PUSH1 0x20 MSTORE PUSH2 0x261 DUP3 PUSH1 0x40 PUSH1 0x0 KECCAK256 PUSH2 0x1FBE JUMP JUMPDEST POP PUSH1 0xFF PUSH1 0x3 DUP3 ADD SLOAD AND PUSH1 0x3 DUP2 LT ISZERO PUSH2 0x37C JUMPI PUSH1 0x1 SUB PUSH2 0x33E JUMPI PUSH1 0x2 ADD SWAP2 DUP3 SLOAD SWAP3 PUSH1 0xC8 DUP5 MUL DUP5 DUP2 DIV PUSH1 0xC8 EQ DUP6 ISZERO OR ISZERO PUSH2 0x328 JUMPI PUSH2 0x2710 SWAP1 DIV SWAP4 DUP5 DUP2 SUB SWAP1 DUP2 GT PUSH2 0x328 JUMPI PUSH1 0x1 SWAP1 SWAP4 ADD SLOAD PUSH32 0x24D2F6E8AC6C13D1E7610752AB0B7CE03D5043806A65D3D631AE859AD81D159B SWAP5 PUSH1 0x40 SWAP5 PUSH2 0x314 SWAP3 PUSH32 0x0 SWAP2 PUSH1 0x1 PUSH1 0x1 PUSH1 0xA0 SHL SUB SWAP2 PUSH2 0x30A SWAP2 SWAP1 DUP4 AND DUP5 PUSH2 0x24A0 JUMP JUMPDEST PUSH1 0xA SLOAD AND SWAP1 PUSH2 0x24A0 JUMP JUMPDEST SLOAD SWAP1 DUP3 MLOAD SWAP2 DUP3 MSTORE PUSH1 0x20 DUP3 ADD MSTORE LOG2 PUSH1 0x1 PUSH1 0x0 SSTORE STOP JUMPDEST PUSH4 0x4E487B71 PUSH1 0xE0 SHL PUSH1 0x0 MSTORE PUSH1 0x11 PUSH1 0x4 MSTORE PUSH1 0x24 PUSH1 0x0 REVERT JUMPDEST PUSH1 0x40 MLOAD PUSH3 0x461BCD PUSH1 0xE5 SHL DUP2 MSTORE PUSH1 0x20 PUSH1 0x4 DUP3 ADD MSTORE PUSH1 0x16 PUSH1 0x24 DUP3 ADD MSTORE PUSH22 0x135A5B195CDD1BDB99481B9BDD08185C1C1C9BDD9959 PUSH1 0x52 SHL PUSH1 0x44 DUP3 ADD MSTORE PUSH1 0x64 SWAP1 REVERT JUMPDEST PUSH4 0x4E487B71 PUSH1 0xE0 SHL PUSH1 0x0 MSTORE PUSH1 0x21 PUSH1 0x4 MSTORE PUSH1 0x24 PUSH1 0x0 REVERT JUMPDEST CALLVALUE PUSH2 0x1DF JUMPI PUSH2 0x3A0 CALLDATASIZE PUSH2 0x1F5E JUMP JUMPDEST PUSH2 0x3A8 PUSH2 0x240C JUMP JUMPDEST PUSH1 0xFF PUSH1 0x2 SLOAD AND PUSH2 0x858 JUMPI DUP2 PUSH1 0x0 MSTORE PUSH1 0x3 PUSH1 0x20 MSTORE PUSH1 0x40 PUSH1 0x0 KECCAK256 PUSH1 0xFF PUSH1 0x6 DUP3 ADD SLOAD AND PUSH1 0x4 DUP2 LT ISZERO PUSH2 0x37C JUMPI PUSH2 0x821 JUMPI PUSH1 0x8 DUP2 ADD SLOAD TIMESTAMP GT PUSH2 0x7DC JUMPI DUP2 ISZERO PUSH2 0x78C JUMPI PUSH2 0x3F4 DUP3 PUSH1 0x3 DUP4 ADD SLOAD PUSH2 0x230E JUMP JUMPDEST PUSH1 0x2 DUP3 ADD SLOAD LT PUSH2 0x74F JUMPI PUSH8 0xDE0B6B3A7640000 DUP3 LT PUSH2 0x70A JUMPI PUSH9 0x2B5E3AF16B1880000 DUP3 GT PUSH2 0x6C5 JUMPI PUSH2 0x449 DUP3 ADDRESS CALLER PUSH32 0x0 PUSH2 0x2350 JUMP JUMPDEST DUP3 PUSH1 0x0 MSTORE PUSH1 0x4 PUSH1 0x20 MSTORE PUSH1 0x40 PUSH1 0x0 KECCAK256 PUSH1 0x40 MLOAD SWAP1 PUSH2 0x464 DUP3 PUSH2 0x1E18 JUMP JUMPDEST CALLER DUP3 MSTORE DUP4 PUSH1 0x20 DUP4 ADD MSTORE TIMESTAMP PUSH1 0x40 DUP4 ADD MSTORE PUSH1 0x0 PUSH1 0x60 DUP4 ADD MSTORE DUP1 SLOAD PUSH1 0x1 PUSH1 0x40 SHL DUP2 LT ISZERO PUSH2 0x6A4 JUMPI PUSH2 0x497 SWAP2 PUSH1 0x1 DUP3 ADD DUP2 SSTORE PUSH2 0x1FA2 JUMP JUMPDEST PUSH2 0x68E JUMPI PUSH1 0x3 PUSH1 0x60 PUSH2 0x4EE SWAP4 PUSH1 0x1 DUP1 PUSH1 0xA0 SHL SUB DUP2 MLOAD AND PUSH12 0xFFFFFFFFFFFFFFFFFFFFFFFF PUSH1 0xA0 SHL DUP6 SLOAD AND OR DUP5 SSTORE PUSH1 0x20 DUP2 ADD MLOAD PUSH1 0x1 DUP6 ADD SSTORE PUSH1 0x40 DUP2 ADD MLOAD PUSH1 0x2 DUP6 ADD SSTORE ADD MLOAD ISZERO ISZERO SWAP2 ADD SWAP1 PUSH1 0xFF DUP1 NOT DUP4 SLOAD AND SWAP2 ISZERO ISZERO AND OR SWAP1 SSTORE JUMP JUMPDEST PUSH2 0x4FC DUP3 PUSH1 0x3 DUP4 ADD SLOAD PUSH2 0x230E JUMP JUMPDEST PUSH1 0x3 DUP3 ADD SSTORE CALLER PUSH1 0x0 MSTORE PUSH1 0x7 PUSH1 0x20 MSTORE PUSH2 0x518 DUP4 PUSH1 0x40 PUSH1 0x0 KECCAK256 PUSH2 0x231B JUMP JUMPDEST PUSH1 0x3 DUP2 ADD SLOAD PUSH1 0x2 DUP3 ADD SLOAD GT ISZERO PUSH2 0x55E JUMPI JUMPDEST POP SWAP1 PUSH1 0x40 MLOAD SWAP2 DUP3 MSTORE PUSH32 0x89728D542D77FAD9FE42C7D1F032C2B85F64CF938D754183B0E95359FBFAC8A1 PUSH1 0x20 CALLER SWAP4 LOG3 PUSH1 0x1 PUSH1 0x0 SSTORE STOP JUMPDEST PUSH1 0x6 PUSH1 0x1 PUSH1 0xFF NOT DUP3 DUP5 ADD SLOAD AND OR SWAP2 ADD SSTORE DUP2 PUSH1 0x0 MSTORE PUSH1 0x3 PUSH1 0x20 MSTORE PUSH1 0x40 PUSH1 0x0 KECCAK256 SWAP1 PUSH2 0x5B6 PUSH1 0x2 DUP4 ADD SLOAD PUSH2 0x5B1 PUSH2 0x596 PUSH1 0x5 DUP7 ADD SLOAD DUP4 PUSH2 0x246D JUMP JUMPDEST SWAP2 PUSH3 0x1D4C0 PUSH2 0x5AA PUSH1 0x4 DUP9 ADD SLOAD DUP1 SWAP6 PUSH2 0x246D JUMP JUMPDEST DIV SWAP1 PUSH2 0x230E JUMP JUMPDEST PUSH2 0x2480 JUMP JUMPDEST SWAP1 PUSH1 0x0 JUMPDEST PUSH1 0x4 DUP5 ADD SLOAD DUP2 LT ISZERO PUSH2 0x6BA JUMPI DUP5 PUSH1 0x0 MSTORE PUSH1 0x6 PUSH1 0x20 MSTORE PUSH1 0x40 PUSH1 0x0 KECCAK256 SWAP1 PUSH1 0x1 DUP2 ADD DUP1 DUP3 GT PUSH2 0x328 JUMPI PUSH3 0x278D00 DUP2 DUP2 DUP2 MUL DIV DUP2 EQ DUP3 ISZERO OR ISZERO PUSH2 0x328 JUMPI PUSH2 0x5FE SWAP2 MUL TIMESTAMP PUSH2 0x230E JUMP JUMPDEST SWAP2 PUSH1 0x40 MLOAD SWAP3 PUSH2 0x60C DUP5 PUSH2 0x1E18 JUMP JUMPDEST DUP8 DUP5 MSTORE DUP6 PUSH1 0x20 DUP6 ADD MSTORE PUSH1 0x40 DUP5 ADD MSTORE PUSH1 0x0 PUSH1 0x60 DUP5 ADD MSTORE DUP1 SLOAD PUSH1 0x1 PUSH1 0x40 SHL DUP2 LT ISZERO PUSH2 0x6A4 JUMPI PUSH2 0x63E SWAP2 PUSH1 0x1 DUP3 ADD DUP2 SSTORE PUSH2 0x1FA2 JUMP JUMPDEST SWAP2 SWAP1 SWAP2 PUSH2 0x68E JUMPI PUSH2 0x682 PUSH2 0x687 SWAP3 PUSH1 0x3 PUSH1 0x60 DUP7 PUSH1 0x4 SWAP8 MLOAD DUP5 SSTORE PUSH1 0x20 DUP2 ADD MLOAD PUSH1 0x1 DUP6 ADD SSTORE PUSH1 0x40 DUP2 ADD MLOAD PUSH1 0x2 DUP6 ADD SSTORE ADD MLOAD ISZERO ISZERO SWAP2 ADD SWAP1 PUSH1 0xFF DUP1 NOT DUP4 SLOAD AND SWAP2 ISZERO ISZERO AND OR SWAP1 SSTORE JUMP JUMPDEST PUSH2 0x22FF JUMP JUMPDEST SWAP1 POP PUSH2 0x5BA JUMP JUMPDEST PUSH4 0x4E487B71 PUSH1 0xE0 SHL PUSH1 0x0 MSTORE PUSH1 0x0 PUSH1 0x4 MSTORE PUSH1 0x24 PUSH1 0x0 REVERT JUMPDEST PUSH4 0x4E487B71 PUSH1 0xE0 SHL PUSH1 0x0 MSTORE PUSH1 0x41 PUSH1 0x4 MSTORE PUSH1 0x24 PUSH1 0x0 REVERT JUMPDEST POP SWAP2 POP DUP4 SWAP1 POP PUSH2 0x529 JUMP JUMPDEST PUSH1 0x40 MLOAD PUSH3 0x461BCD PUSH1 0xE5 SHL DUP2 MSTORE PUSH1 0x20 PUSH1 0x4 DUP3 ADD MSTORE PUSH1 0x1D PUSH1 0x24 DUP3 ADD MSTORE PUSH32 0x4D6178696D756D20696E766573746D656E742069732035302063555344000000 PUSH1 0x44 DUP3 ADD MSTORE PUSH1 0x64 SWAP1 REVERT JUMPDEST PUSH1 0x40 MLOAD PUSH3 0x461BCD PUSH1 0xE5 SHL DUP2 MSTORE PUSH1 0x20 PUSH1 0x4 DUP3 ADD MSTORE PUSH1 0x1C PUSH1 0x24 DUP3 ADD MSTORE PUSH32 0x4D696E696D756D20696E766573746D656E742069732031206355534400000000 PUSH1 0x44 DUP3 ADD MSTORE PUSH1 0x64 SWAP1 REVERT JUMPDEST PUSH1 0x40 MLOAD PUSH3 0x461BCD PUSH1 0xE5 SHL DUP2 MSTORE PUSH1 0x20 PUSH1 0x4 DUP3 ADD MSTORE PUSH1 0x15 PUSH1 0x24 DUP3 ADD MSTORE PUSH21 0x115E18D959591CC81D185C99D95D08185B5BDD5B9D PUSH1 0x5A SHL PUSH1 0x44 DUP3 ADD MSTORE PUSH1 0x64 SWAP1 REVERT JUMPDEST PUSH1 0x40 MLOAD PUSH3 0x461BCD PUSH1 0xE5 SHL DUP2 MSTORE PUSH1 0x20 PUSH1 0x4 DUP3 ADD MSTORE PUSH1 0x22 PUSH1 0x24 DUP3 ADD MSTORE PUSH32 0x496E766573746D656E7420616D6F756E74206D75737420626520706F73697469 PUSH1 0x44 DUP3 ADD MSTORE PUSH2 0x7665 PUSH1 0xF0 SHL PUSH1 0x64 DUP3 ADD MSTORE PUSH1 0x84 SWAP1 REVERT JUMPDEST PUSH1 0x40 MLOAD PUSH3 0x461BCD PUSH1 0xE5 SHL DUP2 MSTORE PUSH1 0x20 PUSH1 0x4 DUP3 ADD MSTORE PUSH1 0x17 PUSH1 0x24 DUP3 ADD MSTORE PUSH32 0x46756E64696E6720646561646C696E6520706173736564000000000000000000 PUSH1 0x44 DUP3 ADD MSTORE PUSH1 0x64 SWAP1 REVERT JUMPDEST PUSH1 0x40 MLOAD PUSH3 0x461BCD PUSH1 0xE5 SHL DUP2 MSTORE PUSH1 0x20 PUSH1 0x4 DUP3 ADD MSTORE PUSH1 0xF PUSH1 0x24 DUP3 ADD MSTORE PUSH15 0x506F6F6C206E6F7420616374697665 PUSH1 0x88 SHL PUSH1 0x44 DUP3 ADD MSTORE PUSH1 0x64 SWAP1 REVERT JUMPDEST PUSH1 0x40 MLOAD PUSH4 0xD93C0665 PUSH1 0xE0 SHL DUP2 MSTORE PUSH1 0x4 SWAP1 REVERT JUMPDEST CALLVALUE PUSH2 0x1DF JUMPI PUSH1 0x40 CALLDATASIZE PUSH1 0x3 NOT ADD SLT PUSH2 0x1DF JUMPI PUSH2 0x8A9 PUSH1 0x4 CALLDATALOAD PUSH2 0x889 PUSH2 0x1F0D JUMP JUMPDEST SWAP1 DUP1 PUSH1 0x0 MSTORE PUSH1 0x1 PUSH1 0x20 MSTORE PUSH2 0x8A4 PUSH1 0x1 PUSH1 0x40 PUSH1 0x0 KECCAK256 ADD SLOAD PUSH2 0x2134 JUMP JUMPDEST PUSH2 0x2288 JUMP JUMPDEST STOP JUMPDEST CALLVALUE PUSH2 0x1DF JUMPI PUSH1 0x20 CALLDATASIZE PUSH1 0x3 NOT ADD SLT PUSH2 0x1DF JUMPI PUSH1 0x4 CALLDATALOAD PUSH2 0x8C7 PUSH2 0x20BA JUMP JUMPDEST DUP1 PUSH1 0x0 MSTORE PUSH1 0x3 PUSH1 0x20 MSTORE PUSH1 0x6 PUSH1 0x40 PUSH1 0x0 KECCAK256 ADD PUSH1 0x2 PUSH1 0xFF NOT DUP3 SLOAD AND OR SWAP1 SSTORE PUSH32 0xF904335B6224DED662A2FC2C71E26FE596A5F9622A67726F3C609AF2FC5FAC58 PUSH1 0x20 PUSH1 0x40 MLOAD PUSH1 0x2 DUP2 MSTORE LOG2 STOP JUMPDEST CALLVALUE PUSH2 0x1DF JUMPI PUSH1 0x20 CALLDATASIZE PUSH1 0x3 NOT ADD SLT PUSH2 0x1DF JUMPI PUSH1 0x4 CALLDATALOAD PUSH1 0x0 MSTORE PUSH1 0x3 PUSH1 0x20 MSTORE PUSH1 0x20 PUSH1 0x40 PUSH1 0x0 KECCAK256 PUSH2 0x9E5 DUP2 SLOAD SWAP2 PUSH2 0x9D6 PUSH1 0x1 DUP1 PUSH1 0xA0 SHL SUB PUSH1 0x1 DUP4 ADD SLOAD AND SWAP2 PUSH1 0x2 DUP2 ADD SLOAD PUSH1 0x3 DUP3 ADD SLOAD PUSH2 0x9B9 PUSH1 0x4 DUP5 ADD SLOAD PUSH1 0x5 DUP6 ADD SLOAD PUSH1 0xFF PUSH1 0x6 DUP8 ADD SLOAD AND SWAP2 PUSH1 0x7 DUP8 ADD SLOAD SWAP5 PUSH1 0x8 DUP9 ADD SLOAD SWAP7 PUSH2 0x98E PUSH1 0xA PUSH2 0x987 PUSH1 0x9 DUP13 ADD PUSH2 0x2014 JUMP JUMPDEST SWAP11 ADD PUSH2 0x2014 JUMP JUMPDEST SWAP11 PUSH1 0x40 MLOAD SWAP15 DUP16 SWAP15 DUP16 SWAP1 DUP2 MSTORE ADD MSTORE PUSH1 0x40 DUP14 ADD MSTORE PUSH1 0x60 DUP13 ADD MSTORE PUSH1 0x80 DUP12 ADD MSTORE PUSH1 0xA0 DUP11 ADD MSTORE PUSH1 0xC0 DUP10 ADD SWAP1 PUSH2 0x1EAA JUMP JUMPDEST PUSH1 0xE0 DUP8 ADD MSTORE PUSH2 0x100 DUP7 ADD MSTORE PUSH2 0x160 DUP1 PUSH2 0x120 DUP8 ADD MSTORE DUP6 ADD SWAP1 PUSH2 0x1EB7 JUMP JUMPDEST SWAP1 DUP4 DUP3 SUB PUSH2 0x140 DUP6 ADD MSTORE PUSH2 0x1EB7 JUMP JUMPDEST SUB SWAP1 RETURN JUMPDEST CALLVALUE PUSH2 0x1DF JUMPI PUSH1 0x20 DUP1 PUSH1 0x3 NOT CALLDATASIZE ADD SLT PUSH2 0x1DF JUMPI PUSH1 0x4 CALLDATALOAD PUSH1 0x0 MSTORE PUSH1 0x4 DUP2 MSTORE PUSH1 0x40 PUSH1 0x0 KECCAK256 SWAP1 DUP2 SLOAD PUSH1 0x1 PUSH1 0x1 PUSH1 0x40 SHL SUB DUP2 GT PUSH2 0x6A4 JUMPI PUSH1 0x40 MLOAD SWAP1 PUSH2 0xA2E DUP4 DUP3 PUSH1 0x5 SHL ADD DUP4 PUSH2 0x1E33 JUMP JUMPDEST DUP1 DUP3 MSTORE DUP3 DUP3 ADD DUP1 SWAP5 PUSH1 0x0 MSTORE DUP4 PUSH1 0x0 KECCAK256 PUSH1 0x0 SWAP2 JUMPDEST DUP4 DUP4 LT PUSH2 0xAAC JUMPI PUSH1 0x40 DUP1 MLOAD DUP8 DUP2 MSTORE DUP7 MLOAD DUP2 DUP10 ADD DUP2 SWAP1 MSTORE DUP10 SWAP3 DUP3 ADD SWAP1 DUP10 PUSH1 0x0 JUMPDEST DUP3 DUP2 LT PUSH2 0xA6D JUMPI DUP5 DUP5 SUB DUP6 RETURN JUMPDEST DUP6 MLOAD DUP1 MLOAD PUSH1 0x1 PUSH1 0x1 PUSH1 0xA0 SHL SUB AND DUP6 MSTORE DUP1 DUP4 ADD MLOAD DUP6 DUP5 ADD MSTORE PUSH1 0x40 DUP1 DUP3 ADD MLOAD SWAP1 DUP7 ADD MSTORE PUSH1 0x60 SWAP1 DUP2 ADD MLOAD ISZERO ISZERO SWAP1 DUP6 ADD MSTORE SWAP5 DUP2 ADD SWAP5 PUSH1 0x80 SWAP1 SWAP4 ADD SWAP3 PUSH1 0x1 ADD PUSH2 0xA60 JUMP JUMPDEST PUSH1 0x4 DUP7 PUSH1 0x1 SWAP3 PUSH1 0x40 MLOAD PUSH2 0xABE DUP2 PUSH2 0x1E18 JUMP JUMPDEST DUP5 DUP1 PUSH1 0xA0 SHL SUB DUP7 SLOAD AND DUP2 MSTORE DUP5 DUP7 ADD SLOAD DUP4 DUP3 ADD MSTORE PUSH1 0x2 DUP7 ADD SLOAD PUSH1 0x40 DUP3 ADD MSTORE PUSH1 0xFF PUSH1 0x3 DUP8 ADD SLOAD AND ISZERO ISZERO PUSH1 0x60 DUP3 ADD MSTORE DUP2 MSTORE ADD SWAP3 ADD SWAP3 ADD SWAP2 SWAP1 PUSH2 0xA41 JUMP JUMPDEST CALLVALUE PUSH2 0x1DF JUMPI PUSH1 0x0 CALLDATASIZE PUSH1 0x3 NOT ADD SLT PUSH2 0x1DF JUMPI PUSH1 0x20 PUSH1 0x40 MLOAD PUSH1 0x0 DUP2 MSTORE RETURN JUMPDEST CALLVALUE PUSH2 0x1DF JUMPI PUSH1 0x80 CALLDATASIZE PUSH1 0x3 NOT ADD SLT PUSH2 0x1DF JUMPI PUSH1 0x4 CALLDATALOAD PUSH1 0x24 CALLDATALOAD PUSH1 0x1 PUSH1 0x1 PUSH1 0x40 SHL SUB DUP2 GT PUSH2 0x1DF JUMPI PUSH2 0xB47 SWAP1 CALLDATASIZE SWAP1 PUSH1 0x4 ADD PUSH2 0x1E54 JUMP JUMPDEST PUSH1 0x0 DUP3 DUP2 MSTORE PUSH1 0x3 PUSH1 0x20 MSTORE PUSH1 0x40 SWAP1 KECCAK256 PUSH1 0x1 DUP2 ADD SLOAD PUSH1 0x1 PUSH1 0x1 PUSH1 0xA0 SHL SUB AND CALLER SUB PUSH2 0xE89 JUMPI PUSH1 0x6 ADD SLOAD PUSH1 0xFF AND PUSH1 0x4 DUP2 LT ISZERO PUSH2 0x37C JUMPI PUSH1 0x1 PUSH2 0xB85 SWAP2 EQ PUSH2 0x242F JUMP JUMPDEST DUP2 PUSH1 0x0 MSTORE PUSH1 0x5 PUSH1 0x20 MSTORE PUSH1 0x40 PUSH1 0x0 KECCAK256 SWAP1 PUSH1 0x40 MLOAD SWAP3 PUSH1 0xC0 DUP5 ADD DUP5 DUP2 LT PUSH1 0x1 PUSH1 0x1 PUSH1 0x40 SHL SUB DUP3 GT OR PUSH2 0x6A4 JUMPI PUSH1 0x40 MSTORE DUP4 MSTORE PUSH1 0x20 DUP4 ADD MSTORE PUSH1 0x44 CALLDATALOAD PUSH1 0x40 DUP4 ADD MSTORE PUSH1 0x0 PUSH1 0x60 DUP4 ADD MSTORE PUSH1 0x64 CALLDATALOAD PUSH1 0x80 DUP4 ADD MSTORE PUSH1 0x40 MLOAD DUP1 PUSH1 0x20 DUP2 ADD LT PUSH1 0x1 PUSH1 0x1 PUSH1 0x40 SHL SUB PUSH1 0x20 DUP4 ADD GT OR PUSH2 0x6A4 JUMPI PUSH1 0x20 DUP2 ADD PUSH1 0x40 MSTORE PUSH1 0x0 DUP2 MSTORE PUSH1 0xA0 DUP4 ADD MSTORE DUP1 SLOAD PUSH1 0x1 PUSH1 0x40 SHL DUP2 LT ISZERO PUSH2 0x6A4 JUMPI PUSH2 0xC17 SWAP2 PUSH1 0x1 DUP3 ADD DUP2 SSTORE PUSH2 0x1FBE JUMP JUMPDEST SWAP2 SWAP1 SWAP2 PUSH2 0x68E JUMPI DUP1 MLOAD DUP3 SSTORE PUSH1 0x20 DUP2 ADD MLOAD SWAP2 DUP3 MLOAD PUSH1 0x1 PUSH1 0x1 PUSH1 0x40 SHL SUB DUP2 GT PUSH2 0x6A4 JUMPI PUSH2 0xC45 PUSH1 0x1 DUP4 ADD SLOAD PUSH2 0x1FDA JUMP JUMPDEST PUSH1 0x1F DUP2 GT PUSH2 0xE42 JUMPI JUMPDEST POP PUSH1 0x20 PUSH1 0x1F DUP3 GT PUSH1 0x1 EQ PUSH2 0xDD4 JUMPI DUP2 SWAP3 SWAP4 SWAP5 PUSH1 0x0 SWAP3 PUSH2 0xDC9 JUMPI JUMPDEST POP POP DUP2 PUSH1 0x1 SHL SWAP2 PUSH1 0x0 NOT SWAP1 PUSH1 0x3 SHL SHR NOT AND OR PUSH1 0x1 DUP3 ADD SSTORE JUMPDEST PUSH1 0x40 DUP3 ADD MLOAD PUSH1 0x2 DUP3 ADD SSTORE PUSH1 0x3 DUP2 ADD SWAP1 PUSH1 0x60 DUP4 ADD MLOAD SWAP1 PUSH1 0x3 DUP3 LT ISZERO PUSH2 0x37C JUMPI PUSH1 0xA0 SWAP3 PUSH1 0x5 SWAP3 PUSH1 0xFF DUP1 NOT DUP4 SLOAD AND SWAP2 AND OR SWAP1 SSTORE PUSH1 0x80 DUP5 ADD MLOAD PUSH1 0x4 DUP3 ADD SSTORE ADD SWAP2 ADD MLOAD SWAP1 DUP2 MLOAD PUSH1 0x1 PUSH1 0x1 PUSH1 0x40 SHL SUB DUP2 GT PUSH2 0x6A4 JUMPI PUSH2 0xCD9 DUP3 SLOAD PUSH2 0x1FDA JUMP JUMPDEST PUSH1 0x1F DUP2 GT PUSH2 0xD81 JUMPI JUMPDEST POP PUSH1 0x20 SWAP3 PUSH1 0x1F DUP3 GT PUSH1 0x1 EQ PUSH2 0xD20 JUMPI SWAP3 DUP2 SWAP3 SWAP4 PUSH1 0x0 SWAP3 PUSH2 0xD15 JUMPI JUMPDEST POP POP PUSH1 0x0 NOT PUSH1 0x3 DUP4 SWAP1 SHL SHR NOT AND PUSH1 0x1 SWAP2 SWAP1 SWAP2 SHL OR SWAP1 SSTORE STOP JUMPDEST ADD MLOAD SWAP1 POP DUP4 DUP1 PUSH2 0xCFD JUMP JUMPDEST PUSH1 0x1F NOT DUP3 AND SWAP4 DUP4 PUSH1 0x0 MSTORE PUSH1 0x20 PUSH1 0x0 KECCAK256 SWAP2 PUSH1 0x0 JUMPDEST DUP7 DUP2 LT PUSH2 0xD69 JUMPI POP DUP4 PUSH1 0x1 SWAP6 SWAP7 LT PUSH2 0xD50 JUMPI JUMPDEST POP POP POP DUP2 SHL ADD SWAP1 SSTORE STOP JUMPDEST ADD MLOAD PUSH1 0x0 NOT PUSH1 0xF8 DUP5 PUSH1 0x3 SHL AND SHR NOT AND SWAP1 SSTORE DUP4 DUP1 DUP1 PUSH2 0xD46 JUMP JUMPDEST SWAP2 SWAP3 PUSH1 0x20 PUSH1 0x1 DUP2 SWAP3 DUP7 DUP6 ADD MLOAD DUP2 SSTORE ADD SWAP5 ADD SWAP3 ADD PUSH2 0xD33 JUMP JUMPDEST DUP3 PUSH1 0x0 MSTORE PUSH1 0x20 PUSH1 0x0 KECCAK256 PUSH1 0x1F DUP4 ADD PUSH1 0x5 SHR DUP2 ADD SWAP2 PUSH1 0x20 DUP5 LT PUSH2 0xDBF JUMPI JUMPDEST PUSH1 0x1F ADD PUSH1 0x5 SHR ADD SWAP1 JUMPDEST DUP2 DUP2 LT PUSH2 0xDB3 JUMPI POP PUSH2 0xCE2 JUMP JUMPDEST PUSH1 0x0 DUP2 SSTORE PUSH1 0x1 ADD PUSH2 0xDA6 JUMP JUMPDEST SWAP1 SWAP2 POP DUP2 SWAP1 PUSH2 0xD9D JUMP JUMPDEST ADD MLOAD SWAP1 POP DUP5 DUP1 PUSH2 0xC68 JUMP JUMPDEST PUSH1 0x1 DUP4 ADD PUSH1 0x0 MSTORE PUSH1 0x20 PUSH1 0x0 KECCAK256 SWAP1 PUSH1 0x0 JUMPDEST PUSH1 0x1F NOT DUP5 AND DUP2 LT PUSH2 0xE2A JUMPI POP PUSH1 0x1 SWAP4 SWAP5 SWAP6 DUP4 PUSH1 0x1F NOT DUP2 AND LT PUSH2 0xE11 JUMPI JUMPDEST POP POP POP DUP2 SHL ADD PUSH1 0x1 DUP3 ADD SSTORE PUSH2 0xC80 JUMP JUMPDEST ADD MLOAD PUSH1 0x0 NOT PUSH1 0xF8 DUP5 PUSH1 0x3 SHL AND SHR NOT AND SWAP1 SSTORE DUP5 DUP1 DUP1 PUSH2 0xE01 JUMP JUMPDEST SWAP1 SWAP2 PUSH1 0x20 PUSH1 0x1 DUP2 SWAP3 DUP6 DUP11 ADD MLOAD DUP2 SSTORE ADD SWAP4 ADD SWAP2 ADD PUSH2 0xDE4 JUMP JUMPDEST PUSH1 0x1 DUP4 ADD PUSH1 0x0 MSTORE PUSH1 0x20 PUSH1 0x0 KECCAK256 PUSH1 0x1F DUP4 ADD PUSH1 0x5 SHR DUP2 ADD PUSH1 0x20 DUP5 LT PUSH2 0xE82 JUMPI JUMPDEST PUSH1 0x1F DUP4 ADD PUSH1 0x5 SHR DUP3 ADD DUP2 LT PUSH2 0xE76 JUMPI POP POP PUSH2 0xC4E JUMP JUMPDEST PUSH1 0x0 DUP2 SSTORE PUSH1 0x1 ADD PUSH2 0xE60 JUMP JUMPDEST POP DUP1 PUSH2 0xE60 JUMP JUMPDEST PUSH1 0x40 MLOAD PUSH3 0x461BCD PUSH1 0xE5 SHL DUP2 MSTORE PUSH1 0x20 PUSH1 0x4 DUP3 ADD MSTORE PUSH1 0x13 PUSH1 0x24 DUP3 ADD MSTORE PUSH19 0x27B7363C90313AB9B4B732B9B99037BBB732B9 PUSH1 0x69 SHL PUSH1 0x44 DUP3 ADD MSTORE PUSH1 0x64 SWAP1 REVERT JUMPDEST CALLVALUE PUSH2 0x1DF JUMPI PUSH1 0x40 CALLDATASIZE PUSH1 0x3 NOT ADD SLT PUSH2 0x1DF JUMPI PUSH2 0xEDD PUSH2 0x1F0D JUMP JUMPDEST PUSH1 0x4 CALLDATALOAD PUSH1 0x0 MSTORE PUSH1 0x1 PUSH1 0x20 MSTORE PUSH1 0x40 PUSH1 0x0 KECCAK256 SWAP1 PUSH1 0x1 DUP1 PUSH1 0xA0 SHL SUB AND PUSH1 0x0 MSTORE PUSH1 0x20 MSTORE PUSH1 0x20 PUSH1 0xFF PUSH1 0x40 PUSH1 0x0 KECCAK256 SLOAD AND PUSH1 0x40 MLOAD SWAP1 ISZERO ISZERO DUP2 MSTORE RETURN JUMPDEST CALLVALUE PUSH2 0x1DF JUMPI PUSH2 0xF1F CALLDATASIZE PUSH2 0x1F5E JUMP JUMPDEST SWAP1 PUSH1 0x0 MSTORE PUSH1 0x4 PUSH1 0x20 MSTORE PUSH1 0x40 PUSH1 0x0 KECCAK256 DUP1 SLOAD DUP3 LT ISZERO PUSH2 0x1DF JUMPI PUSH1 0x80 SWAP2 PUSH2 0xF42 SWAP2 PUSH2 0x1FA2 JUMP JUMPDEST POP PUSH1 0x1 DUP1 PUSH1 0xA0 SHL SUB DUP2 SLOAD AND SWAP1 PUSH1 0x1 DUP2 ADD SLOAD SWAP1 PUSH1 0xFF PUSH1 0x3 PUSH1 0x2 DUP4 ADD SLOAD SWAP3 ADD SLOAD AND SWAP2 PUSH1 0x40 MLOAD SWAP4 DUP5 MSTORE PUSH1 0x20 DUP5 ADD MSTORE PUSH1 0x40 DUP4 ADD MSTORE ISZERO ISZERO PUSH1 0x60 DUP3 ADD MSTORE RETURN JUMPDEST CALLVALUE PUSH2 0x1DF JUMPI PUSH1 0x0 CALLDATASIZE PUSH1 0x3 NOT ADD SLT PUSH2 0x1DF JUMPI PUSH1 0x20 PUSH1 0x40 MLOAD PUSH32 0xA49807205CE4D355092EF5A8A18F56E8913CF4A201FBE287825B095693C21775 DUP2 MSTORE RETURN JUMPDEST CALLVALUE PUSH2 0x1DF JUMPI PUSH2 0xFC4 CALLDATASIZE PUSH2 0x1F5E JUMP JUMPDEST SWAP1 PUSH2 0xFCD PUSH2 0x240C JUMP JUMPDEST PUSH1 0x0 DUP2 DUP2 MSTORE PUSH1 0x3 PUSH1 0x20 MSTORE PUSH1 0x40 SWAP1 KECCAK256 PUSH1 0x1 ADD SLOAD PUSH1 0x1 PUSH1 0x1 PUSH1 0xA0 SHL SUB AND CALLER SUB PUSH2 0x11CE JUMPI DUP1 PUSH1 0x0 MSTORE PUSH1 0x6 PUSH1 0x20 MSTORE PUSH2 0x1005 DUP3 PUSH1 0x40 PUSH1 0x0 KECCAK256 PUSH2 0x1FA2 JUMP JUMPDEST POP SWAP1 PUSH1 0x3 DUP3 ADD SWAP3 PUSH1 0xFF SWAP4 DUP5 DUP2 SLOAD AND PUSH2 0x119A JUMPI PUSH1 0x2 SWAP1 DUP2 DUP6 ADD SLOAD PUSH3 0x93A80 DUP2 ADD DUP1 SWAP2 GT PUSH2 0x328 JUMPI TIMESTAMP GT PUSH2 0x115C JUMPI PUSH2 0x1061 PUSH1 0x1 DUP7 ADD SLOAD ADDRESS CALLER PUSH32 0x0 PUSH2 0x2350 JUMP JUMPDEST PUSH1 0x1 PUSH1 0xFF NOT DUP3 SLOAD AND OR SWAP1 SSTORE PUSH1 0x1 DUP5 ADD SLOAD SWAP5 DUP4 PUSH1 0x0 MSTORE PUSH1 0x3 PUSH1 0x20 MSTORE PUSH1 0x40 PUSH1 0x0 KECCAK256 SWAP4 PUSH1 0x4 PUSH1 0x20 MSTORE PUSH1 0x40 PUSH1 0x0 KECCAK256 SWAP4 PUSH1 0x0 JUMPDEST DUP6 SLOAD DUP2 LT ISZERO PUSH2 0x111F JUMPI DUP1 DUP5 PUSH1 0x3 PUSH2 0x10A9 PUSH2 0x10B7 SWAP5 DUP11 PUSH2 0x1FA2 JUMP JUMPDEST POP ADD SLOAD AND ISZERO PUSH2 0x10BC JUMPI PUSH2 0x22FF JUMP JUMPDEST PUSH2 0x108F JUMP JUMPDEST PUSH2 0x682 PUSH2 0x10E4 PUSH2 0x10DA PUSH1 0x1 PUSH2 0x10D1 DUP6 DUP13 PUSH2 0x1FA2 JUMP JUMPDEST POP ADD SLOAD DUP14 PUSH2 0x246D JUMP JUMPDEST DUP9 DUP12 ADD SLOAD SWAP1 PUSH2 0x2480 JUMP JUMPDEST PUSH2 0x10EE DUP4 DUP11 PUSH2 0x1FA2 JUMP JUMPDEST POP SLOAD PUSH1 0x1 PUSH1 0x1 PUSH1 0xA0 SHL SUB AND PUSH32 0x0 PUSH2 0x24A0 JUMP JUMPDEST POP PUSH1 0x40 PUSH32 0x1AD611755E340443B2DA9AD4B0BA6431CA00C2F6BBDA5B5BDF5C7306F9FFB84A SWAP2 PUSH1 0x1 DUP10 ADD SLOAD SWAP1 DUP3 MLOAD SWAP2 DUP3 MSTORE PUSH1 0x20 DUP3 ADD MSTORE LOG2 PUSH1 0x1 PUSH1 0x0 SSTORE STOP JUMPDEST PUSH1 0x40 MLOAD PUSH3 0x461BCD PUSH1 0xE5 SHL DUP2 MSTORE PUSH1 0x20 PUSH1 0x4 DUP3 ADD MSTORE PUSH1 0x16 PUSH1 0x24 DUP3 ADD MSTORE PUSH22 0x14185E5B595B9D081DDA5B991BDDC8195E1C1A5C9959 PUSH1 0x52 SHL PUSH1 0x44 DUP3 ADD MSTORE PUSH1 0x64 SWAP1 REVERT JUMPDEST PUSH1 0x40 MLOAD PUSH3 0x461BCD PUSH1 0xE5 SHL DUP2 MSTORE PUSH1 0x20 PUSH1 0x4 DUP3 ADD MSTORE PUSH1 0xC PUSH1 0x24 DUP3 ADD MSTORE PUSH12 0x105B1C9958591E481C185A59 PUSH1 0xA2 SHL PUSH1 0x44 DUP3 ADD MSTORE PUSH1 0x64 SWAP1 REVERT JUMPDEST PUSH1 0x40 MLOAD PUSH3 0x461BCD PUSH1 0xE5 SHL DUP2 MSTORE PUSH1 0x20 PUSH1 0x4 DUP3 ADD MSTORE PUSH1 0x1D PUSH1 0x24 DUP3 ADD MSTORE PUSH32 0x4F6E6C7920627573696E657373206F776E65722063616E207265706179000000 PUSH1 0x44 DUP3 ADD MSTORE PUSH1 0x64 SWAP1 REVERT JUMPDEST CALLVALUE PUSH2 0x1DF JUMPI PUSH2 0x1221 CALLDATASIZE PUSH2 0x1F5E JUMP JUMPDEST SWAP1 PUSH1 0x0 MSTORE PUSH1 0x5 PUSH1 0x20 MSTORE PUSH1 0x40 PUSH1 0x0 KECCAK256 SWAP1 DUP2 SLOAD DUP2 LT ISZERO PUSH2 0x1DF JUMPI PUSH2 0x1242 SWAP2 PUSH2 0x1FBE JUMP JUMPDEST POP DUP1 SLOAD SWAP1 PUSH2 0x1252 PUSH1 0x1 DUP3 ADD PUSH2 0x2014 JUMP JUMPDEST PUSH1 0x2 DUP3 ADD SLOAD PUSH1 0xFF PUSH1 0x3 DUP5 ADD SLOAD AND SWAP2 PUSH2 0x128C PUSH2 0x1274 PUSH1 0x5 PUSH1 0x4 DUP8 ADD SLOAD SWAP7 ADD PUSH2 0x2014 JUMP JUMPDEST SWAP2 PUSH1 0x40 MLOAD SWAP7 DUP8 MSTORE PUSH1 0xC0 PUSH1 0x20 DUP9 ADD MSTORE PUSH1 0xC0 DUP8 ADD SWAP1 PUSH2 0x1EB7 JUMP JUMPDEST SWAP2 PUSH1 0x40 DUP7 ADD MSTORE PUSH1 0x3 DUP4 LT ISZERO PUSH2 0x37C JUMPI DUP5 SWAP4 PUSH2 0x9E5 SWAP4 PUSH1 0x60 DUP7 ADD MSTORE PUSH1 0x80 DUP6 ADD MSTORE DUP4 DUP3 SUB PUSH1 0xA0 DUP6 ADD MSTORE PUSH2 0x1EB7 JUMP JUMPDEST CALLVALUE PUSH2 0x1DF JUMPI PUSH2 0x12C6 CALLDATASIZE PUSH2 0x1F5E JUMP JUMPDEST SWAP1 PUSH1 0x0 MSTORE PUSH1 0x6 PUSH1 0x20 MSTORE PUSH1 0x40 PUSH1 0x0 KECCAK256 DUP1 SLOAD DUP3 LT ISZERO PUSH2 0x1DF JUMPI PUSH1 0x80 SWAP2 PUSH2 0x12E9 SWAP2 PUSH2 0x1FA2 JUMP JUMPDEST POP DUP1 SLOAD SWAP1 PUSH1 0x1 DUP2 ADD SLOAD SWAP1 PUSH1 0xFF PUSH1 0x3 PUSH1 0x2 DUP4 ADD SLOAD SWAP3 ADD SLOAD AND SWAP2 PUSH1 0x40 MLOAD SWAP4 DUP5 MSTORE PUSH1 0x20 DUP5 ADD MSTORE PUSH1 0x40 DUP4 ADD MSTORE ISZERO ISZERO PUSH1 0x60 DUP3 ADD MSTORE RETURN JUMPDEST CALLVALUE PUSH2 0x1DF JUMPI PUSH1 0x0 CALLDATASIZE PUSH1 0x3 NOT ADD SLT PUSH2 0x1DF JUMPI PUSH1 0x20 PUSH1 0xFF PUSH1 0x2 SLOAD AND PUSH1 0x40 MLOAD SWAP1 ISZERO ISZERO DUP2 MSTORE RETURN JUMPDEST CALLVALUE PUSH2 0x1DF JUMPI PUSH1 0x20 CALLDATASIZE PUSH1 0x3 NOT ADD SLT PUSH2 0x1DF JUMPI PUSH1 0x4 CALLDATALOAD PUSH2 0x1359 PUSH2 0x20BA JUMP JUMPDEST DUP1 PUSH1 0x0 MSTORE PUSH1 0x3 PUSH1 0x20 MSTORE PUSH1 0x6 PUSH1 0x40 PUSH1 0x0 KECCAK256 ADD PUSH1 0x3 PUSH1 0xFF NOT DUP3 SLOAD AND OR SWAP1 SSTORE PUSH32 0xF904335B6224DED662A2FC2C71E26FE596A5F9622A67726F3C609AF2FC5FAC58 PUSH1 0x20 PUSH1 0x40 MLOAD PUSH1 0x3 DUP2 MSTORE LOG2 STOP JUMPDEST CALLVALUE PUSH2 0x1DF JUMPI PUSH1 0x0 CALLDATASIZE PUSH1 0x3 NOT ADD SLT PUSH2 0x1DF JUMPI PUSH1 0xA SLOAD PUSH1 0x40 MLOAD PUSH1 0x1 PUSH1 0x1 PUSH1 0xA0 SHL SUB SWAP1 SWAP2 AND DUP2 MSTORE PUSH1 0x20 SWAP1 RETURN JUMPDEST CALLVALUE PUSH2 0x1DF JUMPI PUSH1 0x40 CALLDATASIZE PUSH1 0x3 NOT ADD SLT PUSH2 0x1DF JUMPI PUSH2 0x13E4 PUSH2 0x1F0D JUMP JUMPDEST CALLER PUSH1 0x1 PUSH1 0x1 PUSH1 0xA0 SHL SUB DUP3 AND SUB PUSH2 0x1400 JUMPI PUSH2 0x8A9 SWAP1 PUSH1 0x4 CALLDATALOAD PUSH2 0x2288 JUMP JUMPDEST PUSH1 0x40 MLOAD PUSH4 0x334BD919 PUSH1 0xE1 SHL DUP2 MSTORE PUSH1 0x4 SWAP1 REVERT JUMPDEST CALLVALUE PUSH2 0x1DF JUMPI PUSH1 0x0 CALLDATASIZE PUSH1 0x3 NOT ADD SLT PUSH2 0x1DF JUMPI PUSH1 0x20 PUSH1 0x40 MLOAD PUSH1 0xC8 DUP2 MSTORE RETURN JUMPDEST CALLVALUE PUSH2 0x1DF JUMPI PUSH1 0x20 DUP1 PUSH1 0x3 NOT CALLDATASIZE ADD SLT PUSH2 0x1DF JUMPI PUSH1 0x1 PUSH1 0x1 PUSH1 0xA0 SHL SUB PUSH2 0x1450 PUSH2 0x1EF7 JUMP JUMPDEST AND PUSH1 0x0 MSTORE PUSH1 0x7 DUP2 MSTORE PUSH1 0x40 PUSH1 0x0 KECCAK256 SWAP1 PUSH1 0x40 MLOAD SWAP1 DUP2 DUP2 DUP5 SLOAD SWAP2 DUP3 DUP2 MSTORE ADD SWAP4 PUSH1 0x0 MSTORE DUP2 PUSH1 0x0 KECCAK256 SWAP2 PUSH1 0x0 SWAP1 JUMPDEST DUP3 DUP3 LT PUSH2 0x149B JUMPI PUSH2 0x9E5 DUP6 PUSH2 0x148F DUP2 DUP10 SUB DUP3 PUSH2 0x1E33 JUMP JUMPDEST PUSH1 0x40 MLOAD SWAP2 DUP3 SWAP2 DUP3 PUSH2 0x1F23 JUMP JUMPDEST DUP4 SLOAD DUP7 MSTORE SWAP5 DUP6 ADD SWAP5 PUSH1 0x1 SWAP4 DUP5 ADD SWAP4 SWAP1 SWAP2 ADD SWAP1 PUSH2 0x1478 JUMP JUMPDEST CALLVALUE PUSH2 0x1DF JUMPI PUSH1 0x0 CALLDATASIZE PUSH1 0x3 NOT ADD SLT PUSH2 0x1DF JUMPI PUSH1 0x20 PUSH1 0x40 MLOAD PUSH32 0x966A00E53C991954F9346CF783097BE60911B589DD69FF02C7A9FD1C79215029 DUP2 MSTORE RETURN JUMPDEST CALLVALUE PUSH2 0x1DF JUMPI PUSH1 0x40 CALLDATASIZE PUSH1 0x3 NOT ADD SLT PUSH2 0x1DF JUMPI PUSH2 0x8A9 PUSH1 0x4 CALLDATALOAD PUSH2 0x150C PUSH2 0x1F0D JUMP JUMPDEST SWAP1 DUP1 PUSH1 0x0 MSTORE PUSH1 0x1 PUSH1 0x20 MSTORE PUSH2 0x1527 PUSH1 0x1 PUSH1 0x40 PUSH1 0x0 KECCAK256 ADD SLOAD PUSH2 0x2134 JUMP JUMPDEST PUSH2 0x220D JUMP JUMPDEST CALLVALUE PUSH2 0x1DF JUMPI PUSH1 0x40 CALLDATASIZE PUSH1 0x3 NOT ADD SLT PUSH2 0x1DF JUMPI PUSH2 0x1545 PUSH2 0x1EF7 JUMP JUMPDEST PUSH1 0x1 PUSH1 0x1 PUSH1 0xA0 SHL SUB AND PUSH1 0x0 SWAP1 DUP2 MSTORE PUSH1 0x8 PUSH1 0x20 MSTORE PUSH1 0x40 SWAP1 KECCAK256 DUP1 SLOAD PUSH1 0x24 CALLDATALOAD SWAP2 SWAP1 DUP3 LT ISZERO PUSH2 0x1DF JUMPI PUSH1 0x20 SWAP2 PUSH2 0x1D1 SWAP2 PUSH2 0x1F74 JUMP JUMPDEST CALLVALUE PUSH2 0x1DF JUMPI PUSH1 0x20 CALLDATASIZE PUSH1 0x3 NOT ADD SLT PUSH2 0x1DF JUMPI PUSH1 0x4 CALLDATALOAD PUSH1 0x0 MSTORE PUSH1 0x1 PUSH1 0x20 MSTORE PUSH1 0x20 PUSH1 0x1 PUSH1 0x40 PUSH1 0x0 KECCAK256 ADD SLOAD PUSH1 0x40 MLOAD SWAP1 DUP2 MSTORE RETURN JUMPDEST CALLVALUE PUSH2 0x1DF JUMPI PUSH1 0x3 PUSH2 0x15D3 PUSH2 0x15B8 CALLDATASIZE PUSH2 0x1F5E JUMP JUMPDEST SWAP1 PUSH2 0x15C1 PUSH2 0x20BA JUMP JUMPDEST PUSH1 0x0 MSTORE PUSH1 0x5 PUSH1 0x20 MSTORE PUSH1 0x40 PUSH1 0x0 KECCAK256 PUSH2 0x1FBE JUMP JUMPDEST POP ADD DUP1 SLOAD PUSH1 0xFF NOT AND PUSH1 0x1 OR SWAP1 SSTORE STOP JUMPDEST CALLVALUE PUSH2 0x1DF JUMPI PUSH1 0x0 CALLDATASIZE PUSH1 0x3 NOT ADD SLT PUSH2 0x1DF JUMPI PUSH1 0x40 MLOAD PUSH32 0x0 PUSH1 0x1 PUSH1 0x1 PUSH1 0xA0 SHL SUB AND DUP2 MSTORE PUSH1 0x20 SWAP1 RETURN JUMPDEST CALLVALUE PUSH2 0x1DF JUMPI PUSH1 0x0 CALLDATASIZE PUSH1 0x3 NOT ADD SLT PUSH2 0x1DF JUMPI PUSH1 0x20 PUSH1 0x9 SLOAD PUSH1 0x40 MLOAD SWAP1 DUP2 MSTORE RETURN JUMPDEST CALLVALUE PUSH2 0x1DF JUMPI PUSH1 0x20 DUP1 PUSH1 0x3 NOT CALLDATASIZE ADD SLT PUSH2 0x1DF JUMPI PUSH1 0x1 PUSH1 0x1 PUSH1 0xA0 SHL SUB PUSH2 0x1667 PUSH2 0x1EF7 JUMP JUMPDEST AND PUSH1 0x0 MSTORE PUSH1 0x8 DUP2 MSTORE PUSH1 0x40 PUSH1 0x0 KECCAK256 SWAP1 PUSH1 0x40 MLOAD SWAP1 DUP2 DUP2 DUP5 SLOAD SWAP2 DUP3 DUP2 MSTORE ADD SWAP4 PUSH1 0x0 MSTORE DUP2 PUSH1 0x0 KECCAK256 SWAP2 PUSH1 0x0 SWAP1 JUMPDEST DUP3 DUP3 LT PUSH2 0x16A6 JUMPI PUSH2 0x9E5 DUP6 PUSH2 0x148F DUP2 DUP10 SUB DUP3 PUSH2 0x1E33 JUMP JUMPDEST DUP4 SLOAD DUP7 MSTORE SWAP5 DUP6 ADD SWAP5 PUSH1 0x1 SWAP4 DUP5 ADD SWAP4 SWAP1 SWAP2 ADD SWAP1 PUSH2 0x168F JUMP JUMPDEST CALLVALUE PUSH2 0x1DF JUMPI PUSH1 0x20 CALLDATASIZE PUSH1 0x3 NOT ADD SLT PUSH2 0x1DF JUMPI PUSH1 0x60 PUSH2 0x140 PUSH1 0x40 MLOAD PUSH2 0x16DF DUP2 PUSH2 0x1DFC JUMP JUMPDEST PUSH1 0x0 DUP2 MSTORE PUSH1 0x0 PUSH1 0x20 DUP3 ADD MSTORE PUSH1 0x0 PUSH1 0x40 DUP3 ADD MSTORE PUSH1 0x0 DUP4 DUP3 ADD MSTORE PUSH1 0x0 PUSH1 0x80 DUP3 ADD MSTORE PUSH1 0x0 PUSH1 0xA0 DUP3 ADD MSTORE PUSH1 0x0 PUSH1 0xC0 DUP3 ADD MSTORE PUSH1 0x0 PUSH1 0xE0 DUP3 ADD MSTORE PUSH1 0x0 PUSH2 0x100 DUP3 ADD MSTORE DUP3 PUSH2 0x120 DUP3 ADD MSTORE ADD MSTORE PUSH1 0x4 CALLDATALOAD PUSH1 0x0 MSTORE PUSH1 0x3 PUSH1 0x20 MSTORE PUSH1 0x40 PUSH1 0x0 KECCAK256 PUSH1 0x40 MLOAD PUSH2 0x1740 DUP2 PUSH2 0x1DFC JUMP JUMPDEST DUP2 SLOAD DUP2 MSTORE PUSH1 0x1 DUP3 ADD SLOAD PUSH1 0x1 PUSH1 0x1 PUSH1 0xA0 SHL SUB AND PUSH1 0x20 DUP3 ADD MSTORE PUSH1 0x2 DUP3 ADD SLOAD PUSH1 0x40 DUP3 ADD MSTORE PUSH1 0x3 DUP3 ADD SLOAD PUSH1 0x60 DUP3 ADD MSTORE PUSH1 0x4 DUP1 DUP4 ADD SLOAD PUSH1 0x80 DUP4 ADD MSTORE PUSH1 0x5 DUP4 ADD SLOAD PUSH1 0xA0 DUP4 ADD MSTORE PUSH1 0x6 DUP4 ADD SLOAD PUSH1 0xFF AND SWAP3 SWAP1 DUP4 LT ISZERO PUSH2 0x37C JUMPI PUSH1 0xA PUSH2 0x17CD SWAP2 PUSH2 0x9E5 SWAP5 PUSH1 0xC0 DUP6 ADD MSTORE PUSH1 0x7 DUP2 ADD SLOAD PUSH1 0xE0 DUP6 ADD MSTORE PUSH1 0x8 DUP2 ADD SLOAD PUSH2 0x100 DUP6 ADD MSTORE PUSH2 0x17C1 PUSH1 0x9 DUP3 ADD PUSH2 0x2014 JUMP JUMPDEST PUSH2 0x120 DUP6 ADD MSTORE ADD PUSH2 0x2014 JUMP JUMPDEST PUSH2 0x140 DUP3 ADD MSTORE PUSH1 0x40 MLOAD SWAP2 DUP3 SWAP2 PUSH1 0x20 DUP4 MSTORE DUP1 MLOAD PUSH1 0x20 DUP5 ADD MSTORE PUSH1 0x1 DUP1 PUSH1 0xA0 SHL SUB PUSH1 0x20 DUP3 ADD MLOAD AND PUSH1 0x40 DUP5 ADD MSTORE PUSH1 0x40 DUP2 ADD MLOAD PUSH1 0x60 DUP5 ADD MSTORE PUSH1 0x60 DUP2 ADD MLOAD PUSH1 0x80 DUP5 ADD MSTORE PUSH1 0x80 DUP2 ADD MLOAD PUSH1 0xA0 DUP5 ADD MSTORE PUSH1 0xA0 DUP2 ADD MLOAD PUSH1 0xC0 DUP5 ADD MSTORE PUSH2 0x1830 PUSH1 0xC0 DUP3 ADD MLOAD PUSH1 0xE0 DUP6 ADD SWAP1 PUSH2 0x1EAA JUMP JUMPDEST PUSH1 0xE0 DUP2 ADD MLOAD PUSH2 0x100 DUP5 ADD MSTORE PUSH2 0x100 DUP2 ADD MLOAD PUSH2 0x120 DUP5 ADD MSTORE PUSH2 0x120 DUP2 ADD MLOAD PUSH2 0x140 PUSH2 0x1867 PUSH2 0x160 SWAP3 DUP4 DUP4 DUP9 ADD MSTORE PUSH2 0x180 DUP8 ADD SWAP1 PUSH2 0x1EB7 JUMP JUMPDEST SWAP3 ADD MLOAD SWAP1 PUSH1 0x1F NOT DUP6 DUP5 SUB ADD SWAP1 DUP6 ADD MSTORE PUSH2 0x1EB7 JUMP JUMPDEST CALLVALUE PUSH2 0x1DF JUMPI PUSH1 0x20 CALLDATASIZE PUSH1 0x3 NOT ADD SLT PUSH2 0x1DF JUMPI PUSH1 0x4 CALLDATALOAD PUSH4 0xFFFFFFFF PUSH1 0xE0 SHL DUP2 AND DUP1 SWAP2 SUB PUSH2 0x1DF JUMPI PUSH1 0x20 SWAP1 PUSH4 0x7965DB0B PUSH1 0xE0 SHL DUP2 EQ SWAP1 DUP2 ISZERO PUSH2 0x18C0 JUMPI JUMPDEST POP PUSH1 0x40 MLOAD SWAP1 ISZERO ISZERO DUP2 MSTORE RETURN JUMPDEST PUSH4 0x1FFC9A7 PUSH1 0xE0 SHL EQ SWAP1 POP DUP3 PUSH2 0x18B5 JUMP JUMPDEST CALLVALUE PUSH2 0x1DF JUMPI PUSH1 0xA0 CALLDATASIZE PUSH1 0x3 NOT ADD SLT PUSH2 0x1DF JUMPI PUSH1 0x64 CALLDATALOAD PUSH1 0x1 PUSH1 0x1 PUSH1 0x40 SHL SUB DUP2 GT PUSH2 0x1DF JUMPI PUSH2 0x1901 SWAP1 CALLDATASIZE SWAP1 PUSH1 0x4 ADD PUSH2 0x1E54 JUMP JUMPDEST PUSH1 0x84 CALLDATALOAD PUSH1 0x1 PUSH1 0x1 PUSH1 0x40 SHL SUB DUP2 GT PUSH2 0x1DF JUMPI PUSH2 0x1920 SWAP1 CALLDATASIZE SWAP1 PUSH1 0x4 ADD PUSH2 0x1E54 JUMP JUMPDEST SWAP1 PUSH1 0x4 CALLDATALOAD ISZERO PUSH2 0x1DB7 JUMPI PUSH1 0x24 CALLDATALOAD ISZERO ISZERO DUP1 PUSH2 0x1DAA JUMPI JUMPDEST ISZERO PUSH2 0x1D65 JUMPI PUSH2 0x1F4 PUSH1 0x44 CALLDATALOAD LT ISZERO DUP1 PUSH2 0x1D57 JUMPI JUMPDEST ISZERO PUSH2 0x1D12 JUMPI PUSH1 0x9 SLOAD SWAP1 PUSH2 0x1959 DUP3 PUSH2 0x22FF JUMP JUMPDEST PUSH1 0x9 SSTORE PUSH3 0x278D00 TIMESTAMP ADD TIMESTAMP GT PUSH2 0x328 JUMPI PUSH1 0x40 MLOAD SWAP3 PUSH2 0x1975 DUP5 PUSH2 0x1DFC JUMP JUMPDEST DUP3 DUP5 MSTORE CALLER PUSH1 0x20 DUP6 ADD MSTORE PUSH1 0x4 CALLDATALOAD PUSH1 0x40 DUP6 ADD MSTORE PUSH1 0x0 PUSH1 0x60 DUP6 ADD MSTORE PUSH1 0x24 CALLDATALOAD PUSH1 0x80 DUP6 ADD MSTORE PUSH1 0x44 CALLDATALOAD PUSH1 0xA0 DUP6 ADD MSTORE PUSH1 0x0 PUSH1 0xC0 DUP6 ADD MSTORE TIMESTAMP PUSH1 0xE0 DUP6 ADD MSTORE PUSH3 0x278D00 TIMESTAMP ADD PUSH2 0x100 DUP6 ADD MSTORE DUP2 PUSH2 0x120 DUP6 ADD MSTORE PUSH2 0x140 DUP5 ADD MSTORE DUP2 PUSH1 0x0 MSTORE PUSH1 0x3 PUSH1 0x20 MSTORE PUSH1 0x40 PUSH1 0x0 KECCAK256 SWAP3 DUP1 MLOAD DUP5 SSTORE PUSH1 0x1 DUP5 ADD PUSH1 0x1 DUP1 PUSH1 0xA0 SHL SUB PUSH1 0x20 DUP4 ADD MLOAD AND PUSH12 0xFFFFFFFFFFFFFFFFFFFFFFFF PUSH1 0xA0 SHL DUP3 SLOAD AND OR SWAP1 SSTORE PUSH1 0x40 DUP2 ADD MLOAD PUSH1 0x2 DUP6 ADD SSTORE PUSH1 0x60 DUP2 ADD MLOAD PUSH1 0x3 DUP6 ADD SSTORE PUSH1 0x80 DUP2 ADD MLOAD PUSH1 0x4 DUP6 ADD SSTORE PUSH1 0xA0 DUP2 ADD MLOAD PUSH1 0x5 DUP6 ADD SSTORE PUSH1 0x6 DUP5 ADD PUSH1 0xC0 DUP3 ADD MLOAD PUSH1 0x4 DUP2 LT ISZERO PUSH2 0x37C JUMPI PUSH1 0xFF DUP1 NOT DUP4 SLOAD AND SWAP2 AND OR SWAP1 SSTORE PUSH1 0xE0 DUP2 ADD MLOAD PUSH1 0x7 DUP6 ADD SSTORE PUSH2 0x100 DUP2 ADD MLOAD PUSH1 0x8 DUP6 ADD SSTORE PUSH2 0x120 DUP2 ADD MLOAD DUP1 MLOAD SWAP1 PUSH1 0x1 PUSH1 0x1 PUSH1 0x40 SHL SUB DUP3 GT PUSH2 0x6A4 JUMPI PUSH2 0x1A7C PUSH1 0x9 DUP8 ADD SLOAD PUSH2 0x1FDA JUMP JUMPDEST PUSH1 0x1F DUP2 GT PUSH2 0x1CCB JUMPI JUMPDEST POP PUSH1 0x20 SWAP1 PUSH1 0x1F DUP4 GT PUSH1 0x1 EQ PUSH2 0x1C59 JUMPI PUSH2 0x140 SWAP4 SWAP3 SWAP2 PUSH1 0x0 SWAP2 DUP4 PUSH2 0x1C4E JUMPI JUMPDEST POP POP DUP2 PUSH1 0x1 SHL SWAP2 PUSH1 0x0 NOT SWAP1 PUSH1 0x3 SHL SHR NOT AND OR PUSH1 0x9 DUP7 ADD SSTORE JUMPDEST ADD MLOAD SWAP3 DUP4 MLOAD PUSH1 0x1 PUSH1 0x1 PUSH1 0x40 SHL SUB DUP2 GT PUSH2 0x6A4 JUMPI PUSH2 0x1ADB PUSH1 0xA DUP4 ADD SLOAD PUSH2 0x1FDA JUMP JUMPDEST SWAP5 PUSH1 0x1F DUP7 GT PUSH2 0x1C03 JUMPI JUMPDEST PUSH1 0x20 SWAP6 POP DUP6 SWAP1 PUSH1 0x1F DUP4 GT PUSH1 0x1 EQ PUSH2 0x1B97 JUMPI PUSH1 0xA SWAP3 SWAP2 PUSH1 0x0 SWAP2 DUP4 PUSH2 0x1B8C JUMPI JUMPDEST POP POP DUP2 PUSH1 0x1 SHL SWAP2 PUSH1 0x0 NOT SWAP1 PUSH1 0x3 SHL SHR NOT AND OR SWAP2 ADD SSTORE JUMPDEST CALLER PUSH1 0x0 MSTORE PUSH1 0x8 DUP4 MSTORE PUSH2 0x1B2F DUP3 PUSH1 0x40 PUSH1 0x0 KECCAK256 PUSH2 0x231B JUMP JUMPDEST PUSH2 0x1B38 CALLER PUSH2 0x215A JUMP JUMPDEST POP DUP2 PUSH32 0xA28C57E091EB4161701253B973F2584FBC406A6D01452625F6D2E74CCCB0333 PUSH1 0x40 MLOAD PUSH1 0x4 CALLDATALOAD DUP2 MSTORE PUSH1 0x24 CALLDATALOAD DUP7 DUP3 ADD MSTORE PUSH1 0x60 PUSH1 0x40 DUP3 ADD MSTORE DUP1 PUSH2 0x1B81 CALLER SWAP6 PUSH1 0x60 DUP4 ADD SWAP1 PUSH2 0x1EB7 JUMP JUMPDEST SUB SWAP1 LOG3 PUSH1 0x40 MLOAD SWAP1 DUP2 MSTORE RETURN JUMPDEST ADD MLOAD SWAP1 POP DUP8 DUP1 PUSH2 0x1B03 JUMP JUMPDEST SWAP1 PUSH1 0x1F NOT DUP4 AND SWAP2 PUSH1 0xA DUP6 ADD PUSH1 0x0 MSTORE DUP8 PUSH1 0x0 KECCAK256 SWAP3 PUSH1 0x0 JUMPDEST DUP2 DUP2 LT PUSH2 0x1BEC JUMPI POP SWAP2 PUSH1 0x1 SWAP4 SWAP2 DUP6 PUSH1 0xA SWAP7 SWAP5 LT PUSH2 0x1BD3 JUMPI JUMPDEST POP POP POP DUP2 SHL ADD SWAP2 ADD SSTORE PUSH2 0x1B19 JUMP JUMPDEST ADD MLOAD PUSH1 0x0 NOT PUSH1 0xF8 DUP5 PUSH1 0x3 SHL AND SHR NOT AND SWAP1 SSTORE DUP8 DUP1 DUP1 PUSH2 0x1BC5 JUMP JUMPDEST SWAP3 SWAP4 DUP10 PUSH1 0x1 DUP2 SWAP3 DUP8 DUP7 ADD MLOAD DUP2 SSTORE ADD SWAP6 ADD SWAP4 ADD PUSH2 0x1BAD JUMP JUMPDEST PUSH1 0xA DUP4 ADD PUSH1 0x0 MSTORE PUSH1 0x20 PUSH1 0x0 KECCAK256 PUSH1 0x1F DUP4 ADD PUSH1 0x5 SHR DUP2 ADD SWAP7 PUSH1 0x20 DUP5 LT PUSH2 0x1C44 JUMPI JUMPDEST PUSH1 0x1F ADD PUSH1 0x5 SHR ADD SWAP6 JUMPDEST DUP7 DUP2 LT PUSH2 0x1C38 JUMPI POP PUSH2 0x1AE5 JUMP JUMPDEST PUSH1 0x0 DUP2 SSTORE PUSH1 0x1 ADD PUSH2 0x1C2B JUMP JUMPDEST SWAP1 SWAP7 POP DUP7 SWAP1 PUSH2 0x1C22 JUMP JUMPDEST ADD MLOAD SWAP1 POP DUP8 DUP1 PUSH2 0x1AA3 JUMP JUMPDEST SWAP1 PUSH1 0x1F NOT DUP4 AND SWAP2 PUSH1 0x9 DUP9 ADD PUSH1 0x0 MSTORE PUSH1 0x20 PUSH1 0x0 KECCAK256 SWAP3 PUSH1 0x0 JUMPDEST DUP2 DUP2 LT PUSH2 0x1CB3 JUMPI POP SWAP2 PUSH1 0x1 SWAP4 SWAP2 DUP6 PUSH2 0x140 SWAP8 SWAP7 SWAP5 LT PUSH2 0x1C9A JUMPI JUMPDEST POP POP POP DUP2 SHL ADD PUSH1 0x9 DUP7 ADD SSTORE PUSH2 0x1ABB JUMP JUMPDEST ADD MLOAD PUSH1 0x0 NOT PUSH1 0xF8 DUP5 PUSH1 0x3 SHL AND SHR NOT AND SWAP1 SSTORE DUP8 DUP1 DUP1 PUSH2 0x1C8A JUMP JUMPDEST SWAP3 SWAP4 PUSH1 0x20 PUSH1 0x1 DUP2 SWAP3 DUP8 DUP7 ADD MLOAD DUP2 SSTORE ADD SWAP6 ADD SWAP4 ADD PUSH2 0x1C70 JUMP JUMPDEST PUSH1 0x9 DUP8 ADD PUSH1 0x0 MSTORE PUSH1 0x20 PUSH1 0x0 KECCAK256 PUSH1 0x1F DUP5 ADD PUSH1 0x5 SHR DUP2 ADD PUSH1 0x20 DUP6 LT PUSH2 0x1D0B JUMPI JUMPDEST PUSH1 0x1F DUP4 ADD PUSH1 0x5 SHR DUP3 ADD DUP2 LT PUSH2 0x1CFF JUMPI POP POP PUSH2 0x1A85 JUMP JUMPDEST PUSH1 0x0 DUP2 SSTORE PUSH1 0x1 ADD PUSH2 0x1CE9 JUMP JUMPDEST POP DUP1 PUSH2 0x1CE9 JUMP JUMPDEST PUSH1 0x40 MLOAD PUSH3 0x461BCD PUSH1 0xE5 SHL DUP2 MSTORE PUSH1 0x20 PUSH1 0x4 DUP3 ADD MSTORE PUSH1 0x1B PUSH1 0x24 DUP3 ADD MSTORE PUSH32 0x496E7465726573742072617465206D75737420626520352D3135250000000000 PUSH1 0x44 DUP3 ADD MSTORE PUSH1 0x64 SWAP1 REVERT JUMPDEST POP PUSH2 0x5DC PUSH1 0x44 CALLDATALOAD GT ISZERO PUSH2 0x1947 JUMP JUMPDEST PUSH1 0x40 MLOAD PUSH3 0x461BCD PUSH1 0xE5 SHL DUP2 MSTORE PUSH1 0x20 PUSH1 0x4 DUP3 ADD MSTORE PUSH1 0x1C PUSH1 0x24 DUP3 ADD MSTORE PUSH32 0x4475726174696F6E206D75737420626520312D3630206D6F6E74687300000000 PUSH1 0x44 DUP3 ADD MSTORE PUSH1 0x64 SWAP1 REVERT JUMPDEST POP PUSH1 0x3C PUSH1 0x24 CALLDATALOAD GT ISZERO PUSH2 0x1934 JUMP JUMPDEST PUSH1 0x40 MLOAD PUSH3 0x461BCD PUSH1 0xE5 SHL DUP2 MSTORE PUSH1 0x20 PUSH1 0x4 DUP3 ADD MSTORE PUSH1 0x1E PUSH1 0x24 DUP3 ADD MSTORE PUSH32 0x54617267657420616D6F756E74206D75737420626520706F7369746976650000 PUSH1 0x44 DUP3 ADD MSTORE PUSH1 0x64 SWAP1 REVERT JUMPDEST PUSH2 0x160 DUP2 ADD SWAP1 DUP2 LT PUSH1 0x1 PUSH1 0x1 PUSH1 0x40 SHL SUB DUP3 GT OR PUSH2 0x6A4 JUMPI PUSH1 0x40 MSTORE JUMP JUMPDEST PUSH1 0x80 DUP2 ADD SWAP1 DUP2 LT PUSH1 0x1 PUSH1 0x1 PUSH1 0x40 SHL SUB DUP3 GT OR PUSH2 0x6A4 JUMPI PUSH1 0x40 MSTORE JUMP JUMPDEST SWAP1 PUSH1 0x1F DUP1 NOT SWAP2 ADD AND DUP2 ADD SWAP1 DUP2 LT PUSH1 0x1 PUSH1 0x1 PUSH1 0x40 SHL SUB DUP3 GT OR PUSH2 0x6A4 JUMPI PUSH1 0x40 MSTORE JUMP JUMPDEST DUP2 PUSH1 0x1F DUP3 ADD SLT ISZERO PUSH2 0x1DF JUMPI DUP1 CALLDATALOAD SWAP1 PUSH1 0x1 PUSH1 0x1 PUSH1 0x40 SHL SUB DUP3 GT PUSH2 0x6A4 JUMPI PUSH1 0x40 MLOAD SWAP3 PUSH2 0x1E88 PUSH1 0x1F DUP5 ADD PUSH1 0x1F NOT AND PUSH1 0x20 ADD DUP6 PUSH2 0x1E33 JUMP JUMPDEST DUP3 DUP5 MSTORE PUSH1 0x20 DUP4 DUP4 ADD ADD GT PUSH2 0x1DF JUMPI DUP2 PUSH1 0x0 SWAP3 PUSH1 0x20 DUP1 SWAP4 ADD DUP4 DUP7 ADD CALLDATACOPY DUP4 ADD ADD MSTORE SWAP1 JUMP JUMPDEST SWAP1 PUSH1 0x4 DUP3 LT ISZERO PUSH2 0x37C JUMPI MSTORE JUMP JUMPDEST SWAP2 SWAP1 DUP3 MLOAD SWAP3 DUP4 DUP3 MSTORE PUSH1 0x0 JUMPDEST DUP5 DUP2 LT PUSH2 0x1EE3 JUMPI POP POP DUP3 PUSH1 0x0 PUSH1 0x20 DUP1 SWAP5 SWAP6 DUP5 ADD ADD MSTORE PUSH1 0x1F DUP1 NOT SWAP2 ADD AND ADD ADD SWAP1 JUMP JUMPDEST PUSH1 0x20 DUP2 DUP4 ADD DUP2 ADD MLOAD DUP5 DUP4 ADD DUP3 ADD MSTORE ADD PUSH2 0x1EC2 JUMP JUMPDEST PUSH1 0x4 CALLDATALOAD SWAP1 PUSH1 0x1 PUSH1 0x1 PUSH1 0xA0 SHL SUB DUP3 AND DUP3 SUB PUSH2 0x1DF JUMPI JUMP JUMPDEST PUSH1 0x24 CALLDATALOAD SWAP1 PUSH1 0x1 PUSH1 0x1 PUSH1 0xA0 SHL SUB DUP3 AND DUP3 SUB PUSH2 0x1DF JUMPI JUMP JUMPDEST PUSH1 0x20 SWAP1 DUP2 PUSH1 0x40 DUP2 DUP4 ADD SWAP3 DUP3 DUP2 MSTORE DUP6 MLOAD DUP1 SWAP5 MSTORE ADD SWAP4 ADD SWAP2 PUSH1 0x0 JUMPDEST DUP3 DUP2 LT PUSH2 0x1F4A JUMPI POP POP POP POP SWAP1 JUMP JUMPDEST DUP4 MLOAD DUP6 MSTORE SWAP4 DUP2 ADD SWAP4 SWAP3 DUP2 ADD SWAP3 PUSH1 0x1 ADD PUSH2 0x1F3C JUMP JUMPDEST PUSH1 0x40 SWAP1 PUSH1 0x3 NOT ADD SLT PUSH2 0x1DF JUMPI PUSH1 0x4 CALLDATALOAD SWAP1 PUSH1 0x24 CALLDATALOAD SWAP1 JUMP JUMPDEST DUP1 SLOAD DUP3 LT ISZERO PUSH2 0x1F8C JUMPI PUSH1 0x0 MSTORE PUSH1 0x20 PUSH1 0x0 KECCAK256 ADD SWAP1 PUSH1 0x0 SWAP1 JUMP JUMPDEST PUSH4 0x4E487B71 PUSH1 0xE0 SHL PUSH1 0x0 MSTORE PUSH1 0x32 PUSH1 0x4 MSTORE PUSH1 0x24 PUSH1 0x0 REVERT JUMPDEST DUP1 SLOAD DUP3 LT ISZERO PUSH2 0x1F8C JUMPI PUSH1 0x0 MSTORE PUSH1 0x20 PUSH1 0x0 KECCAK256 SWAP1 PUSH1 0x2 SHL ADD SWAP1 PUSH1 0x0 SWAP1 JUMP JUMPDEST DUP1 SLOAD DUP3 LT ISZERO PUSH2 0x1F8C JUMPI PUSH1 0x0 MSTORE PUSH1 0x6 PUSH1 0x20 PUSH1 0x0 KECCAK256 SWAP2 MUL ADD SWAP1 PUSH1 0x0 SWAP1 JUMP JUMPDEST SWAP1 PUSH1 0x1 DUP3 DUP2 SHR SWAP3 AND DUP1 ISZERO PUSH2 0x200A JUMPI JUMPDEST PUSH1 0x20 DUP4 LT EQ PUSH2 0x1FF4 JUMPI JUMP JUMPDEST PUSH4 0x4E487B71 PUSH1 0xE0 SHL PUSH1 0x0 MSTORE PUSH1 0x22 PUSH1 0x4 MSTORE PUSH1 0x24 PUSH1 0x0 REVERT JUMPDEST SWAP2 PUSH1 0x7F AND SWAP2 PUSH2 0x1FE9 JUMP JUMPDEST SWAP1 PUSH1 0x40 MLOAD SWAP2 DUP3 PUSH1 0x0 DUP3 SLOAD SWAP3 PUSH2 0x2028 DUP5 PUSH2 0x1FDA JUMP JUMPDEST SWAP1 DUP2 DUP5 MSTORE PUSH1 0x1 SWAP5 DUP6 DUP2 AND SWAP1 DUP2 PUSH1 0x0 EQ PUSH2 0x2097 JUMPI POP PUSH1 0x1 EQ PUSH2 0x2054 JUMPI JUMPDEST POP POP PUSH2 0x2052 SWAP3 POP SUB DUP4 PUSH2 0x1E33 JUMP JUMPDEST JUMP JUMPDEST SWAP1 SWAP4 SWAP2 POP PUSH1 0x0 MSTORE PUSH1 0x20 SWAP1 DUP2 PUSH1 0x0 KECCAK256 SWAP4 PUSH1 0x0 SWAP2 JUMPDEST DUP2 DUP4 LT PUSH2 0x207F JUMPI POP POP PUSH2 0x2052 SWAP4 POP DUP3 ADD ADD CODESIZE DUP1 PUSH2 0x2044 JUMP JUMPDEST DUP6 SLOAD DUP9 DUP5 ADD DUP6 ADD MSTORE SWAP5 DUP6 ADD SWAP5 DUP8 SWAP5 POP SWAP2 DUP4 ADD SWAP2 PUSH2 0x2067 JUMP JUMPDEST SWAP2 POP POP PUSH2 0x2052 SWAP5 POP PUSH1 0x20 SWAP3 POP PUSH1 0xFF NOT AND DUP3 DUP5 ADD MSTORE ISZERO ISZERO PUSH1 0x5 SHL DUP3 ADD ADD CODESIZE DUP1 PUSH2 0x2044 JUMP JUMPDEST CALLER PUSH1 0x0 SWAP1 DUP2 MSTORE PUSH32 0x50EFBDE2D46C37E9785F1791697F77E94BB7B701E19F1930A668820722D37694 PUSH1 0x20 MSTORE PUSH1 0x40 SWAP1 KECCAK256 SLOAD PUSH32 0xA49807205CE4D355092EF5A8A18F56E8913CF4A201FBE287825B095693C21775 SWAP1 PUSH1 0xFF AND ISZERO PUSH2 0x2116 JUMPI POP JUMP JUMPDEST PUSH1 0x44 SWAP1 PUSH1 0x40 MLOAD SWAP1 PUSH4 0xE2517D3F PUSH1 0xE0 SHL DUP3 MSTORE CALLER PUSH1 0x4 DUP4 ADD MSTORE PUSH1 0x24 DUP3 ADD MSTORE REVERT JUMPDEST DUP1 PUSH1 0x0 MSTORE PUSH1 0x1 PUSH1 0x20 MSTORE PUSH1 0x40 PUSH1 0x0 KECCAK256 CALLER PUSH1 0x0 MSTORE PUSH1 0x20 MSTORE PUSH1 0xFF PUSH1 0x40 PUSH1 0x0 KECCAK256 SLOAD AND ISZERO PUSH2 0x2116 JUMPI POP JUMP JUMPDEST PUSH1 0x1 PUSH1 0x1 PUSH1 0xA0 SHL SUB AND PUSH1 0x0 DUP2 DUP2 MSTORE PUSH32 0x249A641C682C1E9C5DC7DBAB36C26F96131373E43E5B4319A60D61BCEFC6B162 PUSH1 0x20 MSTORE PUSH1 0x40 DUP2 KECCAK256 SLOAD SWAP1 SWAP2 SWAP1 PUSH32 0x966A00E53C991954F9346CF783097BE60911B589DD69FF02C7A9FD1C79215029 SWAP1 PUSH1 0xFF AND PUSH2 0x2208 JUMPI DUP1 DUP4 MSTORE PUSH1 0x1 PUSH1 0x20 MSTORE PUSH1 0x40 DUP4 KECCAK256 DUP3 DUP5 MSTORE PUSH1 0x20 MSTORE PUSH1 0x40 DUP4 KECCAK256 PUSH1 0x1 PUSH1 0xFF NOT DUP3 SLOAD AND OR SWAP1 SSTORE PUSH32 0x2F8788117E7EFF1D82E926EC794901D17C78024A50270940304540A733656F0D CALLER SWAP4 DUP1 LOG4 PUSH1 0x1 SWAP1 JUMP JUMPDEST POP POP SWAP1 JUMP JUMPDEST SWAP1 PUSH1 0x0 SWAP2 DUP1 DUP4 MSTORE PUSH1 0x1 PUSH1 0x20 MSTORE PUSH1 0x40 DUP4 KECCAK256 SWAP2 PUSH1 0x1 DUP1 PUSH1 0xA0 SHL SUB AND SWAP2 DUP3 DUP5 MSTORE PUSH1 0x20 MSTORE PUSH1 0xFF PUSH1 0x40 DUP5 KECCAK256 SLOAD AND ISZERO PUSH1 0x0 EQ PUSH2 0x2208 JUMPI DUP1 DUP4 MSTORE PUSH1 0x1 PUSH1 0x20 MSTORE PUSH1 0x40 DUP4 KECCAK256 DUP3 DUP5 MSTORE PUSH1 0x20 MSTORE PUSH1 0x40 DUP4 KECCAK256 PUSH1 0x1 PUSH1 0xFF NOT DUP3 SLOAD AND OR SWAP1 SSTORE PUSH32 0x2F8788117E7EFF1D82E926EC794901D17C78024A50270940304540A733656F0D CALLER SWAP4 DUP1 LOG4 PUSH1 0x1 SWAP1 JUMP JUMPDEST SWAP1 PUSH1 0x0 SWAP2 DUP1 DUP4 MSTORE PUSH1 0x1 PUSH1 0x20 MSTORE PUSH1 0x40 DUP4 KECCAK256 SWAP2 PUSH1 0x1 DUP1 PUSH1 0xA0 SHL SUB AND SWAP2 DUP3 DUP5 MSTORE PUSH1 0x20 MSTORE PUSH1 0xFF PUSH1 0x40 DUP5 KECCAK256 SLOAD AND PUSH1 0x0 EQ PUSH2 0x2208 JUMPI DUP1 DUP4 MSTORE PUSH1 0x1 PUSH1 0x20 MSTORE PUSH1 0x40 DUP4 KECCAK256 DUP3 DUP5 MSTORE PUSH1 0x20 MSTORE PUSH1 0x40 DUP4 KECCAK256 PUSH1 0xFF NOT DUP2 SLOAD AND SWAP1 SSTORE PUSH32 0xF6391F5C32D9C69D2A47EA670B442974B53935D1EDC7FD64EB21E047A839171B CALLER SWAP4 DUP1 LOG4 PUSH1 0x1 SWAP1 JUMP JUMPDEST PUSH1 0x0 NOT DUP2 EQ PUSH2 0x328 JUMPI PUSH1 0x1 ADD SWAP1 JUMP JUMPDEST SWAP2 SWAP1 DUP3 ADD DUP1 SWAP3 GT PUSH2 0x328 JUMPI JUMP JUMPDEST DUP1 SLOAD PUSH1 0x1 PUSH1 0x40 SHL DUP2 LT ISZERO PUSH2 0x6A4 JUMPI PUSH2 0x2338 SWAP2 PUSH1 0x1 DUP3 ADD DUP2 SSTORE PUSH2 0x1F74 JUMP JUMPDEST DUP2 SWAP3 SWAP2 SLOAD SWAP1 PUSH1 0x3 SHL SWAP2 DUP3 SHL SWAP2 PUSH1 0x0 NOT SWAP1 SHL NOT AND OR SWAP1 SSTORE JUMP JUMPDEST PUSH1 0x40 MLOAD PUSH4 0x23B872DD PUSH1 0xE0 SHL PUSH1 0x20 DUP3 ADD MSTORE PUSH1 0x1 PUSH1 0x1 PUSH1 0xA0 SHL SUB SWAP3 DUP4 AND PUSH1 0x24 DUP3 ADD MSTORE SWAP3 SWAP1 SWAP2 AND PUSH1 0x44 DUP4 ADD MSTORE PUSH1 0x64 DUP1 DUP4 ADD SWAP4 SWAP1 SWAP4 MSTORE SWAP2 DUP2 MSTORE PUSH1 0xA0 DUP2 ADD SWAP2 DUP2 DUP4 LT PUSH1 0x1 PUSH1 0x1 PUSH1 0x40 SHL SUB DUP5 GT OR PUSH2 0x6A4 JUMPI PUSH2 0x2052 SWAP3 PUSH1 0x40 MSTORE JUMPDEST SWAP1 PUSH1 0x0 PUSH1 0x20 SWAP2 DUP3 DUP2 MLOAD SWAP2 ADD DUP3 DUP6 GAS CALL ISZERO PUSH2 0x2400 JUMPI PUSH1 0x0 MLOAD RETURNDATASIZE PUSH2 0x23F7 JUMPI POP PUSH1 0x1 PUSH1 0x1 PUSH1 0xA0 SHL SUB DUP2 AND EXTCODESIZE ISZERO JUMPDEST PUSH2 0x23D5 JUMPI POP JUMP JUMPDEST PUSH1 0x40 MLOAD PUSH4 0x5274AFE7 PUSH1 0xE0 SHL DUP2 MSTORE PUSH1 0x1 PUSH1 0x1 PUSH1 0xA0 SHL SUB SWAP1 SWAP2 AND PUSH1 0x4 DUP3 ADD MSTORE PUSH1 0x24 SWAP1 REVERT JUMPDEST PUSH1 0x1 EQ ISZERO PUSH2 0x23CE JUMP JUMPDEST PUSH1 0x40 MLOAD RETURNDATASIZE PUSH1 0x0 DUP3 RETURNDATACOPY RETURNDATASIZE SWAP1 REVERT JUMPDEST PUSH1 0x2 PUSH1 0x0 SLOAD EQ PUSH2 0x241D JUMPI PUSH1 0x2 PUSH1 0x0 SSTORE JUMP JUMPDEST PUSH1 0x40 MLOAD PUSH4 0x3EE5AEB5 PUSH1 0xE0 SHL DUP2 MSTORE PUSH1 0x4 SWAP1 REVERT JUMPDEST ISZERO PUSH2 0x2436 JUMPI JUMP JUMPDEST PUSH1 0x40 MLOAD PUSH3 0x461BCD PUSH1 0xE5 SHL DUP2 MSTORE PUSH1 0x20 PUSH1 0x4 DUP3 ADD MSTORE PUSH1 0xF PUSH1 0x24 DUP3 ADD MSTORE PUSH15 0x141BDBDB081B9BDD08199D5B991959 PUSH1 0x8A SHL PUSH1 0x44 DUP3 ADD MSTORE PUSH1 0x64 SWAP1 REVERT JUMPDEST DUP2 DUP2 MUL SWAP3 SWAP2 DUP2 ISZERO SWAP2 DUP5 DIV EQ OR ISZERO PUSH2 0x328 JUMPI JUMP JUMPDEST DUP2 ISZERO PUSH2 0x248A JUMPI DIV SWAP1 JUMP JUMPDEST PUSH4 0x4E487B71 PUSH1 0xE0 SHL PUSH1 0x0 MSTORE PUSH1 0x12 PUSH1 0x4 MSTORE PUSH1 0x24 PUSH1 0x0 REVERT JUMPDEST PUSH1 0x40 MLOAD PUSH4 0xA9059CBB PUSH1 0xE0 SHL PUSH1 0x20 DUP3 ADD MSTORE PUSH1 0x1 PUSH1 0x1 PUSH1 0xA0 SHL SUB SWAP1 SWAP3 AND PUSH1 0x24 DUP4 ADD MSTORE PUSH1 0x44 DUP1 DUP4 ADD SWAP4 SWAP1 SWAP4 MSTORE SWAP2 DUP2 MSTORE PUSH2 0x2052 SWAP2 PUSH2 0x24D9 DUP3 PUSH2 0x1E18 JUMP JUMPDEST PUSH2 0x23A4 JUMP INVALID LOG2 PUSH5 0x6970667358 0x22 SLT KECCAK256 0xD8 0xDA CALLDATASIZE 0xF6 PUSH28 0x90544FDB76B9BC20CF2664C38CB4473DA5ED875D52D501D23E282C64 PUSH20 0x6F6C634300081400332F8788117E7EFF1D82E926 0xEC PUSH26 0x4901D17C78024A50270940304540A733656F0D00000000000000 "},"methodIdentifiers":{"ADMIN_ROLE()":"75b238fc","BASIS_POINTS()":"e1f1c4a7","BUSINESS_ROLE()":"3207247b","DEFAULT_ADMIN_ROLE()":"a217fddf","PLATFORM_FEE()":"34fbc9a1","addMilestone(uint256,string,uint256,uint256)":"93d17e25","approveMilestone(uint256,uint256)":"20913da5","businessPools(address,uint256)":"27f50544","cUSD()":"1fccf672","createPool(uint256,uint256,uint256,string,string)":"01f6bf0e","emergencyPause(uint256)":"ad3fbe30","feeRecipient()":"46904840","getBusinessPools(address)":"0bcc1ec9","getInvestorPools(address)":"32ec5788","getPool(uint256)":"068bcd8d","getPoolInvestments(uint256)":"ab56d0ce","getRoleAdmin(bytes32)":"248a9ca3","grantRole(bytes32,address)":"2f2ff15d","handleDefault(uint256)":"4af37b23","hasRole(bytes32,address)":"91d14854","invest(uint256,uint256)":"d87aa643","investorPools(address,uint256)":"fdf9bc1c","nextPoolId()":"18e56131","paused()":"5c975abb","poolInvestments(uint256,uint256)":"84dab984","poolMilestones(uint256,uint256)":"6d52ddfa","pools(uint256)":"ac4afa38","processRepayment(uint256,uint256)":"71cadae1","releaseFunds(uint256,uint256)":"df7843ae","renounceRole(bytes32,address)":"36568abe","repaymentSchedules(uint256,uint256)":"6c22f60b","revokeRole(bytes32,address)":"d547741f","supportsInterface(bytes4)":"01ffc9a7"}}}}}