{"contracts/EscrowManager.sol":{"EscrowManager":{"abi":[{"inputs":[{"internalType":"address","name":"_cUSD","type":"address"}],"stateMutability":"nonpayable","type":"constructor"},{"inputs":[],"name":"AccessControlBadConfirmation","type":"error"},{"inputs":[{"internalType":"address","name":"account","type":"address"},{"internalType":"bytes32","name":"neededRole","type":"bytes32"}],"name":"AccessControlUnauthorizedAccount","type":"error"},{"inputs":[],"name":"ReentrancyGuardReentrantCall","type":"error"},{"inputs":[{"internalType":"address","name":"token","type":"address"}],"name":"SafeERC20FailedOperation","type":"error"},{"anonymous":false,"inputs":[{"indexed":true,"internalType":"uint256","name":"escrowId","type":"uint256"},{"indexed":true,"internalType":"address","name":"initiator","type":"address"},{"indexed":false,"internalType":"string","name":"reason","type":"string"}],"name":"DisputeRaised","type":"event"},{"anonymous":false,"inputs":[{"indexed":true,"internalType":"uint256","name":"escrowId","type":"uint256"},{"indexed":true,"internalType":"address","name":"resolver","type":"address"},{"indexed":false,"internalType":"bool","name":"businessFavor","type":"bool"}],"name":"DisputeResolved","type":"event"},{"anonymous":false,"inputs":[{"indexed":true,"internalType":"uint256","name":"escrowId","type":"uint256"},{"indexed":true,"internalType":"uint256","name":"poolId","type":"uint256"},{"indexed":true,"internalType":"address","name":"business","type":"address"},{"indexed":false,"internalType":"uint256","name":"amount","type":"uint256"}],"name":"EscrowCreated","type":"event"},{"anonymous":false,"inputs":[{"indexed":true,"internalType":"uint256","name":"escrowId","type":"uint256"},{"indexed":false,"internalType":"uint256","name":"amount","type":"uint256"},{"indexed":false,"internalType":"address","name":"recipient","type":"address"}],"name":"FundsReleased","type":"event"},{"anonymous":false,"inputs":[{"indexed":true,"internalType":"uint256","name":"escrowId","type":"uint256"},{"indexed":false,"internalType":"string","name":"evidenceHash","type":"string"},{"indexed":false,"internalType":"string","name":"description","type":"string"}],"name":"MilestoneSubmitted","type":"event"},{"anonymous":false,"inputs":[{"indexed":true,"internalType":"bytes32","name":"role","type":"bytes32"},{"indexed":true,"internalType":"bytes32","name":"previousAdminRole","type":"bytes32"},{"indexed":true,"internalType":"bytes32","name":"newAdminRole","type":"bytes32"}],"name":"RoleAdminChanged","type":"event"},{"anonymous":false,"inputs":[{"indexed":true,"internalType":"bytes32","name":"role","type":"bytes32"},{"indexed":true,"internalType":"address","name":"account","type":"address"},{"indexed":true,"internalType":"address","name":"sender","type":"address"}],"name":"RoleGranted","type":"event"},{"anonymous":false,"inputs":[{"indexed":true,"internalType":"bytes32","name":"role","type":"bytes32"},{"indexed":true,"internalType":"address","name":"account","type":"address"},{"indexed":true,"internalType":"address","name":"sender","type":"address"}],"name":"RoleRevoked","type":"event"},{"anonymous":false,"inputs":[{"indexed":true,"internalType":"uint256","name":"escrowId","type":"uint256"},{"indexed":true,"internalType":"address","name":"investor","type":"address"},{"indexed":false,"internalType":"bool","name":"approve","type":"bool"}],"name":"VoteCast","type":"event"},{"inputs":[],"name":"ADMIN_ROLE","outputs":[{"internalType":"bytes32","name":"","type":"bytes32"}],"stateMutability":"view","type":"function"},{"inputs":[],"name":"ARBITRATOR_ROLE","outputs":[{"internalType":"bytes32","name":"","type":"bytes32"}],"stateMutability":"view","type":"function"},{"inputs":[],"name":"BUSINESS_ROLE","outputs":[{"internalType":"bytes32","name":"","type":"bytes32"}],"stateMutability":"view","type":"function"},{"inputs":[],"name":"DEFAULT_ADMIN_ROLE","outputs":[{"internalType":"bytes32","name":"","type":"bytes32"}],"stateMutability":"view","type":"function"},{"inputs":[{"internalType":"address","name":"","type":"address"},{"internalType":"uint256","name":"","type":"uint256"}],"name":"businessEscrows","outputs":[{"internalType":"uint256","name":"","type":"uint256"}],"stateMutability":"view","type":"function"},{"inputs":[],"name":"cUSD","outputs":[{"internalType":"contract IERC20","name":"","type":"address"}],"stateMutability":"view","type":"function"},{"inputs":[{"internalType":"uint256","name":"_escrowId","type":"uint256"},{"internalType":"bool","name":"_approve","type":"bool"},{"internalType":"string","name":"_comment","type":"string"}],"name":"castVote","outputs":[],"stateMutability":"nonpayable","type":"function"},{"inputs":[{"internalType":"uint256","name":"_poolId","type":"uint256"},{"internalType":"address","name":"_business","type":"address"},{"internalType":"address[]","name":"_investors","type":"address[]"},{"internalType":"uint256","name":"_amount","type":"uint256"},{"internalType":"string","name":"_milestoneDescription","type":"string"},{"internalType":"uint256","name":"_releaseDeadline","type":"uint256"}],"name":"createEscrow","outputs":[{"internalType":"uint256","name":"","type":"uint256"}],"stateMutability":"nonpayable","type":"function"},{"inputs":[{"internalType":"uint256","name":"","type":"uint256"}],"name":"disputes","outputs":[{"internalType":"uint256","name":"escrowId","type":"uint256"},{"internalType":"address","name":"initiator","type":"address"},{"internalType":"string","name":"reason","type":"string"},{"internalType":"enum EscrowManager.DisputeStatus","name":"status","type":"uint8"},{"internalType":"uint256","name":"createdAt","type":"uint256"},{"internalType":"uint256","name":"resolvedAt","type":"uint256"},{"internalType":"address","name":"resolver","type":"address"},{"internalType":"bool","name":"businessFavor","type":"bool"},{"internalType":"string","name":"resolution","type":"string"}],"stateMutability":"view","type":"function"},{"inputs":[{"internalType":"uint256","name":"_escrowId","type":"uint256"}],"name":"emergencyCancel","outputs":[],"stateMutability":"nonpayable","type":"function"},{"inputs":[{"internalType":"uint256","name":"","type":"uint256"},{"internalType":"uint256","name":"","type":"uint256"}],"name":"escrowVotes","outputs":[{"internalType":"address","name":"investor","type":"address"},{"internalType":"bool","name":"approve","type":"bool"},{"internalType":"uint256","name":"timestamp","type":"uint256"},{"internalType":"string","name":"comment","type":"string"}],"stateMutability":"view","type":"function"},{"inputs":[{"internalType":"uint256","name":"","type":"uint256"}],"name":"escrows","outputs":[{"internalType":"uint256","name":"id","type":"uint256"},{"internalType":"uint256","name":"poolId","type":"uint256"},{"internalType":"address","name":"business","type":"address"},{"internalType":"uint256","name":"totalAmount","type":"uint256"},{"internalType":"uint256","name":"releasedAmount","type":"uint256"},{"internalType":"enum EscrowManager.EscrowStatus","name":"status","type":"uint8"},{"internalType":"uint256","name":"createdAt","type":"uint256"},{"internalType":"uint256","name":"releaseDeadline","type":"uint256"},{"internalType":"string","name":"milestoneDescription","type":"string"},{"internalType":"string","name":"evidenceHash","type":"string"}],"stateMutability":"view","type":"function"},{"inputs":[{"internalType":"address","name":"_business","type":"address"}],"name":"getBusinessEscrows","outputs":[{"internalType":"uint256[]","name":"","type":"uint256[]"}],"stateMutability":"view","type":"function"},{"inputs":[{"internalType":"uint256","name":"_escrowId","type":"uint256"}],"name":"getEscrow","outputs":[{"components":[{"internalType":"uint256","name":"id","type":"uint256"},{"internalType":"uint256","name":"poolId","type":"uint256"},{"internalType":"address","name":"business","type":"address"},{"internalType":"address[]","name":"investors","type":"address[]"},{"internalType":"uint256","name":"totalAmount","type":"uint256"},{"internalType":"uint256","name":"releasedAmount","type":"uint256"},{"internalType":"enum EscrowManager.EscrowStatus","name":"status","type":"uint8"},{"internalType":"uint256","name":"createdAt","type":"uint256"},{"internalType":"uint256","name":"releaseDeadline","type":"uint256"},{"internalType":"string","name":"milestoneDescription","type":"string"},{"internalType":"string","name":"evidenceHash","type":"string"}],"internalType":"struct EscrowManager.Escrow","name":"","type":"tuple"}],"stateMutability":"view","type":"function"},{"inputs":[{"internalType":"uint256","name":"_escrowId","type":"uint256"}],"name":"getEscrowVotes","outputs":[{"components":[{"internalType":"address","name":"investor","type":"address"},{"internalType":"bool","name":"approve","type":"bool"},{"internalType":"uint256","name":"timestamp","type":"uint256"},{"internalType":"string","name":"comment","type":"string"}],"internalType":"struct EscrowManager.InvestorVote[]","name":"","type":"tuple[]"}],"stateMutability":"view","type":"function"},{"inputs":[{"internalType":"address","name":"_investor","type":"address"}],"name":"getInvestorEscrows","outputs":[{"internalType":"uint256[]","name":"","type":"uint256[]"}],"stateMutability":"view","type":"function"},{"inputs":[{"internalType":"bytes32","name":"role","type":"bytes32"}],"name":"getRoleAdmin","outputs":[{"internalType":"bytes32","name":"","type":"bytes32"}],"stateMutability":"view","type":"function"},{"inputs":[{"internalType":"bytes32","name":"role","type":"bytes32"},{"internalType":"address","name":"account","type":"address"}],"name":"grantRole","outputs":[],"stateMutability":"nonpayable","type":"function"},{"inputs":[{"internalType":"bytes32","name":"role","type":"bytes32"},{"internalType":"address","name":"account","type":"address"}],"name":"hasRole","outputs":[{"internalType":"bool","name":"","type":"bool"}],"stateMutability":"view","type":"function"},{"inputs":[{"internalType":"uint256","name":"","type":"uint256"},{"internalType":"address","name":"","type":"address"}],"name":"hasVoted","outputs":[{"internalType":"bool","name":"","type":"bool"}],"stateMutability":"view","type":"function"},{"inputs":[{"internalType":"address","name":"","type":"address"},{"internalType":"uint256","name":"","type":"uint256"}],"name":"investorEscrows","outputs":[{"internalType":"uint256","name":"","type":"uint256"}],"stateMutability":"view","type":"function"},{"inputs":[],"name":"nextEscrowId","outputs":[{"internalType":"uint256","name":"","type":"uint256"}],"stateMutability":"view","type":"function"},{"inputs":[{"internalType":"uint256","name":"_escrowId","type":"uint256"},{"internalType":"string","name":"_reason","type":"string"}],"name":"raiseDispute","outputs":[],"stateMutability":"nonpayable","type":"function"},{"inputs":[{"internalType":"uint256","name":"_escrowId","type":"uint256"}],"name":"releaseFunds","outputs":[],"stateMutability":"nonpayable","type":"function"},{"inputs":[{"internalType":"bytes32","name":"role","type":"bytes32"},{"internalType":"address","name":"callerConfirmation","type":"address"}],"name":"renounceRole","outputs":[],"stateMutability":"nonpayable","type":"function"},{"inputs":[],"name":"requiredApprovalPercentage","outputs":[{"internalType":"uint256","name":"","type":"uint256"}],"stateMutability":"view","type":"function"},{"inputs":[{"internalType":"uint256","name":"_escrowId","type":"uint256"},{"internalType":"bool","name":"_businessFavor","type":"bool"},{"internalType":"string","name":"_resolution","type":"string"}],"name":"resolveDispute","outputs":[],"stateMutability":"nonpayable","type":"function"},{"inputs":[{"internalType":"bytes32","name":"role","type":"bytes32"},{"internalType":"address","name":"account","type":"address"}],"name":"revokeRole","outputs":[],"stateMutability":"nonpayable","type":"function"},{"inputs":[{"internalType":"uint256","name":"_votingPeriod","type":"uint256"},{"internalType":"uint256","name":"_requiredApprovalPercentage","type":"uint256"}],"name":"setVotingParameters","outputs":[],"stateMutability":"nonpayable","type":"function"},{"inputs":[{"internalType":"uint256","name":"_escrowId","type":"uint256"},{"internalType":"string","name":"_evidenceHash","type":"string"},{"internalType":"string","name":"_description","type":"string"}],"name":"submitMilestone","outputs":[],"stateMutability":"nonpayable","type":"function"},{"inputs":[{"internalType":"bytes4","name":"interfaceId","type":"bytes4"}],"name":"supportsInterface","outputs":[{"internalType":"bool","name":"","type":"bool"}],"stateMutability":"view","type":"function"},{"inputs":[],"name":"votingPeriod","outputs":[{"internalType":"uint256","name":"","type":"uint256"}],"stateMutability":"view","type":"function"}],"evm":{"bytecode":{"linkReferences":{},"object":"60a034620000c157601f620032d638819003918201601f19168301916001600160401b03831184841017620000c657808492602094604052833981010312620000c157516001600160a01b03811690819003620000c1576001600055600160085562093a80600955603c600a556080526200007a33620000dc565b5062000086336200015d565b50620000923362000200565b5060405161301790816200029f8239608051818181611cb9015281816120590152818161223a0152612f6a0152f35b600080fd5b634e487b7160e01b600052604160045260246000fd5b6001600160a01b031660008181527fa6eef7e35abe7026729641147f7915573c7e97b47efa546f5f6e3230263bcb49602052604081205490919060ff16620001595781805260016020526040822081835260205260408220600160ff198254161790553391600080516020620032b68339815191528180a4600190565b5090565b6001600160a01b031660008181527f50efbde2d46c37e9785f1791697f77e94bb7b701e19f1930a668820722d3769460205260408120549091907fa49807205ce4d355092ef5a8a18f56e8913cf4a201fbe287825b095693c217759060ff16620001fb5780835260016020526040832082845260205260408320600160ff19825416179055600080516020620032b6833981519152339380a4600190565b505090565b6001600160a01b031660008181527f4ea974b431a0b4c2e2044c8e7ab9ed5c93a2a8529b05175b6aea7d6522678c2b60205260408120549091907f16ceee8289685dd2a02b9c8ae81d2df373176ce53519e6284e2a2950d6546ffa9060ff16620001fb5780835260016020526040832082845260205260408320600160ff19825416179055600080516020620032b6833981519152339380a460019056fe6080604052600436101561001257600080fd5b60003560e01c8063012f52ee146123a357806301ffc9a71461234d57806302a251a31461232f57806311e6a595146122b35780631d78e641146122695780631fccf67214612224578063248a9ca3146121f55780632840662d14611eaf5780632f2ff15d14611e705780633207247b14611e3557806336568abe14611dee5780633d602b9314611d7c5780634385963214611d2f5780634d68282f14611bf75780634fd13bf614611bd9578063564a565d14611b165780635aef573c1461167957806362aef6f01461118c5780636d62479014610e1157806374a28fa814610d9957806375b238fc14610d5e5780637d19e59614610b0f57806389cb29dd14610af157806391d1485414610aa45780639cea078714610a69578063a217fddf14610a4d578063b9c831d914610441578063d547741f14610402578063da01b880146102c5578063dd75cd9b14610261578063ee5f78ef146102095763f067347d1461017c57600080fd5b3461020457602080600319360112610204576001600160a01b0361019e612667565b1660005260068152604060002090604051908181845491828152019360005281600020916000905b8282106101ed576101e9856101dd818903826124f8565b6040519182918261273f565b0390f35b8354865294850194600193840193909101906101c6565b600080fd5b3461020457604036600319011261020457610222612667565b6001600160a01b03166000908152600760205260409020805460243591908210156102045760209161025391612693565b90546040519160031b1c8152f35b34610204576020366003190112610204576102c3600435610280612791565b8060005260026020526006604060002061029c81541515612a55565b01600381546102b760ff82166102b1816125bf565b15612a99565b60ff1916179055612e9e565b005b346102045760208060031936011261020457600435600052600481526040600020908154916102f38361277a565b9261030160405194856124f8565b8084528284018092600052836000206000915b8383106103aa5750505050604051918083019381845251809452604083019360408160051b85010192916000955b82871061034f5785850386f35b90919293828061039a600193603f198a82030186528851858060a01b0381511682528381015115158483015260408101516040830152606080910151916080809282015201906125df565b9601920196019592919092610342565b6003866001926040999899516103bf816124a6565b60ff8654868060a01b038116835260a01c161515838201528486015460408201526103ec60028701612519565b6060820152815201920192019190959495610314565b34610204576040366003190112610204576102c360043561042161267d565b9080600052600160205261043c6001604060002001546127ed565b612941565b346102045760c03660031901126102045761045a61267d565b6044356001600160401b03811161020457366023820112156102045780600401356104848161277a565b9161049260405193846124f8565b8183526024602084019260051b8201019036821161020457602401915b818310610a2d575050506084356001600160401b038111610204576104d89036906004016126ab565b906104e1612791565b606435156109e8578051156109ad574260a43511156109755760085491610507836129b8565b60085560405190610517826124c1565b838252600435602083015260018060a01b03851660408301528260608301526064356080830152600060a0830152600060c08301524260e083015260a43561010083015261012082015260405161056d816124dd565b6000815261014082015282600052600260205260406000209080518255602081015160018301556002820160018060a01b036040830151166bffffffffffffffffffffffff60a01b82541617905560608101518051906001600160401b03821161086e57600160401b821161086e576020906003850154836003870155808410610955575b500160038401600052602060002060005b83811061093857505050506080810151600483015560a0810151600583015561063c60c0820151610633816125bf565b600684016129f4565b60e0810151600783015561010081015160088301556101208101518051906001600160401b03821161086e57610675600985015461246c565b601f8111610903575b50602090601f831160011461088f5761014093929160009183610884575b50508160011b916000199060031b1c19161760098401555b0151908151906001600160401b03821161086e57600a829101926106d8845461246c565b601f8111610831575b50602090601f83116001146107cb576000926107c0575b50508160011b916000199060031b1c19161790555b60018060a01b038316600052600660205261072c826040600020612a0c565b60005b81518110156107705761076b906001600160a01b0361074e8285612a41565b51166000526007602052610766846040600020612a0c565b6129b8565b61072f565b6020838561077d81612813565b5060405190606435825260018060a01b031690827f3c2dc6abde8e114ca054a4bfc1dc2e892e8c31beedc6f95a37707b4f88e934d08560043593a4604051908152f35b0151905086806106f8565b6000858152602081209350601f198516905b8181106108195750908460019594939210610800575b505050811b01905561070d565b015160001960f88460031b161c191690558680806107f3565b929360206001819287860151815501950193016107dd565b61085e90856000526020600020601f850160051c81019160208610610864575b601f0160051c01906129dd565b876106e1565b9091508190610851565b634e487b7160e01b600052604160045260246000fd5b01519050888061069c565b906009850160005260206000209160005b601f19851681106108eb57509183916001936101409695601f198116106108d2575b505050811b0160098401556106b4565b015160001960f88460031b161c191690558880806108c2565b919260206001819286850151815501940192016108a0565b61093290600986016000526020600020601f850160051c8101916020861061086457601f0160051c01906129dd565b8761067e565b82516001600160a01b031681830155602090920191600101610603565b61096f9060038701600052848460002091820191016129dd565b886105f2565b60405162461bcd60e51b815260206004820152601060248201526f496e76616c696420646561646c696e6560801b6044820152606490fd5b60405162461bcd60e51b81526020600482015260136024820152724d757374206861766520696e766573746f727360681b6044820152606490fd5b60405162461bcd60e51b815260206004820152601760248201527f416d6f756e74206d75737420626520706f7369746976650000000000000000006044820152606490fd5b82356001600160a01b0381168103610204578152602092830192016104af565b3461020457600036600319011261020457602060405160008152f35b346102045760003660031901126102045760206040517f16ceee8289685dd2a02b9c8ae81d2df373176ce53519e6284e2a2950d6546ffa8152f35b3461020457604036600319011261020457610abd61267d565b600435600052600160205260406000209060018060a01b0316600052602052602060ff604060002054166040519015158152f35b34610204576000366003190112610204576020600854604051908152f35b34610204576020366003190112610204576060610140604051610b31816124c1565b600081526000602082015260006040820152828082015260006080820152600060a0820152600060c0820152600060e082015260006101008201528261012082015201526004356000526002602052604060002060405190610b92826124c1565b805482526001810154602083015260018060a01b0360028201541660408301526040518060038301906020825491828152019160005260206000209060005b818110610d3f5786610c48600a8888610bec818a03826124f8565b606085015260048101546080850152600581015460a085015260ff600682015416610c16816125bf565b60c0850152600781015460e08501526008810154610100850152610c3c60098201612519565b61012085015201612519565b610140820152604051809160208252805160208301526020810151604083015260018060a01b036040820151166060830152606081015161016060808401526101808301815180915260206101a0850192019060005b818110610d1d57505050906101e991608082015160a085015260a082015160c085015260c0820151610ccf816125bf565b60e085015260e0820151610100850152610100820151610120850152610140610d0a61012084015192601f19938488830301848901526125df565b92015190848303016101608501526125df565b82516001600160a01b0316845286955060209384019390920191600101610c9e565b82546001600160a01b0316845260209093019260019283019201610bd1565b346102045760003660031901126102045760206040517fa49807205ce4d355092ef5a8a18f56e8913cf4a201fbe287825b095693c217758152f35b3461020457602080600319360112610204576001600160a01b03610dbb612667565b1660005260078152604060002090604051908181845491828152019360005281600020916000905b828210610dfa576101e9856101dd818903826124f8565b835486529485019460019384019390910190610de3565b34610204576060366003190112610204576004356001600160401b0360243581811161020457610e459036906004016126ab565b9060443581811161020457610e5e9036906004016126ab565b8360005260209160028352604060002090610e7b82541515612a55565b60028201546001600160a01b0316330361114757610ea360ff6006840154166102b1816125bf565b84511561110957845191600a810182841161086e57610ec2815461246c565b93601f948581116110db575b50868582116001146110725790806009949392600091611067575b508160011b916000199060031b1c19161790555b0191835191821161086e57610f12835461246c565b81811161102f575b5084908211600114610fa15792610f919282610f8496937fec49c5734f5f29580ab8d6ba386030a8f1dba0a60c89312f34b375880777bca19896600091610f96575b508160011b916000199060031b1c19161790555b6040519485946040865260408601906125df565b91848303908501526125df565b0390a2005b90508301518a610f5c565b601f1982169083600052856000209160005b8181106110185750837fec49c5734f5f29580ab8d6ba386030a8f1dba0a60c89312f34b375880777bca1989693610f919693610f84999660019410610fff575b5050811b019055610f70565b85015160001960f88460031b161c191690558a80610ff3565b91928760018192868a015181550194019201610fb3565b6110589084600052866000208380860160051c82019289871061105e575b0160051c01906129dd565b87610f1a565b9250819261104d565b90508901518b610ee9565b601f1982169083600052886000209160005b8a8c8383106110c6575050509183916009969594600194106110ad575b5050811b019055610efd565b8b015160001960f88460031b161c191690558b806110a1565b84015185556001909401939283019201611084565b6111039083600052886000208780850160051c8201928b861061105e570160051c01906129dd565b89610ece565b60405162461bcd60e51b8152600481018590526016602482015275115d9a59195b98d9481a185cda081c995c5d5a5c995960521b6044820152606490fd5b60405162461bcd60e51b815260048101859052601860248201527f4f6e6c7920627573696e6573732063616e207375626d697400000000000000006044820152606490fd5b346102045761119a36612701565b6111a2612ad9565b8260005260026020526111dc600a60406000206111c181541515612a55565b6111d560ff6006830154166102b1816125bf565b015461246c565b1561163b5782600052600560205260406000203360005260205260ff604060002054166116065761120d3384612daf565b156115cf578260005260046020526040600020906040519161122e836124a6565b338352602083019284151584526040810191428352606082019384528054600160401b81101561086e5761126791600182018155612635565b9490946115b9579051845491516001600160a81b03199092166001600160a01b03919091161790151560a01b60ff60a01b16178355516001830155518051906001600160401b03821161086e576112c1600284015461246c565b601f8111611584575b50602090601f8311600114611514576002929160009183611509575b50508160011b916000199060031b1c1916179101555b8160005260056020526040600020336000526020526040600020600160ff198254161790556040519015158152817fe71fcdac32df1877c1700e7bda2a03157e20993363a28fc35ac495cefc76e4d460203393a380600052600260205260406000206040519061136b826124c1565b805482526001810154602083015260018060a01b03600282015416604083015260038101916040518084602082965493848152019060005260206000209260005b8181106114e75750506113c1925003846124f8565b606081019283526004820154608082015261014061142a600a60058501549460a0958686015260ff6006820154166113f8816125bf565b60c0860152600781015460e0860152600881015461010086015261141e60098201612519565b61012086015201612519565b91015282600052600460205260406000208054906114478261277a565b9261145560405194856124f8565b82845260208401916000526020600020906000925b848410611495578787875190515114611485575b6001600055005b61148e90612bb2565b508061147e565b600360206001926040516114a8816124a6565b60ff8754868060a01b0381168352871c161515838201528487015460408201526114d460028801612519565b606082015281520193019301929161146a565b84546001600160a01b03168352600194850194889450602090930192016113ac565b0151905086806112e6565b906002840160005260206000209160005b601f198516811061156c5750918391600193600295601f19811610611553575b505050811b019101556112fc565b015160001960f88460031b161c19169055868080611545565b91926020600181928685015181550194019201611525565b6115b390600285016000526020600020601f850160051c8101916020861061086457601f0160051c01906129dd565b856112ca565b634e487b7160e01b600052600060045260246000fd5b60405162461bcd60e51b815260206004820152600f60248201526e2737ba1030b71034b73b32b9ba37b960891b6044820152606490fd5b60405162461bcd60e51b815260206004820152600d60248201526c105b1c9958591e481d9bdd1959609a1b6044820152606490fd5b60405162461bcd60e51b8152602060048201526016602482015275139bc81b5a5b195cdd1bdb99481cdd589b5a5d1d195960521b6044820152606490fd5b34610204576040366003190112610204576024356001600160401b038111610204576116a99036906004016126ab565b60043560005260026020526040600020906116c682541515612a55565b6116da60ff6006840154166102b1816125bf565b6116e633600435612daf565b8015611b00575b15611aca57600435600052600360205260ff60036040600020015416611712816125bf565b611a8c576040519161012083018381106001600160401b0382111761086e57604052600435835233602084015281604084015260016060840152426080840152600060a0840152600060c0840152600060e0840152604051611773816124dd565b6000815261010084015260043560005260036020526040600020835181556001810160018060a01b036020860151166bffffffffffffffffffffffff60a01b82541617905560408401518051906001600160401b03821161086e576117db600284015461246c565b601f8111611a57575b50602090601f83116001146119e157918061010094926007946000926119d6575b50508160011b916000199060031b1c19161760028201555b611837606087015161182e816125bf565b600383016129f4565b6080860151600482015560a080870151600583015560c087015160068301805460e08a01516001600160a81b03199091166001600160a01b03939093169290921791151590921b60ff60a01b16179055019301519283516001600160401b03811161086e576118a6825461246c565b601f81116119a4575b50602094601f821160011461193e57948192939495600092611933575b50508160011b916000199060031b1c19161790555b6006600260ff1982840154161791015560405190602082527f1b84372106d77c6daea0dda35bbc0229d10a83f58ec89909288492519368234133928061192e6004359460208301906125df565b0390a3005b0151905085806118cc565b601f198216958360005260206000209160005b88811061198c57508360019596979810611973575b505050811b0190556118e1565b015160001960f88460031b161c19169055858080611966565b91926020600181928685015181550194019201611951565b6119d090836000526020600020601f840160051c8101916020851061086457601f0160051c01906129dd565b856118af565b015190508880611805565b906002840160005260206000209160005b601f1985168110611a3f575092610100949260019260079583601f19811610611a26575b505050811b01600282015561181d565b015160001960f88460031b161c19169055888080611a16565b919260206001819286850151815501940192016119f2565b611a8690600285016000526020600020601f850160051c8101916020861061086457601f0160051c01906129dd565b866117e4565b60405162461bcd60e51b81526020600482015260166024820152754469737075746520616c72656164792065786973747360501b6044820152606490fd5b60405162461bcd60e51b815260206004820152600e60248201526d139bdd08185d5d1a1bdc9a5e995960921b6044820152606490fd5b5060028201546001600160a01b031633146116ed565b34610204576020366003190112610204576004356000526003602052604060002080546101e960018060a01b03806001850154169360ff611b5960028301612519565b9181600382015416936004820154600583015490611ba0611b81600760068701549601612519565b966040519b8c9b8c5260208c01526101208060408d01528b01906125df565b96611baa816125bf565b60608a0152608089015260a0880152811660c087015260a01c16151560e08501528382036101008501526125df565b34610204576000366003190112610204576020600a54604051908152f35b3461020457602036600319011261020457600435611c13612ad9565b611c1b612791565b8060005260026020526040600020611c3581541515612a55565b60068101908154611c4c60ff82166102b1816125bf565b611c5584612bb2565b15611cf1576002827f807158a396c8ce26fb6a4a44930e1b49876133ba7806dbaac491ea4713e4515e94600160046040960154946005840195611c99875482612afc565b965560ff19161790550180546001600160a01b039190611cdd90849084167f0000000000000000000000000000000000000000000000000000000000000000612b09565b541682519182526020820152a26001600055005b60405162461bcd60e51b8152602060048201526016602482015275135a5b195cdd1bdb99481b9bdd08185c1c1c9bdd995960521b6044820152606490fd5b3461020457604036600319011261020457611d4861267d565b600435600052600560205260406000209060018060a01b0316600052602052602060ff604060002054166040519015158152f35b3461020457611d8a3661261f565b90611d93612791565b81151580611de3575b15611da957600955600a55005b60405162461bcd60e51b8152602060048201526012602482015271496e76616c69642070657263656e7461676560701b6044820152606490fd5b506064821115611d9c565b3461020457604036600319011261020457611e0761267d565b336001600160a01b03821603611e23576102c390600435612941565b60405163334bd91960e11b8152600490fd5b346102045760003660031901126102045760206040517f966a00e53c991954f9346cf783097be60911b589dd69ff02c7a9fd1c792150298152f35b34610204576040366003190112610204576102c3600435611e8f61267d565b90806000526001602052611eaa6001604060002001546127ed565b6128c6565b3461020457611ebd36612701565b3360009081527f4ea974b431a0b4c2e2044c8e7ab9ed5c93a2a8529b05175b6aea7d6522678c2b60209081526040909120549193916001907f16ceee8289685dd2a02b9c8ae81d2df373176ce53519e6284e2a2950d6546ffa9060ff16156121d757508260005260039081835260406000209060028452604060002090838301938454938260ff8616611f4f816125bf565b0361219e576006840195600260ff885416611f69816125bf565b036121635760ff199586168317905542600582015560068101805460ff60a01b1933166001600160a81b0319909116178a151560a01b60ff60a01b161790556007018951996001600160401b038b1161086e57611fc6825461246c565b8b601f8211612132575b50508790601f8c116001146120ad579a80917f8fdd4548a8481406b6e29c0d6f25e27cd72502f79f4adf409468502e7920dabc9a9b9c6000926120a2575b505060001982851b1c191690841b1790555b881561208a57509261207d936004830154936005840194612042865482612afc565b9555825416179055600201546001600160a01b03167f0000000000000000000000000000000000000000000000000000000000000000612b09565b60405193151584523393a3005b9291505082541617905561209d83612e9e565b61207d565b015190508c8061200e565b90601f198c169183600052896000209260005b81811061211d5750918693918e7f8fdd4548a8481406b6e29c0d6f25e27cd72502f79f4adf409468502e7920dabc9d9e9f9410612105575b505050811b019055612020565b015160001983871b60f8161c191690558c80806120f8565b82840151855593870193928b01928b016120c0565b61215c91846000528a600020908b601f840160051c8301931061086457601f0160051c01906129dd565b8b8b611fd0565b60405162461bcd60e51b8152600481018990526013602482015272115cd8dc9bddc81b9bdd08191a5cdc1d5d1959606a1b6044820152606490fd5b60405162461bcd60e51b81526004810188905260116024820152704e6f20616374697665206469737075746560781b6044820152606490fd5b6044906040519063e2517d3f60e01b82523360048301526024820152fd5b346102045760203660031901126102045760043560005260016020526020600160406000200154604051908152f35b34610204576000366003190112610204576040517f00000000000000000000000000000000000000000000000000000000000000006001600160a01b03168152602090f35b3461020457604036600319011261020457612282612667565b6001600160a01b03166000908152600660205260409020805460243591908210156102045760209161025391612693565b34610204576122c13661261f565b906000526004602052604060002080548210156102045760ff916122e491612635565b506101e98154916122fc600260018301549201612519565b9060405194859460018060a01b038116865260a01c161515602085015260408401526080606084015260808301906125df565b34610204576000366003190112610204576020600954604051908152f35b346102045760203660031901126102045760043563ffffffff60e01b811680910361020457602090637965db0b60e01b8114908115612392575b506040519015158152f35b6301ffc9a760e01b14905082612387565b34610204576020366003190112610204576004356000526002602052604060002080546101e960018301549261245d60018060a01b03600283015416916004810154600582015460ff600684015416600784015491600885015493612416600a61240f60098901612519565b9701612519565b976040519b8c9b8c5260208c015260408b015260608a0152608089015261243c816125bf565b60a088015260c087015260e0860152610140806101008701528501906125df565b908382036101208501526125df565b90600182811c9216801561249c575b602083101461248657565b634e487b7160e01b600052602260045260246000fd5b91607f169161247b565b608081019081106001600160401b0382111761086e57604052565b61016081019081106001600160401b0382111761086e57604052565b602081019081106001600160401b0382111761086e57604052565b90601f801991011681019081106001600160401b0382111761086e57604052565b906040519182600082549261252d8461246c565b90818452600194858116908160001461259c5750600114612559575b5050612557925003836124f8565b565b9093915060005260209081600020936000915b81831061258457505061255793508201013880612549565b8554888401850152948501948794509183019161256c565b91505061255794506020925060ff191682840152151560051b8201013880612549565b600411156125c957565b634e487b7160e01b600052602160045260246000fd5b919082519283825260005b84811061260b575050826000602080949584010152601f8019910116010190565b6020818301810151848301820152016125ea565b6040906003190112610204576004359060243590565b8054821015612651576000526003602060002091020190600090565b634e487b7160e01b600052603260045260246000fd5b600435906001600160a01b038216820361020457565b602435906001600160a01b038216820361020457565b80548210156126515760005260206000200190600090565b81601f82011215610204578035906001600160401b03821161086e57604051926126df601f8401601f1916602001856124f8565b8284526020838301011161020457816000926020809301838601378301015290565b6060600319820112610204576004359160243580151581036102045791604435906001600160401b0382116102045761273c916004016126ab565b90565b6020908160408183019282815285518094520193019160005b828110612766575050505090565b835185529381019392810192600101612758565b6001600160401b03811161086e5760051b60200190565b3360009081527f50efbde2d46c37e9785f1791697f77e94bb7b701e19f1930a668820722d3769460205260409020547fa49807205ce4d355092ef5a8a18f56e8913cf4a201fbe287825b095693c217759060ff16156121d75750565b80600052600160205260406000203360005260205260ff60406000205416156121d75750565b6001600160a01b031660008181527f249a641c682c1e9c5dc7dbab36c26f96131373e43e5b4319a60d61bcefc6b16260205260408120549091907f966a00e53c991954f9346cf783097be60911b589dd69ff02c7a9fd1c792150299060ff166128c15780835260016020526040832082845260205260408320600160ff198254161790557f2f8788117e7eff1d82e926ec794901d17c78024a50270940304540a733656f0d339380a4600190565b505090565b906000918083526001602052604083209160018060a01b03169182845260205260ff604084205416156000146128c15780835260016020526040832082845260205260408320600160ff198254161790557f2f8788117e7eff1d82e926ec794901d17c78024a50270940304540a733656f0d339380a4600190565b906000918083526001602052604083209160018060a01b03169182845260205260ff6040842054166000146128c1578083526001602052604083208284526020526040832060ff1981541690557ff6391f5c32d9c69d2a47ea670b442974b53935d1edc7fd64eb21e047a839171b339380a4600190565b60001981146129c75760010190565b634e487b7160e01b600052601160045260246000fd5b8181106129e8575050565b600081556001016129dd565b906129fe816125bf565b60ff80198354169116179055565b8054600160401b81101561086e57612a2991600182018155612693565b819291549060031b91821b91600019901b1916179055565b80518210156126515760209160051b010190565b15612a5c57565b60405162461bcd60e51b8152602060048201526015602482015274115cd8dc9bddc8191bd95cc81b9bdd08195e1a5cdd605a1b6044820152606490fd5b15612aa057565b60405162461bcd60e51b8152602060048201526011602482015270457363726f77206e6f742061637469766560781b6044820152606490fd5b600260005414612aea576002600055565b604051633ee5aeb560e01b8152600490fd5b919082039182116129c757565b9160006020916040518381019163a9059cbb60e01b835260018060a01b038096166024830152604482015260448152612b41816124a6565b519082865af115612b86576000513d612b7d57508082163b155b612b63575050565b604051635274afe760e01b81529116600482015260249150fd5b60011415612b5b565b6040513d6000823e3d90fd5b8115612b9c570490565b634e487b7160e01b600052601260045260246000fd5b9060009180835260209060048252604091828520918254612bd28161277a565b93612bdf865195866124f8565b81855287528287208790848087015b848410612d5d575050505050855260028152828520928051612c0f816124c1565b845481526001808601548483015260028601546001600160a01b03908116848401529251600387018054808352908a52858a20929791949192859283880192908c905b8b8a848410612d425750505050505061014092612c76612ca293600a9303876124f8565b6060850195865260048101546080860152600581015460a086015260ff6006820154166113f8816125bf565b910152825190515111612d3d57849283815b612cf8575b505050606482029180830460641490151715612ce457612cdc9293505190612b92565b600a54111590565b634e487b7160e01b84526011600452602484fd5b8351811015612d385782612d0c8286612a41565b510151612d23575b612d1d906129b8565b81612cb4565b93612d30612d1d916129b8565b949050612d14565b612cb9565b505050565b8554831687528a975090950194938401939190910190612c52565b6001916003918a51612d6e816124a6565b60ff8654868060a01b038116835260a01c16151583820152848601548c820152612d9a60028701612519565b60608201528152019201920191908590612bee565b9190916000908152602090600282526040812093604051612dcf816124c1565b85548152600193848701548183015260018060a01b039182600289015416604082015260038801604051928381835491828152019288528188209188905b828210612e875750505050612e32600a88999a612c7686610140959b9a9b03876124f8565b91015284955b612e46575b50505050905090565b80518051871015612e8157612e5c878492612a41565b511682841614612e7857612e718495966129b8565b9594612e38565b50505091505090565b50612e3d565b83548816855293840193928a0192908a0190612e0d565b600090815260206002815260408220604051612eb9816124c1565b81548152600191828101548483015260018060a01b039182600283015416604082015260038201604051958681835491828152019289528189209189905b828210612fca57505050508592612f6792612f188798612f5e9403866124f8565b6060810194855260048201549060808101918252610140612f52600a60058601549560a0850196875260ff6006820154166113f8816125bf565b91015251905190612afc565b82515190612b92565b947f0000000000000000000000000000000000000000000000000000000000000000935b612f98575b505050505050565b8151908151811015612fc4576107668785612fb684612fbe96612a41565b511687612b09565b84612f8b565b50612f90565b835488168552938401939288019290880190612ef756fea2646970667358221220718196af3b55db22b15df918560788a8da3ace64b83c402860455cb6abceca8364736f6c634300081400332f8788117e7eff1d82e926ec794901d17c78024a50270940304540a733656f0d","opcodes":"PUSH1 0xA0 CALLVALUE PUSH3 0xC1 JUMPI PUSH1 0x1F PUSH3 0x32D6 CODESIZE DUP2 SWAP1 SUB SWAP2 DUP3 ADD PUSH1 0x1F NOT AND DUP4 ADD SWAP2 PUSH1 0x1 PUSH1 0x1 PUSH1 0x40 SHL SUB DUP4 GT DUP5 DUP5 LT OR PUSH3 0xC6 JUMPI DUP1 DUP5 SWAP3 PUSH1 0x20 SWAP5 PUSH1 0x40 MSTORE DUP4 CODECOPY DUP2 ADD SUB SLT PUSH3 0xC1 JUMPI MLOAD PUSH1 0x1 PUSH1 0x1 PUSH1 0xA0 SHL SUB DUP2 AND SWAP1 DUP2 SWAP1 SUB PUSH3 0xC1 JUMPI PUSH1 0x1 PUSH1 0x0 SSTORE PUSH1 0x1 PUSH1 0x8 SSTORE PUSH3 0x93A80 PUSH1 0x9 SSTORE PUSH1 0x3C PUSH1 0xA SSTORE PUSH1 0x80 MSTORE PUSH3 0x7A CALLER PUSH3 0xDC JUMP JUMPDEST POP PUSH3 0x86 CALLER PUSH3 0x15D JUMP JUMPDEST POP PUSH3 0x92 CALLER PUSH3 0x200 JUMP JUMPDEST POP PUSH1 0x40 MLOAD PUSH2 0x3017 SWAP1 DUP2 PUSH3 0x29F DUP3 CODECOPY PUSH1 0x80 MLOAD DUP2 DUP2 DUP2 PUSH2 0x1CB9 ADD MSTORE DUP2 DUP2 PUSH2 0x2059 ADD MSTORE DUP2 DUP2 PUSH2 0x223A ADD MSTORE PUSH2 0x2F6A ADD MSTORE RETURN JUMPDEST PUSH1 0x0 DUP1 REVERT JUMPDEST PUSH4 0x4E487B71 PUSH1 0xE0 SHL PUSH1 0x0 MSTORE PUSH1 0x41 PUSH1 0x4 MSTORE PUSH1 0x24 PUSH1 0x0 REVERT JUMPDEST PUSH1 0x1 PUSH1 0x1 PUSH1 0xA0 SHL SUB AND PUSH1 0x0 DUP2 DUP2 MSTORE PUSH32 0xA6EEF7E35ABE7026729641147F7915573C7E97B47EFA546F5F6E3230263BCB49 PUSH1 0x20 MSTORE PUSH1 0x40 DUP2 KECCAK256 SLOAD SWAP1 SWAP2 SWAP1 PUSH1 0xFF AND PUSH3 0x159 JUMPI DUP2 DUP1 MSTORE PUSH1 0x1 PUSH1 0x20 MSTORE PUSH1 0x40 DUP3 KECCAK256 DUP2 DUP4 MSTORE PUSH1 0x20 MSTORE PUSH1 0x40 DUP3 KECCAK256 PUSH1 0x1 PUSH1 0xFF NOT DUP3 SLOAD AND OR SWAP1 SSTORE CALLER SWAP2 PUSH1 0x0 DUP1 MLOAD PUSH1 0x20 PUSH3 0x32B6 DUP4 CODECOPY DUP2 MLOAD SWAP2 MSTORE DUP2 DUP1 LOG4 PUSH1 0x1 SWAP1 JUMP JUMPDEST POP SWAP1 JUMP JUMPDEST PUSH1 0x1 PUSH1 0x1 PUSH1 0xA0 SHL SUB AND PUSH1 0x0 DUP2 DUP2 MSTORE PUSH32 0x50EFBDE2D46C37E9785F1791697F77E94BB7B701E19F1930A668820722D37694 PUSH1 0x20 MSTORE PUSH1 0x40 DUP2 KECCAK256 SLOAD SWAP1 SWAP2 SWAP1 PUSH32 0xA49807205CE4D355092EF5A8A18F56E8913CF4A201FBE287825B095693C21775 SWAP1 PUSH1 0xFF AND PUSH3 0x1FB JUMPI DUP1 DUP4 MSTORE PUSH1 0x1 PUSH1 0x20 MSTORE PUSH1 0x40 DUP4 KECCAK256 DUP3 DUP5 MSTORE PUSH1 0x20 MSTORE PUSH1 0x40 DUP4 KECCAK256 PUSH1 0x1 PUSH1 0xFF NOT DUP3 SLOAD AND OR SWAP1 SSTORE PUSH1 0x0 DUP1 MLOAD PUSH1 0x20 PUSH3 0x32B6 DUP4 CODECOPY DUP2 MLOAD SWAP2 MSTORE CALLER SWAP4 DUP1 LOG4 PUSH1 0x1 SWAP1 JUMP JUMPDEST POP POP SWAP1 JUMP JUMPDEST PUSH1 0x1 PUSH1 0x1 PUSH1 0xA0 SHL SUB AND PUSH1 0x0 DUP2 DUP2 MSTORE PUSH32 0x4EA974B431A0B4C2E2044C8E7AB9ED5C93A2A8529B05175B6AEA7D6522678C2B PUSH1 0x20 MSTORE PUSH1 0x40 DUP2 KECCAK256 SLOAD SWAP1 SWAP2 SWAP1 PUSH32 0x16CEEE8289685DD2A02B9C8AE81D2DF373176CE53519E6284E2A2950D6546FFA SWAP1 PUSH1 0xFF AND PUSH3 0x1FB JUMPI DUP1 DUP4 MSTORE PUSH1 0x1 PUSH1 0x20 MSTORE PUSH1 0x40 DUP4 KECCAK256 DUP3 DUP5 MSTORE PUSH1 0x20 MSTORE PUSH1 0x40 DUP4 KECCAK256 PUSH1 0x1 PUSH1 0xFF NOT DUP3 SLOAD AND OR SWAP1 SSTORE PUSH1 0x0 DUP1 MLOAD PUSH1 0x20 PUSH3 0x32B6 DUP4 CODECOPY DUP2 MLOAD SWAP2 MSTORE CALLER SWAP4 DUP1 LOG4 PUSH1 0x1 SWAP1 JUMP INVALID PUSH1 0x80 PUSH1 0x40 MSTORE PUSH1 0x4 CALLDATASIZE LT ISZERO PUSH2 0x12 JUMPI PUSH1 0x0 DUP1 REVERT JUMPDEST PUSH1 0x0 CALLDATALOAD PUSH1 0xE0 SHR DUP1 PUSH4 0x12F52EE EQ PUSH2 0x23A3 JUMPI DUP1 PUSH4 0x1FFC9A7 EQ PUSH2 0x234D JUMPI DUP1 PUSH4 0x2A251A3 EQ PUSH2 0x232F JUMPI DUP1 PUSH4 0x11E6A595 EQ PUSH2 0x22B3 JUMPI DUP1 PUSH4 0x1D78E641 EQ PUSH2 0x2269 JUMPI DUP1 PUSH4 0x1FCCF672 EQ PUSH2 0x2224 JUMPI DUP1 PUSH4 0x248A9CA3 EQ PUSH2 0x21F5 JUMPI DUP1 PUSH4 0x2840662D EQ PUSH2 0x1EAF JUMPI DUP1 PUSH4 0x2F2FF15D EQ PUSH2 0x1E70 JUMPI DUP1 PUSH4 0x3207247B EQ PUSH2 0x1E35 JUMPI DUP1 PUSH4 0x36568ABE EQ PUSH2 0x1DEE JUMPI DUP1 PUSH4 0x3D602B93 EQ PUSH2 0x1D7C JUMPI DUP1 PUSH4 0x43859632 EQ PUSH2 0x1D2F JUMPI DUP1 PUSH4 0x4D68282F EQ PUSH2 0x1BF7 JUMPI DUP1 PUSH4 0x4FD13BF6 EQ PUSH2 0x1BD9 JUMPI DUP1 PUSH4 0x564A565D EQ PUSH2 0x1B16 JUMPI DUP1 PUSH4 0x5AEF573C EQ PUSH2 0x1679 JUMPI DUP1 PUSH4 0x62AEF6F0 EQ PUSH2 0x118C JUMPI DUP1 PUSH4 0x6D624790 EQ PUSH2 0xE11 JUMPI DUP1 PUSH4 0x74A28FA8 EQ PUSH2 0xD99 JUMPI DUP1 PUSH4 0x75B238FC EQ PUSH2 0xD5E JUMPI DUP1 PUSH4 0x7D19E596 EQ PUSH2 0xB0F JUMPI DUP1 PUSH4 0x89CB29DD EQ PUSH2 0xAF1 JUMPI DUP1 PUSH4 0x91D14854 EQ PUSH2 0xAA4 JUMPI DUP1 PUSH4 0x9CEA0787 EQ PUSH2 0xA69 JUMPI DUP1 PUSH4 0xA217FDDF EQ PUSH2 0xA4D JUMPI DUP1 PUSH4 0xB9C831D9 EQ PUSH2 0x441 JUMPI DUP1 PUSH4 0xD547741F EQ PUSH2 0x402 JUMPI DUP1 PUSH4 0xDA01B880 EQ PUSH2 0x2C5 JUMPI DUP1 PUSH4 0xDD75CD9B EQ PUSH2 0x261 JUMPI DUP1 PUSH4 0xEE5F78EF EQ PUSH2 0x209 JUMPI PUSH4 0xF067347D EQ PUSH2 0x17C JUMPI PUSH1 0x0 DUP1 REVERT JUMPDEST CALLVALUE PUSH2 0x204 JUMPI PUSH1 0x20 DUP1 PUSH1 0x3 NOT CALLDATASIZE ADD SLT PUSH2 0x204 JUMPI PUSH1 0x1 PUSH1 0x1 PUSH1 0xA0 SHL SUB PUSH2 0x19E PUSH2 0x2667 JUMP JUMPDEST AND PUSH1 0x0 MSTORE PUSH1 0x6 DUP2 MSTORE PUSH1 0x40 PUSH1 0x0 KECCAK256 SWAP1 PUSH1 0x40 MLOAD SWAP1 DUP2 DUP2 DUP5 SLOAD SWAP2 DUP3 DUP2 MSTORE ADD SWAP4 PUSH1 0x0 MSTORE DUP2 PUSH1 0x0 KECCAK256 SWAP2 PUSH1 0x0 SWAP1 JUMPDEST DUP3 DUP3 LT PUSH2 0x1ED JUMPI PUSH2 0x1E9 DUP6 PUSH2 0x1DD DUP2 DUP10 SUB DUP3 PUSH2 0x24F8 JUMP JUMPDEST PUSH1 0x40 MLOAD SWAP2 DUP3 SWAP2 DUP3 PUSH2 0x273F JUMP JUMPDEST SUB SWAP1 RETURN JUMPDEST DUP4 SLOAD DUP7 MSTORE SWAP5 DUP6 ADD SWAP5 PUSH1 0x1 SWAP4 DUP5 ADD SWAP4 SWAP1 SWAP2 ADD SWAP1 PUSH2 0x1C6 JUMP JUMPDEST PUSH1 0x0 DUP1 REVERT JUMPDEST CALLVALUE PUSH2 0x204 JUMPI PUSH1 0x40 CALLDATASIZE PUSH1 0x3 NOT ADD SLT PUSH2 0x204 JUMPI PUSH2 0x222 PUSH2 0x2667 JUMP JUMPDEST PUSH1 0x1 PUSH1 0x1 PUSH1 0xA0 SHL SUB AND PUSH1 0x0 SWAP1 DUP2 MSTORE PUSH1 0x7 PUSH1 0x20 MSTORE PUSH1 0x40 SWAP1 KECCAK256 DUP1 SLOAD PUSH1 0x24 CALLDATALOAD SWAP2 SWAP1 DUP3 LT ISZERO PUSH2 0x204 JUMPI PUSH1 0x20 SWAP2 PUSH2 0x253 SWAP2 PUSH2 0x2693 JUMP JUMPDEST SWAP1 SLOAD PUSH1 0x40 MLOAD SWAP2 PUSH1 0x3 SHL SHR DUP2 MSTORE RETURN JUMPDEST CALLVALUE PUSH2 0x204 JUMPI PUSH1 0x20 CALLDATASIZE PUSH1 0x3 NOT ADD SLT PUSH2 0x204 JUMPI PUSH2 0x2C3 PUSH1 0x4 CALLDATALOAD PUSH2 0x280 PUSH2 0x2791 JUMP JUMPDEST DUP1 PUSH1 0x0 MSTORE PUSH1 0x2 PUSH1 0x20 MSTORE PUSH1 0x6 PUSH1 0x40 PUSH1 0x0 KECCAK256 PUSH2 0x29C DUP2 SLOAD ISZERO ISZERO PUSH2 0x2A55 JUMP JUMPDEST ADD PUSH1 0x3 DUP2 SLOAD PUSH2 0x2B7 PUSH1 0xFF DUP3 AND PUSH2 0x2B1 DUP2 PUSH2 0x25BF JUMP JUMPDEST ISZERO PUSH2 0x2A99 JUMP JUMPDEST PUSH1 0xFF NOT AND OR SWAP1 SSTORE PUSH2 0x2E9E JUMP JUMPDEST STOP JUMPDEST CALLVALUE PUSH2 0x204 JUMPI PUSH1 0x20 DUP1 PUSH1 0x3 NOT CALLDATASIZE ADD SLT PUSH2 0x204 JUMPI PUSH1 0x4 CALLDATALOAD PUSH1 0x0 MSTORE PUSH1 0x4 DUP2 MSTORE PUSH1 0x40 PUSH1 0x0 KECCAK256 SWAP1 DUP2 SLOAD SWAP2 PUSH2 0x2F3 DUP4 PUSH2 0x277A JUMP JUMPDEST SWAP3 PUSH2 0x301 PUSH1 0x40 MLOAD SWAP5 DUP6 PUSH2 0x24F8 JUMP JUMPDEST DUP1 DUP5 MSTORE DUP3 DUP5 ADD DUP1 SWAP3 PUSH1 0x0 MSTORE DUP4 PUSH1 0x0 KECCAK256 PUSH1 0x0 SWAP2 JUMPDEST DUP4 DUP4 LT PUSH2 0x3AA JUMPI POP POP POP POP PUSH1 0x40 MLOAD SWAP2 DUP1 DUP4 ADD SWAP4 DUP2 DUP5 MSTORE MLOAD DUP1 SWAP5 MSTORE PUSH1 0x40 DUP4 ADD SWAP4 PUSH1 0x40 DUP2 PUSH1 0x5 SHL DUP6 ADD ADD SWAP3 SWAP2 PUSH1 0x0 SWAP6 JUMPDEST DUP3 DUP8 LT PUSH2 0x34F JUMPI DUP6 DUP6 SUB DUP7 RETURN JUMPDEST SWAP1 SWAP2 SWAP3 SWAP4 DUP3 DUP1 PUSH2 0x39A PUSH1 0x1 SWAP4 PUSH1 0x3F NOT DUP11 DUP3 SUB ADD DUP7 MSTORE DUP9 MLOAD DUP6 DUP1 PUSH1 0xA0 SHL SUB DUP2 MLOAD AND DUP3 MSTORE DUP4 DUP2 ADD MLOAD ISZERO ISZERO DUP5 DUP4 ADD MSTORE PUSH1 0x40 DUP2 ADD MLOAD PUSH1 0x40 DUP4 ADD MSTORE PUSH1 0x60 DUP1 SWAP2 ADD MLOAD SWAP2 PUSH1 0x80 DUP1 SWAP3 DUP3 ADD MSTORE ADD SWAP1 PUSH2 0x25DF JUMP JUMPDEST SWAP7 ADD SWAP3 ADD SWAP7 ADD SWAP6 SWAP3 SWAP2 SWAP1 SWAP3 PUSH2 0x342 JUMP JUMPDEST PUSH1 0x3 DUP7 PUSH1 0x1 SWAP3 PUSH1 0x40 SWAP10 SWAP9 SWAP10 MLOAD PUSH2 0x3BF DUP2 PUSH2 0x24A6 JUMP JUMPDEST PUSH1 0xFF DUP7 SLOAD DUP7 DUP1 PUSH1 0xA0 SHL SUB DUP2 AND DUP4 MSTORE PUSH1 0xA0 SHR AND ISZERO ISZERO DUP4 DUP3 ADD MSTORE DUP5 DUP7 ADD SLOAD PUSH1 0x40 DUP3 ADD MSTORE PUSH2 0x3EC PUSH1 0x2 DUP8 ADD PUSH2 0x2519 JUMP JUMPDEST PUSH1 0x60 DUP3 ADD MSTORE DUP2 MSTORE ADD SWAP3 ADD SWAP3 ADD SWAP2 SWAP1 SWAP6 SWAP5 SWAP6 PUSH2 0x314 JUMP JUMPDEST CALLVALUE PUSH2 0x204 JUMPI PUSH1 0x40 CALLDATASIZE PUSH1 0x3 NOT ADD SLT PUSH2 0x204 JUMPI PUSH2 0x2C3 PUSH1 0x4 CALLDATALOAD PUSH2 0x421 PUSH2 0x267D JUMP JUMPDEST SWAP1 DUP1 PUSH1 0x0 MSTORE PUSH1 0x1 PUSH1 0x20 MSTORE PUSH2 0x43C PUSH1 0x1 PUSH1 0x40 PUSH1 0x0 KECCAK256 ADD SLOAD PUSH2 0x27ED JUMP JUMPDEST PUSH2 0x2941 JUMP JUMPDEST CALLVALUE PUSH2 0x204 JUMPI PUSH1 0xC0 CALLDATASIZE PUSH1 0x3 NOT ADD SLT PUSH2 0x204 JUMPI PUSH2 0x45A PUSH2 0x267D JUMP JUMPDEST PUSH1 0x44 CALLDATALOAD PUSH1 0x1 PUSH1 0x1 PUSH1 0x40 SHL SUB DUP2 GT PUSH2 0x204 JUMPI CALLDATASIZE PUSH1 0x23 DUP3 ADD SLT ISZERO PUSH2 0x204 JUMPI DUP1 PUSH1 0x4 ADD CALLDATALOAD PUSH2 0x484 DUP2 PUSH2 0x277A JUMP JUMPDEST SWAP2 PUSH2 0x492 PUSH1 0x40 MLOAD SWAP4 DUP5 PUSH2 0x24F8 JUMP JUMPDEST DUP2 DUP4 MSTORE PUSH1 0x24 PUSH1 0x20 DUP5 ADD SWAP3 PUSH1 0x5 SHL DUP3 ADD ADD SWAP1 CALLDATASIZE DUP3 GT PUSH2 0x204 JUMPI PUSH1 0x24 ADD SWAP2 JUMPDEST DUP2 DUP4 LT PUSH2 0xA2D JUMPI POP POP POP PUSH1 0x84 CALLDATALOAD PUSH1 0x1 PUSH1 0x1 PUSH1 0x40 SHL SUB DUP2 GT PUSH2 0x204 JUMPI PUSH2 0x4D8 SWAP1 CALLDATASIZE SWAP1 PUSH1 0x4 ADD PUSH2 0x26AB JUMP JUMPDEST SWAP1 PUSH2 0x4E1 PUSH2 0x2791 JUMP JUMPDEST PUSH1 0x64 CALLDATALOAD ISZERO PUSH2 0x9E8 JUMPI DUP1 MLOAD ISZERO PUSH2 0x9AD JUMPI TIMESTAMP PUSH1 0xA4 CALLDATALOAD GT ISZERO PUSH2 0x975 JUMPI PUSH1 0x8 SLOAD SWAP2 PUSH2 0x507 DUP4 PUSH2 0x29B8 JUMP JUMPDEST PUSH1 0x8 SSTORE PUSH1 0x40 MLOAD SWAP1 PUSH2 0x517 DUP3 PUSH2 0x24C1 JUMP JUMPDEST DUP4 DUP3 MSTORE PUSH1 0x4 CALLDATALOAD PUSH1 0x20 DUP4 ADD MSTORE PUSH1 0x1 DUP1 PUSH1 0xA0 SHL SUB DUP6 AND PUSH1 0x40 DUP4 ADD MSTORE DUP3 PUSH1 0x60 DUP4 ADD MSTORE PUSH1 0x64 CALLDATALOAD PUSH1 0x80 DUP4 ADD MSTORE PUSH1 0x0 PUSH1 0xA0 DUP4 ADD MSTORE PUSH1 0x0 PUSH1 0xC0 DUP4 ADD MSTORE TIMESTAMP PUSH1 0xE0 DUP4 ADD MSTORE PUSH1 0xA4 CALLDATALOAD PUSH2 0x100 DUP4 ADD MSTORE PUSH2 0x120 DUP3 ADD MSTORE PUSH1 0x40 MLOAD PUSH2 0x56D DUP2 PUSH2 0x24DD JUMP JUMPDEST PUSH1 0x0 DUP2 MSTORE PUSH2 0x140 DUP3 ADD MSTORE DUP3 PUSH1 0x0 MSTORE PUSH1 0x2 PUSH1 0x20 MSTORE PUSH1 0x40 PUSH1 0x0 KECCAK256 SWAP1 DUP1 MLOAD DUP3 SSTORE PUSH1 0x20 DUP2 ADD MLOAD PUSH1 0x1 DUP4 ADD SSTORE PUSH1 0x2 DUP3 ADD PUSH1 0x1 DUP1 PUSH1 0xA0 SHL SUB PUSH1 0x40 DUP4 ADD MLOAD AND PUSH12 0xFFFFFFFFFFFFFFFFFFFFFFFF PUSH1 0xA0 SHL DUP3 SLOAD AND OR SWAP1 SSTORE PUSH1 0x60 DUP2 ADD MLOAD DUP1 MLOAD SWAP1 PUSH1 0x1 PUSH1 0x1 PUSH1 0x40 SHL SUB DUP3 GT PUSH2 0x86E JUMPI PUSH1 0x1 PUSH1 0x40 SHL DUP3 GT PUSH2 0x86E JUMPI PUSH1 0x20 SWAP1 PUSH1 0x3 DUP6 ADD SLOAD DUP4 PUSH1 0x3 DUP8 ADD SSTORE DUP1 DUP5 LT PUSH2 0x955 JUMPI JUMPDEST POP ADD PUSH1 0x3 DUP5 ADD PUSH1 0x0 MSTORE PUSH1 0x20 PUSH1 0x0 KECCAK256 PUSH1 0x0 JUMPDEST DUP4 DUP2 LT PUSH2 0x938 JUMPI POP POP POP POP PUSH1 0x80 DUP2 ADD MLOAD PUSH1 0x4 DUP4 ADD SSTORE PUSH1 0xA0 DUP2 ADD MLOAD PUSH1 0x5 DUP4 ADD SSTORE PUSH2 0x63C PUSH1 0xC0 DUP3 ADD MLOAD PUSH2 0x633 DUP2 PUSH2 0x25BF JUMP JUMPDEST PUSH1 0x6 DUP5 ADD PUSH2 0x29F4 JUMP JUMPDEST PUSH1 0xE0 DUP2 ADD MLOAD PUSH1 0x7 DUP4 ADD SSTORE PUSH2 0x100 DUP2 ADD MLOAD PUSH1 0x8 DUP4 ADD SSTORE PUSH2 0x120 DUP2 ADD MLOAD DUP1 MLOAD SWAP1 PUSH1 0x1 PUSH1 0x1 PUSH1 0x40 SHL SUB DUP3 GT PUSH2 0x86E JUMPI PUSH2 0x675 PUSH1 0x9 DUP6 ADD SLOAD PUSH2 0x246C JUMP JUMPDEST PUSH1 0x1F DUP2 GT PUSH2 0x903 JUMPI JUMPDEST POP PUSH1 0x20 SWAP1 PUSH1 0x1F DUP4 GT PUSH1 0x1 EQ PUSH2 0x88F JUMPI PUSH2 0x140 SWAP4 SWAP3 SWAP2 PUSH1 0x0 SWAP2 DUP4 PUSH2 0x884 JUMPI JUMPDEST POP POP DUP2 PUSH1 0x1 SHL SWAP2 PUSH1 0x0 NOT SWAP1 PUSH1 0x3 SHL SHR NOT AND OR PUSH1 0x9 DUP5 ADD SSTORE JUMPDEST ADD MLOAD SWAP1 DUP2 MLOAD SWAP1 PUSH1 0x1 PUSH1 0x1 PUSH1 0x40 SHL SUB DUP3 GT PUSH2 0x86E JUMPI PUSH1 0xA DUP3 SWAP2 ADD SWAP3 PUSH2 0x6D8 DUP5 SLOAD PUSH2 0x246C JUMP JUMPDEST PUSH1 0x1F DUP2 GT PUSH2 0x831 JUMPI JUMPDEST POP PUSH1 0x20 SWAP1 PUSH1 0x1F DUP4 GT PUSH1 0x1 EQ PUSH2 0x7CB JUMPI PUSH1 0x0 SWAP3 PUSH2 0x7C0 JUMPI JUMPDEST POP POP DUP2 PUSH1 0x1 SHL SWAP2 PUSH1 0x0 NOT SWAP1 PUSH1 0x3 SHL SHR NOT AND OR SWAP1 SSTORE JUMPDEST PUSH1 0x1 DUP1 PUSH1 0xA0 SHL SUB DUP4 AND PUSH1 0x0 MSTORE PUSH1 0x6 PUSH1 0x20 MSTORE PUSH2 0x72C DUP3 PUSH1 0x40 PUSH1 0x0 KECCAK256 PUSH2 0x2A0C JUMP JUMPDEST PUSH1 0x0 JUMPDEST DUP2 MLOAD DUP2 LT ISZERO PUSH2 0x770 JUMPI PUSH2 0x76B SWAP1 PUSH1 0x1 PUSH1 0x1 PUSH1 0xA0 SHL SUB PUSH2 0x74E DUP3 DUP6 PUSH2 0x2A41 JUMP JUMPDEST MLOAD AND PUSH1 0x0 MSTORE PUSH1 0x7 PUSH1 0x20 MSTORE PUSH2 0x766 DUP5 PUSH1 0x40 PUSH1 0x0 KECCAK256 PUSH2 0x2A0C JUMP JUMPDEST PUSH2 0x29B8 JUMP JUMPDEST PUSH2 0x72F JUMP JUMPDEST PUSH1 0x20 DUP4 DUP6 PUSH2 0x77D DUP2 PUSH2 0x2813 JUMP JUMPDEST POP PUSH1 0x40 MLOAD SWAP1 PUSH1 0x64 CALLDATALOAD DUP3 MSTORE PUSH1 0x1 DUP1 PUSH1 0xA0 SHL SUB AND SWAP1 DUP3 PUSH32 0x3C2DC6ABDE8E114CA054A4BFC1DC2E892E8C31BEEDC6F95A37707B4F88E934D0 DUP6 PUSH1 0x4 CALLDATALOAD SWAP4 LOG4 PUSH1 0x40 MLOAD SWAP1 DUP2 MSTORE RETURN JUMPDEST ADD MLOAD SWAP1 POP DUP7 DUP1 PUSH2 0x6F8 JUMP JUMPDEST PUSH1 0x0 DUP6 DUP2 MSTORE PUSH1 0x20 DUP2 KECCAK256 SWAP4 POP PUSH1 0x1F NOT DUP6 AND SWAP1 JUMPDEST DUP2 DUP2 LT PUSH2 0x819 JUMPI POP SWAP1 DUP5 PUSH1 0x1 SWAP6 SWAP5 SWAP4 SWAP3 LT PUSH2 0x800 JUMPI JUMPDEST POP POP POP DUP2 SHL ADD SWAP1 SSTORE PUSH2 0x70D JUMP JUMPDEST ADD MLOAD PUSH1 0x0 NOT PUSH1 0xF8 DUP5 PUSH1 0x3 SHL AND SHR NOT AND SWAP1 SSTORE DUP7 DUP1 DUP1 PUSH2 0x7F3 JUMP JUMPDEST SWAP3 SWAP4 PUSH1 0x20 PUSH1 0x1 DUP2 SWAP3 DUP8 DUP7 ADD MLOAD DUP2 SSTORE ADD SWAP6 ADD SWAP4 ADD PUSH2 0x7DD JUMP JUMPDEST PUSH2 0x85E SWAP1 DUP6 PUSH1 0x0 MSTORE PUSH1 0x20 PUSH1 0x0 KECCAK256 PUSH1 0x1F DUP6 ADD PUSH1 0x5 SHR DUP2 ADD SWAP2 PUSH1 0x20 DUP7 LT PUSH2 0x864 JUMPI JUMPDEST PUSH1 0x1F ADD PUSH1 0x5 SHR ADD SWAP1 PUSH2 0x29DD JUMP JUMPDEST DUP8 PUSH2 0x6E1 JUMP JUMPDEST SWAP1 SWAP2 POP DUP2 SWAP1 PUSH2 0x851 JUMP JUMPDEST PUSH4 0x4E487B71 PUSH1 0xE0 SHL PUSH1 0x0 MSTORE PUSH1 0x41 PUSH1 0x4 MSTORE PUSH1 0x24 PUSH1 0x0 REVERT JUMPDEST ADD MLOAD SWAP1 POP DUP9 DUP1 PUSH2 0x69C JUMP JUMPDEST SWAP1 PUSH1 0x9 DUP6 ADD PUSH1 0x0 MSTORE PUSH1 0x20 PUSH1 0x0 KECCAK256 SWAP2 PUSH1 0x0 JUMPDEST PUSH1 0x1F NOT DUP6 AND DUP2 LT PUSH2 0x8EB JUMPI POP SWAP2 DUP4 SWAP2 PUSH1 0x1 SWAP4 PUSH2 0x140 SWAP7 SWAP6 PUSH1 0x1F NOT DUP2 AND LT PUSH2 0x8D2 JUMPI JUMPDEST POP POP POP DUP2 SHL ADD PUSH1 0x9 DUP5 ADD SSTORE PUSH2 0x6B4 JUMP JUMPDEST ADD MLOAD PUSH1 0x0 NOT PUSH1 0xF8 DUP5 PUSH1 0x3 SHL AND SHR NOT AND SWAP1 SSTORE DUP9 DUP1 DUP1 PUSH2 0x8C2 JUMP JUMPDEST SWAP2 SWAP3 PUSH1 0x20 PUSH1 0x1 DUP2 SWAP3 DUP7 DUP6 ADD MLOAD DUP2 SSTORE ADD SWAP5 ADD SWAP3 ADD PUSH2 0x8A0 JUMP JUMPDEST PUSH2 0x932 SWAP1 PUSH1 0x9 DUP7 ADD PUSH1 0x0 MSTORE PUSH1 0x20 PUSH1 0x0 KECCAK256 PUSH1 0x1F DUP6 ADD PUSH1 0x5 SHR DUP2 ADD SWAP2 PUSH1 0x20 DUP7 LT PUSH2 0x864 JUMPI PUSH1 0x1F ADD PUSH1 0x5 SHR ADD SWAP1 PUSH2 0x29DD JUMP JUMPDEST DUP8 PUSH2 0x67E JUMP JUMPDEST DUP3 MLOAD PUSH1 0x1 PUSH1 0x1 PUSH1 0xA0 SHL SUB AND DUP2 DUP4 ADD SSTORE PUSH1 0x20 SWAP1 SWAP3 ADD SWAP2 PUSH1 0x1 ADD PUSH2 0x603 JUMP JUMPDEST PUSH2 0x96F SWAP1 PUSH1 0x3 DUP8 ADD PUSH1 0x0 MSTORE DUP5 DUP5 PUSH1 0x0 KECCAK256 SWAP2 DUP3 ADD SWAP2 ADD PUSH2 0x29DD JUMP JUMPDEST DUP9 PUSH2 0x5F2 JUMP JUMPDEST PUSH1 0x40 MLOAD PUSH3 0x461BCD PUSH1 0xE5 SHL DUP2 MSTORE PUSH1 0x20 PUSH1 0x4 DUP3 ADD MSTORE PUSH1 0x10 PUSH1 0x24 DUP3 ADD MSTORE PUSH16 0x496E76616C696420646561646C696E65 PUSH1 0x80 SHL PUSH1 0x44 DUP3 ADD MSTORE PUSH1 0x64 SWAP1 REVERT JUMPDEST PUSH1 0x40 MLOAD PUSH3 0x461BCD PUSH1 0xE5 SHL DUP2 MSTORE PUSH1 0x20 PUSH1 0x4 DUP3 ADD MSTORE PUSH1 0x13 PUSH1 0x24 DUP3 ADD MSTORE PUSH19 0x4D757374206861766520696E766573746F7273 PUSH1 0x68 SHL PUSH1 0x44 DUP3 ADD MSTORE PUSH1 0x64 SWAP1 REVERT JUMPDEST PUSH1 0x40 MLOAD PUSH3 0x461BCD PUSH1 0xE5 SHL DUP2 MSTORE PUSH1 0x20 PUSH1 0x4 DUP3 ADD MSTORE PUSH1 0x17 PUSH1 0x24 DUP3 ADD MSTORE PUSH32 0x416D6F756E74206D75737420626520706F736974697665000000000000000000 PUSH1 0x44 DUP3 ADD MSTORE PUSH1 0x64 SWAP1 REVERT JUMPDEST DUP3 CALLDATALOAD PUSH1 0x1 PUSH1 0x1 PUSH1 0xA0 SHL SUB DUP2 AND DUP2 SUB PUSH2 0x204 JUMPI DUP2 MSTORE PUSH1 0x20 SWAP3 DUP4 ADD SWAP3 ADD PUSH2 0x4AF JUMP JUMPDEST CALLVALUE PUSH2 0x204 JUMPI PUSH1 0x0 CALLDATASIZE PUSH1 0x3 NOT ADD SLT PUSH2 0x204 JUMPI PUSH1 0x20 PUSH1 0x40 MLOAD PUSH1 0x0 DUP2 MSTORE RETURN JUMPDEST CALLVALUE PUSH2 0x204 JUMPI PUSH1 0x0 CALLDATASIZE PUSH1 0x3 NOT ADD SLT PUSH2 0x204 JUMPI PUSH1 0x20 PUSH1 0x40 MLOAD PUSH32 0x16CEEE8289685DD2A02B9C8AE81D2DF373176CE53519E6284E2A2950D6546FFA DUP2 MSTORE RETURN JUMPDEST CALLVALUE PUSH2 0x204 JUMPI PUSH1 0x40 CALLDATASIZE PUSH1 0x3 NOT ADD SLT PUSH2 0x204 JUMPI PUSH2 0xABD PUSH2 0x267D JUMP JUMPDEST PUSH1 0x4 CALLDATALOAD PUSH1 0x0 MSTORE PUSH1 0x1 PUSH1 0x20 MSTORE PUSH1 0x40 PUSH1 0x0 KECCAK256 SWAP1 PUSH1 0x1 DUP1 PUSH1 0xA0 SHL SUB AND PUSH1 0x0 MSTORE PUSH1 0x20 MSTORE PUSH1 0x20 PUSH1 0xFF PUSH1 0x40 PUSH1 0x0 KECCAK256 SLOAD AND PUSH1 0x40 MLOAD SWAP1 ISZERO ISZERO DUP2 MSTORE RETURN JUMPDEST CALLVALUE PUSH2 0x204 JUMPI PUSH1 0x0 CALLDATASIZE PUSH1 0x3 NOT ADD SLT PUSH2 0x204 JUMPI PUSH1 0x20 PUSH1 0x8 SLOAD PUSH1 0x40 MLOAD SWAP1 DUP2 MSTORE RETURN JUMPDEST CALLVALUE PUSH2 0x204 JUMPI PUSH1 0x20 CALLDATASIZE PUSH1 0x3 NOT ADD SLT PUSH2 0x204 JUMPI PUSH1 0x60 PUSH2 0x140 PUSH1 0x40 MLOAD PUSH2 0xB31 DUP2 PUSH2 0x24C1 JUMP JUMPDEST PUSH1 0x0 DUP2 MSTORE PUSH1 0x0 PUSH1 0x20 DUP3 ADD MSTORE PUSH1 0x0 PUSH1 0x40 DUP3 ADD MSTORE DUP3 DUP1 DUP3 ADD MSTORE PUSH1 0x0 PUSH1 0x80 DUP3 ADD MSTORE PUSH1 0x0 PUSH1 0xA0 DUP3 ADD MSTORE PUSH1 0x0 PUSH1 0xC0 DUP3 ADD MSTORE PUSH1 0x0 PUSH1 0xE0 DUP3 ADD MSTORE PUSH1 0x0 PUSH2 0x100 DUP3 ADD MSTORE DUP3 PUSH2 0x120 DUP3 ADD MSTORE ADD MSTORE PUSH1 0x4 CALLDATALOAD PUSH1 0x0 MSTORE PUSH1 0x2 PUSH1 0x20 MSTORE PUSH1 0x40 PUSH1 0x0 KECCAK256 PUSH1 0x40 MLOAD SWAP1 PUSH2 0xB92 DUP3 PUSH2 0x24C1 JUMP JUMPDEST DUP1 SLOAD DUP3 MSTORE PUSH1 0x1 DUP2 ADD SLOAD PUSH1 0x20 DUP4 ADD MSTORE PUSH1 0x1 DUP1 PUSH1 0xA0 SHL SUB PUSH1 0x2 DUP3 ADD SLOAD AND PUSH1 0x40 DUP4 ADD MSTORE PUSH1 0x40 MLOAD DUP1 PUSH1 0x3 DUP4 ADD SWAP1 PUSH1 0x20 DUP3 SLOAD SWAP2 DUP3 DUP2 MSTORE ADD SWAP2 PUSH1 0x0 MSTORE PUSH1 0x20 PUSH1 0x0 KECCAK256 SWAP1 PUSH1 0x0 JUMPDEST DUP2 DUP2 LT PUSH2 0xD3F JUMPI DUP7 PUSH2 0xC48 PUSH1 0xA DUP9 DUP9 PUSH2 0xBEC DUP2 DUP11 SUB DUP3 PUSH2 0x24F8 JUMP JUMPDEST PUSH1 0x60 DUP6 ADD MSTORE PUSH1 0x4 DUP2 ADD SLOAD PUSH1 0x80 DUP6 ADD MSTORE PUSH1 0x5 DUP2 ADD SLOAD PUSH1 0xA0 DUP6 ADD MSTORE PUSH1 0xFF PUSH1 0x6 DUP3 ADD SLOAD AND PUSH2 0xC16 DUP2 PUSH2 0x25BF JUMP JUMPDEST PUSH1 0xC0 DUP6 ADD MSTORE PUSH1 0x7 DUP2 ADD SLOAD PUSH1 0xE0 DUP6 ADD MSTORE PUSH1 0x8 DUP2 ADD SLOAD PUSH2 0x100 DUP6 ADD MSTORE PUSH2 0xC3C PUSH1 0x9 DUP3 ADD PUSH2 0x2519 JUMP JUMPDEST PUSH2 0x120 DUP6 ADD MSTORE ADD PUSH2 0x2519 JUMP JUMPDEST PUSH2 0x140 DUP3 ADD MSTORE PUSH1 0x40 MLOAD DUP1 SWAP2 PUSH1 0x20 DUP3 MSTORE DUP1 MLOAD PUSH1 0x20 DUP4 ADD MSTORE PUSH1 0x20 DUP2 ADD MLOAD PUSH1 0x40 DUP4 ADD MSTORE PUSH1 0x1 DUP1 PUSH1 0xA0 SHL SUB PUSH1 0x40 DUP3 ADD MLOAD AND PUSH1 0x60 DUP4 ADD MSTORE PUSH1 0x60 DUP2 ADD MLOAD PUSH2 0x160 PUSH1 0x80 DUP5 ADD MSTORE PUSH2 0x180 DUP4 ADD DUP2 MLOAD DUP1 SWAP2 MSTORE PUSH1 0x20 PUSH2 0x1A0 DUP6 ADD SWAP3 ADD SWAP1 PUSH1 0x0 JUMPDEST DUP2 DUP2 LT PUSH2 0xD1D JUMPI POP POP POP SWAP1 PUSH2 0x1E9 SWAP2 PUSH1 0x80 DUP3 ADD MLOAD PUSH1 0xA0 DUP6 ADD MSTORE PUSH1 0xA0 DUP3 ADD MLOAD PUSH1 0xC0 DUP6 ADD MSTORE PUSH1 0xC0 DUP3 ADD MLOAD PUSH2 0xCCF DUP2 PUSH2 0x25BF JUMP JUMPDEST PUSH1 0xE0 DUP6 ADD MSTORE PUSH1 0xE0 DUP3 ADD MLOAD PUSH2 0x100 DUP6 ADD MSTORE PUSH2 0x100 DUP3 ADD MLOAD PUSH2 0x120 DUP6 ADD MSTORE PUSH2 0x140 PUSH2 0xD0A PUSH2 0x120 DUP5 ADD MLOAD SWAP3 PUSH1 0x1F NOT SWAP4 DUP5 DUP9 DUP4 SUB ADD DUP5 DUP10 ADD MSTORE PUSH2 0x25DF JUMP JUMPDEST SWAP3 ADD MLOAD SWAP1 DUP5 DUP4 SUB ADD PUSH2 0x160 DUP6 ADD MSTORE PUSH2 0x25DF JUMP JUMPDEST DUP3 MLOAD PUSH1 0x1 PUSH1 0x1 PUSH1 0xA0 SHL SUB AND DUP5 MSTORE DUP7 SWAP6 POP PUSH1 0x20 SWAP4 DUP5 ADD SWAP4 SWAP1 SWAP3 ADD SWAP2 PUSH1 0x1 ADD PUSH2 0xC9E JUMP JUMPDEST DUP3 SLOAD PUSH1 0x1 PUSH1 0x1 PUSH1 0xA0 SHL SUB AND DUP5 MSTORE PUSH1 0x20 SWAP1 SWAP4 ADD SWAP3 PUSH1 0x1 SWAP3 DUP4 ADD SWAP3 ADD PUSH2 0xBD1 JUMP JUMPDEST CALLVALUE PUSH2 0x204 JUMPI PUSH1 0x0 CALLDATASIZE PUSH1 0x3 NOT ADD SLT PUSH2 0x204 JUMPI PUSH1 0x20 PUSH1 0x40 MLOAD PUSH32 0xA49807205CE4D355092EF5A8A18F56E8913CF4A201FBE287825B095693C21775 DUP2 MSTORE RETURN JUMPDEST CALLVALUE PUSH2 0x204 JUMPI PUSH1 0x20 DUP1 PUSH1 0x3 NOT CALLDATASIZE ADD SLT PUSH2 0x204 JUMPI PUSH1 0x1 PUSH1 0x1 PUSH1 0xA0 SHL SUB PUSH2 0xDBB PUSH2 0x2667 JUMP JUMPDEST AND PUSH1 0x0 MSTORE PUSH1 0x7 DUP2 MSTORE PUSH1 0x40 PUSH1 0x0 KECCAK256 SWAP1 PUSH1 0x40 MLOAD SWAP1 DUP2 DUP2 DUP5 SLOAD SWAP2 DUP3 DUP2 MSTORE ADD SWAP4 PUSH1 0x0 MSTORE DUP2 PUSH1 0x0 KECCAK256 SWAP2 PUSH1 0x0 SWAP1 JUMPDEST DUP3 DUP3 LT PUSH2 0xDFA JUMPI PUSH2 0x1E9 DUP6 PUSH2 0x1DD DUP2 DUP10 SUB DUP3 PUSH2 0x24F8 JUMP JUMPDEST DUP4 SLOAD DUP7 MSTORE SWAP5 DUP6 ADD SWAP5 PUSH1 0x1 SWAP4 DUP5 ADD SWAP4 SWAP1 SWAP2 ADD SWAP1 PUSH2 0xDE3 JUMP JUMPDEST CALLVALUE PUSH2 0x204 JUMPI PUSH1 0x60 CALLDATASIZE PUSH1 0x3 NOT ADD SLT PUSH2 0x204 JUMPI PUSH1 0x4 CALLDATALOAD PUSH1 0x1 PUSH1 0x1 PUSH1 0x40 SHL SUB PUSH1 0x24 CALLDATALOAD DUP2 DUP2 GT PUSH2 0x204 JUMPI PUSH2 0xE45 SWAP1 CALLDATASIZE SWAP1 PUSH1 0x4 ADD PUSH2 0x26AB JUMP JUMPDEST SWAP1 PUSH1 0x44 CALLDATALOAD DUP2 DUP2 GT PUSH2 0x204 JUMPI PUSH2 0xE5E SWAP1 CALLDATASIZE SWAP1 PUSH1 0x4 ADD PUSH2 0x26AB JUMP JUMPDEST DUP4 PUSH1 0x0 MSTORE PUSH1 0x20 SWAP2 PUSH1 0x2 DUP4 MSTORE PUSH1 0x40 PUSH1 0x0 KECCAK256 SWAP1 PUSH2 0xE7B DUP3 SLOAD ISZERO ISZERO PUSH2 0x2A55 JUMP JUMPDEST PUSH1 0x2 DUP3 ADD SLOAD PUSH1 0x1 PUSH1 0x1 PUSH1 0xA0 SHL SUB AND CALLER SUB PUSH2 0x1147 JUMPI PUSH2 0xEA3 PUSH1 0xFF PUSH1 0x6 DUP5 ADD SLOAD AND PUSH2 0x2B1 DUP2 PUSH2 0x25BF JUMP JUMPDEST DUP5 MLOAD ISZERO PUSH2 0x1109 JUMPI DUP5 MLOAD SWAP2 PUSH1 0xA DUP2 ADD DUP3 DUP5 GT PUSH2 0x86E JUMPI PUSH2 0xEC2 DUP2 SLOAD PUSH2 0x246C JUMP JUMPDEST SWAP4 PUSH1 0x1F SWAP5 DUP6 DUP2 GT PUSH2 0x10DB JUMPI JUMPDEST POP DUP7 DUP6 DUP3 GT PUSH1 0x1 EQ PUSH2 0x1072 JUMPI SWAP1 DUP1 PUSH1 0x9 SWAP5 SWAP4 SWAP3 PUSH1 0x0 SWAP2 PUSH2 0x1067 JUMPI JUMPDEST POP DUP2 PUSH1 0x1 SHL SWAP2 PUSH1 0x0 NOT SWAP1 PUSH1 0x3 SHL SHR NOT AND OR SWAP1 SSTORE JUMPDEST ADD SWAP2 DUP4 MLOAD SWAP2 DUP3 GT PUSH2 0x86E JUMPI PUSH2 0xF12 DUP4 SLOAD PUSH2 0x246C JUMP JUMPDEST DUP2 DUP2 GT PUSH2 0x102F JUMPI JUMPDEST POP DUP5 SWAP1 DUP3 GT PUSH1 0x1 EQ PUSH2 0xFA1 JUMPI SWAP3 PUSH2 0xF91 SWAP3 DUP3 PUSH2 0xF84 SWAP7 SWAP4 PUSH32 0xEC49C5734F5F29580AB8D6BA386030A8F1DBA0A60C89312F34B375880777BCA1 SWAP9 SWAP7 PUSH1 0x0 SWAP2 PUSH2 0xF96 JUMPI JUMPDEST POP DUP2 PUSH1 0x1 SHL SWAP2 PUSH1 0x0 NOT SWAP1 PUSH1 0x3 SHL SHR NOT AND OR SWAP1 SSTORE JUMPDEST PUSH1 0x40 MLOAD SWAP5 DUP6 SWAP5 PUSH1 0x40 DUP7 MSTORE PUSH1 0x40 DUP7 ADD SWAP1 PUSH2 0x25DF JUMP JUMPDEST SWAP2 DUP5 DUP4 SUB SWAP1 DUP6 ADD MSTORE PUSH2 0x25DF JUMP JUMPDEST SUB SWAP1 LOG2 STOP JUMPDEST SWAP1 POP DUP4 ADD MLOAD DUP11 PUSH2 0xF5C JUMP JUMPDEST PUSH1 0x1F NOT DUP3 AND SWAP1 DUP4 PUSH1 0x0 MSTORE DUP6 PUSH1 0x0 KECCAK256 SWAP2 PUSH1 0x0 JUMPDEST DUP2 DUP2 LT PUSH2 0x1018 JUMPI POP DUP4 PUSH32 0xEC49C5734F5F29580AB8D6BA386030A8F1DBA0A60C89312F34B375880777BCA1 SWAP9 SWAP7 SWAP4 PUSH2 0xF91 SWAP7 SWAP4 PUSH2 0xF84 SWAP10 SWAP7 PUSH1 0x1 SWAP5 LT PUSH2 0xFFF JUMPI JUMPDEST POP POP DUP2 SHL ADD SWAP1 SSTORE PUSH2 0xF70 JUMP JUMPDEST DUP6 ADD MLOAD PUSH1 0x0 NOT PUSH1 0xF8 DUP5 PUSH1 0x3 SHL AND SHR NOT AND SWAP1 SSTORE DUP11 DUP1 PUSH2 0xFF3 JUMP JUMPDEST SWAP2 SWAP3 DUP8 PUSH1 0x1 DUP2 SWAP3 DUP7 DUP11 ADD MLOAD DUP2 SSTORE ADD SWAP5 ADD SWAP3 ADD PUSH2 0xFB3 JUMP JUMPDEST PUSH2 0x1058 SWAP1 DUP5 PUSH1 0x0 MSTORE DUP7 PUSH1 0x0 KECCAK256 DUP4 DUP1 DUP7 ADD PUSH1 0x5 SHR DUP3 ADD SWAP3 DUP10 DUP8 LT PUSH2 0x105E JUMPI JUMPDEST ADD PUSH1 0x5 SHR ADD SWAP1 PUSH2 0x29DD JUMP JUMPDEST DUP8 PUSH2 0xF1A JUMP JUMPDEST SWAP3 POP DUP2 SWAP3 PUSH2 0x104D JUMP JUMPDEST SWAP1 POP DUP10 ADD MLOAD DUP12 PUSH2 0xEE9 JUMP JUMPDEST PUSH1 0x1F NOT DUP3 AND SWAP1 DUP4 PUSH1 0x0 MSTORE DUP9 PUSH1 0x0 KECCAK256 SWAP2 PUSH1 0x0 JUMPDEST DUP11 DUP13 DUP4 DUP4 LT PUSH2 0x10C6 JUMPI POP POP POP SWAP2 DUP4 SWAP2 PUSH1 0x9 SWAP7 SWAP6 SWAP5 PUSH1 0x1 SWAP5 LT PUSH2 0x10AD JUMPI JUMPDEST POP POP DUP2 SHL ADD SWAP1 SSTORE PUSH2 0xEFD JUMP JUMPDEST DUP12 ADD MLOAD PUSH1 0x0 NOT PUSH1 0xF8 DUP5 PUSH1 0x3 SHL AND SHR NOT AND SWAP1 SSTORE DUP12 DUP1 PUSH2 0x10A1 JUMP JUMPDEST DUP5 ADD MLOAD DUP6 SSTORE PUSH1 0x1 SWAP1 SWAP5 ADD SWAP4 SWAP3 DUP4 ADD SWAP3 ADD PUSH2 0x1084 JUMP JUMPDEST PUSH2 0x1103 SWAP1 DUP4 PUSH1 0x0 MSTORE DUP9 PUSH1 0x0 KECCAK256 DUP8 DUP1 DUP6 ADD PUSH1 0x5 SHR DUP3 ADD SWAP3 DUP12 DUP7 LT PUSH2 0x105E JUMPI ADD PUSH1 0x5 SHR ADD SWAP1 PUSH2 0x29DD JUMP JUMPDEST DUP10 PUSH2 0xECE JUMP JUMPDEST PUSH1 0x40 MLOAD PUSH3 0x461BCD PUSH1 0xE5 SHL DUP2 MSTORE PUSH1 0x4 DUP2 ADD DUP6 SWAP1 MSTORE PUSH1 0x16 PUSH1 0x24 DUP3 ADD MSTORE PUSH22 0x115D9A59195B98D9481A185CDA081C995C5D5A5C9959 PUSH1 0x52 SHL PUSH1 0x44 DUP3 ADD MSTORE PUSH1 0x64 SWAP1 REVERT JUMPDEST PUSH1 0x40 MLOAD PUSH3 0x461BCD PUSH1 0xE5 SHL DUP2 MSTORE PUSH1 0x4 DUP2 ADD DUP6 SWAP1 MSTORE PUSH1 0x18 PUSH1 0x24 DUP3 ADD MSTORE PUSH32 0x4F6E6C7920627573696E6573732063616E207375626D69740000000000000000 PUSH1 0x44 DUP3 ADD MSTORE PUSH1 0x64 SWAP1 REVERT JUMPDEST CALLVALUE PUSH2 0x204 JUMPI PUSH2 0x119A CALLDATASIZE PUSH2 0x2701 JUMP JUMPDEST PUSH2 0x11A2 PUSH2 0x2AD9 JUMP JUMPDEST DUP3 PUSH1 0x0 MSTORE PUSH1 0x2 PUSH1 0x20 MSTORE PUSH2 0x11DC PUSH1 0xA PUSH1 0x40 PUSH1 0x0 KECCAK256 PUSH2 0x11C1 DUP2 SLOAD ISZERO ISZERO PUSH2 0x2A55 JUMP JUMPDEST PUSH2 0x11D5 PUSH1 0xFF PUSH1 0x6 DUP4 ADD SLOAD AND PUSH2 0x2B1 DUP2 PUSH2 0x25BF JUMP JUMPDEST ADD SLOAD PUSH2 0x246C JUMP JUMPDEST ISZERO PUSH2 0x163B JUMPI DUP3 PUSH1 0x0 MSTORE PUSH1 0x5 PUSH1 0x20 MSTORE PUSH1 0x40 PUSH1 0x0 KECCAK256 CALLER PUSH1 0x0 MSTORE PUSH1 0x20 MSTORE PUSH1 0xFF PUSH1 0x40 PUSH1 0x0 KECCAK256 SLOAD AND PUSH2 0x1606 JUMPI PUSH2 0x120D CALLER DUP5 PUSH2 0x2DAF JUMP JUMPDEST ISZERO PUSH2 0x15CF JUMPI DUP3 PUSH1 0x0 MSTORE PUSH1 0x4 PUSH1 0x20 MSTORE PUSH1 0x40 PUSH1 0x0 KECCAK256 SWAP1 PUSH1 0x40 MLOAD SWAP2 PUSH2 0x122E DUP4 PUSH2 0x24A6 JUMP JUMPDEST CALLER DUP4 MSTORE PUSH1 0x20 DUP4 ADD SWAP3 DUP5 ISZERO ISZERO DUP5 MSTORE PUSH1 0x40 DUP2 ADD SWAP2 TIMESTAMP DUP4 MSTORE PUSH1 0x60 DUP3 ADD SWAP4 DUP5 MSTORE DUP1 SLOAD PUSH1 0x1 PUSH1 0x40 SHL DUP2 LT ISZERO PUSH2 0x86E JUMPI PUSH2 0x1267 SWAP2 PUSH1 0x1 DUP3 ADD DUP2 SSTORE PUSH2 0x2635 JUMP JUMPDEST SWAP5 SWAP1 SWAP5 PUSH2 0x15B9 JUMPI SWAP1 MLOAD DUP5 SLOAD SWAP2 MLOAD PUSH1 0x1 PUSH1 0x1 PUSH1 0xA8 SHL SUB NOT SWAP1 SWAP3 AND PUSH1 0x1 PUSH1 0x1 PUSH1 0xA0 SHL SUB SWAP2 SWAP1 SWAP2 AND OR SWAP1 ISZERO ISZERO PUSH1 0xA0 SHL PUSH1 0xFF PUSH1 0xA0 SHL AND OR DUP4 SSTORE MLOAD PUSH1 0x1 DUP4 ADD SSTORE MLOAD DUP1 MLOAD SWAP1 PUSH1 0x1 PUSH1 0x1 PUSH1 0x40 SHL SUB DUP3 GT PUSH2 0x86E JUMPI PUSH2 0x12C1 PUSH1 0x2 DUP5 ADD SLOAD PUSH2 0x246C JUMP JUMPDEST PUSH1 0x1F DUP2 GT PUSH2 0x1584 JUMPI JUMPDEST POP PUSH1 0x20 SWAP1 PUSH1 0x1F DUP4 GT PUSH1 0x1 EQ PUSH2 0x1514 JUMPI PUSH1 0x2 SWAP3 SWAP2 PUSH1 0x0 SWAP2 DUP4 PUSH2 0x1509 JUMPI JUMPDEST POP POP DUP2 PUSH1 0x1 SHL SWAP2 PUSH1 0x0 NOT SWAP1 PUSH1 0x3 SHL SHR NOT AND OR SWAP2 ADD SSTORE JUMPDEST DUP2 PUSH1 0x0 MSTORE PUSH1 0x5 PUSH1 0x20 MSTORE PUSH1 0x40 PUSH1 0x0 KECCAK256 CALLER PUSH1 0x0 MSTORE PUSH1 0x20 MSTORE PUSH1 0x40 PUSH1 0x0 KECCAK256 PUSH1 0x1 PUSH1 0xFF NOT DUP3 SLOAD AND OR SWAP1 SSTORE PUSH1 0x40 MLOAD SWAP1 ISZERO ISZERO DUP2 MSTORE DUP2 PUSH32 0xE71FCDAC32DF1877C1700E7BDA2A03157E20993363A28FC35AC495CEFC76E4D4 PUSH1 0x20 CALLER SWAP4 LOG3 DUP1 PUSH1 0x0 MSTORE PUSH1 0x2 PUSH1 0x20 MSTORE PUSH1 0x40 PUSH1 0x0 KECCAK256 PUSH1 0x40 MLOAD SWAP1 PUSH2 0x136B DUP3 PUSH2 0x24C1 JUMP JUMPDEST DUP1 SLOAD DUP3 MSTORE PUSH1 0x1 DUP2 ADD SLOAD PUSH1 0x20 DUP4 ADD MSTORE PUSH1 0x1 DUP1 PUSH1 0xA0 SHL SUB PUSH1 0x2 DUP3 ADD SLOAD AND PUSH1 0x40 DUP4 ADD MSTORE PUSH1 0x3 DUP2 ADD SWAP2 PUSH1 0x40 MLOAD DUP1 DUP5 PUSH1 0x20 DUP3 SWAP7 SLOAD SWAP4 DUP5 DUP2 MSTORE ADD SWAP1 PUSH1 0x0 MSTORE PUSH1 0x20 PUSH1 0x0 KECCAK256 SWAP3 PUSH1 0x0 JUMPDEST DUP2 DUP2 LT PUSH2 0x14E7 JUMPI POP POP PUSH2 0x13C1 SWAP3 POP SUB DUP5 PUSH2 0x24F8 JUMP JUMPDEST PUSH1 0x60 DUP2 ADD SWAP3 DUP4 MSTORE PUSH1 0x4 DUP3 ADD SLOAD PUSH1 0x80 DUP3 ADD MSTORE PUSH2 0x140 PUSH2 0x142A PUSH1 0xA PUSH1 0x5 DUP6 ADD SLOAD SWAP5 PUSH1 0xA0 SWAP6 DUP7 DUP7 ADD MSTORE PUSH1 0xFF PUSH1 0x6 DUP3 ADD SLOAD AND PUSH2 0x13F8 DUP2 PUSH2 0x25BF JUMP JUMPDEST PUSH1 0xC0 DUP7 ADD MSTORE PUSH1 0x7 DUP2 ADD SLOAD PUSH1 0xE0 DUP7 ADD MSTORE PUSH1 0x8 DUP2 ADD SLOAD PUSH2 0x100 DUP7 ADD MSTORE PUSH2 0x141E PUSH1 0x9 DUP3 ADD PUSH2 0x2519 JUMP JUMPDEST PUSH2 0x120 DUP7 ADD MSTORE ADD PUSH2 0x2519 JUMP JUMPDEST SWAP2 ADD MSTORE DUP3 PUSH1 0x0 MSTORE PUSH1 0x4 PUSH1 0x20 MSTORE PUSH1 0x40 PUSH1 0x0 KECCAK256 DUP1 SLOAD SWAP1 PUSH2 0x1447 DUP3 PUSH2 0x277A JUMP JUMPDEST SWAP3 PUSH2 0x1455 PUSH1 0x40 MLOAD SWAP5 DUP6 PUSH2 0x24F8 JUMP JUMPDEST DUP3 DUP5 MSTORE PUSH1 0x20 DUP5 ADD SWAP2 PUSH1 0x0 MSTORE PUSH1 0x20 PUSH1 0x0 KECCAK256 SWAP1 PUSH1 0x0 SWAP3 JUMPDEST DUP5 DUP5 LT PUSH2 0x1495 JUMPI DUP8 DUP8 DUP8 MLOAD SWAP1 MLOAD MLOAD EQ PUSH2 0x1485 JUMPI JUMPDEST PUSH1 0x1 PUSH1 0x0 SSTORE STOP JUMPDEST PUSH2 0x148E SWAP1 PUSH2 0x2BB2 JUMP JUMPDEST POP DUP1 PUSH2 0x147E JUMP JUMPDEST PUSH1 0x3 PUSH1 0x20 PUSH1 0x1 SWAP3 PUSH1 0x40 MLOAD PUSH2 0x14A8 DUP2 PUSH2 0x24A6 JUMP JUMPDEST PUSH1 0xFF DUP8 SLOAD DUP7 DUP1 PUSH1 0xA0 SHL SUB DUP2 AND DUP4 MSTORE DUP8 SHR AND ISZERO ISZERO DUP4 DUP3 ADD MSTORE DUP5 DUP8 ADD SLOAD PUSH1 0x40 DUP3 ADD MSTORE PUSH2 0x14D4 PUSH1 0x2 DUP9 ADD PUSH2 0x2519 JUMP JUMPDEST PUSH1 0x60 DUP3 ADD MSTORE DUP2 MSTORE ADD SWAP4 ADD SWAP4 ADD SWAP3 SWAP2 PUSH2 0x146A JUMP JUMPDEST DUP5 SLOAD PUSH1 0x1 PUSH1 0x1 PUSH1 0xA0 SHL SUB AND DUP4 MSTORE PUSH1 0x1 SWAP5 DUP6 ADD SWAP5 DUP9 SWAP5 POP PUSH1 0x20 SWAP1 SWAP4 ADD SWAP3 ADD PUSH2 0x13AC JUMP JUMPDEST ADD MLOAD SWAP1 POP DUP7 DUP1 PUSH2 0x12E6 JUMP JUMPDEST SWAP1 PUSH1 0x2 DUP5 ADD PUSH1 0x0 MSTORE PUSH1 0x20 PUSH1 0x0 KECCAK256 SWAP2 PUSH1 0x0 JUMPDEST PUSH1 0x1F NOT DUP6 AND DUP2 LT PUSH2 0x156C JUMPI POP SWAP2 DUP4 SWAP2 PUSH1 0x1 SWAP4 PUSH1 0x2 SWAP6 PUSH1 0x1F NOT DUP2 AND LT PUSH2 0x1553 JUMPI JUMPDEST POP POP POP DUP2 SHL ADD SWAP2 ADD SSTORE PUSH2 0x12FC JUMP JUMPDEST ADD MLOAD PUSH1 0x0 NOT PUSH1 0xF8 DUP5 PUSH1 0x3 SHL AND SHR NOT AND SWAP1 SSTORE DUP7 DUP1 DUP1 PUSH2 0x1545 JUMP JUMPDEST SWAP2 SWAP3 PUSH1 0x20 PUSH1 0x1 DUP2 SWAP3 DUP7 DUP6 ADD MLOAD DUP2 SSTORE ADD SWAP5 ADD SWAP3 ADD PUSH2 0x1525 JUMP JUMPDEST PUSH2 0x15B3 SWAP1 PUSH1 0x2 DUP6 ADD PUSH1 0x0 MSTORE PUSH1 0x20 PUSH1 0x0 KECCAK256 PUSH1 0x1F DUP6 ADD PUSH1 0x5 SHR DUP2 ADD SWAP2 PUSH1 0x20 DUP7 LT PUSH2 0x864 JUMPI PUSH1 0x1F ADD PUSH1 0x5 SHR ADD SWAP1 PUSH2 0x29DD JUMP JUMPDEST DUP6 PUSH2 0x12CA JUMP JUMPDEST PUSH4 0x4E487B71 PUSH1 0xE0 SHL PUSH1 0x0 MSTORE PUSH1 0x0 PUSH1 0x4 MSTORE PUSH1 0x24 PUSH1 0x0 REVERT JUMPDEST PUSH1 0x40 MLOAD PUSH3 0x461BCD PUSH1 0xE5 SHL DUP2 MSTORE PUSH1 0x20 PUSH1 0x4 DUP3 ADD MSTORE PUSH1 0xF PUSH1 0x24 DUP3 ADD MSTORE PUSH15 0x2737BA1030B71034B73B32B9BA37B9 PUSH1 0x89 SHL PUSH1 0x44 DUP3 ADD MSTORE PUSH1 0x64 SWAP1 REVERT JUMPDEST PUSH1 0x40 MLOAD PUSH3 0x461BCD PUSH1 0xE5 SHL DUP2 MSTORE PUSH1 0x20 PUSH1 0x4 DUP3 ADD MSTORE PUSH1 0xD PUSH1 0x24 DUP3 ADD MSTORE PUSH13 0x105B1C9958591E481D9BDD1959 PUSH1 0x9A SHL PUSH1 0x44 DUP3 ADD MSTORE PUSH1 0x64 SWAP1 REVERT JUMPDEST PUSH1 0x40 MLOAD PUSH3 0x461BCD PUSH1 0xE5 SHL DUP2 MSTORE PUSH1 0x20 PUSH1 0x4 DUP3 ADD MSTORE PUSH1 0x16 PUSH1 0x24 DUP3 ADD MSTORE PUSH22 0x139BC81B5A5B195CDD1BDB99481CDD589B5A5D1D1959 PUSH1 0x52 SHL PUSH1 0x44 DUP3 ADD MSTORE PUSH1 0x64 SWAP1 REVERT JUMPDEST CALLVALUE PUSH2 0x204 JUMPI PUSH1 0x40 CALLDATASIZE PUSH1 0x3 NOT ADD SLT PUSH2 0x204 JUMPI PUSH1 0x24 CALLDATALOAD PUSH1 0x1 PUSH1 0x1 PUSH1 0x40 SHL SUB DUP2 GT PUSH2 0x204 JUMPI PUSH2 0x16A9 SWAP1 CALLDATASIZE SWAP1 PUSH1 0x4 ADD PUSH2 0x26AB JUMP JUMPDEST PUSH1 0x4 CALLDATALOAD PUSH1 0x0 MSTORE PUSH1 0x2 PUSH1 0x20 MSTORE PUSH1 0x40 PUSH1 0x0 KECCAK256 SWAP1 PUSH2 0x16C6 DUP3 SLOAD ISZERO ISZERO PUSH2 0x2A55 JUMP JUMPDEST PUSH2 0x16DA PUSH1 0xFF PUSH1 0x6 DUP5 ADD SLOAD AND PUSH2 0x2B1 DUP2 PUSH2 0x25BF JUMP JUMPDEST PUSH2 0x16E6 CALLER PUSH1 0x4 CALLDATALOAD PUSH2 0x2DAF JUMP JUMPDEST DUP1 ISZERO PUSH2 0x1B00 JUMPI JUMPDEST ISZERO PUSH2 0x1ACA JUMPI PUSH1 0x4 CALLDATALOAD PUSH1 0x0 MSTORE PUSH1 0x3 PUSH1 0x20 MSTORE PUSH1 0xFF PUSH1 0x3 PUSH1 0x40 PUSH1 0x0 KECCAK256 ADD SLOAD AND PUSH2 0x1712 DUP2 PUSH2 0x25BF JUMP JUMPDEST PUSH2 0x1A8C JUMPI PUSH1 0x40 MLOAD SWAP2 PUSH2 0x120 DUP4 ADD DUP4 DUP2 LT PUSH1 0x1 PUSH1 0x1 PUSH1 0x40 SHL SUB DUP3 GT OR PUSH2 0x86E JUMPI PUSH1 0x40 MSTORE PUSH1 0x4 CALLDATALOAD DUP4 MSTORE CALLER PUSH1 0x20 DUP5 ADD MSTORE DUP2 PUSH1 0x40 DUP5 ADD MSTORE PUSH1 0x1 PUSH1 0x60 DUP5 ADD MSTORE TIMESTAMP PUSH1 0x80 DUP5 ADD MSTORE PUSH1 0x0 PUSH1 0xA0 DUP5 ADD MSTORE PUSH1 0x0 PUSH1 0xC0 DUP5 ADD MSTORE PUSH1 0x0 PUSH1 0xE0 DUP5 ADD MSTORE PUSH1 0x40 MLOAD PUSH2 0x1773 DUP2 PUSH2 0x24DD JUMP JUMPDEST PUSH1 0x0 DUP2 MSTORE PUSH2 0x100 DUP5 ADD MSTORE PUSH1 0x4 CALLDATALOAD PUSH1 0x0 MSTORE PUSH1 0x3 PUSH1 0x20 MSTORE PUSH1 0x40 PUSH1 0x0 KECCAK256 DUP4 MLOAD DUP2 SSTORE PUSH1 0x1 DUP2 ADD PUSH1 0x1 DUP1 PUSH1 0xA0 SHL SUB PUSH1 0x20 DUP7 ADD MLOAD AND PUSH12 0xFFFFFFFFFFFFFFFFFFFFFFFF PUSH1 0xA0 SHL DUP3 SLOAD AND OR SWAP1 SSTORE PUSH1 0x40 DUP5 ADD MLOAD DUP1 MLOAD SWAP1 PUSH1 0x1 PUSH1 0x1 PUSH1 0x40 SHL SUB DUP3 GT PUSH2 0x86E JUMPI PUSH2 0x17DB PUSH1 0x2 DUP5 ADD SLOAD PUSH2 0x246C JUMP JUMPDEST PUSH1 0x1F DUP2 GT PUSH2 0x1A57 JUMPI JUMPDEST POP PUSH1 0x20 SWAP1 PUSH1 0x1F DUP4 GT PUSH1 0x1 EQ PUSH2 0x19E1 JUMPI SWAP2 DUP1 PUSH2 0x100 SWAP5 SWAP3 PUSH1 0x7 SWAP5 PUSH1 0x0 SWAP3 PUSH2 0x19D6 JUMPI JUMPDEST POP POP DUP2 PUSH1 0x1 SHL SWAP2 PUSH1 0x0 NOT SWAP1 PUSH1 0x3 SHL SHR NOT AND OR PUSH1 0x2 DUP3 ADD SSTORE JUMPDEST PUSH2 0x1837 PUSH1 0x60 DUP8 ADD MLOAD PUSH2 0x182E DUP2 PUSH2 0x25BF JUMP JUMPDEST PUSH1 0x3 DUP4 ADD PUSH2 0x29F4 JUMP JUMPDEST PUSH1 0x80 DUP7 ADD MLOAD PUSH1 0x4 DUP3 ADD SSTORE PUSH1 0xA0 DUP1 DUP8 ADD MLOAD PUSH1 0x5 DUP4 ADD SSTORE PUSH1 0xC0 DUP8 ADD MLOAD PUSH1 0x6 DUP4 ADD DUP1 SLOAD PUSH1 0xE0 DUP11 ADD MLOAD PUSH1 0x1 PUSH1 0x1 PUSH1 0xA8 SHL SUB NOT SWAP1 SWAP2 AND PUSH1 0x1 PUSH1 0x1 PUSH1 0xA0 SHL SUB SWAP4 SWAP1 SWAP4 AND SWAP3 SWAP1 SWAP3 OR SWAP2 ISZERO ISZERO SWAP1 SWAP3 SHL PUSH1 0xFF PUSH1 0xA0 SHL AND OR SWAP1 SSTORE ADD SWAP4 ADD MLOAD SWAP3 DUP4 MLOAD PUSH1 0x1 PUSH1 0x1 PUSH1 0x40 SHL SUB DUP2 GT PUSH2 0x86E JUMPI PUSH2 0x18A6 DUP3 SLOAD PUSH2 0x246C JUMP JUMPDEST PUSH1 0x1F DUP2 GT PUSH2 0x19A4 JUMPI JUMPDEST POP PUSH1 0x20 SWAP5 PUSH1 0x1F DUP3 GT PUSH1 0x1 EQ PUSH2 0x193E JUMPI SWAP5 DUP2 SWAP3 SWAP4 SWAP5 SWAP6 PUSH1 0x0 SWAP3 PUSH2 0x1933 JUMPI JUMPDEST POP POP DUP2 PUSH1 0x1 SHL SWAP2 PUSH1 0x0 NOT SWAP1 PUSH1 0x3 SHL SHR NOT AND OR SWAP1 SSTORE JUMPDEST PUSH1 0x6 PUSH1 0x2 PUSH1 0xFF NOT DUP3 DUP5 ADD SLOAD AND OR SWAP2 ADD SSTORE PUSH1 0x40 MLOAD SWAP1 PUSH1 0x20 DUP3 MSTORE PUSH32 0x1B84372106D77C6DAEA0DDA35BBC0229D10A83F58EC899092884925193682341 CALLER SWAP3 DUP1 PUSH2 0x192E PUSH1 0x4 CALLDATALOAD SWAP5 PUSH1 0x20 DUP4 ADD SWAP1 PUSH2 0x25DF JUMP JUMPDEST SUB SWAP1 LOG3 STOP JUMPDEST ADD MLOAD SWAP1 POP DUP6 DUP1 PUSH2 0x18CC JUMP JUMPDEST PUSH1 0x1F NOT DUP3 AND SWAP6 DUP4 PUSH1 0x0 MSTORE PUSH1 0x20 PUSH1 0x0 KECCAK256 SWAP2 PUSH1 0x0 JUMPDEST DUP9 DUP2 LT PUSH2 0x198C JUMPI POP DUP4 PUSH1 0x1 SWAP6 SWAP7 SWAP8 SWAP9 LT PUSH2 0x1973 JUMPI JUMPDEST POP POP POP DUP2 SHL ADD SWAP1 SSTORE PUSH2 0x18E1 JUMP JUMPDEST ADD MLOAD PUSH1 0x0 NOT PUSH1 0xF8 DUP5 PUSH1 0x3 SHL AND SHR NOT AND SWAP1 SSTORE DUP6 DUP1 DUP1 PUSH2 0x1966 JUMP JUMPDEST SWAP2 SWAP3 PUSH1 0x20 PUSH1 0x1 DUP2 SWAP3 DUP7 DUP6 ADD MLOAD DUP2 SSTORE ADD SWAP5 ADD SWAP3 ADD PUSH2 0x1951 JUMP JUMPDEST PUSH2 0x19D0 SWAP1 DUP4 PUSH1 0x0 MSTORE PUSH1 0x20 PUSH1 0x0 KECCAK256 PUSH1 0x1F DUP5 ADD PUSH1 0x5 SHR DUP2 ADD SWAP2 PUSH1 0x20 DUP6 LT PUSH2 0x864 JUMPI PUSH1 0x1F ADD PUSH1 0x5 SHR ADD SWAP1 PUSH2 0x29DD JUMP JUMPDEST DUP6 PUSH2 0x18AF JUMP JUMPDEST ADD MLOAD SWAP1 POP DUP9 DUP1 PUSH2 0x1805 JUMP JUMPDEST SWAP1 PUSH1 0x2 DUP5 ADD PUSH1 0x0 MSTORE PUSH1 0x20 PUSH1 0x0 KECCAK256 SWAP2 PUSH1 0x0 JUMPDEST PUSH1 0x1F NOT DUP6 AND DUP2 LT PUSH2 0x1A3F JUMPI POP SWAP3 PUSH2 0x100 SWAP5 SWAP3 PUSH1 0x1 SWAP3 PUSH1 0x7 SWAP6 DUP4 PUSH1 0x1F NOT DUP2 AND LT PUSH2 0x1A26 JUMPI JUMPDEST POP POP POP DUP2 SHL ADD PUSH1 0x2 DUP3 ADD SSTORE PUSH2 0x181D JUMP JUMPDEST ADD MLOAD PUSH1 0x0 NOT PUSH1 0xF8 DUP5 PUSH1 0x3 SHL AND SHR NOT AND SWAP1 SSTORE DUP9 DUP1 DUP1 PUSH2 0x1A16 JUMP JUMPDEST SWAP2 SWAP3 PUSH1 0x20 PUSH1 0x1 DUP2 SWAP3 DUP7 DUP6 ADD MLOAD DUP2 SSTORE ADD SWAP5 ADD SWAP3 ADD PUSH2 0x19F2 JUMP JUMPDEST PUSH2 0x1A86 SWAP1 PUSH1 0x2 DUP6 ADD PUSH1 0x0 MSTORE PUSH1 0x20 PUSH1 0x0 KECCAK256 PUSH1 0x1F DUP6 ADD PUSH1 0x5 SHR DUP2 ADD SWAP2 PUSH1 0x20 DUP7 LT PUSH2 0x864 JUMPI PUSH1 0x1F ADD PUSH1 0x5 SHR ADD SWAP1 PUSH2 0x29DD JUMP JUMPDEST DUP7 PUSH2 0x17E4 JUMP JUMPDEST PUSH1 0x40 MLOAD PUSH3 0x461BCD PUSH1 0xE5 SHL DUP2 MSTORE PUSH1 0x20 PUSH1 0x4 DUP3 ADD MSTORE PUSH1 0x16 PUSH1 0x24 DUP3 ADD MSTORE PUSH22 0x4469737075746520616C726561647920657869737473 PUSH1 0x50 SHL PUSH1 0x44 DUP3 ADD MSTORE PUSH1 0x64 SWAP1 REVERT JUMPDEST PUSH1 0x40 MLOAD PUSH3 0x461BCD PUSH1 0xE5 SHL DUP2 MSTORE PUSH1 0x20 PUSH1 0x4 DUP3 ADD MSTORE PUSH1 0xE PUSH1 0x24 DUP3 ADD MSTORE PUSH14 0x139BDD08185D5D1A1BDC9A5E9959 PUSH1 0x92 SHL PUSH1 0x44 DUP3 ADD MSTORE PUSH1 0x64 SWAP1 REVERT JUMPDEST POP PUSH1 0x2 DUP3 ADD SLOAD PUSH1 0x1 PUSH1 0x1 PUSH1 0xA0 SHL SUB AND CALLER EQ PUSH2 0x16ED JUMP JUMPDEST CALLVALUE PUSH2 0x204 JUMPI PUSH1 0x20 CALLDATASIZE PUSH1 0x3 NOT ADD SLT PUSH2 0x204 JUMPI PUSH1 0x4 CALLDATALOAD PUSH1 0x0 MSTORE PUSH1 0x3 PUSH1 0x20 MSTORE PUSH1 0x40 PUSH1 0x0 KECCAK256 DUP1 SLOAD PUSH2 0x1E9 PUSH1 0x1 DUP1 PUSH1 0xA0 SHL SUB DUP1 PUSH1 0x1 DUP6 ADD SLOAD AND SWAP4 PUSH1 0xFF PUSH2 0x1B59 PUSH1 0x2 DUP4 ADD PUSH2 0x2519 JUMP JUMPDEST SWAP2 DUP2 PUSH1 0x3 DUP3 ADD SLOAD AND SWAP4 PUSH1 0x4 DUP3 ADD SLOAD PUSH1 0x5 DUP4 ADD SLOAD SWAP1 PUSH2 0x1BA0 PUSH2 0x1B81 PUSH1 0x7 PUSH1 0x6 DUP8 ADD SLOAD SWAP7 ADD PUSH2 0x2519 JUMP JUMPDEST SWAP7 PUSH1 0x40 MLOAD SWAP12 DUP13 SWAP12 DUP13 MSTORE PUSH1 0x20 DUP13 ADD MSTORE PUSH2 0x120 DUP1 PUSH1 0x40 DUP14 ADD MSTORE DUP12 ADD SWAP1 PUSH2 0x25DF JUMP JUMPDEST SWAP7 PUSH2 0x1BAA DUP2 PUSH2 0x25BF JUMP JUMPDEST PUSH1 0x60 DUP11 ADD MSTORE PUSH1 0x80 DUP10 ADD MSTORE PUSH1 0xA0 DUP9 ADD MSTORE DUP2 AND PUSH1 0xC0 DUP8 ADD MSTORE PUSH1 0xA0 SHR AND ISZERO ISZERO PUSH1 0xE0 DUP6 ADD MSTORE DUP4 DUP3 SUB PUSH2 0x100 DUP6 ADD MSTORE PUSH2 0x25DF JUMP JUMPDEST CALLVALUE PUSH2 0x204 JUMPI PUSH1 0x0 CALLDATASIZE PUSH1 0x3 NOT ADD SLT PUSH2 0x204 JUMPI PUSH1 0x20 PUSH1 0xA SLOAD PUSH1 0x40 MLOAD SWAP1 DUP2 MSTORE RETURN JUMPDEST CALLVALUE PUSH2 0x204 JUMPI PUSH1 0x20 CALLDATASIZE PUSH1 0x3 NOT ADD SLT PUSH2 0x204 JUMPI PUSH1 0x4 CALLDATALOAD PUSH2 0x1C13 PUSH2 0x2AD9 JUMP JUMPDEST PUSH2 0x1C1B PUSH2 0x2791 JUMP JUMPDEST DUP1 PUSH1 0x0 MSTORE PUSH1 0x2 PUSH1 0x20 MSTORE PUSH1 0x40 PUSH1 0x0 KECCAK256 PUSH2 0x1C35 DUP2 SLOAD ISZERO ISZERO PUSH2 0x2A55 JUMP JUMPDEST PUSH1 0x6 DUP2 ADD SWAP1 DUP2 SLOAD PUSH2 0x1C4C PUSH1 0xFF DUP3 AND PUSH2 0x2B1 DUP2 PUSH2 0x25BF JUMP JUMPDEST PUSH2 0x1C55 DUP5 PUSH2 0x2BB2 JUMP JUMPDEST ISZERO PUSH2 0x1CF1 JUMPI PUSH1 0x2 DUP3 PUSH32 0x807158A396C8CE26FB6A4A44930E1B49876133BA7806DBAAC491EA4713E4515E SWAP5 PUSH1 0x1 PUSH1 0x4 PUSH1 0x40 SWAP7 ADD SLOAD SWAP5 PUSH1 0x5 DUP5 ADD SWAP6 PUSH2 0x1C99 DUP8 SLOAD DUP3 PUSH2 0x2AFC JUMP JUMPDEST SWAP7 SSTORE PUSH1 0xFF NOT AND OR SWAP1 SSTORE ADD DUP1 SLOAD PUSH1 0x1 PUSH1 0x1 PUSH1 0xA0 SHL SUB SWAP2 SWAP1 PUSH2 0x1CDD SWAP1 DUP5 SWAP1 DUP5 AND PUSH32 0x0 PUSH2 0x2B09 JUMP JUMPDEST SLOAD AND DUP3 MLOAD SWAP2 DUP3 MSTORE PUSH1 0x20 DUP3 ADD MSTORE LOG2 PUSH1 0x1 PUSH1 0x0 SSTORE STOP JUMPDEST PUSH1 0x40 MLOAD PUSH3 0x461BCD PUSH1 0xE5 SHL DUP2 MSTORE PUSH1 0x20 PUSH1 0x4 DUP3 ADD MSTORE PUSH1 0x16 PUSH1 0x24 DUP3 ADD MSTORE PUSH22 0x135A5B195CDD1BDB99481B9BDD08185C1C1C9BDD9959 PUSH1 0x52 SHL PUSH1 0x44 DUP3 ADD MSTORE PUSH1 0x64 SWAP1 REVERT JUMPDEST CALLVALUE PUSH2 0x204 JUMPI PUSH1 0x40 CALLDATASIZE PUSH1 0x3 NOT ADD SLT PUSH2 0x204 JUMPI PUSH2 0x1D48 PUSH2 0x267D JUMP JUMPDEST PUSH1 0x4 CALLDATALOAD PUSH1 0x0 MSTORE PUSH1 0x5 PUSH1 0x20 MSTORE PUSH1 0x40 PUSH1 0x0 KECCAK256 SWAP1 PUSH1 0x1 DUP1 PUSH1 0xA0 SHL SUB AND PUSH1 0x0 MSTORE PUSH1 0x20 MSTORE PUSH1 0x20 PUSH1 0xFF PUSH1 0x40 PUSH1 0x0 KECCAK256 SLOAD AND PUSH1 0x40 MLOAD SWAP1 ISZERO ISZERO DUP2 MSTORE RETURN JUMPDEST CALLVALUE PUSH2 0x204 JUMPI PUSH2 0x1D8A CALLDATASIZE PUSH2 0x261F JUMP JUMPDEST SWAP1 PUSH2 0x1D93 PUSH2 0x2791 JUMP JUMPDEST DUP2 ISZERO ISZERO DUP1 PUSH2 0x1DE3 JUMPI JUMPDEST ISZERO PUSH2 0x1DA9 JUMPI PUSH1 0x9 SSTORE PUSH1 0xA SSTORE STOP JUMPDEST PUSH1 0x40 MLOAD PUSH3 0x461BCD PUSH1 0xE5 SHL DUP2 MSTORE PUSH1 0x20 PUSH1 0x4 DUP3 ADD MSTORE PUSH1 0x12 PUSH1 0x24 DUP3 ADD MSTORE PUSH18 0x496E76616C69642070657263656E74616765 PUSH1 0x70 SHL PUSH1 0x44 DUP3 ADD MSTORE PUSH1 0x64 SWAP1 REVERT JUMPDEST POP PUSH1 0x64 DUP3 GT ISZERO PUSH2 0x1D9C JUMP JUMPDEST CALLVALUE PUSH2 0x204 JUMPI PUSH1 0x40 CALLDATASIZE PUSH1 0x3 NOT ADD SLT PUSH2 0x204 JUMPI PUSH2 0x1E07 PUSH2 0x267D JUMP JUMPDEST CALLER PUSH1 0x1 PUSH1 0x1 PUSH1 0xA0 SHL SUB DUP3 AND SUB PUSH2 0x1E23 JUMPI PUSH2 0x2C3 SWAP1 PUSH1 0x4 CALLDATALOAD PUSH2 0x2941 JUMP JUMPDEST PUSH1 0x40 MLOAD PUSH4 0x334BD919 PUSH1 0xE1 SHL DUP2 MSTORE PUSH1 0x4 SWAP1 REVERT JUMPDEST CALLVALUE PUSH2 0x204 JUMPI PUSH1 0x0 CALLDATASIZE PUSH1 0x3 NOT ADD SLT PUSH2 0x204 JUMPI PUSH1 0x20 PUSH1 0x40 MLOAD PUSH32 0x966A00E53C991954F9346CF783097BE60911B589DD69FF02C7A9FD1C79215029 DUP2 MSTORE RETURN JUMPDEST CALLVALUE PUSH2 0x204 JUMPI PUSH1 0x40 CALLDATASIZE PUSH1 0x3 NOT ADD SLT PUSH2 0x204 JUMPI PUSH2 0x2C3 PUSH1 0x4 CALLDATALOAD PUSH2 0x1E8F PUSH2 0x267D JUMP JUMPDEST SWAP1 DUP1 PUSH1 0x0 MSTORE PUSH1 0x1 PUSH1 0x20 MSTORE PUSH2 0x1EAA PUSH1 0x1 PUSH1 0x40 PUSH1 0x0 KECCAK256 ADD SLOAD PUSH2 0x27ED JUMP JUMPDEST PUSH2 0x28C6 JUMP JUMPDEST CALLVALUE PUSH2 0x204 JUMPI PUSH2 0x1EBD CALLDATASIZE PUSH2 0x2701 JUMP JUMPDEST CALLER PUSH1 0x0 SWAP1 DUP2 MSTORE PUSH32 0x4EA974B431A0B4C2E2044C8E7AB9ED5C93A2A8529B05175B6AEA7D6522678C2B PUSH1 0x20 SWAP1 DUP2 MSTORE PUSH1 0x40 SWAP1 SWAP2 KECCAK256 SLOAD SWAP2 SWAP4 SWAP2 PUSH1 0x1 SWAP1 PUSH32 0x16CEEE8289685DD2A02B9C8AE81D2DF373176CE53519E6284E2A2950D6546FFA SWAP1 PUSH1 0xFF AND ISZERO PUSH2 0x21D7 JUMPI POP DUP3 PUSH1 0x0 MSTORE PUSH1 0x3 SWAP1 DUP2 DUP4 MSTORE PUSH1 0x40 PUSH1 0x0 KECCAK256 SWAP1 PUSH1 0x2 DUP5 MSTORE PUSH1 0x40 PUSH1 0x0 KECCAK256 SWAP1 DUP4 DUP4 ADD SWAP4 DUP5 SLOAD SWAP4 DUP3 PUSH1 0xFF DUP7 AND PUSH2 0x1F4F DUP2 PUSH2 0x25BF JUMP JUMPDEST SUB PUSH2 0x219E JUMPI PUSH1 0x6 DUP5 ADD SWAP6 PUSH1 0x2 PUSH1 0xFF DUP9 SLOAD AND PUSH2 0x1F69 DUP2 PUSH2 0x25BF JUMP JUMPDEST SUB PUSH2 0x2163 JUMPI PUSH1 0xFF NOT SWAP6 DUP7 AND DUP4 OR SWAP1 SSTORE TIMESTAMP PUSH1 0x5 DUP3 ADD SSTORE PUSH1 0x6 DUP2 ADD DUP1 SLOAD PUSH1 0xFF PUSH1 0xA0 SHL NOT CALLER AND PUSH1 0x1 PUSH1 0x1 PUSH1 0xA8 SHL SUB NOT SWAP1 SWAP2 AND OR DUP11 ISZERO ISZERO PUSH1 0xA0 SHL PUSH1 0xFF PUSH1 0xA0 SHL AND OR SWAP1 SSTORE PUSH1 0x7 ADD DUP10 MLOAD SWAP10 PUSH1 0x1 PUSH1 0x1 PUSH1 0x40 SHL SUB DUP12 GT PUSH2 0x86E JUMPI PUSH2 0x1FC6 DUP3 SLOAD PUSH2 0x246C JUMP JUMPDEST DUP12 PUSH1 0x1F DUP3 GT PUSH2 0x2132 JUMPI JUMPDEST POP POP DUP8 SWAP1 PUSH1 0x1F DUP13 GT PUSH1 0x1 EQ PUSH2 0x20AD JUMPI SWAP11 DUP1 SWAP2 PUSH32 0x8FDD4548A8481406B6E29C0D6F25E27CD72502F79F4ADF409468502E7920DABC SWAP11 SWAP12 SWAP13 PUSH1 0x0 SWAP3 PUSH2 0x20A2 JUMPI JUMPDEST POP POP PUSH1 0x0 NOT DUP3 DUP6 SHL SHR NOT AND SWAP1 DUP5 SHL OR SWAP1 SSTORE JUMPDEST DUP9 ISZERO PUSH2 0x208A JUMPI POP SWAP3 PUSH2 0x207D SWAP4 PUSH1 0x4 DUP4 ADD SLOAD SWAP4 PUSH1 0x5 DUP5 ADD SWAP5 PUSH2 0x2042 DUP7 SLOAD DUP3 PUSH2 0x2AFC JUMP JUMPDEST SWAP6 SSTORE DUP3 SLOAD AND OR SWAP1 SSTORE PUSH1 0x2 ADD SLOAD PUSH1 0x1 PUSH1 0x1 PUSH1 0xA0 SHL SUB AND PUSH32 0x0 PUSH2 0x2B09 JUMP JUMPDEST PUSH1 0x40 MLOAD SWAP4 ISZERO ISZERO DUP5 MSTORE CALLER SWAP4 LOG3 STOP JUMPDEST SWAP3 SWAP2 POP POP DUP3 SLOAD AND OR SWAP1 SSTORE PUSH2 0x209D DUP4 PUSH2 0x2E9E JUMP JUMPDEST PUSH2 0x207D JUMP JUMPDEST ADD MLOAD SWAP1 POP DUP13 DUP1 PUSH2 0x200E JUMP JUMPDEST SWAP1 PUSH1 0x1F NOT DUP13 AND SWAP2 DUP4 PUSH1 0x0 MSTORE DUP10 PUSH1 0x0 KECCAK256 SWAP3 PUSH1 0x0 JUMPDEST DUP2 DUP2 LT PUSH2 0x211D JUMPI POP SWAP2 DUP7 SWAP4 SWAP2 DUP15 PUSH32 0x8FDD4548A8481406B6E29C0D6F25E27CD72502F79F4ADF409468502E7920DABC SWAP14 SWAP15 SWAP16 SWAP5 LT PUSH2 0x2105 JUMPI JUMPDEST POP POP POP DUP2 SHL ADD SWAP1 SSTORE PUSH2 0x2020 JUMP JUMPDEST ADD MLOAD PUSH1 0x0 NOT DUP4 DUP8 SHL PUSH1 0xF8 AND SHR NOT AND SWAP1 SSTORE DUP13 DUP1 DUP1 PUSH2 0x20F8 JUMP JUMPDEST DUP3 DUP5 ADD MLOAD DUP6 SSTORE SWAP4 DUP8 ADD SWAP4 SWAP3 DUP12 ADD SWAP3 DUP12 ADD PUSH2 0x20C0 JUMP JUMPDEST PUSH2 0x215C SWAP2 DUP5 PUSH1 0x0 MSTORE DUP11 PUSH1 0x0 KECCAK256 SWAP1 DUP12 PUSH1 0x1F DUP5 ADD PUSH1 0x5 SHR DUP4 ADD SWAP4 LT PUSH2 0x864 JUMPI PUSH1 0x1F ADD PUSH1 0x5 SHR ADD SWAP1 PUSH2 0x29DD JUMP JUMPDEST DUP12 DUP12 PUSH2 0x1FD0 JUMP JUMPDEST PUSH1 0x40 MLOAD PUSH3 0x461BCD PUSH1 0xE5 SHL DUP2 MSTORE PUSH1 0x4 DUP2 ADD DUP10 SWAP1 MSTORE PUSH1 0x13 PUSH1 0x24 DUP3 ADD MSTORE PUSH19 0x115CD8DC9BDDC81B9BDD08191A5CDC1D5D1959 PUSH1 0x6A SHL PUSH1 0x44 DUP3 ADD MSTORE PUSH1 0x64 SWAP1 REVERT JUMPDEST PUSH1 0x40 MLOAD PUSH3 0x461BCD PUSH1 0xE5 SHL DUP2 MSTORE PUSH1 0x4 DUP2 ADD DUP9 SWAP1 MSTORE PUSH1 0x11 PUSH1 0x24 DUP3 ADD MSTORE PUSH17 0x4E6F206163746976652064697370757465 PUSH1 0x78 SHL PUSH1 0x44 DUP3 ADD MSTORE PUSH1 0x64 SWAP1 REVERT JUMPDEST PUSH1 0x44 SWAP1 PUSH1 0x40 MLOAD SWAP1 PUSH4 0xE2517D3F PUSH1 0xE0 SHL DUP3 MSTORE CALLER PUSH1 0x4 DUP4 ADD MSTORE PUSH1 0x24 DUP3 ADD MSTORE REVERT JUMPDEST CALLVALUE PUSH2 0x204 JUMPI PUSH1 0x20 CALLDATASIZE PUSH1 0x3 NOT ADD SLT PUSH2 0x204 JUMPI PUSH1 0x4 CALLDATALOAD PUSH1 0x0 MSTORE PUSH1 0x1 PUSH1 0x20 MSTORE PUSH1 0x20 PUSH1 0x1 PUSH1 0x40 PUSH1 0x0 KECCAK256 ADD SLOAD PUSH1 0x40 MLOAD SWAP1 DUP2 MSTORE RETURN JUMPDEST CALLVALUE PUSH2 0x204 JUMPI PUSH1 0x0 CALLDATASIZE PUSH1 0x3 NOT ADD SLT PUSH2 0x204 JUMPI PUSH1 0x40 MLOAD PUSH32 0x0 PUSH1 0x1 PUSH1 0x1 PUSH1 0xA0 SHL SUB AND DUP2 MSTORE PUSH1 0x20 SWAP1 RETURN JUMPDEST CALLVALUE PUSH2 0x204 JUMPI PUSH1 0x40 CALLDATASIZE PUSH1 0x3 NOT ADD SLT PUSH2 0x204 JUMPI PUSH2 0x2282 PUSH2 0x2667 JUMP JUMPDEST PUSH1 0x1 PUSH1 0x1 PUSH1 0xA0 SHL SUB AND PUSH1 0x0 SWAP1 DUP2 MSTORE PUSH1 0x6 PUSH1 0x20 MSTORE PUSH1 0x40 SWAP1 KECCAK256 DUP1 SLOAD PUSH1 0x24 CALLDATALOAD SWAP2 SWAP1 DUP3 LT ISZERO PUSH2 0x204 JUMPI PUSH1 0x20 SWAP2 PUSH2 0x253 SWAP2 PUSH2 0x2693 JUMP JUMPDEST CALLVALUE PUSH2 0x204 JUMPI PUSH2 0x22C1 CALLDATASIZE PUSH2 0x261F JUMP JUMPDEST SWAP1 PUSH1 0x0 MSTORE PUSH1 0x4 PUSH1 0x20 MSTORE PUSH1 0x40 PUSH1 0x0 KECCAK256 DUP1 SLOAD DUP3 LT ISZERO PUSH2 0x204 JUMPI PUSH1 0xFF SWAP2 PUSH2 0x22E4 SWAP2 PUSH2 0x2635 JUMP JUMPDEST POP PUSH2 0x1E9 DUP2 SLOAD SWAP2 PUSH2 0x22FC PUSH1 0x2 PUSH1 0x1 DUP4 ADD SLOAD SWAP3 ADD PUSH2 0x2519 JUMP JUMPDEST SWAP1 PUSH1 0x40 MLOAD SWAP5 DUP6 SWAP5 PUSH1 0x1 DUP1 PUSH1 0xA0 SHL SUB DUP2 AND DUP7 MSTORE PUSH1 0xA0 SHR AND ISZERO ISZERO PUSH1 0x20 DUP6 ADD MSTORE PUSH1 0x40 DUP5 ADD MSTORE PUSH1 0x80 PUSH1 0x60 DUP5 ADD MSTORE PUSH1 0x80 DUP4 ADD SWAP1 PUSH2 0x25DF JUMP JUMPDEST CALLVALUE PUSH2 0x204 JUMPI PUSH1 0x0 CALLDATASIZE PUSH1 0x3 NOT ADD SLT PUSH2 0x204 JUMPI PUSH1 0x20 PUSH1 0x9 SLOAD PUSH1 0x40 MLOAD SWAP1 DUP2 MSTORE RETURN JUMPDEST CALLVALUE PUSH2 0x204 JUMPI PUSH1 0x20 CALLDATASIZE PUSH1 0x3 NOT ADD SLT PUSH2 0x204 JUMPI PUSH1 0x4 CALLDATALOAD PUSH4 0xFFFFFFFF PUSH1 0xE0 SHL DUP2 AND DUP1 SWAP2 SUB PUSH2 0x204 JUMPI PUSH1 0x20 SWAP1 PUSH4 0x7965DB0B PUSH1 0xE0 SHL DUP2 EQ SWAP1 DUP2 ISZERO PUSH2 0x2392 JUMPI JUMPDEST POP PUSH1 0x40 MLOAD SWAP1 ISZERO ISZERO DUP2 MSTORE RETURN JUMPDEST PUSH4 0x1FFC9A7 PUSH1 0xE0 SHL EQ SWAP1 POP DUP3 PUSH2 0x2387 JUMP JUMPDEST CALLVALUE PUSH2 0x204 JUMPI PUSH1 0x20 CALLDATASIZE PUSH1 0x3 NOT ADD SLT PUSH2 0x204 JUMPI PUSH1 0x4 CALLDATALOAD PUSH1 0x0 MSTORE PUSH1 0x2 PUSH1 0x20 MSTORE PUSH1 0x40 PUSH1 0x0 KECCAK256 DUP1 SLOAD PUSH2 0x1E9 PUSH1 0x1 DUP4 ADD SLOAD SWAP3 PUSH2 0x245D PUSH1 0x1 DUP1 PUSH1 0xA0 SHL SUB PUSH1 0x2 DUP4 ADD SLOAD AND SWAP2 PUSH1 0x4 DUP2 ADD SLOAD PUSH1 0x5 DUP3 ADD SLOAD PUSH1 0xFF PUSH1 0x6 DUP5 ADD SLOAD AND PUSH1 0x7 DUP5 ADD SLOAD SWAP2 PUSH1 0x8 DUP6 ADD SLOAD SWAP4 PUSH2 0x2416 PUSH1 0xA PUSH2 0x240F PUSH1 0x9 DUP10 ADD PUSH2 0x2519 JUMP JUMPDEST SWAP8 ADD PUSH2 0x2519 JUMP JUMPDEST SWAP8 PUSH1 0x40 MLOAD SWAP12 DUP13 SWAP12 DUP13 MSTORE PUSH1 0x20 DUP13 ADD MSTORE PUSH1 0x40 DUP12 ADD MSTORE PUSH1 0x60 DUP11 ADD MSTORE PUSH1 0x80 DUP10 ADD MSTORE PUSH2 0x243C DUP2 PUSH2 0x25BF JUMP JUMPDEST PUSH1 0xA0 DUP9 ADD MSTORE PUSH1 0xC0 DUP8 ADD MSTORE PUSH1 0xE0 DUP7 ADD MSTORE PUSH2 0x140 DUP1 PUSH2 0x100 DUP8 ADD MSTORE DUP6 ADD SWAP1 PUSH2 0x25DF JUMP JUMPDEST SWAP1 DUP4 DUP3 SUB PUSH2 0x120 DUP6 ADD MSTORE PUSH2 0x25DF JUMP JUMPDEST SWAP1 PUSH1 0x1 DUP3 DUP2 SHR SWAP3 AND DUP1 ISZERO PUSH2 0x249C JUMPI JUMPDEST PUSH1 0x20 DUP4 LT EQ PUSH2 0x2486 JUMPI JUMP JUMPDEST PUSH4 0x4E487B71 PUSH1 0xE0 SHL PUSH1 0x0 MSTORE PUSH1 0x22 PUSH1 0x4 MSTORE PUSH1 0x24 PUSH1 0x0 REVERT JUMPDEST SWAP2 PUSH1 0x7F AND SWAP2 PUSH2 0x247B JUMP JUMPDEST PUSH1 0x80 DUP2 ADD SWAP1 DUP2 LT PUSH1 0x1 PUSH1 0x1 PUSH1 0x40 SHL SUB DUP3 GT OR PUSH2 0x86E JUMPI PUSH1 0x40 MSTORE JUMP JUMPDEST PUSH2 0x160 DUP2 ADD SWAP1 DUP2 LT PUSH1 0x1 PUSH1 0x1 PUSH1 0x40 SHL SUB DUP3 GT OR PUSH2 0x86E JUMPI PUSH1 0x40 MSTORE JUMP JUMPDEST PUSH1 0x20 DUP2 ADD SWAP1 DUP2 LT PUSH1 0x1 PUSH1 0x1 PUSH1 0x40 SHL SUB DUP3 GT OR PUSH2 0x86E JUMPI PUSH1 0x40 MSTORE JUMP JUMPDEST SWAP1 PUSH1 0x1F DUP1 NOT SWAP2 ADD AND DUP2 ADD SWAP1 DUP2 LT PUSH1 0x1 PUSH1 0x1 PUSH1 0x40 SHL SUB DUP3 GT OR PUSH2 0x86E JUMPI PUSH1 0x40 MSTORE JUMP JUMPDEST SWAP1 PUSH1 0x40 MLOAD SWAP2 DUP3 PUSH1 0x0 DUP3 SLOAD SWAP3 PUSH2 0x252D DUP5 PUSH2 0x246C JUMP JUMPDEST SWAP1 DUP2 DUP5 MSTORE PUSH1 0x1 SWAP5 DUP6 DUP2 AND SWAP1 DUP2 PUSH1 0x0 EQ PUSH2 0x259C JUMPI POP PUSH1 0x1 EQ PUSH2 0x2559 JUMPI JUMPDEST POP POP PUSH2 0x2557 SWAP3 POP SUB DUP4 PUSH2 0x24F8 JUMP JUMPDEST JUMP JUMPDEST SWAP1 SWAP4 SWAP2 POP PUSH1 0x0 MSTORE PUSH1 0x20 SWAP1 DUP2 PUSH1 0x0 KECCAK256 SWAP4 PUSH1 0x0 SWAP2 JUMPDEST DUP2 DUP4 LT PUSH2 0x2584 JUMPI POP POP PUSH2 0x2557 SWAP4 POP DUP3 ADD ADD CODESIZE DUP1 PUSH2 0x2549 JUMP JUMPDEST DUP6 SLOAD DUP9 DUP5 ADD DUP6 ADD MSTORE SWAP5 DUP6 ADD SWAP5 DUP8 SWAP5 POP SWAP2 DUP4 ADD SWAP2 PUSH2 0x256C JUMP JUMPDEST SWAP2 POP POP PUSH2 0x2557 SWAP5 POP PUSH1 0x20 SWAP3 POP PUSH1 0xFF NOT AND DUP3 DUP5 ADD MSTORE ISZERO ISZERO PUSH1 0x5 SHL DUP3 ADD ADD CODESIZE DUP1 PUSH2 0x2549 JUMP JUMPDEST PUSH1 0x4 GT ISZERO PUSH2 0x25C9 JUMPI JUMP JUMPDEST PUSH4 0x4E487B71 PUSH1 0xE0 SHL PUSH1 0x0 MSTORE PUSH1 0x21 PUSH1 0x4 MSTORE PUSH1 0x24 PUSH1 0x0 REVERT JUMPDEST SWAP2 SWAP1 DUP3 MLOAD SWAP3 DUP4 DUP3 MSTORE PUSH1 0x0 JUMPDEST DUP5 DUP2 LT PUSH2 0x260B JUMPI POP POP DUP3 PUSH1 0x0 PUSH1 0x20 DUP1 SWAP5 SWAP6 DUP5 ADD ADD MSTORE PUSH1 0x1F DUP1 NOT SWAP2 ADD AND ADD ADD SWAP1 JUMP JUMPDEST PUSH1 0x20 DUP2 DUP4 ADD DUP2 ADD MLOAD DUP5 DUP4 ADD DUP3 ADD MSTORE ADD PUSH2 0x25EA JUMP JUMPDEST PUSH1 0x40 SWAP1 PUSH1 0x3 NOT ADD SLT PUSH2 0x204 JUMPI PUSH1 0x4 CALLDATALOAD SWAP1 PUSH1 0x24 CALLDATALOAD SWAP1 JUMP JUMPDEST DUP1 SLOAD DUP3 LT ISZERO PUSH2 0x2651 JUMPI PUSH1 0x0 MSTORE PUSH1 0x3 PUSH1 0x20 PUSH1 0x0 KECCAK256 SWAP2 MUL ADD SWAP1 PUSH1 0x0 SWAP1 JUMP JUMPDEST PUSH4 0x4E487B71 PUSH1 0xE0 SHL PUSH1 0x0 MSTORE PUSH1 0x32 PUSH1 0x4 MSTORE PUSH1 0x24 PUSH1 0x0 REVERT JUMPDEST PUSH1 0x4 CALLDATALOAD SWAP1 PUSH1 0x1 PUSH1 0x1 PUSH1 0xA0 SHL SUB DUP3 AND DUP3 SUB PUSH2 0x204 JUMPI JUMP JUMPDEST PUSH1 0x24 CALLDATALOAD SWAP1 PUSH1 0x1 PUSH1 0x1 PUSH1 0xA0 SHL SUB DUP3 AND DUP3 SUB PUSH2 0x204 JUMPI JUMP JUMPDEST DUP1 SLOAD DUP3 LT ISZERO PUSH2 0x2651 JUMPI PUSH1 0x0 MSTORE PUSH1 0x20 PUSH1 0x0 KECCAK256 ADD SWAP1 PUSH1 0x0 SWAP1 JUMP JUMPDEST DUP2 PUSH1 0x1F DUP3 ADD SLT ISZERO PUSH2 0x204 JUMPI DUP1 CALLDATALOAD SWAP1 PUSH1 0x1 PUSH1 0x1 PUSH1 0x40 SHL SUB DUP3 GT PUSH2 0x86E JUMPI PUSH1 0x40 MLOAD SWAP3 PUSH2 0x26DF PUSH1 0x1F DUP5 ADD PUSH1 0x1F NOT AND PUSH1 0x20 ADD DUP6 PUSH2 0x24F8 JUMP JUMPDEST DUP3 DUP5 MSTORE PUSH1 0x20 DUP4 DUP4 ADD ADD GT PUSH2 0x204 JUMPI DUP2 PUSH1 0x0 SWAP3 PUSH1 0x20 DUP1 SWAP4 ADD DUP4 DUP7 ADD CALLDATACOPY DUP4 ADD ADD MSTORE SWAP1 JUMP JUMPDEST PUSH1 0x60 PUSH1 0x3 NOT DUP3 ADD SLT PUSH2 0x204 JUMPI PUSH1 0x4 CALLDATALOAD SWAP2 PUSH1 0x24 CALLDATALOAD DUP1 ISZERO ISZERO DUP2 SUB PUSH2 0x204 JUMPI SWAP2 PUSH1 0x44 CALLDATALOAD SWAP1 PUSH1 0x1 PUSH1 0x1 PUSH1 0x40 SHL SUB DUP3 GT PUSH2 0x204 JUMPI PUSH2 0x273C SWAP2 PUSH1 0x4 ADD PUSH2 0x26AB JUMP JUMPDEST SWAP1 JUMP JUMPDEST PUSH1 0x20 SWAP1 DUP2 PUSH1 0x40 DUP2 DUP4 ADD SWAP3 DUP3 DUP2 MSTORE DUP6 MLOAD DUP1 SWAP5 MSTORE ADD SWAP4 ADD SWAP2 PUSH1 0x0 JUMPDEST DUP3 DUP2 LT PUSH2 0x2766 JUMPI POP POP POP POP SWAP1 JUMP JUMPDEST DUP4 MLOAD DUP6 MSTORE SWAP4 DUP2 ADD SWAP4 SWAP3 DUP2 ADD SWAP3 PUSH1 0x1 ADD PUSH2 0x2758 JUMP JUMPDEST PUSH1 0x1 PUSH1 0x1 PUSH1 0x40 SHL SUB DUP2 GT PUSH2 0x86E JUMPI PUSH1 0x5 SHL PUSH1 0x20 ADD SWAP1 JUMP JUMPDEST CALLER PUSH1 0x0 SWAP1 DUP2 MSTORE PUSH32 0x50EFBDE2D46C37E9785F1791697F77E94BB7B701E19F1930A668820722D37694 PUSH1 0x20 MSTORE PUSH1 0x40 SWAP1 KECCAK256 SLOAD PUSH32 0xA49807205CE4D355092EF5A8A18F56E8913CF4A201FBE287825B095693C21775 SWAP1 PUSH1 0xFF AND ISZERO PUSH2 0x21D7 JUMPI POP JUMP JUMPDEST DUP1 PUSH1 0x0 MSTORE PUSH1 0x1 PUSH1 0x20 MSTORE PUSH1 0x40 PUSH1 0x0 KECCAK256 CALLER PUSH1 0x0 MSTORE PUSH1 0x20 MSTORE PUSH1 0xFF PUSH1 0x40 PUSH1 0x0 KECCAK256 SLOAD AND ISZERO PUSH2 0x21D7 JUMPI POP JUMP JUMPDEST PUSH1 0x1 PUSH1 0x1 PUSH1 0xA0 SHL SUB AND PUSH1 0x0 DUP2 DUP2 MSTORE PUSH32 0x249A641C682C1E9C5DC7DBAB36C26F96131373E43E5B4319A60D61BCEFC6B162 PUSH1 0x20 MSTORE PUSH1 0x40 DUP2 KECCAK256 SLOAD SWAP1 SWAP2 SWAP1 PUSH32 0x966A00E53C991954F9346CF783097BE60911B589DD69FF02C7A9FD1C79215029 SWAP1 PUSH1 0xFF AND PUSH2 0x28C1 JUMPI DUP1 DUP4 MSTORE PUSH1 0x1 PUSH1 0x20 MSTORE PUSH1 0x40 DUP4 KECCAK256 DUP3 DUP5 MSTORE PUSH1 0x20 MSTORE PUSH1 0x40 DUP4 KECCAK256 PUSH1 0x1 PUSH1 0xFF NOT DUP3 SLOAD AND OR SWAP1 SSTORE PUSH32 0x2F8788117E7EFF1D82E926EC794901D17C78024A50270940304540A733656F0D CALLER SWAP4 DUP1 LOG4 PUSH1 0x1 SWAP1 JUMP JUMPDEST POP POP SWAP1 JUMP JUMPDEST SWAP1 PUSH1 0x0 SWAP2 DUP1 DUP4 MSTORE PUSH1 0x1 PUSH1 0x20 MSTORE PUSH1 0x40 DUP4 KECCAK256 SWAP2 PUSH1 0x1 DUP1 PUSH1 0xA0 SHL SUB AND SWAP2 DUP3 DUP5 MSTORE PUSH1 0x20 MSTORE PUSH1 0xFF PUSH1 0x40 DUP5 KECCAK256 SLOAD AND ISZERO PUSH1 0x0 EQ PUSH2 0x28C1 JUMPI DUP1 DUP4 MSTORE PUSH1 0x1 PUSH1 0x20 MSTORE PUSH1 0x40 DUP4 KECCAK256 DUP3 DUP5 MSTORE PUSH1 0x20 MSTORE PUSH1 0x40 DUP4 KECCAK256 PUSH1 0x1 PUSH1 0xFF NOT DUP3 SLOAD AND OR SWAP1 SSTORE PUSH32 0x2F8788117E7EFF1D82E926EC794901D17C78024A50270940304540A733656F0D CALLER SWAP4 DUP1 LOG4 PUSH1 0x1 SWAP1 JUMP JUMPDEST SWAP1 PUSH1 0x0 SWAP2 DUP1 DUP4 MSTORE PUSH1 0x1 PUSH1 0x20 MSTORE PUSH1 0x40 DUP4 KECCAK256 SWAP2 PUSH1 0x1 DUP1 PUSH1 0xA0 SHL SUB AND SWAP2 DUP3 DUP5 MSTORE PUSH1 0x20 MSTORE PUSH1 0xFF PUSH1 0x40 DUP5 KECCAK256 SLOAD AND PUSH1 0x0 EQ PUSH2 0x28C1 JUMPI DUP1 DUP4 MSTORE PUSH1 0x1 PUSH1 0x20 MSTORE PUSH1 0x40 DUP4 KECCAK256 DUP3 DUP5 MSTORE PUSH1 0x20 MSTORE PUSH1 0x40 DUP4 KECCAK256 PUSH1 0xFF NOT DUP2 SLOAD AND SWAP1 SSTORE PUSH32 0xF6391F5C32D9C69D2A47EA670B442974B53935D1EDC7FD64EB21E047A839171B CALLER SWAP4 DUP1 LOG4 PUSH1 0x1 SWAP1 JUMP JUMPDEST PUSH1 0x0 NOT DUP2 EQ PUSH2 0x29C7 JUMPI PUSH1 0x1 ADD SWAP1 JUMP JUMPDEST PUSH4 0x4E487B71 PUSH1 0xE0 SHL PUSH1 0x0 MSTORE PUSH1 0x11 PUSH1 0x4 MSTORE PUSH1 0x24 PUSH1 0x0 REVERT JUMPDEST DUP2 DUP2 LT PUSH2 0x29E8 JUMPI POP POP JUMP JUMPDEST PUSH1 0x0 DUP2 SSTORE PUSH1 0x1 ADD PUSH2 0x29DD JUMP JUMPDEST SWAP1 PUSH2 0x29FE DUP2 PUSH2 0x25BF JUMP JUMPDEST PUSH1 0xFF DUP1 NOT DUP4 SLOAD AND SWAP2 AND OR SWAP1 SSTORE JUMP JUMPDEST DUP1 SLOAD PUSH1 0x1 PUSH1 0x40 SHL DUP2 LT ISZERO PUSH2 0x86E JUMPI PUSH2 0x2A29 SWAP2 PUSH1 0x1 DUP3 ADD DUP2 SSTORE PUSH2 0x2693 JUMP JUMPDEST DUP2 SWAP3 SWAP2 SLOAD SWAP1 PUSH1 0x3 SHL SWAP2 DUP3 SHL SWAP2 PUSH1 0x0 NOT SWAP1 SHL NOT AND OR SWAP1 SSTORE JUMP JUMPDEST DUP1 MLOAD DUP3 LT ISZERO PUSH2 0x2651 JUMPI PUSH1 0x20 SWAP2 PUSH1 0x5 SHL ADD ADD SWAP1 JUMP JUMPDEST ISZERO PUSH2 0x2A5C JUMPI JUMP JUMPDEST PUSH1 0x40 MLOAD PUSH3 0x461BCD PUSH1 0xE5 SHL DUP2 MSTORE PUSH1 0x20 PUSH1 0x4 DUP3 ADD MSTORE PUSH1 0x15 PUSH1 0x24 DUP3 ADD MSTORE PUSH21 0x115CD8DC9BDDC8191BD95CC81B9BDD08195E1A5CDD PUSH1 0x5A SHL PUSH1 0x44 DUP3 ADD MSTORE PUSH1 0x64 SWAP1 REVERT JUMPDEST ISZERO PUSH2 0x2AA0 JUMPI JUMP JUMPDEST PUSH1 0x40 MLOAD PUSH3 0x461BCD PUSH1 0xE5 SHL DUP2 MSTORE PUSH1 0x20 PUSH1 0x4 DUP3 ADD MSTORE PUSH1 0x11 PUSH1 0x24 DUP3 ADD MSTORE PUSH17 0x457363726F77206E6F7420616374697665 PUSH1 0x78 SHL PUSH1 0x44 DUP3 ADD MSTORE PUSH1 0x64 SWAP1 REVERT JUMPDEST PUSH1 0x2 PUSH1 0x0 SLOAD EQ PUSH2 0x2AEA JUMPI PUSH1 0x2 PUSH1 0x0 SSTORE JUMP JUMPDEST PUSH1 0x40 MLOAD PUSH4 0x3EE5AEB5 PUSH1 0xE0 SHL DUP2 MSTORE PUSH1 0x4 SWAP1 REVERT JUMPDEST SWAP2 SWAP1 DUP3 SUB SWAP2 DUP3 GT PUSH2 0x29C7 JUMPI JUMP JUMPDEST SWAP2 PUSH1 0x0 PUSH1 0x20 SWAP2 PUSH1 0x40 MLOAD DUP4 DUP2 ADD SWAP2 PUSH4 0xA9059CBB PUSH1 0xE0 SHL DUP4 MSTORE PUSH1 0x1 DUP1 PUSH1 0xA0 SHL SUB DUP1 SWAP7 AND PUSH1 0x24 DUP4 ADD MSTORE PUSH1 0x44 DUP3 ADD MSTORE PUSH1 0x44 DUP2 MSTORE PUSH2 0x2B41 DUP2 PUSH2 0x24A6 JUMP JUMPDEST MLOAD SWAP1 DUP3 DUP7 GAS CALL ISZERO PUSH2 0x2B86 JUMPI PUSH1 0x0 MLOAD RETURNDATASIZE PUSH2 0x2B7D JUMPI POP DUP1 DUP3 AND EXTCODESIZE ISZERO JUMPDEST PUSH2 0x2B63 JUMPI POP POP JUMP JUMPDEST PUSH1 0x40 MLOAD PUSH4 0x5274AFE7 PUSH1 0xE0 SHL DUP2 MSTORE SWAP2 AND PUSH1 0x4 DUP3 ADD MSTORE PUSH1 0x24 SWAP2 POP REVERT JUMPDEST PUSH1 0x1 EQ ISZERO PUSH2 0x2B5B JUMP JUMPDEST PUSH1 0x40 MLOAD RETURNDATASIZE PUSH1 0x0 DUP3 RETURNDATACOPY RETURNDATASIZE SWAP1 REVERT JUMPDEST DUP2 ISZERO PUSH2 0x2B9C JUMPI DIV SWAP1 JUMP JUMPDEST PUSH4 0x4E487B71 PUSH1 0xE0 SHL PUSH1 0x0 MSTORE PUSH1 0x12 PUSH1 0x4 MSTORE PUSH1 0x24 PUSH1 0x0 REVERT JUMPDEST SWAP1 PUSH1 0x0 SWAP2 DUP1 DUP4 MSTORE PUSH1 0x20 SWAP1 PUSH1 0x4 DUP3 MSTORE PUSH1 0x40 SWAP2 DUP3 DUP6 KECCAK256 SWAP2 DUP3 SLOAD PUSH2 0x2BD2 DUP2 PUSH2 0x277A JUMP JUMPDEST SWAP4 PUSH2 0x2BDF DUP7 MLOAD SWAP6 DUP7 PUSH2 0x24F8 JUMP JUMPDEST DUP2 DUP6 MSTORE DUP8 MSTORE DUP3 DUP8 KECCAK256 DUP8 SWAP1 DUP5 DUP1 DUP8 ADD JUMPDEST DUP5 DUP5 LT PUSH2 0x2D5D JUMPI POP POP POP POP POP DUP6 MSTORE PUSH1 0x2 DUP2 MSTORE DUP3 DUP6 KECCAK256 SWAP3 DUP1 MLOAD PUSH2 0x2C0F DUP2 PUSH2 0x24C1 JUMP JUMPDEST DUP5 SLOAD DUP2 MSTORE PUSH1 0x1 DUP1 DUP7 ADD SLOAD DUP5 DUP4 ADD MSTORE PUSH1 0x2 DUP7 ADD SLOAD PUSH1 0x1 PUSH1 0x1 PUSH1 0xA0 SHL SUB SWAP1 DUP2 AND DUP5 DUP5 ADD MSTORE SWAP3 MLOAD PUSH1 0x3 DUP8 ADD DUP1 SLOAD DUP1 DUP4 MSTORE SWAP1 DUP11 MSTORE DUP6 DUP11 KECCAK256 SWAP3 SWAP8 SWAP2 SWAP5 SWAP2 SWAP3 DUP6 SWAP3 DUP4 DUP9 ADD SWAP3 SWAP1 DUP13 SWAP1 JUMPDEST DUP12 DUP11 DUP5 DUP5 LT PUSH2 0x2D42 JUMPI POP POP POP POP POP POP PUSH2 0x140 SWAP3 PUSH2 0x2C76 PUSH2 0x2CA2 SWAP4 PUSH1 0xA SWAP4 SUB DUP8 PUSH2 0x24F8 JUMP JUMPDEST PUSH1 0x60 DUP6 ADD SWAP6 DUP7 MSTORE PUSH1 0x4 DUP2 ADD SLOAD PUSH1 0x80 DUP7 ADD MSTORE PUSH1 0x5 DUP2 ADD SLOAD PUSH1 0xA0 DUP7 ADD MSTORE PUSH1 0xFF PUSH1 0x6 DUP3 ADD SLOAD AND PUSH2 0x13F8 DUP2 PUSH2 0x25BF JUMP JUMPDEST SWAP2 ADD MSTORE DUP3 MLOAD SWAP1 MLOAD MLOAD GT PUSH2 0x2D3D JUMPI DUP5 SWAP3 DUP4 DUP2 JUMPDEST PUSH2 0x2CF8 JUMPI JUMPDEST POP POP POP PUSH1 0x64 DUP3 MUL SWAP2 DUP1 DUP4 DIV PUSH1 0x64 EQ SWAP1 ISZERO OR ISZERO PUSH2 0x2CE4 JUMPI PUSH2 0x2CDC SWAP3 SWAP4 POP MLOAD SWAP1 PUSH2 0x2B92 JUMP JUMPDEST PUSH1 0xA SLOAD GT ISZERO SWAP1 JUMP JUMPDEST PUSH4 0x4E487B71 PUSH1 0xE0 SHL DUP5 MSTORE PUSH1 0x11 PUSH1 0x4 MSTORE PUSH1 0x24 DUP5 REVERT JUMPDEST DUP4 MLOAD DUP2 LT ISZERO PUSH2 0x2D38 JUMPI DUP3 PUSH2 0x2D0C DUP3 DUP7 PUSH2 0x2A41 JUMP JUMPDEST MLOAD ADD MLOAD PUSH2 0x2D23 JUMPI JUMPDEST PUSH2 0x2D1D SWAP1 PUSH2 0x29B8 JUMP JUMPDEST DUP2 PUSH2 0x2CB4 JUMP JUMPDEST SWAP4 PUSH2 0x2D30 PUSH2 0x2D1D SWAP2 PUSH2 0x29B8 JUMP JUMPDEST SWAP5 SWAP1 POP PUSH2 0x2D14 JUMP JUMPDEST PUSH2 0x2CB9 JUMP JUMPDEST POP POP POP JUMP JUMPDEST DUP6 SLOAD DUP4 AND DUP8 MSTORE DUP11 SWAP8 POP SWAP1 SWAP6 ADD SWAP5 SWAP4 DUP5 ADD SWAP4 SWAP2 SWAP1 SWAP2 ADD SWAP1 PUSH2 0x2C52 JUMP JUMPDEST PUSH1 0x1 SWAP2 PUSH1 0x3 SWAP2 DUP11 MLOAD PUSH2 0x2D6E DUP2 PUSH2 0x24A6 JUMP JUMPDEST PUSH1 0xFF DUP7 SLOAD DUP7 DUP1 PUSH1 0xA0 SHL SUB DUP2 AND DUP4 MSTORE PUSH1 0xA0 SHR AND ISZERO ISZERO DUP4 DUP3 ADD MSTORE DUP5 DUP7 ADD SLOAD DUP13 DUP3 ADD MSTORE PUSH2 0x2D9A PUSH1 0x2 DUP8 ADD PUSH2 0x2519 JUMP JUMPDEST PUSH1 0x60 DUP3 ADD MSTORE DUP2 MSTORE ADD SWAP3 ADD SWAP3 ADD SWAP2 SWAP1 DUP6 SWAP1 PUSH2 0x2BEE JUMP JUMPDEST SWAP2 SWAP1 SWAP2 PUSH1 0x0 SWAP1 DUP2 MSTORE PUSH1 0x20 SWAP1 PUSH1 0x2 DUP3 MSTORE PUSH1 0x40 DUP2 KECCAK256 SWAP4 PUSH1 0x40 MLOAD PUSH2 0x2DCF DUP2 PUSH2 0x24C1 JUMP JUMPDEST DUP6 SLOAD DUP2 MSTORE PUSH1 0x1 SWAP4 DUP5 DUP8 ADD SLOAD DUP2 DUP4 ADD MSTORE PUSH1 0x1 DUP1 PUSH1 0xA0 SHL SUB SWAP2 DUP3 PUSH1 0x2 DUP10 ADD SLOAD AND PUSH1 0x40 DUP3 ADD MSTORE PUSH1 0x3 DUP9 ADD PUSH1 0x40 MLOAD SWAP3 DUP4 DUP2 DUP4 SLOAD SWAP2 DUP3 DUP2 MSTORE ADD SWAP3 DUP9 MSTORE DUP2 DUP9 KECCAK256 SWAP2 DUP9 SWAP1 JUMPDEST DUP3 DUP3 LT PUSH2 0x2E87 JUMPI POP POP POP POP PUSH2 0x2E32 PUSH1 0xA DUP9 SWAP10 SWAP11 PUSH2 0x2C76 DUP7 PUSH2 0x140 SWAP6 SWAP12 SWAP11 SWAP12 SUB DUP8 PUSH2 0x24F8 JUMP JUMPDEST SWAP2 ADD MSTORE DUP5 SWAP6 JUMPDEST PUSH2 0x2E46 JUMPI JUMPDEST POP POP POP POP SWAP1 POP SWAP1 JUMP JUMPDEST DUP1 MLOAD DUP1 MLOAD DUP8 LT ISZERO PUSH2 0x2E81 JUMPI PUSH2 0x2E5C DUP8 DUP5 SWAP3 PUSH2 0x2A41 JUMP JUMPDEST MLOAD AND DUP3 DUP5 AND EQ PUSH2 0x2E78 JUMPI PUSH2 0x2E71 DUP5 SWAP6 SWAP7 PUSH2 0x29B8 JUMP JUMPDEST SWAP6 SWAP5 PUSH2 0x2E38 JUMP JUMPDEST POP POP POP SWAP2 POP POP SWAP1 JUMP JUMPDEST POP PUSH2 0x2E3D JUMP JUMPDEST DUP4 SLOAD DUP9 AND DUP6 MSTORE SWAP4 DUP5 ADD SWAP4 SWAP3 DUP11 ADD SWAP3 SWAP1 DUP11 ADD SWAP1 PUSH2 0x2E0D JUMP JUMPDEST PUSH1 0x0 SWAP1 DUP2 MSTORE PUSH1 0x20 PUSH1 0x2 DUP2 MSTORE PUSH1 0x40 DUP3 KECCAK256 PUSH1 0x40 MLOAD PUSH2 0x2EB9 DUP2 PUSH2 0x24C1 JUMP JUMPDEST DUP2 SLOAD DUP2 MSTORE PUSH1 0x1 SWAP2 DUP3 DUP2 ADD SLOAD DUP5 DUP4 ADD MSTORE PUSH1 0x1 DUP1 PUSH1 0xA0 SHL SUB SWAP2 DUP3 PUSH1 0x2 DUP4 ADD SLOAD AND PUSH1 0x40 DUP3 ADD MSTORE PUSH1 0x3 DUP3 ADD PUSH1 0x40 MLOAD SWAP6 DUP7 DUP2 DUP4 SLOAD SWAP2 DUP3 DUP2 MSTORE ADD SWAP3 DUP10 MSTORE DUP2 DUP10 KECCAK256 SWAP2 DUP10 SWAP1 JUMPDEST DUP3 DUP3 LT PUSH2 0x2FCA JUMPI POP POP POP POP DUP6 SWAP3 PUSH2 0x2F67 SWAP3 PUSH2 0x2F18 DUP8 SWAP9 PUSH2 0x2F5E SWAP5 SUB DUP7 PUSH2 0x24F8 JUMP JUMPDEST PUSH1 0x60 DUP2 ADD SWAP5 DUP6 MSTORE PUSH1 0x4 DUP3 ADD SLOAD SWAP1 PUSH1 0x80 DUP2 ADD SWAP2 DUP3 MSTORE PUSH2 0x140 PUSH2 0x2F52 PUSH1 0xA PUSH1 0x5 DUP7 ADD SLOAD SWAP6 PUSH1 0xA0 DUP6 ADD SWAP7 DUP8 MSTORE PUSH1 0xFF PUSH1 0x6 DUP3 ADD SLOAD AND PUSH2 0x13F8 DUP2 PUSH2 0x25BF JUMP JUMPDEST SWAP2 ADD MSTORE MLOAD SWAP1 MLOAD SWAP1 PUSH2 0x2AFC JUMP JUMPDEST DUP3 MLOAD MLOAD SWAP1 PUSH2 0x2B92 JUMP JUMPDEST SWAP5 PUSH32 0x0 SWAP4 JUMPDEST PUSH2 0x2F98 JUMPI JUMPDEST POP POP POP POP POP POP JUMP JUMPDEST DUP2 MLOAD SWAP1 DUP2 MLOAD DUP2 LT ISZERO PUSH2 0x2FC4 JUMPI PUSH2 0x766 DUP8 DUP6 PUSH2 0x2FB6 DUP5 PUSH2 0x2FBE SWAP7 PUSH2 0x2A41 JUMP JUMPDEST MLOAD AND DUP8 PUSH2 0x2B09 JUMP JUMPDEST DUP5 PUSH2 0x2F8B JUMP JUMPDEST POP PUSH2 0x2F90 JUMP JUMPDEST DUP4 SLOAD DUP9 AND DUP6 MSTORE SWAP4 DUP5 ADD SWAP4 SWAP3 DUP9 ADD SWAP3 SWAP1 DUP9 ADD SWAP1 PUSH2 0x2EF7 JUMP INVALID LOG2 PUSH5 0x6970667358 0x22 SLT KECCAK256 PUSH18 0x8196AF3B55DB22B15DF918560788A8DA3ACE PUSH5 0xB83C402860 GASLIMIT 0x5C 0xB6 0xAB 0xCE 0xCA DUP4 PUSH5 0x736F6C6343 STOP ADDMOD EQ STOP CALLER 0x2F DUP8 DUP9 GT PUSH31 0x7EFF1D82E926EC794901D17C78024A50270940304540A733656F0D00000000 "},"methodIdentifiers":{"ADMIN_ROLE()":"75b238fc","ARBITRATOR_ROLE()":"9cea0787","BUSINESS_ROLE()":"3207247b","DEFAULT_ADMIN_ROLE()":"a217fddf","businessEscrows(address,uint256)":"1d78e641","cUSD()":"1fccf672","castVote(uint256,bool,string)":"62aef6f0","createEscrow(uint256,address,address[],uint256,string,uint256)":"b9c831d9","disputes(uint256)":"564a565d","emergencyCancel(uint256)":"dd75cd9b","escrowVotes(uint256,uint256)":"11e6a595","escrows(uint256)":"012f52ee","getBusinessEscrows(address)":"f067347d","getEscrow(uint256)":"7d19e596","getEscrowVotes(uint256)":"da01b880","getInvestorEscrows(address)":"74a28fa8","getRoleAdmin(bytes32)":"248a9ca3","grantRole(bytes32,address)":"2f2ff15d","hasRole(bytes32,address)":"91d14854","hasVoted(uint256,address)":"43859632","investorEscrows(address,uint256)":"ee5f78ef","nextEscrowId()":"89cb29dd","raiseDispute(uint256,string)":"5aef573c","releaseFunds(uint256)":"4d68282f","renounceRole(bytes32,address)":"36568abe","requiredApprovalPercentage()":"4fd13bf6","resolveDispute(uint256,bool,string)":"2840662d","revokeRole(bytes32,address)":"d547741f","setVotingParameters(uint256,uint256)":"3d602b93","submitMilestone(uint256,string,string)":"6d624790","supportsInterface(bytes4)":"01ffc9a7","votingPeriod()":"02a251a3"}}}}}