{"contracts/BusinessRegistry.sol":{"BusinessRegistry":{"abi":[{"inputs":[],"stateMutability":"nonpayable","type":"constructor"},{"inputs":[],"name":"AccessControlBadConfirmation","type":"error"},{"inputs":[{"internalType":"address","name":"account","type":"address"},{"internalType":"bytes32","name":"neededRole","type":"bytes32"}],"name":"AccessControlUnauthorizedAccount","type":"error"},{"inputs":[],"name":"EnforcedPause","type":"error"},{"inputs":[],"name":"ExpectedPause","type":"error"},{"anonymous":false,"inputs":[{"indexed":true,"internalType":"uint256","name":"businessId","type":"uint256"},{"indexed":false,"internalType":"string","name":"field","type":"string"},{"indexed":false,"internalType":"string","name":"newValue","type":"string"}],"name":"BusinessDataUpdated","type":"event"},{"anonymous":false,"inputs":[{"indexed":true,"internalType":"uint256","name":"businessId","type":"uint256"},{"indexed":true,"internalType":"address","name":"owner","type":"address"},{"indexed":false,"internalType":"string","name":"name","type":"string"},{"indexed":false,"internalType":"string","name":"businessType","type":"string"}],"name":"BusinessRegistered","type":"event"},{"anonymous":false,"inputs":[{"indexed":true,"internalType":"uint256","name":"businessId","type":"uint256"},{"indexed":true,"internalType":"address","name":"verifier","type":"address"},{"indexed":false,"internalType":"string","name":"reason","type":"string"}],"name":"BusinessRejected","type":"event"},{"anonymous":false,"inputs":[{"indexed":true,"internalType":"uint256","name":"businessId","type":"uint256"},{"indexed":false,"internalType":"enum BusinessRegistry.BusinessStatus","name":"oldStatus","type":"uint8"},{"indexed":false,"internalType":"enum BusinessRegistry.BusinessStatus","name":"newStatus","type":"uint8"}],"name":"BusinessStatusUpdated","type":"event"},{"anonymous":false,"inputs":[{"indexed":true,"internalType":"uint256","name":"businessId","type":"uint256"},{"indexed":true,"internalType":"address","name":"verifier","type":"address"},{"indexed":false,"internalType":"uint256","name":"timestamp","type":"uint256"}],"name":"BusinessVerified","type":"event"},{"anonymous":false,"inputs":[{"indexed":false,"internalType":"address","name":"account","type":"address"}],"name":"Paused","type":"event"},{"anonymous":false,"inputs":[{"indexed":true,"internalType":"bytes32","name":"role","type":"bytes32"},{"indexed":true,"internalType":"bytes32","name":"previousAdminRole","type":"bytes32"},{"indexed":true,"internalType":"bytes32","name":"newAdminRole","type":"bytes32"}],"name":"RoleAdminChanged","type":"event"},{"anonymous":false,"inputs":[{"indexed":true,"internalType":"bytes32","name":"role","type":"bytes32"},{"indexed":true,"internalType":"address","name":"account","type":"address"},{"indexed":true,"internalType":"address","name":"sender","type":"address"}],"name":"RoleGranted","type":"event"},{"anonymous":false,"inputs":[{"indexed":true,"internalType":"bytes32","name":"role","type":"bytes32"},{"indexed":true,"internalType":"address","name":"account","type":"address"},{"indexed":true,"internalType":"address","name":"sender","type":"address"}],"name":"RoleRevoked","type":"event"},{"anonymous":false,"inputs":[{"indexed":false,"internalType":"address","name":"account","type":"address"}],"name":"Unpaused","type":"event"},{"inputs":[],"name":"ADMIN_ROLE","outputs":[{"internalType":"bytes32","name":"","type":"bytes32"}],"stateMutability":"view","type":"function"},{"inputs":[],"name":"DEFAULT_ADMIN_ROLE","outputs":[{"internalType":"bytes32","name":"","type":"bytes32"}],"stateMutability":"view","type":"function"},{"inputs":[],"name":"VERIFIER_ROLE","outputs":[{"internalType":"bytes32","name":"","type":"bytes32"}],"stateMutability":"view","type":"function"},{"inputs":[{"internalType":"uint256","name":"_businessId","type":"uint256"},{"internalType":"string","name":"_category","type":"string"}],"name":"addBusinessCategory","outputs":[],"stateMutability":"nonpayable","type":"function"},{"inputs":[{"internalType":"string","name":"","type":"string"}],"name":"businessNames","outputs":[{"internalType":"bool","name":"","type":"bool"}],"stateMutability":"view","type":"function"},{"inputs":[{"internalType":"uint256","name":"","type":"uint256"}],"name":"businesses","outputs":[{"internalType":"uint256","name":"id","type":"uint256"},{"internalType":"address","name":"owner","type":"address"},{"internalType":"string","name":"name","type":"string"},{"internalType":"string","name":"businessType","type":"string"},{"internalType":"string","name":"location","type":"string"},{"internalType":"string","name":"documentsHash","type":"string"},{"internalType":"enum BusinessRegistry.BusinessStatus","name":"status","type":"uint8"},{"internalType":"uint256","name":"registrationDate","type":"uint256"},{"internalType":"uint256","name":"verificationDate","type":"uint256"},{"internalType":"string","name":"rejectionReason","type":"string"},{"internalType":"uint256","name":"monthlyRevenue","type":"uint256"},{"internalType":"uint256","name":"yearsInOperation","type":"uint256"},{"internalType":"uint256","name":"employeeCount","type":"uint256"}],"stateMutability":"view","type":"function"},{"inputs":[{"internalType":"uint256","name":"_businessId","type":"uint256"},{"internalType":"string","name":"_key","type":"string"}],"name":"getAdditionalData","outputs":[{"internalType":"string","name":"","type":"string"}],"stateMutability":"view","type":"function"},{"inputs":[{"internalType":"uint256","name":"_businessId","type":"uint256"}],"name":"getBusiness","outputs":[{"components":[{"internalType":"uint256","name":"id","type":"uint256"},{"internalType":"address","name":"owner","type":"address"},{"internalType":"string","name":"name","type":"string"},{"internalType":"string","name":"businessType","type":"string"},{"internalType":"string","name":"location","type":"string"},{"internalType":"string","name":"documentsHash","type":"string"},{"internalType":"enum BusinessRegistry.BusinessStatus","name":"status","type":"uint8"},{"internalType":"uint256","name":"registrationDate","type":"uint256"},{"internalType":"uint256","name":"verificationDate","type":"uint256"},{"internalType":"string","name":"rejectionReason","type":"string"},{"internalType":"uint256","name":"monthlyRevenue","type":"uint256"},{"internalType":"uint256","name":"yearsInOperation","type":"uint256"},{"internalType":"uint256","name":"employeeCount","type":"uint256"}],"internalType":"struct BusinessRegistry.Business","name":"","type":"tuple"}],"stateMutability":"view","type":"function"},{"inputs":[{"internalType":"uint256","name":"_businessId","type":"uint256"}],"name":"getBusinessMetadata","outputs":[{"internalType":"string","name":"description","type":"string"},{"internalType":"string","name":"website","type":"string"},{"internalType":"string","name":"email","type":"string"},{"internalType":"string","name":"phone","type":"string"},{"internalType":"string[]","name":"categories","type":"string[]"}],"stateMutability":"view","type":"function"},{"inputs":[],"name":"getBusinessStats","outputs":[{"internalType":"uint256","name":"total","type":"uint256"},{"internalType":"uint256","name":"verified","type":"uint256"},{"internalType":"uint256","name":"pending","type":"uint256"},{"internalType":"uint256","name":"rejected","type":"uint256"}],"stateMutability":"view","type":"function"},{"inputs":[{"internalType":"address","name":"_owner","type":"address"}],"name":"getOwnerBusinesses","outputs":[{"internalType":"uint256[]","name":"","type":"uint256[]"}],"stateMutability":"view","type":"function"},{"inputs":[{"internalType":"bytes32","name":"role","type":"bytes32"}],"name":"getRoleAdmin","outputs":[{"internalType":"bytes32","name":"","type":"bytes32"}],"stateMutability":"view","type":"function"},{"inputs":[{"internalType":"bytes32","name":"role","type":"bytes32"},{"internalType":"address","name":"account","type":"address"}],"name":"grantRole","outputs":[],"stateMutability":"nonpayable","type":"function"},{"inputs":[{"internalType":"bytes32","name":"role","type":"bytes32"},{"internalType":"address","name":"account","type":"address"}],"name":"hasRole","outputs":[{"internalType":"bool","name":"","type":"bool"}],"stateMutability":"view","type":"function"},{"inputs":[{"internalType":"uint256","name":"_businessId","type":"uint256"}],"name":"isBusinessVerified","outputs":[{"internalType":"bool","name":"","type":"bool"}],"stateMutability":"view","type":"function"},{"inputs":[],"name":"nextBusinessId","outputs":[{"internalType":"uint256","name":"","type":"uint256"}],"stateMutability":"view","type":"function"},{"inputs":[{"internalType":"address","name":"","type":"address"},{"internalType":"uint256","name":"","type":"uint256"}],"name":"ownerBusinesses","outputs":[{"internalType":"uint256","name":"","type":"uint256"}],"stateMutability":"view","type":"function"},{"inputs":[],"name":"pause","outputs":[],"stateMutability":"nonpayable","type":"function"},{"inputs":[],"name":"paused","outputs":[{"internalType":"bool","name":"","type":"bool"}],"stateMutability":"view","type":"function"},{"inputs":[{"internalType":"string","name":"_name","type":"string"},{"internalType":"string","name":"_businessType","type":"string"},{"internalType":"string","name":"_location","type":"string"},{"internalType":"string","name":"_documentsHash","type":"string"},{"internalType":"uint256","name":"_monthlyRevenue","type":"uint256"},{"internalType":"uint256","name":"_yearsInOperation","type":"uint256"},{"internalType":"uint256","name":"_employeeCount","type":"uint256"},{"internalType":"string","name":"_description","type":"string"},{"internalType":"string","name":"_website","type":"string"},{"internalType":"string","name":"_email","type":"string"},{"internalType":"string","name":"_phone","type":"string"}],"name":"registerBusiness","outputs":[{"internalType":"uint256","name":"","type":"uint256"}],"stateMutability":"nonpayable","type":"function"},{"inputs":[{"internalType":"uint256","name":"_businessId","type":"uint256"},{"internalType":"string","name":"_reason","type":"string"}],"name":"rejectBusiness","outputs":[],"stateMutability":"nonpayable","type":"function"},{"inputs":[{"internalType":"bytes32","name":"role","type":"bytes32"},{"internalType":"address","name":"callerConfirmation","type":"address"}],"name":"renounceRole","outputs":[],"stateMutability":"nonpayable","type":"function"},{"inputs":[{"internalType":"bytes32","name":"role","type":"bytes32"},{"internalType":"address","name":"account","type":"address"}],"name":"revokeRole","outputs":[],"stateMutability":"nonpayable","type":"function"},{"inputs":[{"internalType":"uint256","name":"_businessId","type":"uint256"},{"internalType":"string","name":"_key","type":"string"},{"internalType":"string","name":"_value","type":"string"}],"name":"setAdditionalData","outputs":[],"stateMutability":"nonpayable","type":"function"},{"inputs":[{"internalType":"bytes4","name":"interfaceId","type":"bytes4"}],"name":"supportsInterface","outputs":[{"internalType":"bool","name":"","type":"bool"}],"stateMutability":"view","type":"function"},{"inputs":[],"name":"totalBusinesses","outputs":[{"internalType":"uint256","name":"","type":"uint256"}],"stateMutability":"view","type":"function"},{"inputs":[],"name":"unpause","outputs":[],"stateMutability":"nonpayable","type":"function"},{"inputs":[{"internalType":"uint256","name":"_businessId","type":"uint256"},{"internalType":"string","name":"_newDocumentsHash","type":"string"}],"name":"updateBusinessDocuments","outputs":[],"stateMutability":"nonpayable","type":"function"},{"inputs":[{"internalType":"uint256","name":"_businessId","type":"uint256"},{"internalType":"string","name":"_description","type":"string"},{"internalType":"string","name":"_website","type":"string"},{"internalType":"string","name":"_email","type":"string"},{"internalType":"string","name":"_phone","type":"string"}],"name":"updateBusinessMetadata","outputs":[],"stateMutability":"nonpayable","type":"function"},{"inputs":[{"internalType":"uint256","name":"_businessId","type":"uint256"},{"internalType":"enum BusinessRegistry.BusinessStatus","name":"_newStatus","type":"uint8"}],"name":"updateBusinessStatus","outputs":[],"stateMutability":"nonpayable","type":"function"},{"inputs":[],"name":"verifiedBusinesses","outputs":[{"internalType":"uint256","name":"","type":"uint256"}],"stateMutability":"view","type":"function"},{"inputs":[{"internalType":"uint256","name":"_businessId","type":"uint256"}],"name":"verifyBusiness","outputs":[],"stateMutability":"nonpayable","type":"function"}],"evm":{"bytecode":{"linkReferences":{},"object":"608060405234620000435760016006556200001a3362000048565b506200002633620000c8565b5062000032336200016a565b506040516120199081620002088239f35b600080fd5b6001600160a01b031660008181527fad3228b676f7d3cd4284a5443f17f1962b36e491b30a40b2405849e597ba5fb5602052604081205490919060ff16620000c457818052816020526040822081835260205260408220600160ff198254161790553391600080516020620022218339815191528180a4600190565b5090565b6001600160a01b031660008181527f7d7ffb7a348e1c6a02869081a26547b49160dd3df72d1d75a570eb9b698292ec60205260408120549091907fa49807205ce4d355092ef5a8a18f56e8913cf4a201fbe287825b095693c217759060ff166200016557808352826020526040832082845260205260408320600160ff1982541617905560008051602062002221833981519152339380a4600190565b505090565b6001600160a01b031660008181527f1da0b5176dfe03406af5a6eed66ca01dda9b45ac4da671c3fa379cb93717ef8160205260408120549091907f0ce23c3e399818cfee81a7ab0880f714e53d7672b08df0fa62f2843416e1ea099060ff166200016557808352826020526040832082845260205260408320600160ff1982541617905560008051602062002221833981519152339380a460019056fe608080604052600436101561001357600080fd5b60003560e01c90816301ffc9a7146118285750806318dd2a12146117e9578063248a9ca3146117ba5780632f2ff15d1461177b57806336568abe146117345780633b354cca146116155780633e3398db1461156a5780633f4ba83a1461150057806343b127b41461143057806344e97a1c1461137c5780634d7439cb1461112b5780635c975abb146111085780635ffddd0d14610fdf57806360d2043114610fc157806362f20a0514610e445780636e42e33114610de057806375b238fc14610da5578063794829c514610c965780638456cb5914610c3d57806391d1485414610bf057806399dada8f14610b985780639ed042f614610a88578063a217fddf14610a6c578063abc8a2f514610990578063b984c6ec14610861578063c14b8d7b14610800578063c6b197ec146107e2578063d103d883146102fc578063d547741f146102bb578063e179aef41461029d578063e7705db6146102625763fab6a7ef1461017f57600080fd5b3461025d57600036600319011261025d5760008060019160069283545b8082106101c5576080848460075491600854604051938452602084015260408301526060820152f35b9092836000526002602081815260ff9081886040600020015416600481101561024757610207575050506101fb61020191611d30565b93611d30565b9061019c565b8290876000989598525286604060002001541660048110156102475714610232575b61020190611d30565b9161023f61020191611d30565b929050610229565b634e487b7160e01b600052602160045260246000fd5b600080fd5b3461025d57600036600319011261025d5760206040517f0ce23c3e399818cfee81a7ab0880f714e53d7672b08df0fa62f2843416e1ea098152f35b3461025d57600036600319011261025d576020600654604051908152f35b3461025d57604036600319011261025d576102fa6004356102da61187b565b908060005260006020526102f5600160406000200154611bcb565b611c6f565b005b3461025d5761016036600319011261025d576004356001600160401b03811161025d5761032d9036906004016118e4565b6024356001600160401b03811161025d5761034c9036906004016118e4565b906044356001600160401b03811161025d5761036c9036906004016118e4565b906064356001600160401b03811161025d5761038c9036906004016118e4565b9160e4356001600160401b03811161025d576103ac9036906004016118e4565b90610104356001600160401b03811161025d576103cd9036906004016118e4565b91610124356001600160401b03811161025d576103ee9036906004016118e4565b90610144356001600160401b03811161025d5761040f9036906004016118e4565b92610418611e97565b8551156107a4578751156107665780511561072d5761043987511515611ce4565b60ff604051602081816104528b8381519384920161196c565b8101600581520301902054166106e8576006549661046f88611d30565b6006556040519161047f836118a7565b888352336020840152876040840152896060840152608083015260a0820152600060c08201524260e082015260006101008201526040518060208101106001600160401b036020830111176106d257602081016040526000815261012082015260843561014082015260a43561016082015260c435610180820152866000526002602052604060002092815184556001840160018060a01b036020840151166bffffffffffffffffffffffff60a01b825416179055610545604083015160028601611d56565b610556606083015160038601611d56565b610567608083015160048601611d56565b61057860a083015160058601611d56565b60c08201516004811015610247576106179685600c610180610611966105a661060896600660039c01611e5a565b60e0810151600785015561010081015160088501556105cd61012082015160098601611d56565b610140810151600a850155610160810151600b850155015191015589600052856020526105ff60406000209586611d56565b60018501611d56565b60028301611d56565b01611d56565b336000526004602052604060002092835493600160401b8510156106d2576106c7849261066d877f0ff819ce10f4e6deca6ec9104708d9cdedfb666b9fe105fa862718e88da456fb94600160209a0181556119c1565b81549060031b9086821b91600019901b1916179055604051878187516106968183858c0161196c565b81016005815203019020600160ff198254161790556106b6600754611d30565b600755604051918291339683611e72565b0390a3604051908152f35b634e487b7160e01b600052604160045260246000fd5b60405162461bcd60e51b815260206004820152601c60248201527f427573696e657373206e616d6520616c726561647920657869737473000000006044820152606490fd5b60405162461bcd60e51b8152602060048201526011602482015270131bd8d85d1a5bdb881c995c5d5a5c9959607a1b6044820152606490fd5b60405162461bcd60e51b8152602060048201526016602482015275109d5cda5b995cdcc81d1e5c19481c995c5d5a5c995960521b6044820152606490fd5b60405162461bcd60e51b8152602060048201526016602482015275109d5cda5b995cdcc81b985b59481c995c5d5a5c995960521b6044820152606490fd5b3461025d57600036600319011261025d576020600854604051908152f35b3461025d57602036600319011261025d576004356001600160401b03811161025d5760ff61084b6020610838819436906004016118e4565b816040519382858094519384920161196c565b8101600581520301902054166040519015158152f35b3461025d57602036600319011261025d57600435600052600260205260406000208054600160a01b6001900360018301541691600281016108a190611a29565b6108ad60038301611a29565b916108ba60048201611a29565b6108c660058301611a29565b600683015460ff16906007840154600885015491600986016108e790611a29565b94600a87015498600b88015497600c0154986040519c8d9c8d5260208d01528b6101a06040819201528c0161091b9161198f565b8b810360608d015261092c9161198f565b8a810360808c015261093d9161198f565b89810360a08b015261094e9161198f565b9260c0890161095c916119b4565b60e08801526101008701528581036101208701526109799161198f565b926101408501526101608401526101808301520390f35b3461025d5761099e3661193a565b8160005260026020526109cf60406000206109bb81541515611eb5565b600101546001600160a01b03163314611f57565b81600052600360205260046040600020018054600160401b8110156106d2576109fd916001820181556119c1565b610a565781610a1e600080516020611fc483398151915293610a5193611d56565b60405191829160408352600860408401526763617465676f727960c01b606084015260806020840152608083019061198f565b0390a2005b634e487b7160e01b600052600060045260246000fd5b3461025d57600036600319011261025d57602060405160008152f35b3461025d5760a036600319011261025d576004356001600160401b0360243581811161025d57610abc9036906004016118e4565b60443582811161025d57610ad49036906004016118e4565b9060643583811161025d57610aed9036906004016118e4565b9060843593841161025d57610611600392610608610b12610b479736906004016118e4565b95886000526002602052610b3060406000206109bb81541515611eb5565b88600052856020526105ff60406000209586611d56565b600080516020611fc483398151915260c06040516040815260086040820152676d6574616461746160c01b60608201526080602082015260076080820152661d5c19185d195960ca1b60a0820152a2005b3461025d57604036600319011261025d57610bb1611891565b6001600160a01b031660009081526004602052604090208054602435919082101561025d57602091610be2916119c1565b90546040519160031b1c8152f35b3461025d57604036600319011261025d57610c0961187b565b600435600052600060205260406000209060018060a01b0316600052602052602060ff604060002054166040519015158152f35b3461025d57600036600319011261025d57610c56611b6f565b610c5e611e97565b600160ff19815416176001557f62e78cea01bee320cd4e420270b5ea74000d11b0c9f74754ebdbfc544b05a2586020604051338152a1005b3461025d57610ca43661193a565b816000526002602052604060002090610cbf82541515611eb5565b610cd660018060a01b036001840154163314611f57565b610ce281511515611ce4565b610cef8160058401611d56565b600682019081549160ff831692600484101561024757600080516020611fc4833981519152946002610a519514610d5c575b50505060405191829160408352600d60408401526c0c8dec6eadacadce8e690c2e6d609b1b606084015260806020840152608083019061198f565b60009260099260ff1916905501610d7381546119ef565b601f8111610d86575b5055848080610d21565b81835260208320610d9f91601f0160051c810190611d3f565b86610d7c565b3461025d57600036600319011261025d5760206040517fa49807205ce4d355092ef5a8a18f56e8913cf4a201fbe287825b095693c217758152f35b3461025d57610e40610e2c610e27610df73661193a565b90806000526002602052610e116040600020541515611eb5565b6000526003602052600560406000200190611acf565b611a29565b60405191829160208352602083019061198f565b0390f35b3461025d5760208060031936011261025d576004358060005260028252610e716040600020541515611eb5565b60005260038152604060002060048101610e8a82611a29565b91600193610e99858301611a29565b91610eb26003610eab60028401611a29565b9201611a29565b908454936001600160401b0385116106d25760409795975194610eda858260051b01876118c3565b8086528486018099600052856000206000915b838310610f9e5750505050610f429291610f26610f3492610f196040519a60a08c5260a08c019061198f565b908a8203888c015261198f565b9088820360408a015261198f565b90868203606088015261198f565b918483036080860152519081835280830192818360051b82010196936000915b848310610f6f5787890388f35b9091929394958480610f8c839b601f198682030187528a5161198f565b9a980196959491909101920190610f62565b90898089819e9c9594610fb085611a29565b8152019201920192509a989a610eed565b3461025d57600036600319011261025d576020600754604051908152f35b3461025d57604036600319011261025d576004356024356004811015908161025d57611009611b6f565b8260005260026020526006604060002061102581541515611eb5565b0160ff815416926004841015610247576001841480806110f9575b156110a8575050909160085480156110925783611079600080516020611fa48339815191529560409561108f9460001901600855611e5a565b611085845180946119b4565b60208301906119b4565ba2005b634e487b7160e01b600052601160045260246000fd5b1590816110e5575b5082611079604094600080516020611fa4833981519152969461108f9415611e5a576110dd600854611d30565b600855611e5a565b9050929092610247579160018214826110b0565b50600091506001841415611040565b3461025d57600036600319011261025d57602060ff600154166040519015158152f35b3461025d57602036600319011261025d576004356000610180604051611150816118a7565b8281528260208201526060604082015260608082015260606080820152606060a08201528260c08201528260e0820152826101008201526060610120820152826101408201528261016082015201528060005260026020526111b86040600020541515611eb5565b60005260026020526040600020604051906111d2826118a7565b8054825260018101546001600160a01b031660208301526111f560028201611a29565b604083015261120660038201611a29565b606083015261121760048201611a29565b608083015261122860058201611a29565b60a083015260ff60068201541690600482101561024757600c9160c0840152600781015460e0840152600881015461010084015261126860098201611a29565b610120840152600a810154610140840152600b81015461016084015201546101808201526040518091602082528051602083015260018060a01b0360208201511660408301526101806113596112cf60408401516101a060608701526101c086019061198f565b6113196113056112f1606087015193601f1994858a83030160808b015261198f565b6080870151848983030160a08a015261198f565b60a0860151838883030160c089015261198f565b9061132c60c086015160e08801906119b4565b60e0850151610100870152610100850151610120870152610120850151908683030161014087015261198f565b916101408101516101608501526101608101518285015201516101a08301520390f35b3461025d5760208060031936011261025d576001600160a01b0361139e611891565b1660005260048152604060002060405190818382549182815201908192600052846000209060005b8682821061141c5786866113dc828803836118c3565b604051928392818401908285525180915260408401929160005b82811061140557505050500390f35b8351855286955093810193928101926001016113f6565b8354855290930192600192830192016113c6565b3461025d57602036600319011261025d5760043561144c611af5565b611454611e97565b806000526002602052604060002061146e81541515611eb5565b600681019081549060ff821690600482101561024757600080516020611fa48339815191529360016040946114a38515611f01565b60ff19161790556008429101556114bb600854611d30565b6008558151428152847f6958986179c34f96dcc7e81235a38d71dd262238d91190ab0c8b1417740ebed860203393a36114f6825180926119b4565b60016020820152a2005b3461025d57600036600319011261025d57611519611b6f565b60015460ff8116156115585760ff19166001557f5db9ee0a495bf2e6ff9c91a7834c1ba4fdd244a5e8aa4e537bd38aeae4b073aa6020604051338152a1005b604051638dfc202b60e01b8152600490fd5b3461025d57606036600319011261025d576004356001600160401b0360243581811161025d5761159e9036906004016118e4565b60443591821161025d576115c5600080516020611fc48339815191529236906004016118e4565b908360005260026020526115e360406000206109bb81541515611eb5565b83600052600360205261160682611601600560406000200184611acf565b611d56565b610a5160405192839283611e72565b3461025d576116233661193a565b61162b611af5565b611633611e97565b81600052600260205260406000209061164e82541515611eb5565b600682019182549160ff83169160048310156102475761166e8315611f01565b8151156116ef5781600961169e92600080516020611fa483398151915297600260409860ff191617905501611d56565b847feedeaeb1d0e569196fb9902498d8a6577fde6ab76104a501bee5d4dd7735f5f2845160208152806116d63395602083019061198f565b0390a36116e5825180926119b4565b60026020820152a2005b60405162461bcd60e51b815260206004820152601960248201527f52656a656374696f6e20726561736f6e207265717569726564000000000000006044820152606490fd5b3461025d57604036600319011261025d5761174d61187b565b336001600160a01b03821603611769576102fa90600435611c6f565b60405163334bd91960e11b8152600490fd5b3461025d57604036600319011261025d576102fa60043561179a61187b565b908060005260006020526117b5600160406000200154611bcb565b611bf1565b3461025d57602036600319011261025d5760043560005260006020526020600160406000200154604051908152f35b3461025d57602036600319011261025d57600435600052600260205260ff60066040600020015416600481101561024757602090600160405191148152f35b3461025d57602036600319011261025d576004359063ffffffff60e01b821680920361025d57602091637965db0b60e01b811490811561186a575b5015158152f35b6301ffc9a760e01b14905083611863565b602435906001600160a01b038216820361025d57565b600435906001600160a01b038216820361025d57565b6101a081019081106001600160401b038211176106d257604052565b90601f801991011681019081106001600160401b038211176106d257604052565b81601f8201121561025d578035906001600160401b0382116106d25760405192611918601f8401601f1916602001856118c3565b8284526020838301011161025d57816000926020809301838601378301015290565b90604060031983011261025d5760043591602435906001600160401b03821161025d57611969916004016118e4565b90565b60005b83811061197f5750506000910152565b818101518382015260200161196f565b906020916119a88151809281855285808601910161196c565b601f01601f1916010190565b9060048210156102475752565b80548210156119d95760005260206000200190600090565b634e487b7160e01b600052603260045260246000fd5b90600182811c92168015611a1f575b6020831014611a0957565b634e487b7160e01b600052602260045260246000fd5b91607f16916119fe565b9060405191826000825492611a3d846119ef565b908184526001948581169081600014611aac5750600114611a69575b5050611a67925003836118c3565b565b9093915060005260209081600020936000915b818310611a94575050611a6793508201013880611a59565b85548884018501529485019487945091830191611a7c565b915050611a6794506020925060ff191682840152151560051b8201013880611a59565b602090611ae992826040519483868095519384920161196c565b82019081520301902090565b3360009081527f1da0b5176dfe03406af5a6eed66ca01dda9b45ac4da671c3fa379cb93717ef8160205260409020547f0ce23c3e399818cfee81a7ab0880f714e53d7672b08df0fa62f2843416e1ea099060ff1615611b515750565b6044906040519063e2517d3f60e01b82523360048301526024820152fd5b3360009081527f7d7ffb7a348e1c6a02869081a26547b49160dd3df72d1d75a570eb9b698292ec60205260409020547fa49807205ce4d355092ef5a8a18f56e8913cf4a201fbe287825b095693c217759060ff1615611b515750565b80600052600060205260406000203360005260205260ff6040600020541615611b515750565b9060009180835282602052604083209160018060a01b03169182845260205260ff60408420541615600014611c6a57808352826020526040832082845260205260408320600160ff198254161790557f2f8788117e7eff1d82e926ec794901d17c78024a50270940304540a733656f0d339380a4600190565b505090565b9060009180835282602052604083209160018060a01b03169182845260205260ff604084205416600014611c6a5780835282602052604083208284526020526040832060ff1981541690557ff6391f5c32d9c69d2a47ea670b442974b53935d1edc7fd64eb21e047a839171b339380a4600190565b15611ceb57565b60405162461bcd60e51b815260206004820152601760248201527f446f63756d656e747320686173682072657175697265640000000000000000006044820152606490fd5b60001981146110925760010190565b818110611d4a575050565b60008155600101611d3f565b91909182516001600160401b0381116106d257611d7382546119ef565b601f8111611e1d575b50602080601f8311600114611db9575081929394600092611dae575b50508160011b916000199060031b1c1916179055565b015190503880611d98565b90601f198316958460005282600020926000905b888210611e0557505083600195969710611dec575b505050811b019055565b015160001960f88460031b161c19169055388080611de2565b80600185968294968601518155019501930190611dcd565b611e4a90836000526020600020601f840160051c81019160208510611e50575b601f0160051c0190611d3f565b38611d7c565b9091508190611e3d565b9060048110156102475760ff80198354169116179055565b9091611e896119699360408452604084019061198f565b91602081840391015261198f565b60ff60015416611ea357565b60405163d93c066560e01b8152600490fd5b15611ebc57565b60405162461bcd60e51b815260206004820152601760248201527f427573696e65737320646f6573206e6f742065786973740000000000000000006044820152606490fd5b15611f0857565b60405162461bcd60e51b815260206004820152602160248201527f427573696e657373206e6f742070656e64696e6720766572696669636174696f6044820152603760f91b6064820152608490fd5b15611f5e57565b60405162461bcd60e51b815260206004820152601e60248201527f4f6e6c7920627573696e657373206f776e65722063616e2075706461746500006044820152606490fdfe3e5d8b8a8833997ef00c2c2080979ca2906a0150b17bd9c028203ae07644bdaef5d76ee117a5e86596d2c2c4f3dba496ee5f72b1cb60b436a3e57cafc3c3e9aaa264697066735822122057c4e412ef3e00033ff053504d7e659e2056354a69a023df5e3ae7b25aed658664736f6c634300081400332f8788117e7eff1d82e926ec794901d17c78024a50270940304540a733656f0d","opcodes":"PUSH1 0x80 PUSH1 0x40 MSTORE CALLVALUE PUSH3 0x43 JUMPI PUSH1 0x1 PUSH1 0x6 SSTORE PUSH3 0x1A CALLER PUSH3 0x48 JUMP JUMPDEST POP PUSH3 0x26 CALLER PUSH3 0xC8 JUMP JUMPDEST POP PUSH3 0x32 CALLER PUSH3 0x16A JUMP JUMPDEST POP PUSH1 0x40 MLOAD PUSH2 0x2019 SWAP1 DUP2 PUSH3 0x208 DUP3 CODECOPY RETURN JUMPDEST PUSH1 0x0 DUP1 REVERT JUMPDEST PUSH1 0x1 PUSH1 0x1 PUSH1 0xA0 SHL SUB AND PUSH1 0x0 DUP2 DUP2 MSTORE PUSH32 0xAD3228B676F7D3CD4284A5443F17F1962B36E491B30A40B2405849E597BA5FB5 PUSH1 0x20 MSTORE PUSH1 0x40 DUP2 KECCAK256 SLOAD SWAP1 SWAP2 SWAP1 PUSH1 0xFF AND PUSH3 0xC4 JUMPI DUP2 DUP1 MSTORE DUP2 PUSH1 0x20 MSTORE PUSH1 0x40 DUP3 KECCAK256 DUP2 DUP4 MSTORE PUSH1 0x20 MSTORE PUSH1 0x40 DUP3 KECCAK256 PUSH1 0x1 PUSH1 0xFF NOT DUP3 SLOAD AND OR SWAP1 SSTORE CALLER SWAP2 PUSH1 0x0 DUP1 MLOAD PUSH1 0x20 PUSH3 0x2221 DUP4 CODECOPY DUP2 MLOAD SWAP2 MSTORE DUP2 DUP1 LOG4 PUSH1 0x1 SWAP1 JUMP JUMPDEST POP SWAP1 JUMP JUMPDEST PUSH1 0x1 PUSH1 0x1 PUSH1 0xA0 SHL SUB AND PUSH1 0x0 DUP2 DUP2 MSTORE PUSH32 0x7D7FFB7A348E1C6A02869081A26547B49160DD3DF72D1D75A570EB9B698292EC PUSH1 0x20 MSTORE PUSH1 0x40 DUP2 KECCAK256 SLOAD SWAP1 SWAP2 SWAP1 PUSH32 0xA49807205CE4D355092EF5A8A18F56E8913CF4A201FBE287825B095693C21775 SWAP1 PUSH1 0xFF AND PUSH3 0x165 JUMPI DUP1 DUP4 MSTORE DUP3 PUSH1 0x20 MSTORE PUSH1 0x40 DUP4 KECCAK256 DUP3 DUP5 MSTORE PUSH1 0x20 MSTORE PUSH1 0x40 DUP4 KECCAK256 PUSH1 0x1 PUSH1 0xFF NOT DUP3 SLOAD AND OR SWAP1 SSTORE PUSH1 0x0 DUP1 MLOAD PUSH1 0x20 PUSH3 0x2221 DUP4 CODECOPY DUP2 MLOAD SWAP2 MSTORE CALLER SWAP4 DUP1 LOG4 PUSH1 0x1 SWAP1 JUMP JUMPDEST POP POP SWAP1 JUMP JUMPDEST PUSH1 0x1 PUSH1 0x1 PUSH1 0xA0 SHL SUB AND PUSH1 0x0 DUP2 DUP2 MSTORE PUSH32 0x1DA0B5176DFE03406AF5A6EED66CA01DDA9B45AC4DA671C3FA379CB93717EF81 PUSH1 0x20 MSTORE PUSH1 0x40 DUP2 KECCAK256 SLOAD SWAP1 SWAP2 SWAP1 PUSH32 0xCE23C3E399818CFEE81A7AB0880F714E53D7672B08DF0FA62F2843416E1EA09 SWAP1 PUSH1 0xFF AND PUSH3 0x165 JUMPI DUP1 DUP4 MSTORE DUP3 PUSH1 0x20 MSTORE PUSH1 0x40 DUP4 KECCAK256 DUP3 DUP5 MSTORE PUSH1 0x20 MSTORE PUSH1 0x40 DUP4 KECCAK256 PUSH1 0x1 PUSH1 0xFF NOT DUP3 SLOAD AND OR SWAP1 SSTORE PUSH1 0x0 DUP1 MLOAD PUSH1 0x20 PUSH3 0x2221 DUP4 CODECOPY DUP2 MLOAD SWAP2 MSTORE CALLER SWAP4 DUP1 LOG4 PUSH1 0x1 SWAP1 JUMP INVALID PUSH1 0x80 DUP1 PUSH1 0x40 MSTORE PUSH1 0x4 CALLDATASIZE LT ISZERO PUSH2 0x13 JUMPI PUSH1 0x0 DUP1 REVERT JUMPDEST PUSH1 0x0 CALLDATALOAD PUSH1 0xE0 SHR SWAP1 DUP2 PUSH4 0x1FFC9A7 EQ PUSH2 0x1828 JUMPI POP DUP1 PUSH4 0x18DD2A12 EQ PUSH2 0x17E9 JUMPI DUP1 PUSH4 0x248A9CA3 EQ PUSH2 0x17BA JUMPI DUP1 PUSH4 0x2F2FF15D EQ PUSH2 0x177B JUMPI DUP1 PUSH4 0x36568ABE EQ PUSH2 0x1734 JUMPI DUP1 PUSH4 0x3B354CCA EQ PUSH2 0x1615 JUMPI DUP1 PUSH4 0x3E3398DB EQ PUSH2 0x156A JUMPI DUP1 PUSH4 0x3F4BA83A EQ PUSH2 0x1500 JUMPI DUP1 PUSH4 0x43B127B4 EQ PUSH2 0x1430 JUMPI DUP1 PUSH4 0x44E97A1C EQ PUSH2 0x137C JUMPI DUP1 PUSH4 0x4D7439CB EQ PUSH2 0x112B JUMPI DUP1 PUSH4 0x5C975ABB EQ PUSH2 0x1108 JUMPI DUP1 PUSH4 0x5FFDDD0D EQ PUSH2 0xFDF JUMPI DUP1 PUSH4 0x60D20431 EQ PUSH2 0xFC1 JUMPI DUP1 PUSH4 0x62F20A05 EQ PUSH2 0xE44 JUMPI DUP1 PUSH4 0x6E42E331 EQ PUSH2 0xDE0 JUMPI DUP1 PUSH4 0x75B238FC EQ PUSH2 0xDA5 JUMPI DUP1 PUSH4 0x794829C5 EQ PUSH2 0xC96 JUMPI DUP1 PUSH4 0x8456CB59 EQ PUSH2 0xC3D JUMPI DUP1 PUSH4 0x91D14854 EQ PUSH2 0xBF0 JUMPI DUP1 PUSH4 0x99DADA8F EQ PUSH2 0xB98 JUMPI DUP1 PUSH4 0x9ED042F6 EQ PUSH2 0xA88 JUMPI DUP1 PUSH4 0xA217FDDF EQ PUSH2 0xA6C JUMPI DUP1 PUSH4 0xABC8A2F5 EQ PUSH2 0x990 JUMPI DUP1 PUSH4 0xB984C6EC EQ PUSH2 0x861 JUMPI DUP1 PUSH4 0xC14B8D7B EQ PUSH2 0x800 JUMPI DUP1 PUSH4 0xC6B197EC EQ PUSH2 0x7E2 JUMPI DUP1 PUSH4 0xD103D883 EQ PUSH2 0x2FC JUMPI DUP1 PUSH4 0xD547741F EQ PUSH2 0x2BB JUMPI DUP1 PUSH4 0xE179AEF4 EQ PUSH2 0x29D JUMPI DUP1 PUSH4 0xE7705DB6 EQ PUSH2 0x262 JUMPI PUSH4 0xFAB6A7EF EQ PUSH2 0x17F JUMPI PUSH1 0x0 DUP1 REVERT JUMPDEST CALLVALUE PUSH2 0x25D JUMPI PUSH1 0x0 CALLDATASIZE PUSH1 0x3 NOT ADD SLT PUSH2 0x25D JUMPI PUSH1 0x0 DUP1 PUSH1 0x1 SWAP2 PUSH1 0x6 SWAP3 DUP4 SLOAD JUMPDEST DUP1 DUP3 LT PUSH2 0x1C5 JUMPI PUSH1 0x80 DUP5 DUP5 PUSH1 0x7 SLOAD SWAP2 PUSH1 0x8 SLOAD PUSH1 0x40 MLOAD SWAP4 DUP5 MSTORE PUSH1 0x20 DUP5 ADD MSTORE PUSH1 0x40 DUP4 ADD MSTORE PUSH1 0x60 DUP3 ADD MSTORE RETURN JUMPDEST SWAP1 SWAP3 DUP4 PUSH1 0x0 MSTORE PUSH1 0x2 PUSH1 0x20 DUP2 DUP2 MSTORE PUSH1 0xFF SWAP1 DUP2 DUP9 PUSH1 0x40 PUSH1 0x0 KECCAK256 ADD SLOAD AND PUSH1 0x4 DUP2 LT ISZERO PUSH2 0x247 JUMPI PUSH2 0x207 JUMPI POP POP POP PUSH2 0x1FB PUSH2 0x201 SWAP2 PUSH2 0x1D30 JUMP JUMPDEST SWAP4 PUSH2 0x1D30 JUMP JUMPDEST SWAP1 PUSH2 0x19C JUMP JUMPDEST DUP3 SWAP1 DUP8 PUSH1 0x0 SWAP9 SWAP6 SWAP9 MSTORE MSTORE DUP7 PUSH1 0x40 PUSH1 0x0 KECCAK256 ADD SLOAD AND PUSH1 0x4 DUP2 LT ISZERO PUSH2 0x247 JUMPI EQ PUSH2 0x232 JUMPI JUMPDEST PUSH2 0x201 SWAP1 PUSH2 0x1D30 JUMP JUMPDEST SWAP2 PUSH2 0x23F PUSH2 0x201 SWAP2 PUSH2 0x1D30 JUMP JUMPDEST SWAP3 SWAP1 POP PUSH2 0x229 JUMP JUMPDEST PUSH4 0x4E487B71 PUSH1 0xE0 SHL PUSH1 0x0 MSTORE PUSH1 0x21 PUSH1 0x4 MSTORE PUSH1 0x24 PUSH1 0x0 REVERT JUMPDEST PUSH1 0x0 DUP1 REVERT JUMPDEST CALLVALUE PUSH2 0x25D JUMPI PUSH1 0x0 CALLDATASIZE PUSH1 0x3 NOT ADD SLT PUSH2 0x25D JUMPI PUSH1 0x20 PUSH1 0x40 MLOAD PUSH32 0xCE23C3E399818CFEE81A7AB0880F714E53D7672B08DF0FA62F2843416E1EA09 DUP2 MSTORE RETURN JUMPDEST CALLVALUE PUSH2 0x25D JUMPI PUSH1 0x0 CALLDATASIZE PUSH1 0x3 NOT ADD SLT PUSH2 0x25D JUMPI PUSH1 0x20 PUSH1 0x6 SLOAD PUSH1 0x40 MLOAD SWAP1 DUP2 MSTORE RETURN JUMPDEST CALLVALUE PUSH2 0x25D JUMPI PUSH1 0x40 CALLDATASIZE PUSH1 0x3 NOT ADD SLT PUSH2 0x25D JUMPI PUSH2 0x2FA PUSH1 0x4 CALLDATALOAD PUSH2 0x2DA PUSH2 0x187B JUMP JUMPDEST SWAP1 DUP1 PUSH1 0x0 MSTORE PUSH1 0x0 PUSH1 0x20 MSTORE PUSH2 0x2F5 PUSH1 0x1 PUSH1 0x40 PUSH1 0x0 KECCAK256 ADD SLOAD PUSH2 0x1BCB JUMP JUMPDEST PUSH2 0x1C6F JUMP JUMPDEST STOP JUMPDEST CALLVALUE PUSH2 0x25D JUMPI PUSH2 0x160 CALLDATASIZE PUSH1 0x3 NOT ADD SLT PUSH2 0x25D JUMPI PUSH1 0x4 CALLDATALOAD PUSH1 0x1 PUSH1 0x1 PUSH1 0x40 SHL SUB DUP2 GT PUSH2 0x25D JUMPI PUSH2 0x32D SWAP1 CALLDATASIZE SWAP1 PUSH1 0x4 ADD PUSH2 0x18E4 JUMP JUMPDEST PUSH1 0x24 CALLDATALOAD PUSH1 0x1 PUSH1 0x1 PUSH1 0x40 SHL SUB DUP2 GT PUSH2 0x25D JUMPI PUSH2 0x34C SWAP1 CALLDATASIZE SWAP1 PUSH1 0x4 ADD PUSH2 0x18E4 JUMP JUMPDEST SWAP1 PUSH1 0x44 CALLDATALOAD PUSH1 0x1 PUSH1 0x1 PUSH1 0x40 SHL SUB DUP2 GT PUSH2 0x25D JUMPI PUSH2 0x36C SWAP1 CALLDATASIZE SWAP1 PUSH1 0x4 ADD PUSH2 0x18E4 JUMP JUMPDEST SWAP1 PUSH1 0x64 CALLDATALOAD PUSH1 0x1 PUSH1 0x1 PUSH1 0x40 SHL SUB DUP2 GT PUSH2 0x25D JUMPI PUSH2 0x38C SWAP1 CALLDATASIZE SWAP1 PUSH1 0x4 ADD PUSH2 0x18E4 JUMP JUMPDEST SWAP2 PUSH1 0xE4 CALLDATALOAD PUSH1 0x1 PUSH1 0x1 PUSH1 0x40 SHL SUB DUP2 GT PUSH2 0x25D JUMPI PUSH2 0x3AC SWAP1 CALLDATASIZE SWAP1 PUSH1 0x4 ADD PUSH2 0x18E4 JUMP JUMPDEST SWAP1 PUSH2 0x104 CALLDATALOAD PUSH1 0x1 PUSH1 0x1 PUSH1 0x40 SHL SUB DUP2 GT PUSH2 0x25D JUMPI PUSH2 0x3CD SWAP1 CALLDATASIZE SWAP1 PUSH1 0x4 ADD PUSH2 0x18E4 JUMP JUMPDEST SWAP2 PUSH2 0x124 CALLDATALOAD PUSH1 0x1 PUSH1 0x1 PUSH1 0x40 SHL SUB DUP2 GT PUSH2 0x25D JUMPI PUSH2 0x3EE SWAP1 CALLDATASIZE SWAP1 PUSH1 0x4 ADD PUSH2 0x18E4 JUMP JUMPDEST SWAP1 PUSH2 0x144 CALLDATALOAD PUSH1 0x1 PUSH1 0x1 PUSH1 0x40 SHL SUB DUP2 GT PUSH2 0x25D JUMPI PUSH2 0x40F SWAP1 CALLDATASIZE SWAP1 PUSH1 0x4 ADD PUSH2 0x18E4 JUMP JUMPDEST SWAP3 PUSH2 0x418 PUSH2 0x1E97 JUMP JUMPDEST DUP6 MLOAD ISZERO PUSH2 0x7A4 JUMPI DUP8 MLOAD ISZERO PUSH2 0x766 JUMPI DUP1 MLOAD ISZERO PUSH2 0x72D JUMPI PUSH2 0x439 DUP8 MLOAD ISZERO ISZERO PUSH2 0x1CE4 JUMP JUMPDEST PUSH1 0xFF PUSH1 0x40 MLOAD PUSH1 0x20 DUP2 DUP2 PUSH2 0x452 DUP12 DUP4 DUP2 MLOAD SWAP4 DUP5 SWAP3 ADD PUSH2 0x196C JUMP JUMPDEST DUP2 ADD PUSH1 0x5 DUP2 MSTORE SUB ADD SWAP1 KECCAK256 SLOAD AND PUSH2 0x6E8 JUMPI PUSH1 0x6 SLOAD SWAP7 PUSH2 0x46F DUP9 PUSH2 0x1D30 JUMP JUMPDEST PUSH1 0x6 SSTORE PUSH1 0x40 MLOAD SWAP2 PUSH2 0x47F DUP4 PUSH2 0x18A7 JUMP JUMPDEST DUP9 DUP4 MSTORE CALLER PUSH1 0x20 DUP5 ADD MSTORE DUP8 PUSH1 0x40 DUP5 ADD MSTORE DUP10 PUSH1 0x60 DUP5 ADD MSTORE PUSH1 0x80 DUP4 ADD MSTORE PUSH1 0xA0 DUP3 ADD MSTORE PUSH1 0x0 PUSH1 0xC0 DUP3 ADD MSTORE TIMESTAMP PUSH1 0xE0 DUP3 ADD MSTORE PUSH1 0x0 PUSH2 0x100 DUP3 ADD MSTORE PUSH1 0x40 MLOAD DUP1 PUSH1 0x20 DUP2 ADD LT PUSH1 0x1 PUSH1 0x1 PUSH1 0x40 SHL SUB PUSH1 0x20 DUP4 ADD GT OR PUSH2 0x6D2 JUMPI PUSH1 0x20 DUP2 ADD PUSH1 0x40 MSTORE PUSH1 0x0 DUP2 MSTORE PUSH2 0x120 DUP3 ADD MSTORE PUSH1 0x84 CALLDATALOAD PUSH2 0x140 DUP3 ADD MSTORE PUSH1 0xA4 CALLDATALOAD PUSH2 0x160 DUP3 ADD MSTORE PUSH1 0xC4 CALLDATALOAD PUSH2 0x180 DUP3 ADD MSTORE DUP7 PUSH1 0x0 MSTORE PUSH1 0x2 PUSH1 0x20 MSTORE PUSH1 0x40 PUSH1 0x0 KECCAK256 SWAP3 DUP2 MLOAD DUP5 SSTORE PUSH1 0x1 DUP5 ADD PUSH1 0x1 DUP1 PUSH1 0xA0 SHL SUB PUSH1 0x20 DUP5 ADD MLOAD AND PUSH12 0xFFFFFFFFFFFFFFFFFFFFFFFF PUSH1 0xA0 SHL DUP3 SLOAD AND OR SWAP1 SSTORE PUSH2 0x545 PUSH1 0x40 DUP4 ADD MLOAD PUSH1 0x2 DUP7 ADD PUSH2 0x1D56 JUMP JUMPDEST PUSH2 0x556 PUSH1 0x60 DUP4 ADD MLOAD PUSH1 0x3 DUP7 ADD PUSH2 0x1D56 JUMP JUMPDEST PUSH2 0x567 PUSH1 0x80 DUP4 ADD MLOAD PUSH1 0x4 DUP7 ADD PUSH2 0x1D56 JUMP JUMPDEST PUSH2 0x578 PUSH1 0xA0 DUP4 ADD MLOAD PUSH1 0x5 DUP7 ADD PUSH2 0x1D56 JUMP JUMPDEST PUSH1 0xC0 DUP3 ADD MLOAD PUSH1 0x4 DUP2 LT ISZERO PUSH2 0x247 JUMPI PUSH2 0x617 SWAP7 DUP6 PUSH1 0xC PUSH2 0x180 PUSH2 0x611 SWAP7 PUSH2 0x5A6 PUSH2 0x608 SWAP7 PUSH1 0x6 PUSH1 0x3 SWAP13 ADD PUSH2 0x1E5A JUMP JUMPDEST PUSH1 0xE0 DUP2 ADD MLOAD PUSH1 0x7 DUP6 ADD SSTORE PUSH2 0x100 DUP2 ADD MLOAD PUSH1 0x8 DUP6 ADD SSTORE PUSH2 0x5CD PUSH2 0x120 DUP3 ADD MLOAD PUSH1 0x9 DUP7 ADD PUSH2 0x1D56 JUMP JUMPDEST PUSH2 0x140 DUP2 ADD MLOAD PUSH1 0xA DUP6 ADD SSTORE PUSH2 0x160 DUP2 ADD MLOAD PUSH1 0xB DUP6 ADD SSTORE ADD MLOAD SWAP2 ADD SSTORE DUP10 PUSH1 0x0 MSTORE DUP6 PUSH1 0x20 MSTORE PUSH2 0x5FF PUSH1 0x40 PUSH1 0x0 KECCAK256 SWAP6 DUP7 PUSH2 0x1D56 JUMP JUMPDEST PUSH1 0x1 DUP6 ADD PUSH2 0x1D56 JUMP JUMPDEST PUSH1 0x2 DUP4 ADD PUSH2 0x1D56 JUMP JUMPDEST ADD PUSH2 0x1D56 JUMP JUMPDEST CALLER PUSH1 0x0 MSTORE PUSH1 0x4 PUSH1 0x20 MSTORE PUSH1 0x40 PUSH1 0x0 KECCAK256 SWAP3 DUP4 SLOAD SWAP4 PUSH1 0x1 PUSH1 0x40 SHL DUP6 LT ISZERO PUSH2 0x6D2 JUMPI PUSH2 0x6C7 DUP5 SWAP3 PUSH2 0x66D DUP8 PUSH32 0xFF819CE10F4E6DECA6EC9104708D9CDEDFB666B9FE105FA862718E88DA456FB SWAP5 PUSH1 0x1 PUSH1 0x20 SWAP11 ADD DUP2 SSTORE PUSH2 0x19C1 JUMP JUMPDEST DUP2 SLOAD SWAP1 PUSH1 0x3 SHL SWAP1 DUP7 DUP3 SHL SWAP2 PUSH1 0x0 NOT SWAP1 SHL NOT AND OR SWAP1 SSTORE PUSH1 0x40 MLOAD DUP8 DUP2 DUP8 MLOAD PUSH2 0x696 DUP2 DUP4 DUP6 DUP13 ADD PUSH2 0x196C JUMP JUMPDEST DUP2 ADD PUSH1 0x5 DUP2 MSTORE SUB ADD SWAP1 KECCAK256 PUSH1 0x1 PUSH1 0xFF NOT DUP3 SLOAD AND OR SWAP1 SSTORE PUSH2 0x6B6 PUSH1 0x7 SLOAD PUSH2 0x1D30 JUMP JUMPDEST PUSH1 0x7 SSTORE PUSH1 0x40 MLOAD SWAP2 DUP3 SWAP2 CALLER SWAP7 DUP4 PUSH2 0x1E72 JUMP JUMPDEST SUB SWAP1 LOG3 PUSH1 0x40 MLOAD SWAP1 DUP2 MSTORE RETURN JUMPDEST PUSH4 0x4E487B71 PUSH1 0xE0 SHL PUSH1 0x0 MSTORE PUSH1 0x41 PUSH1 0x4 MSTORE PUSH1 0x24 PUSH1 0x0 REVERT JUMPDEST PUSH1 0x40 MLOAD PUSH3 0x461BCD PUSH1 0xE5 SHL DUP2 MSTORE PUSH1 0x20 PUSH1 0x4 DUP3 ADD MSTORE PUSH1 0x1C PUSH1 0x24 DUP3 ADD MSTORE PUSH32 0x427573696E657373206E616D6520616C72656164792065786973747300000000 PUSH1 0x44 DUP3 ADD MSTORE PUSH1 0x64 SWAP1 REVERT JUMPDEST PUSH1 0x40 MLOAD PUSH3 0x461BCD PUSH1 0xE5 SHL DUP2 MSTORE PUSH1 0x20 PUSH1 0x4 DUP3 ADD MSTORE PUSH1 0x11 PUSH1 0x24 DUP3 ADD MSTORE PUSH17 0x131BD8D85D1A5BDB881C995C5D5A5C9959 PUSH1 0x7A SHL PUSH1 0x44 DUP3 ADD MSTORE PUSH1 0x64 SWAP1 REVERT JUMPDEST PUSH1 0x40 MLOAD PUSH3 0x461BCD PUSH1 0xE5 SHL DUP2 MSTORE PUSH1 0x20 PUSH1 0x4 DUP3 ADD MSTORE PUSH1 0x16 PUSH1 0x24 DUP3 ADD MSTORE PUSH22 0x109D5CDA5B995CDCC81D1E5C19481C995C5D5A5C9959 PUSH1 0x52 SHL PUSH1 0x44 DUP3 ADD MSTORE PUSH1 0x64 SWAP1 REVERT JUMPDEST PUSH1 0x40 MLOAD PUSH3 0x461BCD PUSH1 0xE5 SHL DUP2 MSTORE PUSH1 0x20 PUSH1 0x4 DUP3 ADD MSTORE PUSH1 0x16 PUSH1 0x24 DUP3 ADD MSTORE PUSH22 0x109D5CDA5B995CDCC81B985B59481C995C5D5A5C9959 PUSH1 0x52 SHL PUSH1 0x44 DUP3 ADD MSTORE PUSH1 0x64 SWAP1 REVERT JUMPDEST CALLVALUE PUSH2 0x25D JUMPI PUSH1 0x0 CALLDATASIZE PUSH1 0x3 NOT ADD SLT PUSH2 0x25D JUMPI PUSH1 0x20 PUSH1 0x8 SLOAD PUSH1 0x40 MLOAD SWAP1 DUP2 MSTORE RETURN JUMPDEST CALLVALUE PUSH2 0x25D JUMPI PUSH1 0x20 CALLDATASIZE PUSH1 0x3 NOT ADD SLT PUSH2 0x25D JUMPI PUSH1 0x4 CALLDATALOAD PUSH1 0x1 PUSH1 0x1 PUSH1 0x40 SHL SUB DUP2 GT PUSH2 0x25D JUMPI PUSH1 0xFF PUSH2 0x84B PUSH1 0x20 PUSH2 0x838 DUP2 SWAP5 CALLDATASIZE SWAP1 PUSH1 0x4 ADD PUSH2 0x18E4 JUMP JUMPDEST DUP2 PUSH1 0x40 MLOAD SWAP4 DUP3 DUP6 DUP1 SWAP5 MLOAD SWAP4 DUP5 SWAP3 ADD PUSH2 0x196C JUMP JUMPDEST DUP2 ADD PUSH1 0x5 DUP2 MSTORE SUB ADD SWAP1 KECCAK256 SLOAD AND PUSH1 0x40 MLOAD SWAP1 ISZERO ISZERO DUP2 MSTORE RETURN JUMPDEST CALLVALUE PUSH2 0x25D JUMPI PUSH1 0x20 CALLDATASIZE PUSH1 0x3 NOT ADD SLT PUSH2 0x25D JUMPI PUSH1 0x4 CALLDATALOAD PUSH1 0x0 MSTORE PUSH1 0x2 PUSH1 0x20 MSTORE PUSH1 0x40 PUSH1 0x0 KECCAK256 DUP1 SLOAD PUSH1 0x1 PUSH1 0xA0 SHL PUSH1 0x1 SWAP1 SUB PUSH1 0x1 DUP4 ADD SLOAD AND SWAP2 PUSH1 0x2 DUP2 ADD PUSH2 0x8A1 SWAP1 PUSH2 0x1A29 JUMP JUMPDEST PUSH2 0x8AD PUSH1 0x3 DUP4 ADD PUSH2 0x1A29 JUMP JUMPDEST SWAP2 PUSH2 0x8BA PUSH1 0x4 DUP3 ADD PUSH2 0x1A29 JUMP JUMPDEST PUSH2 0x8C6 PUSH1 0x5 DUP4 ADD PUSH2 0x1A29 JUMP JUMPDEST PUSH1 0x6 DUP4 ADD SLOAD PUSH1 0xFF AND SWAP1 PUSH1 0x7 DUP5 ADD SLOAD PUSH1 0x8 DUP6 ADD SLOAD SWAP2 PUSH1 0x9 DUP7 ADD PUSH2 0x8E7 SWAP1 PUSH2 0x1A29 JUMP JUMPDEST SWAP5 PUSH1 0xA DUP8 ADD SLOAD SWAP9 PUSH1 0xB DUP9 ADD SLOAD SWAP8 PUSH1 0xC ADD SLOAD SWAP9 PUSH1 0x40 MLOAD SWAP13 DUP14 SWAP13 DUP14 MSTORE PUSH1 0x20 DUP14 ADD MSTORE DUP12 PUSH2 0x1A0 PUSH1 0x40 DUP2 SWAP3 ADD MSTORE DUP13 ADD PUSH2 0x91B SWAP2 PUSH2 0x198F JUMP JUMPDEST DUP12 DUP2 SUB PUSH1 0x60 DUP14 ADD MSTORE PUSH2 0x92C SWAP2 PUSH2 0x198F JUMP JUMPDEST DUP11 DUP2 SUB PUSH1 0x80 DUP13 ADD MSTORE PUSH2 0x93D SWAP2 PUSH2 0x198F JUMP JUMPDEST DUP10 DUP2 SUB PUSH1 0xA0 DUP12 ADD MSTORE PUSH2 0x94E SWAP2 PUSH2 0x198F JUMP JUMPDEST SWAP3 PUSH1 0xC0 DUP10 ADD PUSH2 0x95C SWAP2 PUSH2 0x19B4 JUMP JUMPDEST PUSH1 0xE0 DUP9 ADD MSTORE PUSH2 0x100 DUP8 ADD MSTORE DUP6 DUP2 SUB PUSH2 0x120 DUP8 ADD MSTORE PUSH2 0x979 SWAP2 PUSH2 0x198F JUMP JUMPDEST SWAP3 PUSH2 0x140 DUP6 ADD MSTORE PUSH2 0x160 DUP5 ADD MSTORE PUSH2 0x180 DUP4 ADD MSTORE SUB SWAP1 RETURN JUMPDEST CALLVALUE PUSH2 0x25D JUMPI PUSH2 0x99E CALLDATASIZE PUSH2 0x193A JUMP JUMPDEST DUP2 PUSH1 0x0 MSTORE PUSH1 0x2 PUSH1 0x20 MSTORE PUSH2 0x9CF PUSH1 0x40 PUSH1 0x0 KECCAK256 PUSH2 0x9BB DUP2 SLOAD ISZERO ISZERO PUSH2 0x1EB5 JUMP JUMPDEST PUSH1 0x1 ADD SLOAD PUSH1 0x1 PUSH1 0x1 PUSH1 0xA0 SHL SUB AND CALLER EQ PUSH2 0x1F57 JUMP JUMPDEST DUP2 PUSH1 0x0 MSTORE PUSH1 0x3 PUSH1 0x20 MSTORE PUSH1 0x4 PUSH1 0x40 PUSH1 0x0 KECCAK256 ADD DUP1 SLOAD PUSH1 0x1 PUSH1 0x40 SHL DUP2 LT ISZERO PUSH2 0x6D2 JUMPI PUSH2 0x9FD SWAP2 PUSH1 0x1 DUP3 ADD DUP2 SSTORE PUSH2 0x19C1 JUMP JUMPDEST PUSH2 0xA56 JUMPI DUP2 PUSH2 0xA1E PUSH1 0x0 DUP1 MLOAD PUSH1 0x20 PUSH2 0x1FC4 DUP4 CODECOPY DUP2 MLOAD SWAP2 MSTORE SWAP4 PUSH2 0xA51 SWAP4 PUSH2 0x1D56 JUMP JUMPDEST PUSH1 0x40 MLOAD SWAP2 DUP3 SWAP2 PUSH1 0x40 DUP4 MSTORE PUSH1 0x8 PUSH1 0x40 DUP5 ADD MSTORE PUSH8 0x63617465676F7279 PUSH1 0xC0 SHL PUSH1 0x60 DUP5 ADD MSTORE PUSH1 0x80 PUSH1 0x20 DUP5 ADD MSTORE PUSH1 0x80 DUP4 ADD SWAP1 PUSH2 0x198F JUMP JUMPDEST SUB SWAP1 LOG2 STOP JUMPDEST PUSH4 0x4E487B71 PUSH1 0xE0 SHL PUSH1 0x0 MSTORE PUSH1 0x0 PUSH1 0x4 MSTORE PUSH1 0x24 PUSH1 0x0 REVERT JUMPDEST CALLVALUE PUSH2 0x25D JUMPI PUSH1 0x0 CALLDATASIZE PUSH1 0x3 NOT ADD SLT PUSH2 0x25D JUMPI PUSH1 0x20 PUSH1 0x40 MLOAD PUSH1 0x0 DUP2 MSTORE RETURN JUMPDEST CALLVALUE PUSH2 0x25D JUMPI PUSH1 0xA0 CALLDATASIZE PUSH1 0x3 NOT ADD SLT PUSH2 0x25D JUMPI PUSH1 0x4 CALLDATALOAD PUSH1 0x1 PUSH1 0x1 PUSH1 0x40 SHL SUB PUSH1 0x24 CALLDATALOAD DUP2 DUP2 GT PUSH2 0x25D JUMPI PUSH2 0xABC SWAP1 CALLDATASIZE SWAP1 PUSH1 0x4 ADD PUSH2 0x18E4 JUMP JUMPDEST PUSH1 0x44 CALLDATALOAD DUP3 DUP2 GT PUSH2 0x25D JUMPI PUSH2 0xAD4 SWAP1 CALLDATASIZE SWAP1 PUSH1 0x4 ADD PUSH2 0x18E4 JUMP JUMPDEST SWAP1 PUSH1 0x64 CALLDATALOAD DUP4 DUP2 GT PUSH2 0x25D JUMPI PUSH2 0xAED SWAP1 CALLDATASIZE SWAP1 PUSH1 0x4 ADD PUSH2 0x18E4 JUMP JUMPDEST SWAP1 PUSH1 0x84 CALLDATALOAD SWAP4 DUP5 GT PUSH2 0x25D JUMPI PUSH2 0x611 PUSH1 0x3 SWAP3 PUSH2 0x608 PUSH2 0xB12 PUSH2 0xB47 SWAP8 CALLDATASIZE SWAP1 PUSH1 0x4 ADD PUSH2 0x18E4 JUMP JUMPDEST SWAP6 DUP9 PUSH1 0x0 MSTORE PUSH1 0x2 PUSH1 0x20 MSTORE PUSH2 0xB30 PUSH1 0x40 PUSH1 0x0 KECCAK256 PUSH2 0x9BB DUP2 SLOAD ISZERO ISZERO PUSH2 0x1EB5 JUMP JUMPDEST DUP9 PUSH1 0x0 MSTORE DUP6 PUSH1 0x20 MSTORE PUSH2 0x5FF PUSH1 0x40 PUSH1 0x0 KECCAK256 SWAP6 DUP7 PUSH2 0x1D56 JUMP JUMPDEST PUSH1 0x0 DUP1 MLOAD PUSH1 0x20 PUSH2 0x1FC4 DUP4 CODECOPY DUP2 MLOAD SWAP2 MSTORE PUSH1 0xC0 PUSH1 0x40 MLOAD PUSH1 0x40 DUP2 MSTORE PUSH1 0x8 PUSH1 0x40 DUP3 ADD MSTORE PUSH8 0x6D65746164617461 PUSH1 0xC0 SHL PUSH1 0x60 DUP3 ADD MSTORE PUSH1 0x80 PUSH1 0x20 DUP3 ADD MSTORE PUSH1 0x7 PUSH1 0x80 DUP3 ADD MSTORE PUSH7 0x1D5C19185D1959 PUSH1 0xCA SHL PUSH1 0xA0 DUP3 ADD MSTORE LOG2 STOP JUMPDEST CALLVALUE PUSH2 0x25D JUMPI PUSH1 0x40 CALLDATASIZE PUSH1 0x3 NOT ADD SLT PUSH2 0x25D JUMPI PUSH2 0xBB1 PUSH2 0x1891 JUMP JUMPDEST PUSH1 0x1 PUSH1 0x1 PUSH1 0xA0 SHL SUB AND PUSH1 0x0 SWAP1 DUP2 MSTORE PUSH1 0x4 PUSH1 0x20 MSTORE PUSH1 0x40 SWAP1 KECCAK256 DUP1 SLOAD PUSH1 0x24 CALLDATALOAD SWAP2 SWAP1 DUP3 LT ISZERO PUSH2 0x25D JUMPI PUSH1 0x20 SWAP2 PUSH2 0xBE2 SWAP2 PUSH2 0x19C1 JUMP JUMPDEST SWAP1 SLOAD PUSH1 0x40 MLOAD SWAP2 PUSH1 0x3 SHL SHR DUP2 MSTORE RETURN JUMPDEST CALLVALUE PUSH2 0x25D JUMPI PUSH1 0x40 CALLDATASIZE PUSH1 0x3 NOT ADD SLT PUSH2 0x25D JUMPI PUSH2 0xC09 PUSH2 0x187B JUMP JUMPDEST PUSH1 0x4 CALLDATALOAD PUSH1 0x0 MSTORE PUSH1 0x0 PUSH1 0x20 MSTORE PUSH1 0x40 PUSH1 0x0 KECCAK256 SWAP1 PUSH1 0x1 DUP1 PUSH1 0xA0 SHL SUB AND PUSH1 0x0 MSTORE PUSH1 0x20 MSTORE PUSH1 0x20 PUSH1 0xFF PUSH1 0x40 PUSH1 0x0 KECCAK256 SLOAD AND PUSH1 0x40 MLOAD SWAP1 ISZERO ISZERO DUP2 MSTORE RETURN JUMPDEST CALLVALUE PUSH2 0x25D JUMPI PUSH1 0x0 CALLDATASIZE PUSH1 0x3 NOT ADD SLT PUSH2 0x25D JUMPI PUSH2 0xC56 PUSH2 0x1B6F JUMP JUMPDEST PUSH2 0xC5E PUSH2 0x1E97 JUMP JUMPDEST PUSH1 0x1 PUSH1 0xFF NOT DUP2 SLOAD AND OR PUSH1 0x1 SSTORE PUSH32 0x62E78CEA01BEE320CD4E420270B5EA74000D11B0C9F74754EBDBFC544B05A258 PUSH1 0x20 PUSH1 0x40 MLOAD CALLER DUP2 MSTORE LOG1 STOP JUMPDEST CALLVALUE PUSH2 0x25D JUMPI PUSH2 0xCA4 CALLDATASIZE PUSH2 0x193A JUMP JUMPDEST DUP2 PUSH1 0x0 MSTORE PUSH1 0x2 PUSH1 0x20 MSTORE PUSH1 0x40 PUSH1 0x0 KECCAK256 SWAP1 PUSH2 0xCBF DUP3 SLOAD ISZERO ISZERO PUSH2 0x1EB5 JUMP JUMPDEST PUSH2 0xCD6 PUSH1 0x1 DUP1 PUSH1 0xA0 SHL SUB PUSH1 0x1 DUP5 ADD SLOAD AND CALLER EQ PUSH2 0x1F57 JUMP JUMPDEST PUSH2 0xCE2 DUP2 MLOAD ISZERO ISZERO PUSH2 0x1CE4 JUMP JUMPDEST PUSH2 0xCEF DUP2 PUSH1 0x5 DUP5 ADD PUSH2 0x1D56 JUMP JUMPDEST PUSH1 0x6 DUP3 ADD SWAP1 DUP2 SLOAD SWAP2 PUSH1 0xFF DUP4 AND SWAP3 PUSH1 0x4 DUP5 LT ISZERO PUSH2 0x247 JUMPI PUSH1 0x0 DUP1 MLOAD PUSH1 0x20 PUSH2 0x1FC4 DUP4 CODECOPY DUP2 MLOAD SWAP2 MSTORE SWAP5 PUSH1 0x2 PUSH2 0xA51 SWAP6 EQ PUSH2 0xD5C JUMPI JUMPDEST POP POP POP PUSH1 0x40 MLOAD SWAP2 DUP3 SWAP2 PUSH1 0x40 DUP4 MSTORE PUSH1 0xD PUSH1 0x40 DUP5 ADD MSTORE PUSH13 0xC8DEC6EADACADCE8E690C2E6D PUSH1 0x9B SHL PUSH1 0x60 DUP5 ADD MSTORE PUSH1 0x80 PUSH1 0x20 DUP5 ADD MSTORE PUSH1 0x80 DUP4 ADD SWAP1 PUSH2 0x198F JUMP JUMPDEST PUSH1 0x0 SWAP3 PUSH1 0x9 SWAP3 PUSH1 0xFF NOT AND SWAP1 SSTORE ADD PUSH2 0xD73 DUP2 SLOAD PUSH2 0x19EF JUMP JUMPDEST PUSH1 0x1F DUP2 GT PUSH2 0xD86 JUMPI JUMPDEST POP SSTORE DUP5 DUP1 DUP1 PUSH2 0xD21 JUMP JUMPDEST DUP2 DUP4 MSTORE PUSH1 0x20 DUP4 KECCAK256 PUSH2 0xD9F SWAP2 PUSH1 0x1F ADD PUSH1 0x5 SHR DUP2 ADD SWAP1 PUSH2 0x1D3F JUMP JUMPDEST DUP7 PUSH2 0xD7C JUMP JUMPDEST CALLVALUE PUSH2 0x25D JUMPI PUSH1 0x0 CALLDATASIZE PUSH1 0x3 NOT ADD SLT PUSH2 0x25D JUMPI PUSH1 0x20 PUSH1 0x40 MLOAD PUSH32 0xA49807205CE4D355092EF5A8A18F56E8913CF4A201FBE287825B095693C21775 DUP2 MSTORE RETURN JUMPDEST CALLVALUE PUSH2 0x25D JUMPI PUSH2 0xE40 PUSH2 0xE2C PUSH2 0xE27 PUSH2 0xDF7 CALLDATASIZE PUSH2 0x193A JUMP JUMPDEST SWAP1 DUP1 PUSH1 0x0 MSTORE PUSH1 0x2 PUSH1 0x20 MSTORE PUSH2 0xE11 PUSH1 0x40 PUSH1 0x0 KECCAK256 SLOAD ISZERO ISZERO PUSH2 0x1EB5 JUMP JUMPDEST PUSH1 0x0 MSTORE PUSH1 0x3 PUSH1 0x20 MSTORE PUSH1 0x5 PUSH1 0x40 PUSH1 0x0 KECCAK256 ADD SWAP1 PUSH2 0x1ACF JUMP JUMPDEST PUSH2 0x1A29 JUMP JUMPDEST PUSH1 0x40 MLOAD SWAP2 DUP3 SWAP2 PUSH1 0x20 DUP4 MSTORE PUSH1 0x20 DUP4 ADD SWAP1 PUSH2 0x198F JUMP JUMPDEST SUB SWAP1 RETURN JUMPDEST CALLVALUE PUSH2 0x25D JUMPI PUSH1 0x20 DUP1 PUSH1 0x3 NOT CALLDATASIZE ADD SLT PUSH2 0x25D JUMPI PUSH1 0x4 CALLDATALOAD DUP1 PUSH1 0x0 MSTORE PUSH1 0x2 DUP3 MSTORE PUSH2 0xE71 PUSH1 0x40 PUSH1 0x0 KECCAK256 SLOAD ISZERO ISZERO PUSH2 0x1EB5 JUMP JUMPDEST PUSH1 0x0 MSTORE PUSH1 0x3 DUP2 MSTORE PUSH1 0x40 PUSH1 0x0 KECCAK256 PUSH1 0x4 DUP2 ADD PUSH2 0xE8A DUP3 PUSH2 0x1A29 JUMP JUMPDEST SWAP2 PUSH1 0x1 SWAP4 PUSH2 0xE99 DUP6 DUP4 ADD PUSH2 0x1A29 JUMP JUMPDEST SWAP2 PUSH2 0xEB2 PUSH1 0x3 PUSH2 0xEAB PUSH1 0x2 DUP5 ADD PUSH2 0x1A29 JUMP JUMPDEST SWAP3 ADD PUSH2 0x1A29 JUMP JUMPDEST SWAP1 DUP5 SLOAD SWAP4 PUSH1 0x1 PUSH1 0x1 PUSH1 0x40 SHL SUB DUP6 GT PUSH2 0x6D2 JUMPI PUSH1 0x40 SWAP8 SWAP6 SWAP8 MLOAD SWAP5 PUSH2 0xEDA DUP6 DUP3 PUSH1 0x5 SHL ADD DUP8 PUSH2 0x18C3 JUMP JUMPDEST DUP1 DUP7 MSTORE DUP5 DUP7 ADD DUP1 SWAP10 PUSH1 0x0 MSTORE DUP6 PUSH1 0x0 KECCAK256 PUSH1 0x0 SWAP2 JUMPDEST DUP4 DUP4 LT PUSH2 0xF9E JUMPI POP POP POP POP PUSH2 0xF42 SWAP3 SWAP2 PUSH2 0xF26 PUSH2 0xF34 SWAP3 PUSH2 0xF19 PUSH1 0x40 MLOAD SWAP11 PUSH1 0xA0 DUP13 MSTORE PUSH1 0xA0 DUP13 ADD SWAP1 PUSH2 0x198F JUMP JUMPDEST SWAP1 DUP11 DUP3 SUB DUP9 DUP13 ADD MSTORE PUSH2 0x198F JUMP JUMPDEST SWAP1 DUP9 DUP3 SUB PUSH1 0x40 DUP11 ADD MSTORE PUSH2 0x198F JUMP JUMPDEST SWAP1 DUP7 DUP3 SUB PUSH1 0x60 DUP9 ADD MSTORE PUSH2 0x198F JUMP JUMPDEST SWAP2 DUP5 DUP4 SUB PUSH1 0x80 DUP7 ADD MSTORE MLOAD SWAP1 DUP2 DUP4 MSTORE DUP1 DUP4 ADD SWAP3 DUP2 DUP4 PUSH1 0x5 SHL DUP3 ADD ADD SWAP7 SWAP4 PUSH1 0x0 SWAP2 JUMPDEST DUP5 DUP4 LT PUSH2 0xF6F JUMPI DUP8 DUP10 SUB DUP9 RETURN JUMPDEST SWAP1 SWAP2 SWAP3 SWAP4 SWAP5 SWAP6 DUP5 DUP1 PUSH2 0xF8C DUP4 SWAP12 PUSH1 0x1F NOT DUP7 DUP3 SUB ADD DUP8 MSTORE DUP11 MLOAD PUSH2 0x198F JUMP JUMPDEST SWAP11 SWAP9 ADD SWAP7 SWAP6 SWAP5 SWAP2 SWAP1 SWAP2 ADD SWAP3 ADD SWAP1 PUSH2 0xF62 JUMP JUMPDEST SWAP1 DUP10 DUP1 DUP10 DUP2 SWAP15 SWAP13 SWAP6 SWAP5 PUSH2 0xFB0 DUP6 PUSH2 0x1A29 JUMP JUMPDEST DUP2 MSTORE ADD SWAP3 ADD SWAP3 ADD SWAP3 POP SWAP11 SWAP9 SWAP11 PUSH2 0xEED JUMP JUMPDEST CALLVALUE PUSH2 0x25D JUMPI PUSH1 0x0 CALLDATASIZE PUSH1 0x3 NOT ADD SLT PUSH2 0x25D JUMPI PUSH1 0x20 PUSH1 0x7 SLOAD PUSH1 0x40 MLOAD SWAP1 DUP2 MSTORE RETURN JUMPDEST CALLVALUE PUSH2 0x25D JUMPI PUSH1 0x40 CALLDATASIZE PUSH1 0x3 NOT ADD SLT PUSH2 0x25D JUMPI PUSH1 0x4 CALLDATALOAD PUSH1 0x24 CALLDATALOAD PUSH1 0x4 DUP2 LT ISZERO SWAP1 DUP2 PUSH2 0x25D JUMPI PUSH2 0x1009 PUSH2 0x1B6F JUMP JUMPDEST DUP3 PUSH1 0x0 MSTORE PUSH1 0x2 PUSH1 0x20 MSTORE PUSH1 0x6 PUSH1 0x40 PUSH1 0x0 KECCAK256 PUSH2 0x1025 DUP2 SLOAD ISZERO ISZERO PUSH2 0x1EB5 JUMP JUMPDEST ADD PUSH1 0xFF DUP2 SLOAD AND SWAP3 PUSH1 0x4 DUP5 LT ISZERO PUSH2 0x247 JUMPI PUSH1 0x1 DUP5 EQ DUP1 DUP1 PUSH2 0x10F9 JUMPI JUMPDEST ISZERO PUSH2 0x10A8 JUMPI POP POP SWAP1 SWAP2 PUSH1 0x8 SLOAD DUP1 ISZERO PUSH2 0x1092 JUMPI DUP4 PUSH2 0x1079 PUSH1 0x0 DUP1 MLOAD PUSH1 0x20 PUSH2 0x1FA4 DUP4 CODECOPY DUP2 MLOAD SWAP2 MSTORE SWAP6 PUSH1 0x40 SWAP6 PUSH2 0x108F SWAP5 PUSH1 0x0 NOT ADD PUSH1 0x8 SSTORE PUSH2 0x1E5A JUMP JUMPDEST PUSH2 0x1085 DUP5 MLOAD DUP1 SWAP5 PUSH2 0x19B4 JUMP JUMPDEST PUSH1 0x20 DUP4 ADD SWAP1 PUSH2 0x19B4 JUMP JUMPDEST LOG2 STOP JUMPDEST PUSH4 0x4E487B71 PUSH1 0xE0 SHL PUSH1 0x0 MSTORE PUSH1 0x11 PUSH1 0x4 MSTORE PUSH1 0x24 PUSH1 0x0 REVERT JUMPDEST ISZERO SWAP1 DUP2 PUSH2 0x10E5 JUMPI JUMPDEST POP DUP3 PUSH2 0x1079 PUSH1 0x40 SWAP5 PUSH1 0x0 DUP1 MLOAD PUSH1 0x20 PUSH2 0x1FA4 DUP4 CODECOPY DUP2 MLOAD SWAP2 MSTORE SWAP7 SWAP5 PUSH2 0x108F SWAP5 ISZERO PUSH2 0x1E5A JUMPI PUSH2 0x10DD PUSH1 0x8 SLOAD PUSH2 0x1D30 JUMP JUMPDEST PUSH1 0x8 SSTORE PUSH2 0x1E5A JUMP JUMPDEST SWAP1 POP SWAP3 SWAP1 SWAP3 PUSH2 0x247 JUMPI SWAP2 PUSH1 0x1 DUP3 EQ DUP3 PUSH2 0x10B0 JUMP JUMPDEST POP PUSH1 0x0 SWAP2 POP PUSH1 0x1 DUP5 EQ ISZERO PUSH2 0x1040 JUMP JUMPDEST CALLVALUE PUSH2 0x25D JUMPI PUSH1 0x0 CALLDATASIZE PUSH1 0x3 NOT ADD SLT PUSH2 0x25D JUMPI PUSH1 0x20 PUSH1 0xFF PUSH1 0x1 SLOAD AND PUSH1 0x40 MLOAD SWAP1 ISZERO ISZERO DUP2 MSTORE RETURN JUMPDEST CALLVALUE PUSH2 0x25D JUMPI PUSH1 0x20 CALLDATASIZE PUSH1 0x3 NOT ADD SLT PUSH2 0x25D JUMPI PUSH1 0x4 CALLDATALOAD PUSH1 0x0 PUSH2 0x180 PUSH1 0x40 MLOAD PUSH2 0x1150 DUP2 PUSH2 0x18A7 JUMP JUMPDEST DUP3 DUP2 MSTORE DUP3 PUSH1 0x20 DUP3 ADD MSTORE PUSH1 0x60 PUSH1 0x40 DUP3 ADD MSTORE PUSH1 0x60 DUP1 DUP3 ADD MSTORE PUSH1 0x60 PUSH1 0x80 DUP3 ADD MSTORE PUSH1 0x60 PUSH1 0xA0 DUP3 ADD MSTORE DUP3 PUSH1 0xC0 DUP3 ADD MSTORE DUP3 PUSH1 0xE0 DUP3 ADD MSTORE DUP3 PUSH2 0x100 DUP3 ADD MSTORE PUSH1 0x60 PUSH2 0x120 DUP3 ADD MSTORE DUP3 PUSH2 0x140 DUP3 ADD MSTORE DUP3 PUSH2 0x160 DUP3 ADD MSTORE ADD MSTORE DUP1 PUSH1 0x0 MSTORE PUSH1 0x2 PUSH1 0x20 MSTORE PUSH2 0x11B8 PUSH1 0x40 PUSH1 0x0 KECCAK256 SLOAD ISZERO ISZERO PUSH2 0x1EB5 JUMP JUMPDEST PUSH1 0x0 MSTORE PUSH1 0x2 PUSH1 0x20 MSTORE PUSH1 0x40 PUSH1 0x0 KECCAK256 PUSH1 0x40 MLOAD SWAP1 PUSH2 0x11D2 DUP3 PUSH2 0x18A7 JUMP JUMPDEST DUP1 SLOAD DUP3 MSTORE PUSH1 0x1 DUP2 ADD SLOAD PUSH1 0x1 PUSH1 0x1 PUSH1 0xA0 SHL SUB AND PUSH1 0x20 DUP4 ADD MSTORE PUSH2 0x11F5 PUSH1 0x2 DUP3 ADD PUSH2 0x1A29 JUMP JUMPDEST PUSH1 0x40 DUP4 ADD MSTORE PUSH2 0x1206 PUSH1 0x3 DUP3 ADD PUSH2 0x1A29 JUMP JUMPDEST PUSH1 0x60 DUP4 ADD MSTORE PUSH2 0x1217 PUSH1 0x4 DUP3 ADD PUSH2 0x1A29 JUMP JUMPDEST PUSH1 0x80 DUP4 ADD MSTORE PUSH2 0x1228 PUSH1 0x5 DUP3 ADD PUSH2 0x1A29 JUMP JUMPDEST PUSH1 0xA0 DUP4 ADD MSTORE PUSH1 0xFF PUSH1 0x6 DUP3 ADD SLOAD AND SWAP1 PUSH1 0x4 DUP3 LT ISZERO PUSH2 0x247 JUMPI PUSH1 0xC SWAP2 PUSH1 0xC0 DUP5 ADD MSTORE PUSH1 0x7 DUP2 ADD SLOAD PUSH1 0xE0 DUP5 ADD MSTORE PUSH1 0x8 DUP2 ADD SLOAD PUSH2 0x100 DUP5 ADD MSTORE PUSH2 0x1268 PUSH1 0x9 DUP3 ADD PUSH2 0x1A29 JUMP JUMPDEST PUSH2 0x120 DUP5 ADD MSTORE PUSH1 0xA DUP2 ADD SLOAD PUSH2 0x140 DUP5 ADD MSTORE PUSH1 0xB DUP2 ADD SLOAD PUSH2 0x160 DUP5 ADD MSTORE ADD SLOAD PUSH2 0x180 DUP3 ADD MSTORE PUSH1 0x40 MLOAD DUP1 SWAP2 PUSH1 0x20 DUP3 MSTORE DUP1 MLOAD PUSH1 0x20 DUP4 ADD MSTORE PUSH1 0x1 DUP1 PUSH1 0xA0 SHL SUB PUSH1 0x20 DUP3 ADD MLOAD AND PUSH1 0x40 DUP4 ADD MSTORE PUSH2 0x180 PUSH2 0x1359 PUSH2 0x12CF PUSH1 0x40 DUP5 ADD MLOAD PUSH2 0x1A0 PUSH1 0x60 DUP8 ADD MSTORE PUSH2 0x1C0 DUP7 ADD SWAP1 PUSH2 0x198F JUMP JUMPDEST PUSH2 0x1319 PUSH2 0x1305 PUSH2 0x12F1 PUSH1 0x60 DUP8 ADD MLOAD SWAP4 PUSH1 0x1F NOT SWAP5 DUP6 DUP11 DUP4 SUB ADD PUSH1 0x80 DUP12 ADD MSTORE PUSH2 0x198F JUMP JUMPDEST PUSH1 0x80 DUP8 ADD MLOAD DUP5 DUP10 DUP4 SUB ADD PUSH1 0xA0 DUP11 ADD MSTORE PUSH2 0x198F JUMP JUMPDEST PUSH1 0xA0 DUP7 ADD MLOAD DUP4 DUP9 DUP4 SUB ADD PUSH1 0xC0 DUP10 ADD MSTORE PUSH2 0x198F JUMP JUMPDEST SWAP1 PUSH2 0x132C PUSH1 0xC0 DUP7 ADD MLOAD PUSH1 0xE0 DUP9 ADD SWAP1 PUSH2 0x19B4 JUMP JUMPDEST PUSH1 0xE0 DUP6 ADD MLOAD PUSH2 0x100 DUP8 ADD MSTORE PUSH2 0x100 DUP6 ADD MLOAD PUSH2 0x120 DUP8 ADD MSTORE PUSH2 0x120 DUP6 ADD MLOAD SWAP1 DUP7 DUP4 SUB ADD PUSH2 0x140 DUP8 ADD MSTORE PUSH2 0x198F JUMP JUMPDEST SWAP2 PUSH2 0x140 DUP2 ADD MLOAD PUSH2 0x160 DUP6 ADD MSTORE PUSH2 0x160 DUP2 ADD MLOAD DUP3 DUP6 ADD MSTORE ADD MLOAD PUSH2 0x1A0 DUP4 ADD MSTORE SUB SWAP1 RETURN JUMPDEST CALLVALUE PUSH2 0x25D JUMPI PUSH1 0x20 DUP1 PUSH1 0x3 NOT CALLDATASIZE ADD SLT PUSH2 0x25D JUMPI PUSH1 0x1 PUSH1 0x1 PUSH1 0xA0 SHL SUB PUSH2 0x139E PUSH2 0x1891 JUMP JUMPDEST AND PUSH1 0x0 MSTORE PUSH1 0x4 DUP2 MSTORE PUSH1 0x40 PUSH1 0x0 KECCAK256 PUSH1 0x40 MLOAD SWAP1 DUP2 DUP4 DUP3 SLOAD SWAP2 DUP3 DUP2 MSTORE ADD SWAP1 DUP2 SWAP3 PUSH1 0x0 MSTORE DUP5 PUSH1 0x0 KECCAK256 SWAP1 PUSH1 0x0 JUMPDEST DUP7 DUP3 DUP3 LT PUSH2 0x141C JUMPI DUP7 DUP7 PUSH2 0x13DC DUP3 DUP9 SUB DUP4 PUSH2 0x18C3 JUMP JUMPDEST PUSH1 0x40 MLOAD SWAP3 DUP4 SWAP3 DUP2 DUP5 ADD SWAP1 DUP3 DUP6 MSTORE MLOAD DUP1 SWAP2 MSTORE PUSH1 0x40 DUP5 ADD SWAP3 SWAP2 PUSH1 0x0 JUMPDEST DUP3 DUP2 LT PUSH2 0x1405 JUMPI POP POP POP POP SUB SWAP1 RETURN JUMPDEST DUP4 MLOAD DUP6 MSTORE DUP7 SWAP6 POP SWAP4 DUP2 ADD SWAP4 SWAP3 DUP2 ADD SWAP3 PUSH1 0x1 ADD PUSH2 0x13F6 JUMP JUMPDEST DUP4 SLOAD DUP6 MSTORE SWAP1 SWAP4 ADD SWAP3 PUSH1 0x1 SWAP3 DUP4 ADD SWAP3 ADD PUSH2 0x13C6 JUMP JUMPDEST CALLVALUE PUSH2 0x25D JUMPI PUSH1 0x20 CALLDATASIZE PUSH1 0x3 NOT ADD SLT PUSH2 0x25D JUMPI PUSH1 0x4 CALLDATALOAD PUSH2 0x144C PUSH2 0x1AF5 JUMP JUMPDEST PUSH2 0x1454 PUSH2 0x1E97 JUMP JUMPDEST DUP1 PUSH1 0x0 MSTORE PUSH1 0x2 PUSH1 0x20 MSTORE PUSH1 0x40 PUSH1 0x0 KECCAK256 PUSH2 0x146E DUP2 SLOAD ISZERO ISZERO PUSH2 0x1EB5 JUMP JUMPDEST PUSH1 0x6 DUP2 ADD SWAP1 DUP2 SLOAD SWAP1 PUSH1 0xFF DUP3 AND SWAP1 PUSH1 0x4 DUP3 LT ISZERO PUSH2 0x247 JUMPI PUSH1 0x0 DUP1 MLOAD PUSH1 0x20 PUSH2 0x1FA4 DUP4 CODECOPY DUP2 MLOAD SWAP2 MSTORE SWAP4 PUSH1 0x1 PUSH1 0x40 SWAP5 PUSH2 0x14A3 DUP6 ISZERO PUSH2 0x1F01 JUMP JUMPDEST PUSH1 0xFF NOT AND OR SWAP1 SSTORE PUSH1 0x8 TIMESTAMP SWAP2 ADD SSTORE PUSH2 0x14BB PUSH1 0x8 SLOAD PUSH2 0x1D30 JUMP JUMPDEST PUSH1 0x8 SSTORE DUP2 MLOAD TIMESTAMP DUP2 MSTORE DUP5 PUSH32 0x6958986179C34F96DCC7E81235A38D71DD262238D91190AB0C8B1417740EBED8 PUSH1 0x20 CALLER SWAP4 LOG3 PUSH2 0x14F6 DUP3 MLOAD DUP1 SWAP3 PUSH2 0x19B4 JUMP JUMPDEST PUSH1 0x1 PUSH1 0x20 DUP3 ADD MSTORE LOG2 STOP JUMPDEST CALLVALUE PUSH2 0x25D JUMPI PUSH1 0x0 CALLDATASIZE PUSH1 0x3 NOT ADD SLT PUSH2 0x25D JUMPI PUSH2 0x1519 PUSH2 0x1B6F JUMP JUMPDEST PUSH1 0x1 SLOAD PUSH1 0xFF DUP2 AND ISZERO PUSH2 0x1558 JUMPI PUSH1 0xFF NOT AND PUSH1 0x1 SSTORE PUSH32 0x5DB9EE0A495BF2E6FF9C91A7834C1BA4FDD244A5E8AA4E537BD38AEAE4B073AA PUSH1 0x20 PUSH1 0x40 MLOAD CALLER DUP2 MSTORE LOG1 STOP JUMPDEST PUSH1 0x40 MLOAD PUSH4 0x8DFC202B PUSH1 0xE0 SHL DUP2 MSTORE PUSH1 0x4 SWAP1 REVERT JUMPDEST CALLVALUE PUSH2 0x25D JUMPI PUSH1 0x60 CALLDATASIZE PUSH1 0x3 NOT ADD SLT PUSH2 0x25D JUMPI PUSH1 0x4 CALLDATALOAD PUSH1 0x1 PUSH1 0x1 PUSH1 0x40 SHL SUB PUSH1 0x24 CALLDATALOAD DUP2 DUP2 GT PUSH2 0x25D JUMPI PUSH2 0x159E SWAP1 CALLDATASIZE SWAP1 PUSH1 0x4 ADD PUSH2 0x18E4 JUMP JUMPDEST PUSH1 0x44 CALLDATALOAD SWAP2 DUP3 GT PUSH2 0x25D JUMPI PUSH2 0x15C5 PUSH1 0x0 DUP1 MLOAD PUSH1 0x20 PUSH2 0x1FC4 DUP4 CODECOPY DUP2 MLOAD SWAP2 MSTORE SWAP3 CALLDATASIZE SWAP1 PUSH1 0x4 ADD PUSH2 0x18E4 JUMP JUMPDEST SWAP1 DUP4 PUSH1 0x0 MSTORE PUSH1 0x2 PUSH1 0x20 MSTORE PUSH2 0x15E3 PUSH1 0x40 PUSH1 0x0 KECCAK256 PUSH2 0x9BB DUP2 SLOAD ISZERO ISZERO PUSH2 0x1EB5 JUMP JUMPDEST DUP4 PUSH1 0x0 MSTORE PUSH1 0x3 PUSH1 0x20 MSTORE PUSH2 0x1606 DUP3 PUSH2 0x1601 PUSH1 0x5 PUSH1 0x40 PUSH1 0x0 KECCAK256 ADD DUP5 PUSH2 0x1ACF JUMP JUMPDEST PUSH2 0x1D56 JUMP JUMPDEST PUSH2 0xA51 PUSH1 0x40 MLOAD SWAP3 DUP4 SWAP3 DUP4 PUSH2 0x1E72 JUMP JUMPDEST CALLVALUE PUSH2 0x25D JUMPI PUSH2 0x1623 CALLDATASIZE PUSH2 0x193A JUMP JUMPDEST PUSH2 0x162B PUSH2 0x1AF5 JUMP JUMPDEST PUSH2 0x1633 PUSH2 0x1E97 JUMP JUMPDEST DUP2 PUSH1 0x0 MSTORE PUSH1 0x2 PUSH1 0x20 MSTORE PUSH1 0x40 PUSH1 0x0 KECCAK256 SWAP1 PUSH2 0x164E DUP3 SLOAD ISZERO ISZERO PUSH2 0x1EB5 JUMP JUMPDEST PUSH1 0x6 DUP3 ADD SWAP2 DUP3 SLOAD SWAP2 PUSH1 0xFF DUP4 AND SWAP2 PUSH1 0x4 DUP4 LT ISZERO PUSH2 0x247 JUMPI PUSH2 0x166E DUP4 ISZERO PUSH2 0x1F01 JUMP JUMPDEST DUP2 MLOAD ISZERO PUSH2 0x16EF JUMPI DUP2 PUSH1 0x9 PUSH2 0x169E SWAP3 PUSH1 0x0 DUP1 MLOAD PUSH1 0x20 PUSH2 0x1FA4 DUP4 CODECOPY DUP2 MLOAD SWAP2 MSTORE SWAP8 PUSH1 0x2 PUSH1 0x40 SWAP9 PUSH1 0xFF NOT AND OR SWAP1 SSTORE ADD PUSH2 0x1D56 JUMP JUMPDEST DUP5 PUSH32 0xEEDEAEB1D0E569196FB9902498D8A6577FDE6AB76104A501BEE5D4DD7735F5F2 DUP5 MLOAD PUSH1 0x20 DUP2 MSTORE DUP1 PUSH2 0x16D6 CALLER SWAP6 PUSH1 0x20 DUP4 ADD SWAP1 PUSH2 0x198F JUMP JUMPDEST SUB SWAP1 LOG3 PUSH2 0x16E5 DUP3 MLOAD DUP1 SWAP3 PUSH2 0x19B4 JUMP JUMPDEST PUSH1 0x2 PUSH1 0x20 DUP3 ADD MSTORE LOG2 STOP JUMPDEST PUSH1 0x40 MLOAD PUSH3 0x461BCD PUSH1 0xE5 SHL DUP2 MSTORE PUSH1 0x20 PUSH1 0x4 DUP3 ADD MSTORE PUSH1 0x19 PUSH1 0x24 DUP3 ADD MSTORE PUSH32 0x52656A656374696F6E20726561736F6E20726571756972656400000000000000 PUSH1 0x44 DUP3 ADD MSTORE PUSH1 0x64 SWAP1 REVERT JUMPDEST CALLVALUE PUSH2 0x25D JUMPI PUSH1 0x40 CALLDATASIZE PUSH1 0x3 NOT ADD SLT PUSH2 0x25D JUMPI PUSH2 0x174D PUSH2 0x187B JUMP JUMPDEST CALLER PUSH1 0x1 PUSH1 0x1 PUSH1 0xA0 SHL SUB DUP3 AND SUB PUSH2 0x1769 JUMPI PUSH2 0x2FA SWAP1 PUSH1 0x4 CALLDATALOAD PUSH2 0x1C6F JUMP JUMPDEST PUSH1 0x40 MLOAD PUSH4 0x334BD919 PUSH1 0xE1 SHL DUP2 MSTORE PUSH1 0x4 SWAP1 REVERT JUMPDEST CALLVALUE PUSH2 0x25D JUMPI PUSH1 0x40 CALLDATASIZE PUSH1 0x3 NOT ADD SLT PUSH2 0x25D JUMPI PUSH2 0x2FA PUSH1 0x4 CALLDATALOAD PUSH2 0x179A PUSH2 0x187B JUMP JUMPDEST SWAP1 DUP1 PUSH1 0x0 MSTORE PUSH1 0x0 PUSH1 0x20 MSTORE PUSH2 0x17B5 PUSH1 0x1 PUSH1 0x40 PUSH1 0x0 KECCAK256 ADD SLOAD PUSH2 0x1BCB JUMP JUMPDEST PUSH2 0x1BF1 JUMP JUMPDEST CALLVALUE PUSH2 0x25D JUMPI PUSH1 0x20 CALLDATASIZE PUSH1 0x3 NOT ADD SLT PUSH2 0x25D JUMPI PUSH1 0x4 CALLDATALOAD PUSH1 0x0 MSTORE PUSH1 0x0 PUSH1 0x20 MSTORE PUSH1 0x20 PUSH1 0x1 PUSH1 0x40 PUSH1 0x0 KECCAK256 ADD SLOAD PUSH1 0x40 MLOAD SWAP1 DUP2 MSTORE RETURN JUMPDEST CALLVALUE PUSH2 0x25D JUMPI PUSH1 0x20 CALLDATASIZE PUSH1 0x3 NOT ADD SLT PUSH2 0x25D JUMPI PUSH1 0x4 CALLDATALOAD PUSH1 0x0 MSTORE PUSH1 0x2 PUSH1 0x20 MSTORE PUSH1 0xFF PUSH1 0x6 PUSH1 0x40 PUSH1 0x0 KECCAK256 ADD SLOAD AND PUSH1 0x4 DUP2 LT ISZERO PUSH2 0x247 JUMPI PUSH1 0x20 SWAP1 PUSH1 0x1 PUSH1 0x40 MLOAD SWAP2 EQ DUP2 MSTORE RETURN JUMPDEST CALLVALUE PUSH2 0x25D JUMPI PUSH1 0x20 CALLDATASIZE PUSH1 0x3 NOT ADD SLT PUSH2 0x25D JUMPI PUSH1 0x4 CALLDATALOAD SWAP1 PUSH4 0xFFFFFFFF PUSH1 0xE0 SHL DUP3 AND DUP1 SWAP3 SUB PUSH2 0x25D JUMPI PUSH1 0x20 SWAP2 PUSH4 0x7965DB0B PUSH1 0xE0 SHL DUP2 EQ SWAP1 DUP2 ISZERO PUSH2 0x186A JUMPI JUMPDEST POP ISZERO ISZERO DUP2 MSTORE RETURN JUMPDEST PUSH4 0x1FFC9A7 PUSH1 0xE0 SHL EQ SWAP1 POP DUP4 PUSH2 0x1863 JUMP JUMPDEST PUSH1 0x24 CALLDATALOAD SWAP1 PUSH1 0x1 PUSH1 0x1 PUSH1 0xA0 SHL SUB DUP3 AND DUP3 SUB PUSH2 0x25D JUMPI JUMP JUMPDEST PUSH1 0x4 CALLDATALOAD SWAP1 PUSH1 0x1 PUSH1 0x1 PUSH1 0xA0 SHL SUB DUP3 AND DUP3 SUB PUSH2 0x25D JUMPI JUMP JUMPDEST PUSH2 0x1A0 DUP2 ADD SWAP1 DUP2 LT PUSH1 0x1 PUSH1 0x1 PUSH1 0x40 SHL SUB DUP3 GT OR PUSH2 0x6D2 JUMPI PUSH1 0x40 MSTORE JUMP JUMPDEST SWAP1 PUSH1 0x1F DUP1 NOT SWAP2 ADD AND DUP2 ADD SWAP1 DUP2 LT PUSH1 0x1 PUSH1 0x1 PUSH1 0x40 SHL SUB DUP3 GT OR PUSH2 0x6D2 JUMPI PUSH1 0x40 MSTORE JUMP JUMPDEST DUP2 PUSH1 0x1F DUP3 ADD SLT ISZERO PUSH2 0x25D JUMPI DUP1 CALLDATALOAD SWAP1 PUSH1 0x1 PUSH1 0x1 PUSH1 0x40 SHL SUB DUP3 GT PUSH2 0x6D2 JUMPI PUSH1 0x40 MLOAD SWAP3 PUSH2 0x1918 PUSH1 0x1F DUP5 ADD PUSH1 0x1F NOT AND PUSH1 0x20 ADD DUP6 PUSH2 0x18C3 JUMP JUMPDEST DUP3 DUP5 MSTORE PUSH1 0x20 DUP4 DUP4 ADD ADD GT PUSH2 0x25D JUMPI DUP2 PUSH1 0x0 SWAP3 PUSH1 0x20 DUP1 SWAP4 ADD DUP4 DUP7 ADD CALLDATACOPY DUP4 ADD ADD MSTORE SWAP1 JUMP JUMPDEST SWAP1 PUSH1 0x40 PUSH1 0x3 NOT DUP4 ADD SLT PUSH2 0x25D JUMPI PUSH1 0x4 CALLDATALOAD SWAP2 PUSH1 0x24 CALLDATALOAD SWAP1 PUSH1 0x1 PUSH1 0x1 PUSH1 0x40 SHL SUB DUP3 GT PUSH2 0x25D JUMPI PUSH2 0x1969 SWAP2 PUSH1 0x4 ADD PUSH2 0x18E4 JUMP JUMPDEST SWAP1 JUMP JUMPDEST PUSH1 0x0 JUMPDEST DUP4 DUP2 LT PUSH2 0x197F JUMPI POP POP PUSH1 0x0 SWAP2 ADD MSTORE JUMP JUMPDEST DUP2 DUP2 ADD MLOAD DUP4 DUP3 ADD MSTORE PUSH1 0x20 ADD PUSH2 0x196F JUMP JUMPDEST SWAP1 PUSH1 0x20 SWAP2 PUSH2 0x19A8 DUP2 MLOAD DUP1 SWAP3 DUP2 DUP6 MSTORE DUP6 DUP1 DUP7 ADD SWAP2 ADD PUSH2 0x196C JUMP JUMPDEST PUSH1 0x1F ADD PUSH1 0x1F NOT AND ADD ADD SWAP1 JUMP JUMPDEST SWAP1 PUSH1 0x4 DUP3 LT ISZERO PUSH2 0x247 JUMPI MSTORE JUMP JUMPDEST DUP1 SLOAD DUP3 LT ISZERO PUSH2 0x19D9 JUMPI PUSH1 0x0 MSTORE PUSH1 0x20 PUSH1 0x0 KECCAK256 ADD SWAP1 PUSH1 0x0 SWAP1 JUMP JUMPDEST PUSH4 0x4E487B71 PUSH1 0xE0 SHL PUSH1 0x0 MSTORE PUSH1 0x32 PUSH1 0x4 MSTORE PUSH1 0x24 PUSH1 0x0 REVERT JUMPDEST SWAP1 PUSH1 0x1 DUP3 DUP2 SHR SWAP3 AND DUP1 ISZERO PUSH2 0x1A1F JUMPI JUMPDEST PUSH1 0x20 DUP4 LT EQ PUSH2 0x1A09 JUMPI JUMP JUMPDEST PUSH4 0x4E487B71 PUSH1 0xE0 SHL PUSH1 0x0 MSTORE PUSH1 0x22 PUSH1 0x4 MSTORE PUSH1 0x24 PUSH1 0x0 REVERT JUMPDEST SWAP2 PUSH1 0x7F AND SWAP2 PUSH2 0x19FE JUMP JUMPDEST SWAP1 PUSH1 0x40 MLOAD SWAP2 DUP3 PUSH1 0x0 DUP3 SLOAD SWAP3 PUSH2 0x1A3D DUP5 PUSH2 0x19EF JUMP JUMPDEST SWAP1 DUP2 DUP5 MSTORE PUSH1 0x1 SWAP5 DUP6 DUP2 AND SWAP1 DUP2 PUSH1 0x0 EQ PUSH2 0x1AAC JUMPI POP PUSH1 0x1 EQ PUSH2 0x1A69 JUMPI JUMPDEST POP POP PUSH2 0x1A67 SWAP3 POP SUB DUP4 PUSH2 0x18C3 JUMP JUMPDEST JUMP JUMPDEST SWAP1 SWAP4 SWAP2 POP PUSH1 0x0 MSTORE PUSH1 0x20 SWAP1 DUP2 PUSH1 0x0 KECCAK256 SWAP4 PUSH1 0x0 SWAP2 JUMPDEST DUP2 DUP4 LT PUSH2 0x1A94 JUMPI POP POP PUSH2 0x1A67 SWAP4 POP DUP3 ADD ADD CODESIZE DUP1 PUSH2 0x1A59 JUMP JUMPDEST DUP6 SLOAD DUP9 DUP5 ADD DUP6 ADD MSTORE SWAP5 DUP6 ADD SWAP5 DUP8 SWAP5 POP SWAP2 DUP4 ADD SWAP2 PUSH2 0x1A7C JUMP JUMPDEST SWAP2 POP POP PUSH2 0x1A67 SWAP5 POP PUSH1 0x20 SWAP3 POP PUSH1 0xFF NOT AND DUP3 DUP5 ADD MSTORE ISZERO ISZERO PUSH1 0x5 SHL DUP3 ADD ADD CODESIZE DUP1 PUSH2 0x1A59 JUMP JUMPDEST PUSH1 0x20 SWAP1 PUSH2 0x1AE9 SWAP3 DUP3 PUSH1 0x40 MLOAD SWAP5 DUP4 DUP7 DUP1 SWAP6 MLOAD SWAP4 DUP5 SWAP3 ADD PUSH2 0x196C JUMP JUMPDEST DUP3 ADD SWAP1 DUP2 MSTORE SUB ADD SWAP1 KECCAK256 SWAP1 JUMP JUMPDEST CALLER PUSH1 0x0 SWAP1 DUP2 MSTORE PUSH32 0x1DA0B5176DFE03406AF5A6EED66CA01DDA9B45AC4DA671C3FA379CB93717EF81 PUSH1 0x20 MSTORE PUSH1 0x40 SWAP1 KECCAK256 SLOAD PUSH32 0xCE23C3E399818CFEE81A7AB0880F714E53D7672B08DF0FA62F2843416E1EA09 SWAP1 PUSH1 0xFF AND ISZERO PUSH2 0x1B51 JUMPI POP JUMP JUMPDEST PUSH1 0x44 SWAP1 PUSH1 0x40 MLOAD SWAP1 PUSH4 0xE2517D3F PUSH1 0xE0 SHL DUP3 MSTORE CALLER PUSH1 0x4 DUP4 ADD MSTORE PUSH1 0x24 DUP3 ADD MSTORE REVERT JUMPDEST CALLER PUSH1 0x0 SWAP1 DUP2 MSTORE PUSH32 0x7D7FFB7A348E1C6A02869081A26547B49160DD3DF72D1D75A570EB9B698292EC PUSH1 0x20 MSTORE PUSH1 0x40 SWAP1 KECCAK256 SLOAD PUSH32 0xA49807205CE4D355092EF5A8A18F56E8913CF4A201FBE287825B095693C21775 SWAP1 PUSH1 0xFF AND ISZERO PUSH2 0x1B51 JUMPI POP JUMP JUMPDEST DUP1 PUSH1 0x0 MSTORE PUSH1 0x0 PUSH1 0x20 MSTORE PUSH1 0x40 PUSH1 0x0 KECCAK256 CALLER PUSH1 0x0 MSTORE PUSH1 0x20 MSTORE PUSH1 0xFF PUSH1 0x40 PUSH1 0x0 KECCAK256 SLOAD AND ISZERO PUSH2 0x1B51 JUMPI POP JUMP JUMPDEST SWAP1 PUSH1 0x0 SWAP2 DUP1 DUP4 MSTORE DUP3 PUSH1 0x20 MSTORE PUSH1 0x40 DUP4 KECCAK256 SWAP2 PUSH1 0x1 DUP1 PUSH1 0xA0 SHL SUB AND SWAP2 DUP3 DUP5 MSTORE PUSH1 0x20 MSTORE PUSH1 0xFF PUSH1 0x40 DUP5 KECCAK256 SLOAD AND ISZERO PUSH1 0x0 EQ PUSH2 0x1C6A JUMPI DUP1 DUP4 MSTORE DUP3 PUSH1 0x20 MSTORE PUSH1 0x40 DUP4 KECCAK256 DUP3 DUP5 MSTORE PUSH1 0x20 MSTORE PUSH1 0x40 DUP4 KECCAK256 PUSH1 0x1 PUSH1 0xFF NOT DUP3 SLOAD AND OR SWAP1 SSTORE PUSH32 0x2F8788117E7EFF1D82E926EC794901D17C78024A50270940304540A733656F0D CALLER SWAP4 DUP1 LOG4 PUSH1 0x1 SWAP1 JUMP JUMPDEST POP POP SWAP1 JUMP JUMPDEST SWAP1 PUSH1 0x0 SWAP2 DUP1 DUP4 MSTORE DUP3 PUSH1 0x20 MSTORE PUSH1 0x40 DUP4 KECCAK256 SWAP2 PUSH1 0x1 DUP1 PUSH1 0xA0 SHL SUB AND SWAP2 DUP3 DUP5 MSTORE PUSH1 0x20 MSTORE PUSH1 0xFF PUSH1 0x40 DUP5 KECCAK256 SLOAD AND PUSH1 0x0 EQ PUSH2 0x1C6A JUMPI DUP1 DUP4 MSTORE DUP3 PUSH1 0x20 MSTORE PUSH1 0x40 DUP4 KECCAK256 DUP3 DUP5 MSTORE PUSH1 0x20 MSTORE PUSH1 0x40 DUP4 KECCAK256 PUSH1 0xFF NOT DUP2 SLOAD AND SWAP1 SSTORE PUSH32 0xF6391F5C32D9C69D2A47EA670B442974B53935D1EDC7FD64EB21E047A839171B CALLER SWAP4 DUP1 LOG4 PUSH1 0x1 SWAP1 JUMP JUMPDEST ISZERO PUSH2 0x1CEB JUMPI JUMP JUMPDEST PUSH1 0x40 MLOAD PUSH3 0x461BCD PUSH1 0xE5 SHL DUP2 MSTORE PUSH1 0x20 PUSH1 0x4 DUP3 ADD MSTORE PUSH1 0x17 PUSH1 0x24 DUP3 ADD MSTORE PUSH32 0x446F63756D656E74732068617368207265717569726564000000000000000000 PUSH1 0x44 DUP3 ADD MSTORE PUSH1 0x64 SWAP1 REVERT JUMPDEST PUSH1 0x0 NOT DUP2 EQ PUSH2 0x1092 JUMPI PUSH1 0x1 ADD SWAP1 JUMP JUMPDEST DUP2 DUP2 LT PUSH2 0x1D4A JUMPI POP POP JUMP JUMPDEST PUSH1 0x0 DUP2 SSTORE PUSH1 0x1 ADD PUSH2 0x1D3F JUMP JUMPDEST SWAP2 SWAP1 SWAP2 DUP3 MLOAD PUSH1 0x1 PUSH1 0x1 PUSH1 0x40 SHL SUB DUP2 GT PUSH2 0x6D2 JUMPI PUSH2 0x1D73 DUP3 SLOAD PUSH2 0x19EF JUMP JUMPDEST PUSH1 0x1F DUP2 GT PUSH2 0x1E1D JUMPI JUMPDEST POP PUSH1 0x20 DUP1 PUSH1 0x1F DUP4 GT PUSH1 0x1 EQ PUSH2 0x1DB9 JUMPI POP DUP2 SWAP3 SWAP4 SWAP5 PUSH1 0x0 SWAP3 PUSH2 0x1DAE JUMPI JUMPDEST POP POP DUP2 PUSH1 0x1 SHL SWAP2 PUSH1 0x0 NOT SWAP1 PUSH1 0x3 SHL SHR NOT AND OR SWAP1 SSTORE JUMP JUMPDEST ADD MLOAD SWAP1 POP CODESIZE DUP1 PUSH2 0x1D98 JUMP JUMPDEST SWAP1 PUSH1 0x1F NOT DUP4 AND SWAP6 DUP5 PUSH1 0x0 MSTORE DUP3 PUSH1 0x0 KECCAK256 SWAP3 PUSH1 0x0 SWAP1 JUMPDEST DUP9 DUP3 LT PUSH2 0x1E05 JUMPI POP POP DUP4 PUSH1 0x1 SWAP6 SWAP7 SWAP8 LT PUSH2 0x1DEC JUMPI JUMPDEST POP POP POP DUP2 SHL ADD SWAP1 SSTORE JUMP JUMPDEST ADD MLOAD PUSH1 0x0 NOT PUSH1 0xF8 DUP5 PUSH1 0x3 SHL AND SHR NOT AND SWAP1 SSTORE CODESIZE DUP1 DUP1 PUSH2 0x1DE2 JUMP JUMPDEST DUP1 PUSH1 0x1 DUP6 SWAP7 DUP3 SWAP5 SWAP7 DUP7 ADD MLOAD DUP2 SSTORE ADD SWAP6 ADD SWAP4 ADD SWAP1 PUSH2 0x1DCD JUMP JUMPDEST PUSH2 0x1E4A SWAP1 DUP4 PUSH1 0x0 MSTORE PUSH1 0x20 PUSH1 0x0 KECCAK256 PUSH1 0x1F DUP5 ADD PUSH1 0x5 SHR DUP2 ADD SWAP2 PUSH1 0x20 DUP6 LT PUSH2 0x1E50 JUMPI JUMPDEST PUSH1 0x1F ADD PUSH1 0x5 SHR ADD SWAP1 PUSH2 0x1D3F JUMP JUMPDEST CODESIZE PUSH2 0x1D7C JUMP JUMPDEST SWAP1 SWAP2 POP DUP2 SWAP1 PUSH2 0x1E3D JUMP JUMPDEST SWAP1 PUSH1 0x4 DUP2 LT ISZERO PUSH2 0x247 JUMPI PUSH1 0xFF DUP1 NOT DUP4 SLOAD AND SWAP2 AND OR SWAP1 SSTORE JUMP JUMPDEST SWAP1 SWAP2 PUSH2 0x1E89 PUSH2 0x1969 SWAP4 PUSH1 0x40 DUP5 MSTORE PUSH1 0x40 DUP5 ADD SWAP1 PUSH2 0x198F JUMP JUMPDEST SWAP2 PUSH1 0x20 DUP2 DUP5 SUB SWAP2 ADD MSTORE PUSH2 0x198F JUMP JUMPDEST PUSH1 0xFF PUSH1 0x1 SLOAD AND PUSH2 0x1EA3 JUMPI JUMP JUMPDEST PUSH1 0x40 MLOAD PUSH4 0xD93C0665 PUSH1 0xE0 SHL DUP2 MSTORE PUSH1 0x4 SWAP1 REVERT JUMPDEST ISZERO PUSH2 0x1EBC JUMPI JUMP JUMPDEST PUSH1 0x40 MLOAD PUSH3 0x461BCD PUSH1 0xE5 SHL DUP2 MSTORE PUSH1 0x20 PUSH1 0x4 DUP3 ADD MSTORE PUSH1 0x17 PUSH1 0x24 DUP3 ADD MSTORE PUSH32 0x427573696E65737320646F6573206E6F74206578697374000000000000000000 PUSH1 0x44 DUP3 ADD MSTORE PUSH1 0x64 SWAP1 REVERT JUMPDEST ISZERO PUSH2 0x1F08 JUMPI JUMP JUMPDEST PUSH1 0x40 MLOAD PUSH3 0x461BCD PUSH1 0xE5 SHL DUP2 MSTORE PUSH1 0x20 PUSH1 0x4 DUP3 ADD MSTORE PUSH1 0x21 PUSH1 0x24 DUP3 ADD MSTORE PUSH32 0x427573696E657373206E6F742070656E64696E6720766572696669636174696F PUSH1 0x44 DUP3 ADD MSTORE PUSH1 0x37 PUSH1 0xF9 SHL PUSH1 0x64 DUP3 ADD MSTORE PUSH1 0x84 SWAP1 REVERT JUMPDEST ISZERO PUSH2 0x1F5E JUMPI JUMP JUMPDEST PUSH1 0x40 MLOAD PUSH3 0x461BCD PUSH1 0xE5 SHL DUP2 MSTORE PUSH1 0x20 PUSH1 0x4 DUP3 ADD MSTORE PUSH1 0x1E PUSH1 0x24 DUP3 ADD MSTORE PUSH32 0x4F6E6C7920627573696E657373206F776E65722063616E207570646174650000 PUSH1 0x44 DUP3 ADD MSTORE PUSH1 0x64 SWAP1 REVERT INVALID RETURNDATACOPY 0x5D DUP12 DUP11 DUP9 CALLER SWAP10 PUSH31 0xF00C2C2080979CA2906A0150B17BD9C028203AE07644BDAEF5D76EE117A5E8 PUSH6 0x96D2C2C4F3DB LOG4 SWAP7 0xEE PUSH0 PUSH19 0xB1CB60B436A3E57CAFC3C3E9AAA26469706673 PC 0x22 SLT KECCAK256 JUMPI 0xC4 0xE4 SLT 0xEF RETURNDATACOPY STOP SUB EXTCODEHASH CREATE MSTORE8 POP 0x4D PUSH31 0x659E2056354A69A023DF5E3AE7B25AED658664736F6C634300081400332F87 DUP9 GT PUSH31 0x7EFF1D82E926EC794901D17C78024A50270940304540A733656F0D00000000 "},"methodIdentifiers":{"ADMIN_ROLE()":"75b238fc","DEFAULT_ADMIN_ROLE()":"a217fddf","VERIFIER_ROLE()":"e7705db6","addBusinessCategory(uint256,string)":"abc8a2f5","businessNames(string)":"c14b8d7b","businesses(uint256)":"b984c6ec","getAdditionalData(uint256,string)":"6e42e331","getBusiness(uint256)":"4d7439cb","getBusinessMetadata(uint256)":"62f20a05","getBusinessStats()":"fab6a7ef","getOwnerBusinesses(address)":"44e97a1c","getRoleAdmin(bytes32)":"248a9ca3","grantRole(bytes32,address)":"2f2ff15d","hasRole(bytes32,address)":"91d14854","isBusinessVerified(uint256)":"18dd2a12","nextBusinessId()":"e179aef4","ownerBusinesses(address,uint256)":"99dada8f","pause()":"8456cb59","paused()":"5c975abb","registerBusiness(string,string,string,string,uint256,uint256,uint256,string,string,string,string)":"d103d883","rejectBusiness(uint256,string)":"3b354cca","renounceRole(bytes32,address)":"36568abe","revokeRole(bytes32,address)":"d547741f","setAdditionalData(uint256,string,string)":"3e3398db","supportsInterface(bytes4)":"01ffc9a7","totalBusinesses()":"60d20431","unpause()":"3f4ba83a","updateBusinessDocuments(uint256,string)":"794829c5","updateBusinessMetadata(uint256,string,string,string,string)":"9ed042f6","updateBusinessStatus(uint256,uint8)":"5ffddd0d","verifiedBusinesses()":"c6b197ec","verifyBusiness(uint256)":"43b127b4"}}}}}