{"contracts/DirectInvestment.sol":{"DirectInvestment":{"abi":[{"inputs":[{"internalType":"address","name":"_cUSD","type":"address"},{"internalType":"address","name":"_feeRecipient","type":"address"}],"stateMutability":"nonpayable","type":"constructor"},{"inputs":[{"internalType":"address","name":"owner","type":"address"}],"name":"OwnableInvalidOwner","type":"error"},{"inputs":[{"internalType":"address","name":"account","type":"address"}],"name":"OwnableUnauthorizedAccount","type":"error"},{"inputs":[],"name":"ReentrancyGuardReentrantCall","type":"error"},{"inputs":[{"internalType":"address","name":"token","type":"address"}],"name":"SafeERC20FailedOperation","type":"error"},{"anonymous":false,"inputs":[{"indexed":true,"internalType":"string","name":"businessId","type":"string"},{"indexed":true,"internalType":"address","name":"wallet","type":"address"},{"indexed":false,"internalType":"uint256","name":"goalAmount","type":"uint256"}],"name":"BusinessRegistered","type":"event"},{"anonymous":false,"inputs":[{"indexed":true,"internalType":"string","name":"businessId","type":"string"},{"indexed":true,"internalType":"address","name":"wallet","type":"address"},{"indexed":false,"internalType":"uint256","name":"amount","type":"uint256"}],"name":"FundsWithdrawn","type":"event"},{"anonymous":false,"inputs":[{"indexed":true,"internalType":"string","name":"businessId","type":"string"},{"indexed":true,"internalType":"address","name":"investor","type":"address"},{"indexed":false,"internalType":"uint256","name":"amount","type":"uint256"}],"name":"InvestmentMade","type":"event"},{"anonymous":false,"inputs":[{"indexed":true,"internalType":"address","name":"previousOwner","type":"address"},{"indexed":true,"internalType":"address","name":"newOwner","type":"address"}],"name":"OwnershipTransferred","type":"event"},{"inputs":[],"name":"BASIS_POINTS","outputs":[{"internalType":"uint256","name":"","type":"uint256"}],"stateMutability":"view","type":"function"},{"inputs":[],"name":"PLATFORM_FEE","outputs":[{"internalType":"uint256","name":"","type":"uint256"}],"stateMutability":"view","type":"function"},{"inputs":[{"internalType":"string","name":"","type":"string"},{"internalType":"uint256","name":"","type":"uint256"}],"name":"businessInvestments","outputs":[{"internalType":"address","name":"investor","type":"address"},{"internalType":"string","name":"businessId","type":"string"},{"internalType":"uint256","name":"amount","type":"uint256"},{"internalType":"uint256","name":"timestamp","type":"uint256"}],"stateMutability":"view","type":"function"},{"inputs":[{"internalType":"string","name":"","type":"string"}],"name":"businesses","outputs":[{"internalType":"string","name":"id","type":"string"},{"internalType":"address","name":"wallet","type":"address"},{"internalType":"uint256","name":"goalAmount","type":"uint256"},{"internalType":"uint256","name":"currentAmount","type":"uint256"},{"internalType":"bool","name":"isActive","type":"bool"},{"internalType":"uint256","name":"createdAt","type":"uint256"}],"stateMutability":"view","type":"function"},{"inputs":[],"name":"cUSD","outputs":[{"internalType":"contract IERC20","name":"","type":"address"}],"stateMutability":"view","type":"function"},{"inputs":[{"internalType":"string","name":"_businessId","type":"string"}],"name":"deactivateBusiness","outputs":[],"stateMutability":"nonpayable","type":"function"},{"inputs":[],"name":"emergencyWithdraw","outputs":[],"stateMutability":"nonpayable","type":"function"},{"inputs":[],"name":"feeRecipient","outputs":[{"internalType":"address","name":"","type":"address"}],"stateMutability":"view","type":"function"},{"inputs":[{"internalType":"string","name":"_businessId","type":"string"}],"name":"getBusiness","outputs":[{"components":[{"internalType":"string","name":"id","type":"string"},{"internalType":"address","name":"wallet","type":"address"},{"internalType":"uint256","name":"goalAmount","type":"uint256"},{"internalType":"uint256","name":"currentAmount","type":"uint256"},{"internalType":"bool","name":"isActive","type":"bool"},{"internalType":"uint256","name":"createdAt","type":"uint256"}],"internalType":"struct DirectInvestment.Business","name":"","type":"tuple"}],"stateMutability":"view","type":"function"},{"inputs":[{"internalType":"string","name":"_businessId","type":"string"}],"name":"getBusinessInvestments","outputs":[{"components":[{"internalType":"address","name":"investor","type":"address"},{"internalType":"string","name":"businessId","type":"string"},{"internalType":"uint256","name":"amount","type":"uint256"},{"internalType":"uint256","name":"timestamp","type":"uint256"}],"internalType":"struct DirectInvestment.Investment[]","name":"","type":"tuple[]"}],"stateMutability":"view","type":"function"},{"inputs":[{"internalType":"address","name":"_investor","type":"address"}],"name":"getInvestorHistory","outputs":[{"components":[{"internalType":"address","name":"investor","type":"address"},{"internalType":"string","name":"businessId","type":"string"},{"internalType":"uint256","name":"amount","type":"uint256"},{"internalType":"uint256","name":"timestamp","type":"uint256"}],"internalType":"struct DirectInvestment.Investment[]","name":"","type":"tuple[]"}],"stateMutability":"view","type":"function"},{"inputs":[{"internalType":"string","name":"_businessId","type":"string"},{"internalType":"uint256","name":"_amount","type":"uint256"}],"name":"invest","outputs":[],"stateMutability":"nonpayable","type":"function"},{"inputs":[{"internalType":"address","name":"","type":"address"},{"internalType":"uint256","name":"","type":"uint256"}],"name":"investorHistory","outputs":[{"internalType":"address","name":"investor","type":"address"},{"internalType":"string","name":"businessId","type":"string"},{"internalType":"uint256","name":"amount","type":"uint256"},{"internalType":"uint256","name":"timestamp","type":"uint256"}],"stateMutability":"view","type":"function"},{"inputs":[],"name":"owner","outputs":[{"internalType":"address","name":"","type":"address"}],"stateMutability":"view","type":"function"},{"inputs":[{"internalType":"string","name":"_businessId","type":"string"},{"internalType":"address","name":"_wallet","type":"address"},{"internalType":"uint256","name":"_goalAmount","type":"uint256"}],"name":"registerBusiness","outputs":[],"stateMutability":"nonpayable","type":"function"},{"inputs":[],"name":"renounceOwnership","outputs":[],"stateMutability":"nonpayable","type":"function"},{"inputs":[],"name":"totalInvestments","outputs":[{"internalType":"uint256","name":"","type":"uint256"}],"stateMutability":"view","type":"function"},{"inputs":[{"internalType":"address","name":"newOwner","type":"address"}],"name":"transferOwnership","outputs":[],"stateMutability":"nonpayable","type":"function"},{"inputs":[{"internalType":"string","name":"_businessId","type":"string"},{"internalType":"uint256","name":"_newGoal","type":"uint256"}],"name":"updateBusinessGoal","outputs":[],"stateMutability":"nonpayable","type":"function"},{"inputs":[{"internalType":"address","name":"_newRecipient","type":"address"}],"name":"updateFeeRecipient","outputs":[],"stateMutability":"nonpayable","type":"function"}],"evm":{"bytecode":{"linkReferences":{},"object":"60a0346100f857601f6116b738819003918201601f19168301916001600160401b038311848410176100fd5780849260409485528339810103126100f857610052602061004b83610113565b9201610113565b600160005533156100df5760018054336001600160a01b031980831682179093556040519492936001600160a01b0393909284929083167f8be0079c531659141344cd1fd0a4f28419497f9722a3daafe3b4186f6b6457e0600080a3166080521690600554161760055561158f90816101288239608051818181610259015281816104380152610ef50152f35b604051631e4fbdf760e01b815260006004820152602490fd5b600080fd5b634e487b7160e01b600052604160045260246000fd5b51906001600160a01b03821682036100f85756fe6080604052600436101561001257600080fd5b60003560e01c8063179fcaa314610f245780631fccf67214610edf57806334fbc9a114610ec35780634690484014610e9a5780634d823d5e14610dd45780635e44d9e714610a765780636757876c1461094e57806370fd37cf14610930578063715018a6146108d35780638da5cb5b146108aa578063b45e1c4e14610803578063bba815ed1461078f578063c4dfa336146106b8578063d22782af146103be578063d50a36dc14610351578063d8adcb0a146102e9578063db2e21bc14610222578063e1f1c4a714610205578063f160d369146101865763f2fde38b146100f857600080fd5b34610181576020366003190112610181576101116111ef565b610119611296565b6001600160a01b0390811690811561016857600154826001600160601b0360a01b821617600155167f8be0079c531659141344cd1fd0a4f28419497f9722a3daafe3b4186f6b6457e0600080a3005b604051631e4fbdf760e01b815260006004820152602490fd5b600080fd5b346101815760203660031901126101815761019f6111ef565b6101a7611296565b6001600160a01b031680156101ce576001600160601b0360a01b6005541617600555600080f35b60405162461bcd60e51b815260206004820152600f60248201526e496e76616c6964206164647265737360881b6044820152606490fd5b346101815760003660031901126101815760206040516127108152f35b346101815760003660031901126101815761023b611296565b6040516370a0823160e01b81523060048201526001600160a01b03907f00000000000000000000000000000000000000000000000000000000000000006020826024818685165afa9182156102dd576000926102aa575b508161029a57005b6102a89260015416906114c4565b005b9091506020813d82116102d5575b816102c560209383610fba565b8101031261018157519083610292565b3d91506102b8565b6040513d6000823e3d90fd5b34610181576020366003190112610181576004356001600160401b0381116101815761033a602061031f60049336908501610fdb565b610327611296565b8160405193828580945193849201611062565b60029082019081520301902001805460ff19169055005b3461018157602060026103b161036636611031565b9390610370611296565b604051906103a060ff600483519486818187019761038f81838b611062565b81018b8152030190200154166112e2565b604051938492839251928391611062565b8101848152030190200155005b34610181576103cc36611031565b906002600054146106a65760026000556040519080516020928381818501936103f6818387611062565b810160028152030190209161041160ff6004850154166112e2565b841561065657670de0b6b3a764000085106106115768056bc75e2d6310000085116105cc577f0000000000000000000000000000000000000000000000000000000000000000916040516323b872dd60e01b868201523360248201523060448201528660648201526064815260a08101908082106001600160401b038311176105b6576104a191604052846114fd565b60fa860286810460fa036105a057612710900490818703938785116105a0577f76876ba2f24da859d85ae0dda11bdf7e1faacc008cc3206a401d6ce7f37d15e19561051261058a9460039361058f9861050860018060a01b039182600188015416846114c4565b60055416906114c4565b0161051e888254611324565b905561052c87600654611324565b60065561057b866040519261054084610f84565b3384528582850152896040850152426060850152336000526003825261056a846040600020611331565b604051809381928851928391611062565b81016004815203019020611331565b6112c2565b916040519384523393a36001600055005b634e487b7160e01b600052601160045260246000fd5b634e487b7160e01b600052604160045260246000fd5b60405162461bcd60e51b815260048101859052601e60248201527f4d6178696d756d20696e766573746d656e7420697320313030206355534400006044820152606490fd5b60405162461bcd60e51b815260048101859052601c60248201527f4d696e696d756d20696e766573746d656e7420697320312063555344000000006044820152606490fd5b60405162461bcd60e51b815260048101859052602260248201527f496e766573746d656e7420616d6f756e74206d75737420626520706f73697469604482015261766560f01b6064820152608490fd5b604051633ee5aeb560e01b8152600490fd5b3461018157602080600319360112610181576001600160401b039060043582811161018157816103276106ef923690600401610fdb565b810160048152030190209182549081116105b657829060405191610718848360051b0184610fba565b8183526000908152838120938084015b838310610741576040518061073d8782611205565b0390f35b60048260019260405161075381610f84565b848060a01b038a54168152610769858b016110f1565b8382015260028a0154604082015260038a01546060820152815201960192019194610728565b34610181576040366003190112610181576107a86111ef565b6001600160a01b039081166000908152600360205260409020805460243590811015610181576107d791611085565b509081541661073d6107eb600184016110f1565b926003600282015491015490604051948594856111bc565b34610181576020366003190112610181576004356001600160401b0381116101815761083b602061032761088a933690600401610fdb565b8101600281520301902061084e816110f1565b9060018060a01b03600182015416906002810154906003810154600560ff6004840154169201549260405196879660c0885260c0880190611197565b946020870152604086015260608501521515608084015260a08301520390f35b34610181576000366003190112610181576001546040516001600160a01b039091168152602090f35b34610181576000366003190112610181576108ec611296565b600180546001600160a01b031981169091556000906001600160a01b03167f8be0079c531659141344cd1fd0a4f28419497f9722a3daafe3b4186f6b6457e08280a3005b34610181576000366003190112610181576020600654604051908152f35b346101815760208060031936011261018157600435906001600160401b038211610181576109c68161098660c0943690600401610fdb565b600060a060405161099681610f9f565b60608152828582015282604082015282606082015282608082015201528160405193828580945193849201611062565b81016002815203019020604051916109dd83610f9f565b6109e6826110f1565b835260018060a01b0391826001820154169282850193845260028201546040860190815260038301549160608701928352610a50600560ff6004870154169560808a01961515875201549560a08901968752604051998a99828b5251918a015260e0890190611197565b955116604087015251606086015251608085015251151560a08401525160c08301520390f35b34610181576060366003190112610181576001600160401b0360043581811161018157610aa7903690600401610fdb565b602435906001600160a01b038216820361018157610ac3611296565b6001600160a01b03821615610d965760443515610d51576040519260ff600483519560208181870198610af781838c611062565b81016002815203019020015416610d0c57610b57602060405195610b1a87610f9f565b84875260018060a01b03861682880152604435604088015260006060880152600160808801524260a0880152604051809381928751928391611062565b8101600281520301902090845180519182116105b657610b7783546110b7565b601f8111610cc8575b50602090601f8311600114610c5557958260059360a093610c0e9899600092610c4a575b50508160011b916000199060031b1c19161784555b60018401600180841b036020830151166001600160601b03841b8254161790556040810151600285015560608101516003850155600484016080820151151560ff8019835416911617905501519101556112c2565b60405160443581526001600160a01b03909216917f70c206ffb98333d52043e0e7129080dd053be62a5f98db0215cdeeb5a39b6a4d90602090a3005b015190508980610ba4565b908360005260206000209160005b601f1985168110610cb057508360a093610c0e989993600193600597601f19811610610c97575b505050811b018455610bb9565b015160001960f88460031b161c19169055898080610c8a565b91926020600181928685015181550194019201610c63565b836000526020600020601f840160051c810160208510610d05575b601f830160051c82018110610cf9575050610b80565b60008155600101610ce3565b5080610ce3565b60405162461bcd60e51b815260206004820152601b60248201527f427573696e65737320616c7265616479207265676973746572656400000000006044820152606490fd5b60405162461bcd60e51b815260206004820152601c60248201527f476f616c20616d6f756e74206d75737420626520706f736974697665000000006044820152606490fd5b60405162461bcd60e51b8152602060048201526016602482015275496e76616c69642077616c6c6574206164647265737360501b6044820152606490fd5b3461018157602080600319360112610181576001600160a01b0380610df76111ef565b166000526003918281526040600020918254916001600160401b0383116105b6576040519391610e2d600585901b830186610fba565b8385526000928352818320908286015b858510610e52576040518061073d8982611205565b600484600192604051610e6481610f84565b858754168152610e758588016110f1565b83820152600287015460408201528b8701546060820152815201930194019391610e3d565b34610181576000366003190112610181576005546040516001600160a01b039091168152602090f35b3461018157600036600319011261018157602060405160fa8152f35b34610181576000366003190112610181576040517f00000000000000000000000000000000000000000000000000000000000000006001600160a01b03168152602090f35b34610181576020610f4c610f3736611031565b92908160405193828580945193849201611062565b8101600481520301902090815481101561018157610f6991611085565b5080546001600160a01b031661073d6107eb600184016110f1565b608081019081106001600160401b038211176105b657604052565b60c081019081106001600160401b038211176105b657604052565b90601f801991011681019081106001600160401b038211176105b657604052565b81601f82011215610181578035906001600160401b0382116105b6576040519261100f601f8401601f191660200185610fba565b8284526020838301011161018157816000926020809301838601378301015290565b604060031982011261018157600435906001600160401b0382116101815761105b91600401610fdb565b9060243590565b60005b8381106110755750506000910152565b8181015183820152602001611065565b80548210156110a15760005260206000209060021b0190600090565b634e487b7160e01b600052603260045260246000fd5b90600182811c921680156110e7575b60208310146110d157565b634e487b7160e01b600052602260045260246000fd5b91607f16916110c6565b9060405191826000825492611105846110b7565b9081845260019485811690816000146111745750600114611131575b505061112f92500383610fba565b565b9093915060005260209081600020936000915b81831061115c57505061112f93508201013880611121565b85548884018501529485019487945091830191611144565b91505061112f94506020925060ff191682840152151560051b8201013880611121565b906020916111b081518092818552858086019101611062565b601f01601f1916010190565b6001600160a01b039091168152608060208201819052929493926060926111e591830190611197565b9460408201520152565b600435906001600160a01b038216820361018157565b602080820190808352835180925260409283810182858560051b8401019601946000925b85841061123a575050505050505090565b909192939495968580600192603f198582030187528a5190848060a01b0382511681526112738383015160808086850152830190611197565b918781015188830152606080910151910152990194019401929594939190611229565b6001546001600160a01b031633036112aa57565b60405163118cdaa760e01b8152336004820152602490fd5b6112da90602060405192828480945193849201611062565b810103902090565b156112e957565b60405162461bcd60e51b8152602060048201526013602482015272427573696e657373206e6f742061637469766560681b6044820152606490fd5b919082018092116105a057565b8054680100000000000000008110156105b657611355906001928382018155611085565b9290926114ae57805183546001600160a01b0319166001600160a01b039190911617835560208082015180519093808601926001600160401b0383116105b65761139f84546110b7565b601f8111611465575b5080601f84116001146113f757509180809260609695946003986000946113ec575b50501b9160001990871b1c19161790555b604081015160028501550151910155565b0151925038806113ca565b91939495601f1984168660005283600020936000905b82821061144e5750509160039795939185606098969410611436575b505050811b0190556113db565b015160001983891b60f8161c19169055388080611429565b80888697829497870151815501960194019061140d565b6000858152828120601f860160051c8101928487106114a4575b601f0160051c019184905b838110611499575050506113a8565b82815501849061148a565b909250829061147f565b634e487b7160e01b600052600060045260246000fd5b60405163a9059cbb60e01b60208201526001600160a01b03909216602483015260448083019390935291815261112f916114fd82610f84565b906000602091828151910182855af1156102dd576000513d61155057506001600160a01b0381163b155b61152e5750565b604051635274afe760e01b81526001600160a01b039091166004820152602490fd5b6001141561152756fea264697066735822122038b4a2aec813d0edb12af480a2f25b0783df76b46d50bf497cbd3c70814f5aaa64736f6c63430008140033","opcodes":"PUSH1 0xA0 CALLVALUE PUSH2 0xF8 JUMPI PUSH1 0x1F PUSH2 0x16B7 CODESIZE DUP2 SWAP1 SUB SWAP2 DUP3 ADD PUSH1 0x1F NOT AND DUP4 ADD SWAP2 PUSH1 0x1 PUSH1 0x1 PUSH1 0x40 SHL SUB DUP4 GT DUP5 DUP5 LT OR PUSH2 0xFD JUMPI DUP1 DUP5 SWAP3 PUSH1 0x40 SWAP5 DUP6 MSTORE DUP4 CODECOPY DUP2 ADD SUB SLT PUSH2 0xF8 JUMPI PUSH2 0x52 PUSH1 0x20 PUSH2 0x4B DUP4 PUSH2 0x113 JUMP JUMPDEST SWAP3 ADD PUSH2 0x113 JUMP JUMPDEST PUSH1 0x1 PUSH1 0x0 SSTORE CALLER ISZERO PUSH2 0xDF JUMPI PUSH1 0x1 DUP1 SLOAD CALLER PUSH1 0x1 PUSH1 0x1 PUSH1 0xA0 SHL SUB NOT DUP1 DUP4 AND DUP3 OR SWAP1 SWAP4 SSTORE PUSH1 0x40 MLOAD SWAP5 SWAP3 SWAP4 PUSH1 0x1 PUSH1 0x1 PUSH1 0xA0 SHL SUB SWAP4 SWAP1 SWAP3 DUP5 SWAP3 SWAP1 DUP4 AND PUSH32 0x8BE0079C531659141344CD1FD0A4F28419497F9722A3DAAFE3B4186F6B6457E0 PUSH1 0x0 DUP1 LOG3 AND PUSH1 0x80 MSTORE AND SWAP1 PUSH1 0x5 SLOAD AND OR PUSH1 0x5 SSTORE PUSH2 0x158F SWAP1 DUP2 PUSH2 0x128 DUP3 CODECOPY PUSH1 0x80 MLOAD DUP2 DUP2 DUP2 PUSH2 0x259 ADD MSTORE DUP2 DUP2 PUSH2 0x438 ADD MSTORE PUSH2 0xEF5 ADD MSTORE RETURN JUMPDEST PUSH1 0x40 MLOAD PUSH4 0x1E4FBDF7 PUSH1 0xE0 SHL DUP2 MSTORE PUSH1 0x0 PUSH1 0x4 DUP3 ADD MSTORE PUSH1 0x24 SWAP1 REVERT JUMPDEST PUSH1 0x0 DUP1 REVERT JUMPDEST PUSH4 0x4E487B71 PUSH1 0xE0 SHL PUSH1 0x0 MSTORE PUSH1 0x41 PUSH1 0x4 MSTORE PUSH1 0x24 PUSH1 0x0 REVERT JUMPDEST MLOAD SWAP1 PUSH1 0x1 PUSH1 0x1 PUSH1 0xA0 SHL SUB DUP3 AND DUP3 SUB PUSH2 0xF8 JUMPI JUMP INVALID PUSH1 0x80 PUSH1 0x40 MSTORE PUSH1 0x4 CALLDATASIZE LT ISZERO PUSH2 0x12 JUMPI PUSH1 0x0 DUP1 REVERT JUMPDEST PUSH1 0x0 CALLDATALOAD PUSH1 0xE0 SHR DUP1 PUSH4 0x179FCAA3 EQ PUSH2 0xF24 JUMPI DUP1 PUSH4 0x1FCCF672 EQ PUSH2 0xEDF JUMPI DUP1 PUSH4 0x34FBC9A1 EQ PUSH2 0xEC3 JUMPI DUP1 PUSH4 0x46904840 EQ PUSH2 0xE9A JUMPI DUP1 PUSH4 0x4D823D5E EQ PUSH2 0xDD4 JUMPI DUP1 PUSH4 0x5E44D9E7 EQ PUSH2 0xA76 JUMPI DUP1 PUSH4 0x6757876C EQ PUSH2 0x94E JUMPI DUP1 PUSH4 0x70FD37CF EQ PUSH2 0x930 JUMPI DUP1 PUSH4 0x715018A6 EQ PUSH2 0x8D3 JUMPI DUP1 PUSH4 0x8DA5CB5B EQ PUSH2 0x8AA JUMPI DUP1 PUSH4 0xB45E1C4E EQ PUSH2 0x803 JUMPI DUP1 PUSH4 0xBBA815ED EQ PUSH2 0x78F JUMPI DUP1 PUSH4 0xC4DFA336 EQ PUSH2 0x6B8 JUMPI DUP1 PUSH4 0xD22782AF EQ PUSH2 0x3BE JUMPI DUP1 PUSH4 0xD50A36DC EQ PUSH2 0x351 JUMPI DUP1 PUSH4 0xD8ADCB0A EQ PUSH2 0x2E9 JUMPI DUP1 PUSH4 0xDB2E21BC EQ PUSH2 0x222 JUMPI DUP1 PUSH4 0xE1F1C4A7 EQ PUSH2 0x205 JUMPI DUP1 PUSH4 0xF160D369 EQ PUSH2 0x186 JUMPI PUSH4 0xF2FDE38B EQ PUSH2 0xF8 JUMPI PUSH1 0x0 DUP1 REVERT JUMPDEST CALLVALUE PUSH2 0x181 JUMPI PUSH1 0x20 CALLDATASIZE PUSH1 0x3 NOT ADD SLT PUSH2 0x181 JUMPI PUSH2 0x111 PUSH2 0x11EF JUMP JUMPDEST PUSH2 0x119 PUSH2 0x1296 JUMP JUMPDEST PUSH1 0x1 PUSH1 0x1 PUSH1 0xA0 SHL SUB SWAP1 DUP2 AND SWAP1 DUP2 ISZERO PUSH2 0x168 JUMPI PUSH1 0x1 SLOAD DUP3 PUSH1 0x1 PUSH1 0x1 PUSH1 0x60 SHL SUB PUSH1 0xA0 SHL DUP3 AND OR PUSH1 0x1 SSTORE AND PUSH32 0x8BE0079C531659141344CD1FD0A4F28419497F9722A3DAAFE3B4186F6B6457E0 PUSH1 0x0 DUP1 LOG3 STOP JUMPDEST PUSH1 0x40 MLOAD PUSH4 0x1E4FBDF7 PUSH1 0xE0 SHL DUP2 MSTORE PUSH1 0x0 PUSH1 0x4 DUP3 ADD MSTORE PUSH1 0x24 SWAP1 REVERT JUMPDEST PUSH1 0x0 DUP1 REVERT JUMPDEST CALLVALUE PUSH2 0x181 JUMPI PUSH1 0x20 CALLDATASIZE PUSH1 0x3 NOT ADD SLT PUSH2 0x181 JUMPI PUSH2 0x19F PUSH2 0x11EF JUMP JUMPDEST PUSH2 0x1A7 PUSH2 0x1296 JUMP JUMPDEST PUSH1 0x1 PUSH1 0x1 PUSH1 0xA0 SHL SUB AND DUP1 ISZERO PUSH2 0x1CE JUMPI PUSH1 0x1 PUSH1 0x1 PUSH1 0x60 SHL SUB PUSH1 0xA0 SHL PUSH1 0x5 SLOAD AND OR PUSH1 0x5 SSTORE PUSH1 0x0 DUP1 RETURN JUMPDEST PUSH1 0x40 MLOAD PUSH3 0x461BCD PUSH1 0xE5 SHL DUP2 MSTORE PUSH1 0x20 PUSH1 0x4 DUP3 ADD MSTORE PUSH1 0xF PUSH1 0x24 DUP3 ADD MSTORE PUSH15 0x496E76616C69642061646472657373 PUSH1 0x88 SHL PUSH1 0x44 DUP3 ADD MSTORE PUSH1 0x64 SWAP1 REVERT JUMPDEST CALLVALUE PUSH2 0x181 JUMPI PUSH1 0x0 CALLDATASIZE PUSH1 0x3 NOT ADD SLT PUSH2 0x181 JUMPI PUSH1 0x20 PUSH1 0x40 MLOAD PUSH2 0x2710 DUP2 MSTORE RETURN JUMPDEST CALLVALUE PUSH2 0x181 JUMPI PUSH1 0x0 CALLDATASIZE PUSH1 0x3 NOT ADD SLT PUSH2 0x181 JUMPI PUSH2 0x23B PUSH2 0x1296 JUMP JUMPDEST PUSH1 0x40 MLOAD PUSH4 0x70A08231 PUSH1 0xE0 SHL DUP2 MSTORE ADDRESS PUSH1 0x4 DUP3 ADD MSTORE PUSH1 0x1 PUSH1 0x1 PUSH1 0xA0 SHL SUB SWAP1 PUSH32 0x0 PUSH1 0x20 DUP3 PUSH1 0x24 DUP2 DUP7 DUP6 AND GAS STATICCALL SWAP2 DUP3 ISZERO PUSH2 0x2DD JUMPI PUSH1 0x0 SWAP3 PUSH2 0x2AA JUMPI JUMPDEST POP DUP2 PUSH2 0x29A JUMPI STOP JUMPDEST PUSH2 0x2A8 SWAP3 PUSH1 0x1 SLOAD AND SWAP1 PUSH2 0x14C4 JUMP JUMPDEST STOP JUMPDEST SWAP1 SWAP2 POP PUSH1 0x20 DUP2 RETURNDATASIZE DUP3 GT PUSH2 0x2D5 JUMPI JUMPDEST DUP2 PUSH2 0x2C5 PUSH1 0x20 SWAP4 DUP4 PUSH2 0xFBA JUMP JUMPDEST DUP2 ADD SUB SLT PUSH2 0x181 JUMPI MLOAD SWAP1 DUP4 PUSH2 0x292 JUMP JUMPDEST RETURNDATASIZE SWAP2 POP PUSH2 0x2B8 JUMP JUMPDEST PUSH1 0x40 MLOAD RETURNDATASIZE PUSH1 0x0 DUP3 RETURNDATACOPY RETURNDATASIZE SWAP1 REVERT JUMPDEST CALLVALUE PUSH2 0x181 JUMPI PUSH1 0x20 CALLDATASIZE PUSH1 0x3 NOT ADD SLT PUSH2 0x181 JUMPI PUSH1 0x4 CALLDATALOAD PUSH1 0x1 PUSH1 0x1 PUSH1 0x40 SHL SUB DUP2 GT PUSH2 0x181 JUMPI PUSH2 0x33A PUSH1 0x20 PUSH2 0x31F PUSH1 0x4 SWAP4 CALLDATASIZE SWAP1 DUP6 ADD PUSH2 0xFDB JUMP JUMPDEST PUSH2 0x327 PUSH2 0x1296 JUMP JUMPDEST DUP2 PUSH1 0x40 MLOAD SWAP4 DUP3 DUP6 DUP1 SWAP5 MLOAD SWAP4 DUP5 SWAP3 ADD PUSH2 0x1062 JUMP JUMPDEST PUSH1 0x2 SWAP1 DUP3 ADD SWAP1 DUP2 MSTORE SUB ADD SWAP1 KECCAK256 ADD DUP1 SLOAD PUSH1 0xFF NOT AND SWAP1 SSTORE STOP JUMPDEST CALLVALUE PUSH2 0x181 JUMPI PUSH1 0x20 PUSH1 0x2 PUSH2 0x3B1 PUSH2 0x366 CALLDATASIZE PUSH2 0x1031 JUMP JUMPDEST SWAP4 SWAP1 PUSH2 0x370 PUSH2 0x1296 JUMP JUMPDEST PUSH1 0x40 MLOAD SWAP1 PUSH2 0x3A0 PUSH1 0xFF PUSH1 0x4 DUP4 MLOAD SWAP5 DUP7 DUP2 DUP2 DUP8 ADD SWAP8 PUSH2 0x38F DUP2 DUP4 DUP12 PUSH2 0x1062 JUMP JUMPDEST DUP2 ADD DUP12 DUP2 MSTORE SUB ADD SWAP1 KECCAK256 ADD SLOAD AND PUSH2 0x12E2 JUMP JUMPDEST PUSH1 0x40 MLOAD SWAP4 DUP5 SWAP3 DUP4 SWAP3 MLOAD SWAP3 DUP4 SWAP2 PUSH2 0x1062 JUMP JUMPDEST DUP2 ADD DUP5 DUP2 MSTORE SUB ADD SWAP1 KECCAK256 ADD SSTORE STOP JUMPDEST CALLVALUE PUSH2 0x181 JUMPI PUSH2 0x3CC CALLDATASIZE PUSH2 0x1031 JUMP JUMPDEST SWAP1 PUSH1 0x2 PUSH1 0x0 SLOAD EQ PUSH2 0x6A6 JUMPI PUSH1 0x2 PUSH1 0x0 SSTORE PUSH1 0x40 MLOAD SWAP1 DUP1 MLOAD PUSH1 0x20 SWAP3 DUP4 DUP2 DUP2 DUP6 ADD SWAP4 PUSH2 0x3F6 DUP2 DUP4 DUP8 PUSH2 0x1062 JUMP JUMPDEST DUP2 ADD PUSH1 0x2 DUP2 MSTORE SUB ADD SWAP1 KECCAK256 SWAP2 PUSH2 0x411 PUSH1 0xFF PUSH1 0x4 DUP6 ADD SLOAD AND PUSH2 0x12E2 JUMP JUMPDEST DUP5 ISZERO PUSH2 0x656 JUMPI PUSH8 0xDE0B6B3A7640000 DUP6 LT PUSH2 0x611 JUMPI PUSH9 0x56BC75E2D63100000 DUP6 GT PUSH2 0x5CC JUMPI PUSH32 0x0 SWAP2 PUSH1 0x40 MLOAD PUSH4 0x23B872DD PUSH1 0xE0 SHL DUP7 DUP3 ADD MSTORE CALLER PUSH1 0x24 DUP3 ADD MSTORE ADDRESS PUSH1 0x44 DUP3 ADD MSTORE DUP7 PUSH1 0x64 DUP3 ADD MSTORE PUSH1 0x64 DUP2 MSTORE PUSH1 0xA0 DUP2 ADD SWAP1 DUP1 DUP3 LT PUSH1 0x1 PUSH1 0x1 PUSH1 0x40 SHL SUB DUP4 GT OR PUSH2 0x5B6 JUMPI PUSH2 0x4A1 SWAP2 PUSH1 0x40 MSTORE DUP5 PUSH2 0x14FD JUMP JUMPDEST PUSH1 0xFA DUP7 MUL DUP7 DUP2 DIV PUSH1 0xFA SUB PUSH2 0x5A0 JUMPI PUSH2 0x2710 SWAP1 DIV SWAP1 DUP2 DUP8 SUB SWAP4 DUP8 DUP6 GT PUSH2 0x5A0 JUMPI PUSH32 0x76876BA2F24DA859D85AE0DDA11BDF7E1FAACC008CC3206A401D6CE7F37D15E1 SWAP6 PUSH2 0x512 PUSH2 0x58A SWAP5 PUSH1 0x3 SWAP4 PUSH2 0x58F SWAP9 PUSH2 0x508 PUSH1 0x1 DUP1 PUSH1 0xA0 SHL SUB SWAP2 DUP3 PUSH1 0x1 DUP9 ADD SLOAD AND DUP5 PUSH2 0x14C4 JUMP JUMPDEST PUSH1 0x5 SLOAD AND SWAP1 PUSH2 0x14C4 JUMP JUMPDEST ADD PUSH2 0x51E DUP9 DUP3 SLOAD PUSH2 0x1324 JUMP JUMPDEST SWAP1 SSTORE PUSH2 0x52C DUP8 PUSH1 0x6 SLOAD PUSH2 0x1324 JUMP JUMPDEST PUSH1 0x6 SSTORE PUSH2 0x57B DUP7 PUSH1 0x40 MLOAD SWAP3 PUSH2 0x540 DUP5 PUSH2 0xF84 JUMP JUMPDEST CALLER DUP5 MSTORE DUP6 DUP3 DUP6 ADD MSTORE DUP10 PUSH1 0x40 DUP6 ADD MSTORE TIMESTAMP PUSH1 0x60 DUP6 ADD MSTORE CALLER PUSH1 0x0 MSTORE PUSH1 0x3 DUP3 MSTORE PUSH2 0x56A DUP5 PUSH1 0x40 PUSH1 0x0 KECCAK256 PUSH2 0x1331 JUMP JUMPDEST PUSH1 0x40 MLOAD DUP1 SWAP4 DUP2 SWAP3 DUP9 MLOAD SWAP3 DUP4 SWAP2 PUSH2 0x1062 JUMP JUMPDEST DUP2 ADD PUSH1 0x4 DUP2 MSTORE SUB ADD SWAP1 KECCAK256 PUSH2 0x1331 JUMP JUMPDEST PUSH2 0x12C2 JUMP JUMPDEST SWAP2 PUSH1 0x40 MLOAD SWAP4 DUP5 MSTORE CALLER SWAP4 LOG3 PUSH1 0x1 PUSH1 0x0 SSTORE STOP JUMPDEST PUSH4 0x4E487B71 PUSH1 0xE0 SHL PUSH1 0x0 MSTORE PUSH1 0x11 PUSH1 0x4 MSTORE PUSH1 0x24 PUSH1 0x0 REVERT JUMPDEST PUSH4 0x4E487B71 PUSH1 0xE0 SHL PUSH1 0x0 MSTORE PUSH1 0x41 PUSH1 0x4 MSTORE PUSH1 0x24 PUSH1 0x0 REVERT JUMPDEST PUSH1 0x40 MLOAD PUSH3 0x461BCD PUSH1 0xE5 SHL DUP2 MSTORE PUSH1 0x4 DUP2 ADD DUP6 SWAP1 MSTORE PUSH1 0x1E PUSH1 0x24 DUP3 ADD MSTORE PUSH32 0x4D6178696D756D20696E766573746D656E742069732031303020635553440000 PUSH1 0x44 DUP3 ADD MSTORE PUSH1 0x64 SWAP1 REVERT JUMPDEST PUSH1 0x40 MLOAD PUSH3 0x461BCD PUSH1 0xE5 SHL DUP2 MSTORE PUSH1 0x4 DUP2 ADD DUP6 SWAP1 MSTORE PUSH1 0x1C PUSH1 0x24 DUP3 ADD MSTORE PUSH32 0x4D696E696D756D20696E766573746D656E742069732031206355534400000000 PUSH1 0x44 DUP3 ADD MSTORE PUSH1 0x64 SWAP1 REVERT JUMPDEST PUSH1 0x40 MLOAD PUSH3 0x461BCD PUSH1 0xE5 SHL DUP2 MSTORE PUSH1 0x4 DUP2 ADD DUP6 SWAP1 MSTORE PUSH1 0x22 PUSH1 0x24 DUP3 ADD MSTORE PUSH32 0x496E766573746D656E7420616D6F756E74206D75737420626520706F73697469 PUSH1 0x44 DUP3 ADD MSTORE PUSH2 0x7665 PUSH1 0xF0 SHL PUSH1 0x64 DUP3 ADD MSTORE PUSH1 0x84 SWAP1 REVERT JUMPDEST PUSH1 0x40 MLOAD PUSH4 0x3EE5AEB5 PUSH1 0xE0 SHL DUP2 MSTORE PUSH1 0x4 SWAP1 REVERT JUMPDEST CALLVALUE PUSH2 0x181 JUMPI PUSH1 0x20 DUP1 PUSH1 0x3 NOT CALLDATASIZE ADD SLT PUSH2 0x181 JUMPI PUSH1 0x1 PUSH1 0x1 PUSH1 0x40 SHL SUB SWAP1 PUSH1 0x4 CALLDATALOAD DUP3 DUP2 GT PUSH2 0x181 JUMPI DUP2 PUSH2 0x327 PUSH2 0x6EF SWAP3 CALLDATASIZE SWAP1 PUSH1 0x4 ADD PUSH2 0xFDB JUMP JUMPDEST DUP2 ADD PUSH1 0x4 DUP2 MSTORE SUB ADD SWAP1 KECCAK256 SWAP2 DUP3 SLOAD SWAP1 DUP2 GT PUSH2 0x5B6 JUMPI DUP3 SWAP1 PUSH1 0x40 MLOAD SWAP2 PUSH2 0x718 DUP5 DUP4 PUSH1 0x5 SHL ADD DUP5 PUSH2 0xFBA JUMP JUMPDEST DUP2 DUP4 MSTORE PUSH1 0x0 SWAP1 DUP2 MSTORE DUP4 DUP2 KECCAK256 SWAP4 DUP1 DUP5 ADD JUMPDEST DUP4 DUP4 LT PUSH2 0x741 JUMPI PUSH1 0x40 MLOAD DUP1 PUSH2 0x73D DUP8 DUP3 PUSH2 0x1205 JUMP JUMPDEST SUB SWAP1 RETURN JUMPDEST PUSH1 0x4 DUP3 PUSH1 0x1 SWAP3 PUSH1 0x40 MLOAD PUSH2 0x753 DUP2 PUSH2 0xF84 JUMP JUMPDEST DUP5 DUP1 PUSH1 0xA0 SHL SUB DUP11 SLOAD AND DUP2 MSTORE PUSH2 0x769 DUP6 DUP12 ADD PUSH2 0x10F1 JUMP JUMPDEST DUP4 DUP3 ADD MSTORE PUSH1 0x2 DUP11 ADD SLOAD PUSH1 0x40 DUP3 ADD MSTORE PUSH1 0x3 DUP11 ADD SLOAD PUSH1 0x60 DUP3 ADD MSTORE DUP2 MSTORE ADD SWAP7 ADD SWAP3 ADD SWAP2 SWAP5 PUSH2 0x728 JUMP JUMPDEST CALLVALUE PUSH2 0x181 JUMPI PUSH1 0x40 CALLDATASIZE PUSH1 0x3 NOT ADD SLT PUSH2 0x181 JUMPI PUSH2 0x7A8 PUSH2 0x11EF JUMP JUMPDEST PUSH1 0x1 PUSH1 0x1 PUSH1 0xA0 SHL SUB SWAP1 DUP2 AND PUSH1 0x0 SWAP1 DUP2 MSTORE PUSH1 0x3 PUSH1 0x20 MSTORE PUSH1 0x40 SWAP1 KECCAK256 DUP1 SLOAD PUSH1 0x24 CALLDATALOAD SWAP1 DUP2 LT ISZERO PUSH2 0x181 JUMPI PUSH2 0x7D7 SWAP2 PUSH2 0x1085 JUMP JUMPDEST POP SWAP1 DUP2 SLOAD AND PUSH2 0x73D PUSH2 0x7EB PUSH1 0x1 DUP5 ADD PUSH2 0x10F1 JUMP JUMPDEST SWAP3 PUSH1 0x3 PUSH1 0x2 DUP3 ADD SLOAD SWAP2 ADD SLOAD SWAP1 PUSH1 0x40 MLOAD SWAP5 DUP6 SWAP5 DUP6 PUSH2 0x11BC JUMP JUMPDEST CALLVALUE PUSH2 0x181 JUMPI PUSH1 0x20 CALLDATASIZE PUSH1 0x3 NOT ADD SLT PUSH2 0x181 JUMPI PUSH1 0x4 CALLDATALOAD PUSH1 0x1 PUSH1 0x1 PUSH1 0x40 SHL SUB DUP2 GT PUSH2 0x181 JUMPI PUSH2 0x83B PUSH1 0x20 PUSH2 0x327 PUSH2 0x88A SWAP4 CALLDATASIZE SWAP1 PUSH1 0x4 ADD PUSH2 0xFDB JUMP JUMPDEST DUP2 ADD PUSH1 0x2 DUP2 MSTORE SUB ADD SWAP1 KECCAK256 PUSH2 0x84E DUP2 PUSH2 0x10F1 JUMP JUMPDEST SWAP1 PUSH1 0x1 DUP1 PUSH1 0xA0 SHL SUB PUSH1 0x1 DUP3 ADD SLOAD AND SWAP1 PUSH1 0x2 DUP2 ADD SLOAD SWAP1 PUSH1 0x3 DUP2 ADD SLOAD PUSH1 0x5 PUSH1 0xFF PUSH1 0x4 DUP5 ADD SLOAD AND SWAP3 ADD SLOAD SWAP3 PUSH1 0x40 MLOAD SWAP7 DUP8 SWAP7 PUSH1 0xC0 DUP9 MSTORE PUSH1 0xC0 DUP9 ADD SWAP1 PUSH2 0x1197 JUMP JUMPDEST SWAP5 PUSH1 0x20 DUP8 ADD MSTORE PUSH1 0x40 DUP7 ADD MSTORE PUSH1 0x60 DUP6 ADD MSTORE ISZERO ISZERO PUSH1 0x80 DUP5 ADD MSTORE PUSH1 0xA0 DUP4 ADD MSTORE SUB SWAP1 RETURN JUMPDEST CALLVALUE PUSH2 0x181 JUMPI PUSH1 0x0 CALLDATASIZE PUSH1 0x3 NOT ADD SLT PUSH2 0x181 JUMPI PUSH1 0x1 SLOAD PUSH1 0x40 MLOAD PUSH1 0x1 PUSH1 0x1 PUSH1 0xA0 SHL SUB SWAP1 SWAP2 AND DUP2 MSTORE PUSH1 0x20 SWAP1 RETURN JUMPDEST CALLVALUE PUSH2 0x181 JUMPI PUSH1 0x0 CALLDATASIZE PUSH1 0x3 NOT ADD SLT PUSH2 0x181 JUMPI PUSH2 0x8EC PUSH2 0x1296 JUMP JUMPDEST PUSH1 0x1 DUP1 SLOAD PUSH1 0x1 PUSH1 0x1 PUSH1 0xA0 SHL SUB NOT DUP2 AND SWAP1 SWAP2 SSTORE PUSH1 0x0 SWAP1 PUSH1 0x1 PUSH1 0x1 PUSH1 0xA0 SHL SUB AND PUSH32 0x8BE0079C531659141344CD1FD0A4F28419497F9722A3DAAFE3B4186F6B6457E0 DUP3 DUP1 LOG3 STOP JUMPDEST CALLVALUE PUSH2 0x181 JUMPI PUSH1 0x0 CALLDATASIZE PUSH1 0x3 NOT ADD SLT PUSH2 0x181 JUMPI PUSH1 0x20 PUSH1 0x6 SLOAD PUSH1 0x40 MLOAD SWAP1 DUP2 MSTORE RETURN JUMPDEST CALLVALUE PUSH2 0x181 JUMPI PUSH1 0x20 DUP1 PUSH1 0x3 NOT CALLDATASIZE ADD SLT PUSH2 0x181 JUMPI PUSH1 0x4 CALLDATALOAD SWAP1 PUSH1 0x1 PUSH1 0x1 PUSH1 0x40 SHL SUB DUP3 GT PUSH2 0x181 JUMPI PUSH2 0x9C6 DUP2 PUSH2 0x986 PUSH1 0xC0 SWAP5 CALLDATASIZE SWAP1 PUSH1 0x4 ADD PUSH2 0xFDB JUMP JUMPDEST PUSH1 0x0 PUSH1 0xA0 PUSH1 0x40 MLOAD PUSH2 0x996 DUP2 PUSH2 0xF9F JUMP JUMPDEST PUSH1 0x60 DUP2 MSTORE DUP3 DUP6 DUP3 ADD MSTORE DUP3 PUSH1 0x40 DUP3 ADD MSTORE DUP3 PUSH1 0x60 DUP3 ADD MSTORE DUP3 PUSH1 0x80 DUP3 ADD MSTORE ADD MSTORE DUP2 PUSH1 0x40 MLOAD SWAP4 DUP3 DUP6 DUP1 SWAP5 MLOAD SWAP4 DUP5 SWAP3 ADD PUSH2 0x1062 JUMP JUMPDEST DUP2 ADD PUSH1 0x2 DUP2 MSTORE SUB ADD SWAP1 KECCAK256 PUSH1 0x40 MLOAD SWAP2 PUSH2 0x9DD DUP4 PUSH2 0xF9F JUMP JUMPDEST PUSH2 0x9E6 DUP3 PUSH2 0x10F1 JUMP JUMPDEST DUP4 MSTORE PUSH1 0x1 DUP1 PUSH1 0xA0 SHL SUB SWAP2 DUP3 PUSH1 0x1 DUP3 ADD SLOAD AND SWAP3 DUP3 DUP6 ADD SWAP4 DUP5 MSTORE PUSH1 0x2 DUP3 ADD SLOAD PUSH1 0x40 DUP7 ADD SWAP1 DUP2 MSTORE PUSH1 0x3 DUP4 ADD SLOAD SWAP2 PUSH1 0x60 DUP8 ADD SWAP3 DUP4 MSTORE PUSH2 0xA50 PUSH1 0x5 PUSH1 0xFF PUSH1 0x4 DUP8 ADD SLOAD AND SWAP6 PUSH1 0x80 DUP11 ADD SWAP7 ISZERO ISZERO DUP8 MSTORE ADD SLOAD SWAP6 PUSH1 0xA0 DUP10 ADD SWAP7 DUP8 MSTORE PUSH1 0x40 MLOAD SWAP10 DUP11 SWAP10 DUP3 DUP12 MSTORE MLOAD SWAP2 DUP11 ADD MSTORE PUSH1 0xE0 DUP10 ADD SWAP1 PUSH2 0x1197 JUMP JUMPDEST SWAP6 MLOAD AND PUSH1 0x40 DUP8 ADD MSTORE MLOAD PUSH1 0x60 DUP7 ADD MSTORE MLOAD PUSH1 0x80 DUP6 ADD MSTORE MLOAD ISZERO ISZERO PUSH1 0xA0 DUP5 ADD MSTORE MLOAD PUSH1 0xC0 DUP4 ADD MSTORE SUB SWAP1 RETURN JUMPDEST CALLVALUE PUSH2 0x181 JUMPI PUSH1 0x60 CALLDATASIZE PUSH1 0x3 NOT ADD SLT PUSH2 0x181 JUMPI PUSH1 0x1 PUSH1 0x1 PUSH1 0x40 SHL SUB PUSH1 0x4 CALLDATALOAD DUP2 DUP2 GT PUSH2 0x181 JUMPI PUSH2 0xAA7 SWAP1 CALLDATASIZE SWAP1 PUSH1 0x4 ADD PUSH2 0xFDB JUMP JUMPDEST PUSH1 0x24 CALLDATALOAD SWAP1 PUSH1 0x1 PUSH1 0x1 PUSH1 0xA0 SHL SUB DUP3 AND DUP3 SUB PUSH2 0x181 JUMPI PUSH2 0xAC3 PUSH2 0x1296 JUMP JUMPDEST PUSH1 0x1 PUSH1 0x1 PUSH1 0xA0 SHL SUB DUP3 AND ISZERO PUSH2 0xD96 JUMPI PUSH1 0x44 CALLDATALOAD ISZERO PUSH2 0xD51 JUMPI PUSH1 0x40 MLOAD SWAP3 PUSH1 0xFF PUSH1 0x4 DUP4 MLOAD SWAP6 PUSH1 0x20 DUP2 DUP2 DUP8 ADD SWAP9 PUSH2 0xAF7 DUP2 DUP4 DUP13 PUSH2 0x1062 JUMP JUMPDEST DUP2 ADD PUSH1 0x2 DUP2 MSTORE SUB ADD SWAP1 KECCAK256 ADD SLOAD AND PUSH2 0xD0C JUMPI PUSH2 0xB57 PUSH1 0x20 PUSH1 0x40 MLOAD SWAP6 PUSH2 0xB1A DUP8 PUSH2 0xF9F JUMP JUMPDEST DUP5 DUP8 MSTORE PUSH1 0x1 DUP1 PUSH1 0xA0 SHL SUB DUP7 AND DUP3 DUP9 ADD MSTORE PUSH1 0x44 CALLDATALOAD PUSH1 0x40 DUP9 ADD MSTORE PUSH1 0x0 PUSH1 0x60 DUP9 ADD MSTORE PUSH1 0x1 PUSH1 0x80 DUP9 ADD MSTORE TIMESTAMP PUSH1 0xA0 DUP9 ADD MSTORE PUSH1 0x40 MLOAD DUP1 SWAP4 DUP2 SWAP3 DUP8 MLOAD SWAP3 DUP4 SWAP2 PUSH2 0x1062 JUMP JUMPDEST DUP2 ADD PUSH1 0x2 DUP2 MSTORE SUB ADD SWAP1 KECCAK256 SWAP1 DUP5 MLOAD DUP1 MLOAD SWAP2 DUP3 GT PUSH2 0x5B6 JUMPI PUSH2 0xB77 DUP4 SLOAD PUSH2 0x10B7 JUMP JUMPDEST PUSH1 0x1F DUP2 GT PUSH2 0xCC8 JUMPI JUMPDEST POP PUSH1 0x20 SWAP1 PUSH1 0x1F DUP4 GT PUSH1 0x1 EQ PUSH2 0xC55 JUMPI SWAP6 DUP3 PUSH1 0x5 SWAP4 PUSH1 0xA0 SWAP4 PUSH2 0xC0E SWAP9 SWAP10 PUSH1 0x0 SWAP3 PUSH2 0xC4A JUMPI JUMPDEST POP POP DUP2 PUSH1 0x1 SHL SWAP2 PUSH1 0x0 NOT SWAP1 PUSH1 0x3 SHL SHR NOT AND OR DUP5 SSTORE JUMPDEST PUSH1 0x1 DUP5 ADD PUSH1 0x1 DUP1 DUP5 SHL SUB PUSH1 0x20 DUP4 ADD MLOAD AND PUSH1 0x1 PUSH1 0x1 PUSH1 0x60 SHL SUB DUP5 SHL DUP3 SLOAD AND OR SWAP1 SSTORE PUSH1 0x40 DUP2 ADD MLOAD PUSH1 0x2 DUP6 ADD SSTORE PUSH1 0x60 DUP2 ADD MLOAD PUSH1 0x3 DUP6 ADD SSTORE PUSH1 0x4 DUP5 ADD PUSH1 0x80 DUP3 ADD MLOAD ISZERO ISZERO PUSH1 0xFF DUP1 NOT DUP4 SLOAD AND SWAP2 AND OR SWAP1 SSTORE ADD MLOAD SWAP2 ADD SSTORE PUSH2 0x12C2 JUMP JUMPDEST PUSH1 0x40 MLOAD PUSH1 0x44 CALLDATALOAD DUP2 MSTORE PUSH1 0x1 PUSH1 0x1 PUSH1 0xA0 SHL SUB SWAP1 SWAP3 AND SWAP2 PUSH32 0x70C206FFB98333D52043E0E7129080DD053BE62A5F98DB0215CDEEB5A39B6A4D SWAP1 PUSH1 0x20 SWAP1 LOG3 STOP JUMPDEST ADD MLOAD SWAP1 POP DUP10 DUP1 PUSH2 0xBA4 JUMP JUMPDEST SWAP1 DUP4 PUSH1 0x0 MSTORE PUSH1 0x20 PUSH1 0x0 KECCAK256 SWAP2 PUSH1 0x0 JUMPDEST PUSH1 0x1F NOT DUP6 AND DUP2 LT PUSH2 0xCB0 JUMPI POP DUP4 PUSH1 0xA0 SWAP4 PUSH2 0xC0E SWAP9 SWAP10 SWAP4 PUSH1 0x1 SWAP4 PUSH1 0x5 SWAP8 PUSH1 0x1F NOT DUP2 AND LT PUSH2 0xC97 JUMPI JUMPDEST POP POP POP DUP2 SHL ADD DUP5 SSTORE PUSH2 0xBB9 JUMP JUMPDEST ADD MLOAD PUSH1 0x0 NOT PUSH1 0xF8 DUP5 PUSH1 0x3 SHL AND SHR NOT AND SWAP1 SSTORE DUP10 DUP1 DUP1 PUSH2 0xC8A JUMP JUMPDEST SWAP2 SWAP3 PUSH1 0x20 PUSH1 0x1 DUP2 SWAP3 DUP7 DUP6 ADD MLOAD DUP2 SSTORE ADD SWAP5 ADD SWAP3 ADD PUSH2 0xC63 JUMP JUMPDEST DUP4 PUSH1 0x0 MSTORE PUSH1 0x20 PUSH1 0x0 KECCAK256 PUSH1 0x1F DUP5 ADD PUSH1 0x5 SHR DUP2 ADD PUSH1 0x20 DUP6 LT PUSH2 0xD05 JUMPI JUMPDEST PUSH1 0x1F DUP4 ADD PUSH1 0x5 SHR DUP3 ADD DUP2 LT PUSH2 0xCF9 JUMPI POP POP PUSH2 0xB80 JUMP JUMPDEST PUSH1 0x0 DUP2 SSTORE PUSH1 0x1 ADD PUSH2 0xCE3 JUMP JUMPDEST POP DUP1 PUSH2 0xCE3 JUMP JUMPDEST PUSH1 0x40 MLOAD PUSH3 0x461BCD PUSH1 0xE5 SHL DUP2 MSTORE PUSH1 0x20 PUSH1 0x4 DUP3 ADD MSTORE PUSH1 0x1B PUSH1 0x24 DUP3 ADD MSTORE PUSH32 0x427573696E65737320616C726561647920726567697374657265640000000000 PUSH1 0x44 DUP3 ADD MSTORE PUSH1 0x64 SWAP1 REVERT JUMPDEST PUSH1 0x40 MLOAD PUSH3 0x461BCD PUSH1 0xE5 SHL DUP2 MSTORE PUSH1 0x20 PUSH1 0x4 DUP3 ADD MSTORE PUSH1 0x1C PUSH1 0x24 DUP3 ADD MSTORE PUSH32 0x476F616C20616D6F756E74206D75737420626520706F73697469766500000000 PUSH1 0x44 DUP3 ADD MSTORE PUSH1 0x64 SWAP1 REVERT JUMPDEST PUSH1 0x40 MLOAD PUSH3 0x461BCD PUSH1 0xE5 SHL DUP2 MSTORE PUSH1 0x20 PUSH1 0x4 DUP3 ADD MSTORE PUSH1 0x16 PUSH1 0x24 DUP3 ADD MSTORE PUSH22 0x496E76616C69642077616C6C65742061646472657373 PUSH1 0x50 SHL PUSH1 0x44 DUP3 ADD MSTORE PUSH1 0x64 SWAP1 REVERT JUMPDEST CALLVALUE PUSH2 0x181 JUMPI PUSH1 0x20 DUP1 PUSH1 0x3 NOT CALLDATASIZE ADD SLT PUSH2 0x181 JUMPI PUSH1 0x1 PUSH1 0x1 PUSH1 0xA0 SHL SUB DUP1 PUSH2 0xDF7 PUSH2 0x11EF JUMP JUMPDEST AND PUSH1 0x0 MSTORE PUSH1 0x3 SWAP2 DUP3 DUP2 MSTORE PUSH1 0x40 PUSH1 0x0 KECCAK256 SWAP2 DUP3 SLOAD SWAP2 PUSH1 0x1 PUSH1 0x1 PUSH1 0x40 SHL SUB DUP4 GT PUSH2 0x5B6 JUMPI PUSH1 0x40 MLOAD SWAP4 SWAP2 PUSH2 0xE2D PUSH1 0x5 DUP6 SWAP1 SHL DUP4 ADD DUP7 PUSH2 0xFBA JUMP JUMPDEST DUP4 DUP6 MSTORE PUSH1 0x0 SWAP3 DUP4 MSTORE DUP2 DUP4 KECCAK256 SWAP1 DUP3 DUP7 ADD JUMPDEST DUP6 DUP6 LT PUSH2 0xE52 JUMPI PUSH1 0x40 MLOAD DUP1 PUSH2 0x73D DUP10 DUP3 PUSH2 0x1205 JUMP JUMPDEST PUSH1 0x4 DUP5 PUSH1 0x1 SWAP3 PUSH1 0x40 MLOAD PUSH2 0xE64 DUP2 PUSH2 0xF84 JUMP JUMPDEST DUP6 DUP8 SLOAD AND DUP2 MSTORE PUSH2 0xE75 DUP6 DUP9 ADD PUSH2 0x10F1 JUMP JUMPDEST DUP4 DUP3 ADD MSTORE PUSH1 0x2 DUP8 ADD SLOAD PUSH1 0x40 DUP3 ADD MSTORE DUP12 DUP8 ADD SLOAD PUSH1 0x60 DUP3 ADD MSTORE DUP2 MSTORE ADD SWAP4 ADD SWAP5 ADD SWAP4 SWAP2 PUSH2 0xE3D JUMP JUMPDEST CALLVALUE PUSH2 0x181 JUMPI PUSH1 0x0 CALLDATASIZE PUSH1 0x3 NOT ADD SLT PUSH2 0x181 JUMPI PUSH1 0x5 SLOAD PUSH1 0x40 MLOAD PUSH1 0x1 PUSH1 0x1 PUSH1 0xA0 SHL SUB SWAP1 SWAP2 AND DUP2 MSTORE PUSH1 0x20 SWAP1 RETURN JUMPDEST CALLVALUE PUSH2 0x181 JUMPI PUSH1 0x0 CALLDATASIZE PUSH1 0x3 NOT ADD SLT PUSH2 0x181 JUMPI PUSH1 0x20 PUSH1 0x40 MLOAD PUSH1 0xFA DUP2 MSTORE RETURN JUMPDEST CALLVALUE PUSH2 0x181 JUMPI PUSH1 0x0 CALLDATASIZE PUSH1 0x3 NOT ADD SLT PUSH2 0x181 JUMPI PUSH1 0x40 MLOAD PUSH32 0x0 PUSH1 0x1 PUSH1 0x1 PUSH1 0xA0 SHL SUB AND DUP2 MSTORE PUSH1 0x20 SWAP1 RETURN JUMPDEST CALLVALUE PUSH2 0x181 JUMPI PUSH1 0x20 PUSH2 0xF4C PUSH2 0xF37 CALLDATASIZE PUSH2 0x1031 JUMP JUMPDEST SWAP3 SWAP1 DUP2 PUSH1 0x40 MLOAD SWAP4 DUP3 DUP6 DUP1 SWAP5 MLOAD SWAP4 DUP5 SWAP3 ADD PUSH2 0x1062 JUMP JUMPDEST DUP2 ADD PUSH1 0x4 DUP2 MSTORE SUB ADD SWAP1 KECCAK256 SWAP1 DUP2 SLOAD DUP2 LT ISZERO PUSH2 0x181 JUMPI PUSH2 0xF69 SWAP2 PUSH2 0x1085 JUMP JUMPDEST POP DUP1 SLOAD PUSH1 0x1 PUSH1 0x1 PUSH1 0xA0 SHL SUB AND PUSH2 0x73D PUSH2 0x7EB PUSH1 0x1 DUP5 ADD PUSH2 0x10F1 JUMP JUMPDEST PUSH1 0x80 DUP2 ADD SWAP1 DUP2 LT PUSH1 0x1 PUSH1 0x1 PUSH1 0x40 SHL SUB DUP3 GT OR PUSH2 0x5B6 JUMPI PUSH1 0x40 MSTORE JUMP JUMPDEST PUSH1 0xC0 DUP2 ADD SWAP1 DUP2 LT PUSH1 0x1 PUSH1 0x1 PUSH1 0x40 SHL SUB DUP3 GT OR PUSH2 0x5B6 JUMPI PUSH1 0x40 MSTORE JUMP JUMPDEST SWAP1 PUSH1 0x1F DUP1 NOT SWAP2 ADD AND DUP2 ADD SWAP1 DUP2 LT PUSH1 0x1 PUSH1 0x1 PUSH1 0x40 SHL SUB DUP3 GT OR PUSH2 0x5B6 JUMPI PUSH1 0x40 MSTORE JUMP JUMPDEST DUP2 PUSH1 0x1F DUP3 ADD SLT ISZERO PUSH2 0x181 JUMPI DUP1 CALLDATALOAD SWAP1 PUSH1 0x1 PUSH1 0x1 PUSH1 0x40 SHL SUB DUP3 GT PUSH2 0x5B6 JUMPI PUSH1 0x40 MLOAD SWAP3 PUSH2 0x100F PUSH1 0x1F DUP5 ADD PUSH1 0x1F NOT AND PUSH1 0x20 ADD DUP6 PUSH2 0xFBA JUMP JUMPDEST DUP3 DUP5 MSTORE PUSH1 0x20 DUP4 DUP4 ADD ADD GT PUSH2 0x181 JUMPI DUP2 PUSH1 0x0 SWAP3 PUSH1 0x20 DUP1 SWAP4 ADD DUP4 DUP7 ADD CALLDATACOPY DUP4 ADD ADD MSTORE SWAP1 JUMP JUMPDEST PUSH1 0x40 PUSH1 0x3 NOT DUP3 ADD SLT PUSH2 0x181 JUMPI PUSH1 0x4 CALLDATALOAD SWAP1 PUSH1 0x1 PUSH1 0x1 PUSH1 0x40 SHL SUB DUP3 GT PUSH2 0x181 JUMPI PUSH2 0x105B SWAP2 PUSH1 0x4 ADD PUSH2 0xFDB JUMP JUMPDEST SWAP1 PUSH1 0x24 CALLDATALOAD SWAP1 JUMP JUMPDEST PUSH1 0x0 JUMPDEST DUP4 DUP2 LT PUSH2 0x1075 JUMPI POP POP PUSH1 0x0 SWAP2 ADD MSTORE JUMP JUMPDEST DUP2 DUP2 ADD MLOAD DUP4 DUP3 ADD MSTORE PUSH1 0x20 ADD PUSH2 0x1065 JUMP JUMPDEST DUP1 SLOAD DUP3 LT ISZERO PUSH2 0x10A1 JUMPI PUSH1 0x0 MSTORE PUSH1 0x20 PUSH1 0x0 KECCAK256 SWAP1 PUSH1 0x2 SHL ADD SWAP1 PUSH1 0x0 SWAP1 JUMP JUMPDEST PUSH4 0x4E487B71 PUSH1 0xE0 SHL PUSH1 0x0 MSTORE PUSH1 0x32 PUSH1 0x4 MSTORE PUSH1 0x24 PUSH1 0x0 REVERT JUMPDEST SWAP1 PUSH1 0x1 DUP3 DUP2 SHR SWAP3 AND DUP1 ISZERO PUSH2 0x10E7 JUMPI JUMPDEST PUSH1 0x20 DUP4 LT EQ PUSH2 0x10D1 JUMPI JUMP JUMPDEST PUSH4 0x4E487B71 PUSH1 0xE0 SHL PUSH1 0x0 MSTORE PUSH1 0x22 PUSH1 0x4 MSTORE PUSH1 0x24 PUSH1 0x0 REVERT JUMPDEST SWAP2 PUSH1 0x7F AND SWAP2 PUSH2 0x10C6 JUMP JUMPDEST SWAP1 PUSH1 0x40 MLOAD SWAP2 DUP3 PUSH1 0x0 DUP3 SLOAD SWAP3 PUSH2 0x1105 DUP5 PUSH2 0x10B7 JUMP JUMPDEST SWAP1 DUP2 DUP5 MSTORE PUSH1 0x1 SWAP5 DUP6 DUP2 AND SWAP1 DUP2 PUSH1 0x0 EQ PUSH2 0x1174 JUMPI POP PUSH1 0x1 EQ PUSH2 0x1131 JUMPI JUMPDEST POP POP PUSH2 0x112F SWAP3 POP SUB DUP4 PUSH2 0xFBA JUMP JUMPDEST JUMP JUMPDEST SWAP1 SWAP4 SWAP2 POP PUSH1 0x0 MSTORE PUSH1 0x20 SWAP1 DUP2 PUSH1 0x0 KECCAK256 SWAP4 PUSH1 0x0 SWAP2 JUMPDEST DUP2 DUP4 LT PUSH2 0x115C JUMPI POP POP PUSH2 0x112F SWAP4 POP DUP3 ADD ADD CODESIZE DUP1 PUSH2 0x1121 JUMP JUMPDEST DUP6 SLOAD DUP9 DUP5 ADD DUP6 ADD MSTORE SWAP5 DUP6 ADD SWAP5 DUP8 SWAP5 POP SWAP2 DUP4 ADD SWAP2 PUSH2 0x1144 JUMP JUMPDEST SWAP2 POP POP PUSH2 0x112F SWAP5 POP PUSH1 0x20 SWAP3 POP PUSH1 0xFF NOT AND DUP3 DUP5 ADD MSTORE ISZERO ISZERO PUSH1 0x5 SHL DUP3 ADD ADD CODESIZE DUP1 PUSH2 0x1121 JUMP JUMPDEST SWAP1 PUSH1 0x20 SWAP2 PUSH2 0x11B0 DUP2 MLOAD DUP1 SWAP3 DUP2 DUP6 MSTORE DUP6 DUP1 DUP7 ADD SWAP2 ADD PUSH2 0x1062 JUMP JUMPDEST PUSH1 0x1F ADD PUSH1 0x1F NOT AND ADD ADD SWAP1 JUMP JUMPDEST PUSH1 0x1 PUSH1 0x1 PUSH1 0xA0 SHL SUB SWAP1 SWAP2 AND DUP2 MSTORE PUSH1 0x80 PUSH1 0x20 DUP3 ADD DUP2 SWAP1 MSTORE SWAP3 SWAP5 SWAP4 SWAP3 PUSH1 0x60 SWAP3 PUSH2 0x11E5 SWAP2 DUP4 ADD SWAP1 PUSH2 0x1197 JUMP JUMPDEST SWAP5 PUSH1 0x40 DUP3 ADD MSTORE ADD MSTORE JUMP JUMPDEST PUSH1 0x4 CALLDATALOAD SWAP1 PUSH1 0x1 PUSH1 0x1 PUSH1 0xA0 SHL SUB DUP3 AND DUP3 SUB PUSH2 0x181 JUMPI JUMP JUMPDEST PUSH1 0x20 DUP1 DUP3 ADD SWAP1 DUP1 DUP4 MSTORE DUP4 MLOAD DUP1 SWAP3 MSTORE PUSH1 0x40 SWAP3 DUP4 DUP2 ADD DUP3 DUP6 DUP6 PUSH1 0x5 SHL DUP5 ADD ADD SWAP7 ADD SWAP5 PUSH1 0x0 SWAP3 JUMPDEST DUP6 DUP5 LT PUSH2 0x123A JUMPI POP POP POP POP POP POP POP SWAP1 JUMP JUMPDEST SWAP1 SWAP2 SWAP3 SWAP4 SWAP5 SWAP6 SWAP7 DUP6 DUP1 PUSH1 0x1 SWAP3 PUSH1 0x3F NOT DUP6 DUP3 SUB ADD DUP8 MSTORE DUP11 MLOAD SWAP1 DUP5 DUP1 PUSH1 0xA0 SHL SUB DUP3 MLOAD AND DUP2 MSTORE PUSH2 0x1273 DUP4 DUP4 ADD MLOAD PUSH1 0x80 DUP1 DUP7 DUP6 ADD MSTORE DUP4 ADD SWAP1 PUSH2 0x1197 JUMP JUMPDEST SWAP2 DUP8 DUP2 ADD MLOAD DUP9 DUP4 ADD MSTORE PUSH1 0x60 DUP1 SWAP2 ADD MLOAD SWAP2 ADD MSTORE SWAP10 ADD SWAP5 ADD SWAP5 ADD SWAP3 SWAP6 SWAP5 SWAP4 SWAP2 SWAP1 PUSH2 0x1229 JUMP JUMPDEST PUSH1 0x1 SLOAD PUSH1 0x1 PUSH1 0x1 PUSH1 0xA0 SHL SUB AND CALLER SUB PUSH2 0x12AA JUMPI JUMP JUMPDEST PUSH1 0x40 MLOAD PUSH4 0x118CDAA7 PUSH1 0xE0 SHL DUP2 MSTORE CALLER PUSH1 0x4 DUP3 ADD MSTORE PUSH1 0x24 SWAP1 REVERT JUMPDEST PUSH2 0x12DA SWAP1 PUSH1 0x20 PUSH1 0x40 MLOAD SWAP3 DUP3 DUP5 DUP1 SWAP5 MLOAD SWAP4 DUP5 SWAP3 ADD PUSH2 0x1062 JUMP JUMPDEST DUP2 ADD SUB SWAP1 KECCAK256 SWAP1 JUMP JUMPDEST ISZERO PUSH2 0x12E9 JUMPI JUMP JUMPDEST PUSH1 0x40 MLOAD PUSH3 0x461BCD PUSH1 0xE5 SHL DUP2 MSTORE PUSH1 0x20 PUSH1 0x4 DUP3 ADD MSTORE PUSH1 0x13 PUSH1 0x24 DUP3 ADD MSTORE PUSH19 0x427573696E657373206E6F7420616374697665 PUSH1 0x68 SHL PUSH1 0x44 DUP3 ADD MSTORE PUSH1 0x64 SWAP1 REVERT JUMPDEST SWAP2 SWAP1 DUP3 ADD DUP1 SWAP3 GT PUSH2 0x5A0 JUMPI JUMP JUMPDEST DUP1 SLOAD PUSH9 0x10000000000000000 DUP2 LT ISZERO PUSH2 0x5B6 JUMPI PUSH2 0x1355 SWAP1 PUSH1 0x1 SWAP3 DUP4 DUP3 ADD DUP2 SSTORE PUSH2 0x1085 JUMP JUMPDEST SWAP3 SWAP1 SWAP3 PUSH2 0x14AE JUMPI DUP1 MLOAD DUP4 SLOAD PUSH1 0x1 PUSH1 0x1 PUSH1 0xA0 SHL SUB NOT AND PUSH1 0x1 PUSH1 0x1 PUSH1 0xA0 SHL SUB SWAP2 SWAP1 SWAP2 AND OR DUP4 SSTORE PUSH1 0x20 DUP1 DUP3 ADD MLOAD DUP1 MLOAD SWAP1 SWAP4 DUP1 DUP7 ADD SWAP3 PUSH1 0x1 PUSH1 0x1 PUSH1 0x40 SHL SUB DUP4 GT PUSH2 0x5B6 JUMPI PUSH2 0x139F DUP5 SLOAD PUSH2 0x10B7 JUMP JUMPDEST PUSH1 0x1F DUP2 GT PUSH2 0x1465 JUMPI JUMPDEST POP DUP1 PUSH1 0x1F DUP5 GT PUSH1 0x1 EQ PUSH2 0x13F7 JUMPI POP SWAP2 DUP1 DUP1 SWAP3 PUSH1 0x60 SWAP7 SWAP6 SWAP5 PUSH1 0x3 SWAP9 PUSH1 0x0 SWAP5 PUSH2 0x13EC JUMPI JUMPDEST POP POP SHL SWAP2 PUSH1 0x0 NOT SWAP1 DUP8 SHL SHR NOT AND OR SWAP1 SSTORE JUMPDEST PUSH1 0x40 DUP2 ADD MLOAD PUSH1 0x2 DUP6 ADD SSTORE ADD MLOAD SWAP2 ADD SSTORE JUMP JUMPDEST ADD MLOAD SWAP3 POP CODESIZE DUP1 PUSH2 0x13CA JUMP JUMPDEST SWAP2 SWAP4 SWAP5 SWAP6 PUSH1 0x1F NOT DUP5 AND DUP7 PUSH1 0x0 MSTORE DUP4 PUSH1 0x0 KECCAK256 SWAP4 PUSH1 0x0 SWAP1 JUMPDEST DUP3 DUP3 LT PUSH2 0x144E JUMPI POP POP SWAP2 PUSH1 0x3 SWAP8 SWAP6 SWAP4 SWAP2 DUP6 PUSH1 0x60 SWAP9 SWAP7 SWAP5 LT PUSH2 0x1436 JUMPI JUMPDEST POP POP POP DUP2 SHL ADD SWAP1 SSTORE PUSH2 0x13DB JUMP JUMPDEST ADD MLOAD PUSH1 0x0 NOT DUP4 DUP10 SHL PUSH1 0xF8 AND SHR NOT AND SWAP1 SSTORE CODESIZE DUP1 DUP1 PUSH2 0x1429 JUMP JUMPDEST DUP1 DUP9 DUP7 SWAP8 DUP3 SWAP5 SWAP8 DUP8 ADD MLOAD DUP2 SSTORE ADD SWAP7 ADD SWAP5 ADD SWAP1 PUSH2 0x140D JUMP JUMPDEST PUSH1 0x0 DUP6 DUP2 MSTORE DUP3 DUP2 KECCAK256 PUSH1 0x1F DUP7 ADD PUSH1 0x5 SHR DUP2 ADD SWAP3 DUP5 DUP8 LT PUSH2 0x14A4 JUMPI JUMPDEST PUSH1 0x1F ADD PUSH1 0x5 SHR ADD SWAP2 DUP5 SWAP1 JUMPDEST DUP4 DUP2 LT PUSH2 0x1499 JUMPI POP POP POP PUSH2 0x13A8 JUMP JUMPDEST DUP3 DUP2 SSTORE ADD DUP5 SWAP1 PUSH2 0x148A JUMP JUMPDEST SWAP1 SWAP3 POP DUP3 SWAP1 PUSH2 0x147F JUMP JUMPDEST PUSH4 0x4E487B71 PUSH1 0xE0 SHL PUSH1 0x0 MSTORE PUSH1 0x0 PUSH1 0x4 MSTORE PUSH1 0x24 PUSH1 0x0 REVERT JUMPDEST PUSH1 0x40 MLOAD PUSH4 0xA9059CBB PUSH1 0xE0 SHL PUSH1 0x20 DUP3 ADD MSTORE PUSH1 0x1 PUSH1 0x1 PUSH1 0xA0 SHL SUB SWAP1 SWAP3 AND PUSH1 0x24 DUP4 ADD MSTORE PUSH1 0x44 DUP1 DUP4 ADD SWAP4 SWAP1 SWAP4 MSTORE SWAP2 DUP2 MSTORE PUSH2 0x112F SWAP2 PUSH2 0x14FD DUP3 PUSH2 0xF84 JUMP JUMPDEST SWAP1 PUSH1 0x0 PUSH1 0x20 SWAP2 DUP3 DUP2 MLOAD SWAP2 ADD DUP3 DUP6 GAS CALL ISZERO PUSH2 0x2DD JUMPI PUSH1 0x0 MLOAD RETURNDATASIZE PUSH2 0x1550 JUMPI POP PUSH1 0x1 PUSH1 0x1 PUSH1 0xA0 SHL SUB DUP2 AND EXTCODESIZE ISZERO JUMPDEST PUSH2 0x152E JUMPI POP JUMP JUMPDEST PUSH1 0x40 MLOAD PUSH4 0x5274AFE7 PUSH1 0xE0 SHL DUP2 MSTORE PUSH1 0x1 PUSH1 0x1 PUSH1 0xA0 SHL SUB SWAP1 SWAP2 AND PUSH1 0x4 DUP3 ADD MSTORE PUSH1 0x24 SWAP1 REVERT JUMPDEST PUSH1 0x1 EQ ISZERO PUSH2 0x1527 JUMP INVALID LOG2 PUSH5 0x6970667358 0x22 SLT KECCAK256 CODESIZE 0xB4 LOG2 0xAE 0xC8 SGT 0xD0 0xED 0xB1 0x2A DELEGATECALL DUP1 LOG2 CALLCODE JUMPDEST SMOD DUP4 0xDF PUSH23 0xB46D50BF497CBD3C70814F5AAA64736F6C634300081400 CALLER "},"methodIdentifiers":{"BASIS_POINTS()":"e1f1c4a7","PLATFORM_FEE()":"34fbc9a1","businessInvestments(string,uint256)":"179fcaa3","businesses(string)":"b45e1c4e","cUSD()":"1fccf672","deactivateBusiness(string)":"d8adcb0a","emergencyWithdraw()":"db2e21bc","feeRecipient()":"46904840","getBusiness(string)":"6757876c","getBusinessInvestments(string)":"c4dfa336","getInvestorHistory(address)":"4d823d5e","invest(string,uint256)":"d22782af","investorHistory(address,uint256)":"bba815ed","owner()":"8da5cb5b","registerBusiness(string,address,uint256)":"5e44d9e7","renounceOwnership()":"715018a6","totalInvestments()":"70fd37cf","transferOwnership(address)":"f2fde38b","updateBusinessGoal(string,uint256)":"d50a36dc","updateFeeRecipient(address)":"f160d369"}}}}}