{
  "_format": "hh-sol-artifact-1",
  "contractName": "DirectInvestment",
  "sourceName": "contracts/DirectInvestment.sol",
  "abi": [
    {
      "inputs": [
        {
          "internalType": "address",
          "name": "_cUSD",
          "type": "address"
        },
        {
          "internalType": "address",
          "name": "_feeRecipient",
          "type": "address"
        }
      ],
      "stateMutability": "nonpayable",
      "type": "constructor"
    },
    {
      "inputs": [
        {
          "internalType": "address",
          "name": "owner",
          "type": "address"
        }
      ],
      "name": "OwnableInvalidOwner",
      "type": "error"
    },
    {
      "inputs": [
        {
          "internalType": "address",
          "name": "account",
          "type": "address"
        }
      ],
      "name": "OwnableUnauthorizedAccount",
      "type": "error"
    },
    {
      "inputs": [],
      "name": "ReentrancyGuardReentrantCall",
      "type": "error"
    },
    {
      "inputs": [
        {
          "internalType": "address",
          "name": "token",
          "type": "address"
        }
      ],
      "name": "SafeERC20FailedOperation",
      "type": "error"
    },
    {
      "anonymous": false,
      "inputs": [
        {
          "indexed": true,
          "internalType": "string",
          "name": "businessId",
          "type": "string"
        },
        {
          "indexed": true,
          "internalType": "address",
          "name": "wallet",
          "type": "address"
        },
        {
          "indexed": false,
          "internalType": "uint256",
          "name": "goalAmount",
          "type": "uint256"
        }
      ],
      "name": "BusinessRegistered",
      "type": "event"
    },
    {
      "anonymous": false,
      "inputs": [
        {
          "indexed": true,
          "internalType": "string",
          "name": "businessId",
          "type": "string"
        },
        {
          "indexed": true,
          "internalType": "address",
          "name": "wallet",
          "type": "address"
        },
        {
          "indexed": false,
          "internalType": "uint256",
          "name": "amount",
          "type": "uint256"
        }
      ],
      "name": "FundsWithdrawn",
      "type": "event"
    },
    {
      "anonymous": false,
      "inputs": [
        {
          "indexed": true,
          "internalType": "string",
          "name": "businessId",
          "type": "string"
        },
        {
          "indexed": true,
          "internalType": "address",
          "name": "investor",
          "type": "address"
        },
        {
          "indexed": false,
          "internalType": "uint256",
          "name": "amount",
          "type": "uint256"
        }
      ],
      "name": "InvestmentMade",
      "type": "event"
    },
    {
      "anonymous": false,
      "inputs": [
        {
          "indexed": true,
          "internalType": "address",
          "name": "previousOwner",
          "type": "address"
        },
        {
          "indexed": true,
          "internalType": "address",
          "name": "newOwner",
          "type": "address"
        }
      ],
      "name": "OwnershipTransferred",
      "type": "event"
    },
    {
      "inputs": [],
      "name": "BASIS_POINTS",
      "outputs": [
        {
          "internalType": "uint256",
          "name": "",
          "type": "uint256"
        }
      ],
      "stateMutability": "view",
      "type": "function"
    },
    {
      "inputs": [],
      "name": "PLATFORM_FEE",
      "outputs": [
        {
          "internalType": "uint256",
          "name": "",
          "type": "uint256"
        }
      ],
      "stateMutability": "view",
      "type": "function"
    },
    {
      "inputs": [
        {
          "internalType": "string",
          "name": "",
          "type": "string"
        },
        {
          "internalType": "uint256",
          "name": "",
          "type": "uint256"
        }
      ],
      "name": "businessInvestments",
      "outputs": [
        {
          "internalType": "address",
          "name": "investor",
          "type": "address"
        },
        {
          "internalType": "string",
          "name": "businessId",
          "type": "string"
        },
        {
          "internalType": "uint256",
          "name": "amount",
          "type": "uint256"
        },
        {
          "internalType": "uint256",
          "name": "timestamp",
          "type": "uint256"
        }
      ],
      "stateMutability": "view",
      "type": "function"
    },
    {
      "inputs": [
        {
          "internalType": "string",
          "name": "",
          "type": "string"
        }
      ],
      "name": "businesses",
      "outputs": [
        {
          "internalType": "string",
          "name": "id",
          "type": "string"
        },
        {
          "internalType": "address",
          "name": "wallet",
          "type": "address"
        },
        {
          "internalType": "uint256",
          "name": "goalAmount",
          "type": "uint256"
        },
        {
          "internalType": "uint256",
          "name": "currentAmount",
          "type": "uint256"
        },
        {
          "internalType": "bool",
          "name": "isActive",
          "type": "bool"
        },
        {
          "internalType": "uint256",
          "name": "createdAt",
          "type": "uint256"
        }
      ],
      "stateMutability": "view",
      "type": "function"
    },
    {
      "inputs": [],
      "name": "cUSD",
      "outputs": [
        {
          "internalType": "contract IERC20",
          "name": "",
          "type": "address"
        }
      ],
      "stateMutability": "view",
      "type": "function"
    },
    {
      "inputs": [
        {
          "internalType": "string",
          "name": "_businessId",
          "type": "string"
        }
      ],
      "name": "deactivateBusiness",
      "outputs": [],
      "stateMutability": "nonpayable",
      "type": "function"
    },
    {
      "inputs": [],
      "name": "emergencyWithdraw",
      "outputs": [],
      "stateMutability": "nonpayable",
      "type": "function"
    },
    {
      "inputs": [],
      "name": "feeRecipient",
      "outputs": [
        {
          "internalType": "address",
          "name": "",
          "type": "address"
        }
      ],
      "stateMutability": "view",
      "type": "function"
    },
    {
      "inputs": [
        {
          "internalType": "string",
          "name": "_businessId",
          "type": "string"
        }
      ],
      "name": "getBusiness",
      "outputs": [
        {
          "components": [
            {
              "internalType": "string",
              "name": "id",
              "type": "string"
            },
            {
              "internalType": "address",
              "name": "wallet",
              "type": "address"
            },
            {
              "internalType": "uint256",
              "name": "goalAmount",
              "type": "uint256"
            },
            {
              "internalType": "uint256",
              "name": "currentAmount",
              "type": "uint256"
            },
            {
              "internalType": "bool",
              "name": "isActive",
              "type": "bool"
            },
            {
              "internalType": "uint256",
              "name": "createdAt",
              "type": "uint256"
            }
          ],
          "internalType": "struct DirectInvestment.Business",
          "name": "",
          "type": "tuple"
        }
      ],
      "stateMutability": "view",
      "type": "function"
    },
    {
      "inputs": [
        {
          "internalType": "string",
          "name": "_businessId",
          "type": "string"
        }
      ],
      "name": "getBusinessInvestments",
      "outputs": [
        {
          "components": [
            {
              "internalType": "address",
              "name": "investor",
              "type": "address"
            },
            {
              "internalType": "string",
              "name": "businessId",
              "type": "string"
            },
            {
              "internalType": "uint256",
              "name": "amount",
              "type": "uint256"
            },
            {
              "internalType": "uint256",
              "name": "timestamp",
              "type": "uint256"
            }
          ],
          "internalType": "struct DirectInvestment.Investment[]",
          "name": "",
          "type": "tuple[]"
        }
      ],
      "stateMutability": "view",
      "type": "function"
    },
    {
      "inputs": [
        {
          "internalType": "address",
          "name": "_investor",
          "type": "address"
        }
      ],
      "name": "getInvestorHistory",
      "outputs": [
        {
          "components": [
            {
              "internalType": "address",
              "name": "investor",
              "type": "address"
            },
            {
              "internalType": "string",
              "name": "businessId",
              "type": "string"
            },
            {
              "internalType": "uint256",
              "name": "amount",
              "type": "uint256"
            },
            {
              "internalType": "uint256",
              "name": "timestamp",
              "type": "uint256"
            }
          ],
          "internalType": "struct DirectInvestment.Investment[]",
          "name": "",
          "type": "tuple[]"
        }
      ],
      "stateMutability": "view",
      "type": "function"
    },
    {
      "inputs": [
        {
          "internalType": "string",
          "name": "_businessId",
          "type": "string"
        },
        {
          "internalType": "uint256",
          "name": "_amount",
          "type": "uint256"
        }
      ],
      "name": "invest",
      "outputs": [],
      "stateMutability": "nonpayable",
      "type": "function"
    },
    {
      "inputs": [
        {
          "internalType": "address",
          "name": "",
          "type": "address"
        },
        {
          "internalType": "uint256",
          "name": "",
          "type": "uint256"
        }
      ],
      "name": "investorHistory",
      "outputs": [
        {
          "internalType": "address",
          "name": "investor",
          "type": "address"
        },
        {
          "internalType": "string",
          "name": "businessId",
          "type": "string"
        },
        {
          "internalType": "uint256",
          "name": "amount",
          "type": "uint256"
        },
        {
          "internalType": "uint256",
          "name": "timestamp",
          "type": "uint256"
        }
      ],
      "stateMutability": "view",
      "type": "function"
    },
    {
      "inputs": [],
      "name": "owner",
      "outputs": [
        {
          "internalType": "address",
          "name": "",
          "type": "address"
        }
      ],
      "stateMutability": "view",
      "type": "function"
    },
    {
      "inputs": [
        {
          "internalType": "string",
          "name": "_businessId",
          "type": "string"
        },
        {
          "internalType": "address",
          "name": "_wallet",
          "type": "address"
        },
        {
          "internalType": "uint256",
          "name": "_goalAmount",
          "type": "uint256"
        }
      ],
      "name": "registerBusiness",
      "outputs": [],
      "stateMutability": "nonpayable",
      "type": "function"
    },
    {
      "inputs": [],
      "name": "renounceOwnership",
      "outputs": [],
      "stateMutability": "nonpayable",
      "type": "function"
    },
    {
      "inputs": [],
      "name": "totalInvestments",
      "outputs": [
        {
          "internalType": "uint256",
          "name": "",
          "type": "uint256"
        }
      ],
      "stateMutability": "view",
      "type": "function"
    },
    {
      "inputs": [
        {
          "internalType": "address",
          "name": "newOwner",
          "type": "address"
        }
      ],
      "name": "transferOwnership",
      "outputs": [],
      "stateMutability": "nonpayable",
      "type": "function"
    },
    {
      "inputs": [
        {
          "internalType": "string",
          "name": "_businessId",
          "type": "string"
        },
        {
          "internalType": "uint256",
          "name": "_newGoal",
          "type": "uint256"
        }
      ],
      "name": "updateBusinessGoal",
      "outputs": [],
      "stateMutability": "nonpayable",
      "type": "function"
    },
    {
      "inputs": [
        {
          "internalType": "address",
          "name": "_newRecipient",
          "type": "address"
        }
      ],
      "name": "updateFeeRecipient",
      "outputs": [],
      "stateMutability": "nonpayable",
      "type": "function"
    }
  ],
  "bytecode": "0x60a0346100f857601f6116b738819003918201601f19168301916001600160401b038311848410176100fd5780849260409485528339810103126100f857610052602061004b83610113565b9201610113565b600160005533156100df5760018054336001600160a01b031980831682179093556040519492936001600160a01b0393909284929083167f8be0079c531659141344cd1fd0a4f28419497f9722a3daafe3b4186f6b6457e0600080a3166080521690600554161760055561158f90816101288239608051818181610259015281816104380152610ef50152f35b604051631e4fbdf760e01b815260006004820152602490fd5b600080fd5b634e487b7160e01b600052604160045260246000fd5b51906001600160a01b03821682036100f85756fe6080604052600436101561001257600080fd5b60003560e01c8063179fcaa314610f245780631fccf67214610edf57806334fbc9a114610ec35780634690484014610e9a5780634d823d5e14610dd45780635e44d9e714610a765780636757876c1461094e57806370fd37cf14610930578063715018a6146108d35780638da5cb5b146108aa578063b45e1c4e14610803578063bba815ed1461078f578063c4dfa336146106b8578063d22782af146103be578063d50a36dc14610351578063d8adcb0a146102e9578063db2e21bc14610222578063e1f1c4a714610205578063f160d369146101865763f2fde38b146100f857600080fd5b34610181576020366003190112610181576101116111ef565b610119611296565b6001600160a01b0390811690811561016857600154826001600160601b0360a01b821617600155167f8be0079c531659141344cd1fd0a4f28419497f9722a3daafe3b4186f6b6457e0600080a3005b604051631e4fbdf760e01b815260006004820152602490fd5b600080fd5b346101815760203660031901126101815761019f6111ef565b6101a7611296565b6001600160a01b031680156101ce576001600160601b0360a01b6005541617600555600080f35b60405162461bcd60e51b815260206004820152600f60248201526e496e76616c6964206164647265737360881b6044820152606490fd5b346101815760003660031901126101815760206040516127108152f35b346101815760003660031901126101815761023b611296565b6040516370a0823160e01b81523060048201526001600160a01b03907f00000000000000000000000000000000000000000000000000000000000000006020826024818685165afa9182156102dd576000926102aa575b508161029a57005b6102a89260015416906114c4565b005b9091506020813d82116102d5575b816102c560209383610fba565b8101031261018157519083610292565b3d91506102b8565b6040513d6000823e3d90fd5b34610181576020366003190112610181576004356001600160401b0381116101815761033a602061031f60049336908501610fdb565b610327611296565b8160405193828580945193849201611062565b60029082019081520301902001805460ff19169055005b3461018157602060026103b161036636611031565b9390610370611296565b604051906103a060ff600483519486818187019761038f81838b611062565b81018b8152030190200154166112e2565b604051938492839251928391611062565b8101848152030190200155005b34610181576103cc36611031565b906002600054146106a65760026000556040519080516020928381818501936103f6818387611062565b810160028152030190209161041160ff6004850154166112e2565b841561065657670de0b6b3a764000085106106115768056bc75e2d6310000085116105cc577f0000000000000000000000000000000000000000000000000000000000000000916040516323b872dd60e01b868201523360248201523060448201528660648201526064815260a08101908082106001600160401b038311176105b6576104a191604052846114fd565b60fa860286810460fa036105a057612710900490818703938785116105a0577f76876ba2f24da859d85ae0dda11bdf7e1faacc008cc3206a401d6ce7f37d15e19561051261058a9460039361058f9861050860018060a01b039182600188015416846114c4565b60055416906114c4565b0161051e888254611324565b905561052c87600654611324565b60065561057b866040519261054084610f84565b3384528582850152896040850152426060850152336000526003825261056a846040600020611331565b604051809381928851928391611062565b81016004815203019020611331565b6112c2565b916040519384523393a36001600055005b634e487b7160e01b600052601160045260246000fd5b634e487b7160e01b600052604160045260246000fd5b60405162461bcd60e51b815260048101859052601e60248201527f4d6178696d756d20696e766573746d656e7420697320313030206355534400006044820152606490fd5b60405162461bcd60e51b815260048101859052601c60248201527f4d696e696d756d20696e766573746d656e7420697320312063555344000000006044820152606490fd5b60405162461bcd60e51b815260048101859052602260248201527f496e766573746d656e7420616d6f756e74206d75737420626520706f73697469604482015261766560f01b6064820152608490fd5b604051633ee5aeb560e01b8152600490fd5b3461018157602080600319360112610181576001600160401b039060043582811161018157816103276106ef923690600401610fdb565b810160048152030190209182549081116105b657829060405191610718848360051b0184610fba565b8183526000908152838120938084015b838310610741576040518061073d8782611205565b0390f35b60048260019260405161075381610f84565b848060a01b038a54168152610769858b016110f1565b8382015260028a0154604082015260038a01546060820152815201960192019194610728565b34610181576040366003190112610181576107a86111ef565b6001600160a01b039081166000908152600360205260409020805460243590811015610181576107d791611085565b509081541661073d6107eb600184016110f1565b926003600282015491015490604051948594856111bc565b34610181576020366003190112610181576004356001600160401b0381116101815761083b602061032761088a933690600401610fdb565b8101600281520301902061084e816110f1565b9060018060a01b03600182015416906002810154906003810154600560ff6004840154169201549260405196879660c0885260c0880190611197565b946020870152604086015260608501521515608084015260a08301520390f35b34610181576000366003190112610181576001546040516001600160a01b039091168152602090f35b34610181576000366003190112610181576108ec611296565b600180546001600160a01b031981169091556000906001600160a01b03167f8be0079c531659141344cd1fd0a4f28419497f9722a3daafe3b4186f6b6457e08280a3005b34610181576000366003190112610181576020600654604051908152f35b346101815760208060031936011261018157600435906001600160401b038211610181576109c68161098660c0943690600401610fdb565b600060a060405161099681610f9f565b60608152828582015282604082015282606082015282608082015201528160405193828580945193849201611062565b81016002815203019020604051916109dd83610f9f565b6109e6826110f1565b835260018060a01b0391826001820154169282850193845260028201546040860190815260038301549160608701928352610a50600560ff6004870154169560808a01961515875201549560a08901968752604051998a99828b5251918a015260e0890190611197565b955116604087015251606086015251608085015251151560a08401525160c08301520390f35b34610181576060366003190112610181576001600160401b0360043581811161018157610aa7903690600401610fdb565b602435906001600160a01b038216820361018157610ac3611296565b6001600160a01b03821615610d965760443515610d51576040519260ff600483519560208181870198610af781838c611062565b81016002815203019020015416610d0c57610b57602060405195610b1a87610f9f565b84875260018060a01b03861682880152604435604088015260006060880152600160808801524260a0880152604051809381928751928391611062565b8101600281520301902090845180519182116105b657610b7783546110b7565b601f8111610cc8575b50602090601f8311600114610c5557958260059360a093610c0e9899600092610c4a575b50508160011b916000199060031b1c19161784555b60018401600180841b036020830151166001600160601b03841b8254161790556040810151600285015560608101516003850155600484016080820151151560ff8019835416911617905501519101556112c2565b60405160443581526001600160a01b03909216917f70c206ffb98333d52043e0e7129080dd053be62a5f98db0215cdeeb5a39b6a4d90602090a3005b015190508980610ba4565b908360005260206000209160005b601f1985168110610cb057508360a093610c0e989993600193600597601f19811610610c97575b505050811b018455610bb9565b015160001960f88460031b161c19169055898080610c8a565b91926020600181928685015181550194019201610c63565b836000526020600020601f840160051c810160208510610d05575b601f830160051c82018110610cf9575050610b80565b60008155600101610ce3565b5080610ce3565b60405162461bcd60e51b815260206004820152601b60248201527f427573696e65737320616c7265616479207265676973746572656400000000006044820152606490fd5b60405162461bcd60e51b815260206004820152601c60248201527f476f616c20616d6f756e74206d75737420626520706f736974697665000000006044820152606490fd5b60405162461bcd60e51b8152602060048201526016602482015275496e76616c69642077616c6c6574206164647265737360501b6044820152606490fd5b3461018157602080600319360112610181576001600160a01b0380610df76111ef565b166000526003918281526040600020918254916001600160401b0383116105b6576040519391610e2d600585901b830186610fba565b8385526000928352818320908286015b858510610e52576040518061073d8982611205565b600484600192604051610e6481610f84565b858754168152610e758588016110f1565b83820152600287015460408201528b8701546060820152815201930194019391610e3d565b34610181576000366003190112610181576005546040516001600160a01b039091168152602090f35b3461018157600036600319011261018157602060405160fa8152f35b34610181576000366003190112610181576040517f00000000000000000000000000000000000000000000000000000000000000006001600160a01b03168152602090f35b34610181576020610f4c610f3736611031565b92908160405193828580945193849201611062565b8101600481520301902090815481101561018157610f6991611085565b5080546001600160a01b031661073d6107eb600184016110f1565b608081019081106001600160401b038211176105b657604052565b60c081019081106001600160401b038211176105b657604052565b90601f801991011681019081106001600160401b038211176105b657604052565b81601f82011215610181578035906001600160401b0382116105b6576040519261100f601f8401601f191660200185610fba565b8284526020838301011161018157816000926020809301838601378301015290565b604060031982011261018157600435906001600160401b0382116101815761105b91600401610fdb565b9060243590565b60005b8381106110755750506000910152565b8181015183820152602001611065565b80548210156110a15760005260206000209060021b0190600090565b634e487b7160e01b600052603260045260246000fd5b90600182811c921680156110e7575b60208310146110d157565b634e487b7160e01b600052602260045260246000fd5b91607f16916110c6565b9060405191826000825492611105846110b7565b9081845260019485811690816000146111745750600114611131575b505061112f92500383610fba565b565b9093915060005260209081600020936000915b81831061115c57505061112f93508201013880611121565b85548884018501529485019487945091830191611144565b91505061112f94506020925060ff191682840152151560051b8201013880611121565b906020916111b081518092818552858086019101611062565b601f01601f1916010190565b6001600160a01b039091168152608060208201819052929493926060926111e591830190611197565b9460408201520152565b600435906001600160a01b038216820361018157565b602080820190808352835180925260409283810182858560051b8401019601946000925b85841061123a575050505050505090565b909192939495968580600192603f198582030187528a5190848060a01b0382511681526112738383015160808086850152830190611197565b918781015188830152606080910151910152990194019401929594939190611229565b6001546001600160a01b031633036112aa57565b60405163118cdaa760e01b8152336004820152602490fd5b6112da90602060405192828480945193849201611062565b810103902090565b156112e957565b60405162461bcd60e51b8152602060048201526013602482015272427573696e657373206e6f742061637469766560681b6044820152606490fd5b919082018092116105a057565b8054680100000000000000008110156105b657611355906001928382018155611085565b9290926114ae57805183546001600160a01b0319166001600160a01b039190911617835560208082015180519093808601926001600160401b0383116105b65761139f84546110b7565b601f8111611465575b5080601f84116001146113f757509180809260609695946003986000946113ec575b50501b9160001990871b1c19161790555b604081015160028501550151910155565b0151925038806113ca565b91939495601f1984168660005283600020936000905b82821061144e5750509160039795939185606098969410611436575b505050811b0190556113db565b015160001983891b60f8161c19169055388080611429565b80888697829497870151815501960194019061140d565b6000858152828120601f860160051c8101928487106114a4575b601f0160051c019184905b838110611499575050506113a8565b82815501849061148a565b909250829061147f565b634e487b7160e01b600052600060045260246000fd5b60405163a9059cbb60e01b60208201526001600160a01b03909216602483015260448083019390935291815261112f916114fd82610f84565b906000602091828151910182855af1156102dd576000513d61155057506001600160a01b0381163b155b61152e5750565b604051635274afe760e01b81526001600160a01b039091166004820152602490fd5b6001141561152756fea264697066735822122038b4a2aec813d0edb12af480a2f25b0783df76b46d50bf497cbd3c70814f5aaa64736f6c63430008140033",
  "linkReferences": {},
  "deployedLinkReferences": {}
}