{
  "_format": "hh-sol-artifact-1",
  "contractName": "InvestmentPool",
  "sourceName": "contracts/InvestmentPool.sol",
  "abi": [
    {
      "inputs": [
        {
          "internalType": "address",
          "name": "_cUSD",
          "type": "address"
        },
        {
          "internalType": "address",
          "name": "_feeRecipient",
          "type": "address"
        }
      ],
      "stateMutability": "nonpayable",
      "type": "constructor"
    },
    {
      "inputs": [],
      "name": "AccessControlBadConfirmation",
      "type": "error"
    },
    {
      "inputs": [
        {
          "internalType": "address",
          "name": "account",
          "type": "address"
        },
        {
          "internalType": "bytes32",
          "name": "neededRole",
          "type": "bytes32"
        }
      ],
      "name": "AccessControlUnauthorizedAccount",
      "type": "error"
    },
    {
      "inputs": [],
      "name": "EnforcedPause",
      "type": "error"
    },
    {
      "inputs": [],
      "name": "ExpectedPause",
      "type": "error"
    },
    {
      "inputs": [],
      "name": "ReentrancyGuardReentrantCall",
      "type": "error"
    },
    {
      "inputs": [
        {
          "internalType": "address",
          "name": "token",
          "type": "address"
        }
      ],
      "name": "SafeERC20FailedOperation",
      "type": "error"
    },
    {
      "anonymous": false,
      "inputs": [
        {
          "indexed": true,
          "internalType": "uint256",
          "name": "poolId",
          "type": "uint256"
        },
        {
          "indexed": false,
          "internalType": "uint256",
          "name": "amount",
          "type": "uint256"
        },
        {
          "indexed": false,
          "internalType": "uint256",
          "name": "milestoneIndex",
          "type": "uint256"
        }
      ],
      "name": "FundsReleased",
      "type": "event"
    },
    {
      "anonymous": false,
      "inputs": [
        {
          "indexed": true,
          "internalType": "uint256",
          "name": "poolId",
          "type": "uint256"
        },
        {
          "indexed": true,
          "internalType": "address",
          "name": "investor",
          "type": "address"
        },
        {
          "indexed": false,
          "internalType": "uint256",
          "name": "amount",
          "type": "uint256"
        }
      ],
      "name": "InvestmentMade",
      "type": "event"
    },
    {
      "anonymous": false,
      "inputs": [
        {
          "indexed": false,
          "internalType": "address",
          "name": "account",
          "type": "address"
        }
      ],
      "name": "Paused",
      "type": "event"
    },
    {
      "anonymous": false,
      "inputs": [
        {
          "indexed": true,
          "internalType": "uint256",
          "name": "poolId",
          "type": "uint256"
        },
        {
          "indexed": false,
          "internalType": "enum InvestmentPool.PoolStatus",
          "name": "status",
          "type": "uint8"
        }
      ],
      "name": "PoolClosed",
      "type": "event"
    },
    {
      "anonymous": false,
      "inputs": [
        {
          "indexed": true,
          "internalType": "uint256",
          "name": "poolId",
          "type": "uint256"
        },
        {
          "indexed": true,
          "internalType": "address",
          "name": "businessOwner",
          "type": "address"
        },
        {
          "indexed": false,
          "internalType": "uint256",
          "name": "targetAmount",
          "type": "uint256"
        },
        {
          "indexed": false,
          "internalType": "uint256",
          "name": "duration",
          "type": "uint256"
        },
        {
          "indexed": false,
          "internalType": "string",
          "name": "businessId",
          "type": "string"
        }
      ],
      "name": "PoolCreated",
      "type": "event"
    },
    {
      "anonymous": false,
      "inputs": [
        {
          "indexed": true,
          "internalType": "uint256",
          "name": "poolId",
          "type": "uint256"
        },
        {
          "indexed": false,
          "internalType": "uint256",
          "name": "amount",
          "type": "uint256"
        },
        {
          "indexed": false,
          "internalType": "uint256",
          "name": "scheduleIndex",
          "type": "uint256"
        }
      ],
      "name": "RepaymentMade",
      "type": "event"
    },
    {
      "anonymous": false,
      "inputs": [
        {
          "indexed": true,
          "internalType": "bytes32",
          "name": "role",
          "type": "bytes32"
        },
        {
          "indexed": true,
          "internalType": "bytes32",
          "name": "previousAdminRole",
          "type": "bytes32"
        },
        {
          "indexed": true,
          "internalType": "bytes32",
          "name": "newAdminRole",
          "type": "bytes32"
        }
      ],
      "name": "RoleAdminChanged",
      "type": "event"
    },
    {
      "anonymous": false,
      "inputs": [
        {
          "indexed": true,
          "internalType": "bytes32",
          "name": "role",
          "type": "bytes32"
        },
        {
          "indexed": true,
          "internalType": "address",
          "name": "account",
          "type": "address"
        },
        {
          "indexed": true,
          "internalType": "address",
          "name": "sender",
          "type": "address"
        }
      ],
      "name": "RoleGranted",
      "type": "event"
    },
    {
      "anonymous": false,
      "inputs": [
        {
          "indexed": true,
          "internalType": "bytes32",
          "name": "role",
          "type": "bytes32"
        },
        {
          "indexed": true,
          "internalType": "address",
          "name": "account",
          "type": "address"
        },
        {
          "indexed": true,
          "internalType": "address",
          "name": "sender",
          "type": "address"
        }
      ],
      "name": "RoleRevoked",
      "type": "event"
    },
    {
      "anonymous": false,
      "inputs": [
        {
          "indexed": false,
          "internalType": "address",
          "name": "account",
          "type": "address"
        }
      ],
      "name": "Unpaused",
      "type": "event"
    },
    {
      "inputs": [],
      "name": "ADMIN_ROLE",
      "outputs": [
        {
          "internalType": "bytes32",
          "name": "",
          "type": "bytes32"
        }
      ],
      "stateMutability": "view",
      "type": "function"
    },
    {
      "inputs": [],
      "name": "BASIS_POINTS",
      "outputs": [
        {
          "internalType": "uint256",
          "name": "",
          "type": "uint256"
        }
      ],
      "stateMutability": "view",
      "type": "function"
    },
    {
      "inputs": [],
      "name": "BUSINESS_ROLE",
      "outputs": [
        {
          "internalType": "bytes32",
          "name": "",
          "type": "bytes32"
        }
      ],
      "stateMutability": "view",
      "type": "function"
    },
    {
      "inputs": [],
      "name": "DEFAULT_ADMIN_ROLE",
      "outputs": [
        {
          "internalType": "bytes32",
          "name": "",
          "type": "bytes32"
        }
      ],
      "stateMutability": "view",
      "type": "function"
    },
    {
      "inputs": [],
      "name": "PLATFORM_FEE",
      "outputs": [
        {
          "internalType": "uint256",
          "name": "",
          "type": "uint256"
        }
      ],
      "stateMutability": "view",
      "type": "function"
    },
    {
      "inputs": [
        {
          "internalType": "uint256",
          "name": "_poolId",
          "type": "uint256"
        },
        {
          "internalType": "string",
          "name": "_description",
          "type": "string"
        },
        {
          "internalType": "uint256",
          "name": "_amount",
          "type": "uint256"
        },
        {
          "internalType": "uint256",
          "name": "_dueDate",
          "type": "uint256"
        }
      ],
      "name": "addMilestone",
      "outputs": [],
      "stateMutability": "nonpayable",
      "type": "function"
    },
    {
      "inputs": [
        {
          "internalType": "uint256",
          "name": "_poolId",
          "type": "uint256"
        },
        {
          "internalType": "uint256",
          "name": "_milestoneIndex",
          "type": "uint256"
        }
      ],
      "name": "approveMilestone",
      "outputs": [],
      "stateMutability": "nonpayable",
      "type": "function"
    },
    {
      "inputs": [
        {
          "internalType": "address",
          "name": "",
          "type": "address"
        },
        {
          "internalType": "uint256",
          "name": "",
          "type": "uint256"
        }
      ],
      "name": "businessPools",
      "outputs": [
        {
          "internalType": "uint256",
          "name": "",
          "type": "uint256"
        }
      ],
      "stateMutability": "view",
      "type": "function"
    },
    {
      "inputs": [],
      "name": "cUSD",
      "outputs": [
        {
          "internalType": "contract IERC20",
          "name": "",
          "type": "address"
        }
      ],
      "stateMutability": "view",
      "type": "function"
    },
    {
      "inputs": [
        {
          "internalType": "uint256",
          "name": "_targetAmount",
          "type": "uint256"
        },
        {
          "internalType": "uint256",
          "name": "_duration",
          "type": "uint256"
        },
        {
          "internalType": "uint256",
          "name": "_interestRate",
          "type": "uint256"
        },
        {
          "internalType": "string",
          "name": "_businessId",
          "type": "string"
        },
        {
          "internalType": "string",
          "name": "_purpose",
          "type": "string"
        }
      ],
      "name": "createPool",
      "outputs": [
        {
          "internalType": "uint256",
          "name": "",
          "type": "uint256"
        }
      ],
      "stateMutability": "nonpayable",
      "type": "function"
    },
    {
      "inputs": [
        {
          "internalType": "uint256",
          "name": "_poolId",
          "type": "uint256"
        }
      ],
      "name": "emergencyPause",
      "outputs": [],
      "stateMutability": "nonpayable",
      "type": "function"
    },
    {
      "inputs": [],
      "name": "feeRecipient",
      "outputs": [
        {
          "internalType": "address",
          "name": "",
          "type": "address"
        }
      ],
      "stateMutability": "view",
      "type": "function"
    },
    {
      "inputs": [
        {
          "internalType": "address",
          "name": "_business",
          "type": "address"
        }
      ],
      "name": "getBusinessPools",
      "outputs": [
        {
          "internalType": "uint256[]",
          "name": "",
          "type": "uint256[]"
        }
      ],
      "stateMutability": "view",
      "type": "function"
    },
    {
      "inputs": [
        {
          "internalType": "address",
          "name": "_investor",
          "type": "address"
        }
      ],
      "name": "getInvestorPools",
      "outputs": [
        {
          "internalType": "uint256[]",
          "name": "",
          "type": "uint256[]"
        }
      ],
      "stateMutability": "view",
      "type": "function"
    },
    {
      "inputs": [
        {
          "internalType": "uint256",
          "name": "_poolId",
          "type": "uint256"
        }
      ],
      "name": "getPool",
      "outputs": [
        {
          "components": [
            {
              "internalType": "uint256",
              "name": "id",
              "type": "uint256"
            },
            {
              "internalType": "address",
              "name": "businessOwner",
              "type": "address"
            },
            {
              "internalType": "uint256",
              "name": "targetAmount",
              "type": "uint256"
            },
            {
              "internalType": "uint256",
              "name": "currentAmount",
              "type": "uint256"
            },
            {
              "internalType": "uint256",
              "name": "duration",
              "type": "uint256"
            },
            {
              "internalType": "uint256",
              "name": "interestRate",
              "type": "uint256"
            },
            {
              "internalType": "enum InvestmentPool.PoolStatus",
              "name": "status",
              "type": "uint8"
            },
            {
              "internalType": "uint256",
              "name": "createdAt",
              "type": "uint256"
            },
            {
              "internalType": "uint256",
              "name": "fundingDeadline",
              "type": "uint256"
            },
            {
              "internalType": "string",
              "name": "businessId",
              "type": "string"
            },
            {
              "internalType": "string",
              "name": "purpose",
              "type": "string"
            }
          ],
          "internalType": "struct InvestmentPool.Pool",
          "name": "",
          "type": "tuple"
        }
      ],
      "stateMutability": "view",
      "type": "function"
    },
    {
      "inputs": [
        {
          "internalType": "uint256",
          "name": "_poolId",
          "type": "uint256"
        }
      ],
      "name": "getPoolInvestments",
      "outputs": [
        {
          "components": [
            {
              "internalType": "address",
              "name": "investor",
              "type": "address"
            },
            {
              "internalType": "uint256",
              "name": "amount",
              "type": "uint256"
            },
            {
              "internalType": "uint256",
              "name": "timestamp",
              "type": "uint256"
            },
            {
              "internalType": "bool",
              "name": "withdrawn",
              "type": "bool"
            }
          ],
          "internalType": "struct InvestmentPool.Investment[]",
          "name": "",
          "type": "tuple[]"
        }
      ],
      "stateMutability": "view",
      "type": "function"
    },
    {
      "inputs": [
        {
          "internalType": "bytes32",
          "name": "role",
          "type": "bytes32"
        }
      ],
      "name": "getRoleAdmin",
      "outputs": [
        {
          "internalType": "bytes32",
          "name": "",
          "type": "bytes32"
        }
      ],
      "stateMutability": "view",
      "type": "function"
    },
    {
      "inputs": [
        {
          "internalType": "bytes32",
          "name": "role",
          "type": "bytes32"
        },
        {
          "internalType": "address",
          "name": "account",
          "type": "address"
        }
      ],
      "name": "grantRole",
      "outputs": [],
      "stateMutability": "nonpayable",
      "type": "function"
    },
    {
      "inputs": [
        {
          "internalType": "uint256",
          "name": "_poolId",
          "type": "uint256"
        }
      ],
      "name": "handleDefault",
      "outputs": [],
      "stateMutability": "nonpayable",
      "type": "function"
    },
    {
      "inputs": [
        {
          "internalType": "bytes32",
          "name": "role",
          "type": "bytes32"
        },
        {
          "internalType": "address",
          "name": "account",
          "type": "address"
        }
      ],
      "name": "hasRole",
      "outputs": [
        {
          "internalType": "bool",
          "name": "",
          "type": "bool"
        }
      ],
      "stateMutability": "view",
      "type": "function"
    },
    {
      "inputs": [
        {
          "internalType": "uint256",
          "name": "_poolId",
          "type": "uint256"
        },
        {
          "internalType": "uint256",
          "name": "_amount",
          "type": "uint256"
        }
      ],
      "name": "invest",
      "outputs": [],
      "stateMutability": "nonpayable",
      "type": "function"
    },
    {
      "inputs": [
        {
          "internalType": "address",
          "name": "",
          "type": "address"
        },
        {
          "internalType": "uint256",
          "name": "",
          "type": "uint256"
        }
      ],
      "name": "investorPools",
      "outputs": [
        {
          "internalType": "uint256",
          "name": "",
          "type": "uint256"
        }
      ],
      "stateMutability": "view",
      "type": "function"
    },
    {
      "inputs": [],
      "name": "nextPoolId",
      "outputs": [
        {
          "internalType": "uint256",
          "name": "",
          "type": "uint256"
        }
      ],
      "stateMutability": "view",
      "type": "function"
    },
    {
      "inputs": [],
      "name": "paused",
      "outputs": [
        {
          "internalType": "bool",
          "name": "",
          "type": "bool"
        }
      ],
      "stateMutability": "view",
      "type": "function"
    },
    {
      "inputs": [
        {
          "internalType": "uint256",
          "name": "",
          "type": "uint256"
        },
        {
          "internalType": "uint256",
          "name": "",
          "type": "uint256"
        }
      ],
      "name": "poolInvestments",
      "outputs": [
        {
          "internalType": "address",
          "name": "investor",
          "type": "address"
        },
        {
          "internalType": "uint256",
          "name": "amount",
          "type": "uint256"
        },
        {
          "internalType": "uint256",
          "name": "timestamp",
          "type": "uint256"
        },
        {
          "internalType": "bool",
          "name": "withdrawn",
          "type": "bool"
        }
      ],
      "stateMutability": "view",
      "type": "function"
    },
    {
      "inputs": [
        {
          "internalType": "uint256",
          "name": "",
          "type": "uint256"
        },
        {
          "internalType": "uint256",
          "name": "",
          "type": "uint256"
        }
      ],
      "name": "poolMilestones",
      "outputs": [
        {
          "internalType": "uint256",
          "name": "poolId",
          "type": "uint256"
        },
        {
          "internalType": "string",
          "name": "description",
          "type": "string"
        },
        {
          "internalType": "uint256",
          "name": "amount",
          "type": "uint256"
        },
        {
          "internalType": "enum InvestmentPool.MilestoneStatus",
          "name": "status",
          "type": "uint8"
        },
        {
          "internalType": "uint256",
          "name": "dueDate",
          "type": "uint256"
        },
        {
          "internalType": "string",
          "name": "evidence",
          "type": "string"
        }
      ],
      "stateMutability": "view",
      "type": "function"
    },
    {
      "inputs": [
        {
          "internalType": "uint256",
          "name": "",
          "type": "uint256"
        }
      ],
      "name": "pools",
      "outputs": [
        {
          "internalType": "uint256",
          "name": "id",
          "type": "uint256"
        },
        {
          "internalType": "address",
          "name": "businessOwner",
          "type": "address"
        },
        {
          "internalType": "uint256",
          "name": "targetAmount",
          "type": "uint256"
        },
        {
          "internalType": "uint256",
          "name": "currentAmount",
          "type": "uint256"
        },
        {
          "internalType": "uint256",
          "name": "duration",
          "type": "uint256"
        },
        {
          "internalType": "uint256",
          "name": "interestRate",
          "type": "uint256"
        },
        {
          "internalType": "enum InvestmentPool.PoolStatus",
          "name": "status",
          "type": "uint8"
        },
        {
          "internalType": "uint256",
          "name": "createdAt",
          "type": "uint256"
        },
        {
          "internalType": "uint256",
          "name": "fundingDeadline",
          "type": "uint256"
        },
        {
          "internalType": "string",
          "name": "businessId",
          "type": "string"
        },
        {
          "internalType": "string",
          "name": "purpose",
          "type": "string"
        }
      ],
      "stateMutability": "view",
      "type": "function"
    },
    {
      "inputs": [
        {
          "internalType": "uint256",
          "name": "_poolId",
          "type": "uint256"
        },
        {
          "internalType": "uint256",
          "name": "_scheduleIndex",
          "type": "uint256"
        }
      ],
      "name": "processRepayment",
      "outputs": [],
      "stateMutability": "nonpayable",
      "type": "function"
    },
    {
      "inputs": [
        {
          "internalType": "uint256",
          "name": "_poolId",
          "type": "uint256"
        },
        {
          "internalType": "uint256",
          "name": "_milestoneIndex",
          "type": "uint256"
        }
      ],
      "name": "releaseFunds",
      "outputs": [],
      "stateMutability": "nonpayable",
      "type": "function"
    },
    {
      "inputs": [
        {
          "internalType": "bytes32",
          "name": "role",
          "type": "bytes32"
        },
        {
          "internalType": "address",
          "name": "callerConfirmation",
          "type": "address"
        }
      ],
      "name": "renounceRole",
      "outputs": [],
      "stateMutability": "nonpayable",
      "type": "function"
    },
    {
      "inputs": [
        {
          "internalType": "uint256",
          "name": "",
          "type": "uint256"
        },
        {
          "internalType": "uint256",
          "name": "",
          "type": "uint256"
        }
      ],
      "name": "repaymentSchedules",
      "outputs": [
        {
          "internalType": "uint256",
          "name": "poolId",
          "type": "uint256"
        },
        {
          "internalType": "uint256",
          "name": "amount",
          "type": "uint256"
        },
        {
          "internalType": "uint256",
          "name": "dueDate",
          "type": "uint256"
        },
        {
          "internalType": "bool",
          "name": "paid",
          "type": "bool"
        }
      ],
      "stateMutability": "view",
      "type": "function"
    },
    {
      "inputs": [
        {
          "internalType": "bytes32",
          "name": "role",
          "type": "bytes32"
        },
        {
          "internalType": "address",
          "name": "account",
          "type": "address"
        }
      ],
      "name": "revokeRole",
      "outputs": [],
      "stateMutability": "nonpayable",
      "type": "function"
    },
    {
      "inputs": [
        {
          "internalType": "bytes4",
          "name": "interfaceId",
          "type": "bytes4"
        }
      ],
      "name": "supportsInterface",
      "outputs": [
        {
          "internalType": "bool",
          "name": "",
          "type": "bool"
        }
      ],
      "stateMutability": "view",
      "type": "function"
    }
  ],
  "bytecode": "0x60a034620000d457601f6200275d38819003918201601f19168301916001600160401b03831184841017620000d9578084926040948552833981010312620000d4576200005a60206200005283620000ef565b9201620000ef565b600160008190556009556001600160a01b03918216608052600a80546001600160a01b03191691909216179055620000923362000104565b506200009e3362000185565b5060405161251490816200022982396080518181816102d4015281816104250152818161103d015281816110fb01526115f80152f35b600080fd5b634e487b7160e01b600052604160045260246000fd5b51906001600160a01b0382168203620000d457565b6001600160a01b031660008181527fa6eef7e35abe7026729641147f7915573c7e97b47efa546f5f6e3230263bcb49602052604081205490919060ff16620001815781805260016020526040822081835260205260408220600160ff1982541617905533916000805160206200273d8339815191528180a4600190565b5090565b6001600160a01b031660008181527f50efbde2d46c37e9785f1791697f77e94bb7b701e19f1930a668820722d3769460205260408120549091907fa49807205ce4d355092ef5a8a18f56e8913cf4a201fbe287825b095693c217759060ff16620002235780835260016020526040832082845260205260408320600160ff198254161790556000805160206200273d833981519152339380a4600190565b50509056fe6080604052600436101561001257600080fd5b60003560e01c806301f6bf0e146118d157806301ffc9a71461187b578063068bcd8d146116bd5780630bcc1ec91461164557806318e56131146116275780631fccf672146115e257806320913da5146115a5578063248a9ca31461157657806327f505441461152c5780632f2ff15d146114ed5780633207247b146114b257806332ec57881461142e57806334fbc9a11461141257806336568abe146113cb57806346904840146113a25780634af37b231461133d5780635c975abb1461131a5780636c22f60b146112b85780636d52ddfa1461121357806371cadae114610fb657806375b238fc14610f7b57806384dab98414610f1157806391d1485414610ec457806393d17e2514610b14578063a217fddf14610af8578063ab56d0ce146109e9578063ac4afa3814610910578063ad3fbe30146108ab578063d547741f1461086a578063d87aa64314610392578063df7843ae14610201578063e1f1c4a7146101e45763fdf9bc1c1461018757600080fd5b346101df5760403660031901126101df576101a0611ef7565b6001600160a01b03166000908152600760205260409020805460243591908210156101df576020916101d191611f74565b90546040519160031b1c8152f35b600080fd5b346101df5760003660031901126101df5760206040516127108152f35b346101df5761020f36611f5e565b6102176120ba565b61021f61240c565b816000526003602052604060002060ff600682015416600481101561037c57600161024a911461242f565b826000526005602052610261826040600020611fbe565b5060ff600382015416600381101561037c5760010361033e576002019182549260c8840284810460c8148515171561032857612710900493848103908111610328576001909301547f24d2f6e8ac6c13d1e7610752ab0b7ce03d5043806a65d3d631ae859ad81d159b94604094610314927f0000000000000000000000000000000000000000000000000000000000000000916001600160a01b039161030a91908316846124a0565b600a5416906124a0565b549082519182526020820152a26001600055005b634e487b7160e01b600052601160045260246000fd5b60405162461bcd60e51b8152602060048201526016602482015275135a5b195cdd1bdb99481b9bdd08185c1c1c9bdd995960521b6044820152606490fd5b634e487b7160e01b600052602160045260246000fd5b346101df576103a036611f5e565b6103a861240c565b60ff6002541661085857816000526003602052604060002060ff600682015416600481101561037c5761082157600881015442116107dc57811561078c576103f482600383015461230e565b60028201541061074f57670de0b6b3a7640000821061070a576802b5e3af16b188000082116106c5576104498230337f0000000000000000000000000000000000000000000000000000000000000000612350565b82600052600460205260406000206040519061046482611e18565b338252836020830152426040830152600060608301528054600160401b8110156106a45761049791600182018155611fa2565b61068e57600360606104ee9360018060a01b038151166bffffffffffffffffffffffff60a01b85541617845560208101516001850155604081015160028501550151151591019060ff801983541691151516179055565b6104fc82600383015461230e565b600382015533600052600760205261051883604060002061231b565b60038101546002820154111561055e575b50906040519182527f89728d542d77fad9fe42c7d1f032c2b85f64cf938d754183b0e95359fbfac8a160203393a36001600055005b6006600160ff198284015416179101558160005260036020526040600020906105b660028301546105b161059660058601548361246d565b916201d4c06105aa6004880154809561246d565b049061230e565b612480565b9060005b60048401548110156106ba57846000526006602052604060002090600181018082116103285762278d008181810204811482151715610328576105fe91024261230e565b916040519261060c84611e18565b8784528560208501526040840152600060608401528054600160401b8110156106a45761063e91600182018155611fa2565b91909161068e5761068261068792600360608660049751845560208101516001850155604081015160028501550151151591019060ff801983541691151516179055565b6122ff565b90506105ba565b634e487b7160e01b600052600060045260246000fd5b634e487b7160e01b600052604160045260246000fd5b509150839050610529565b60405162461bcd60e51b815260206004820152601d60248201527f4d6178696d756d20696e766573746d656e7420697320353020635553440000006044820152606490fd5b60405162461bcd60e51b815260206004820152601c60248201527f4d696e696d756d20696e766573746d656e7420697320312063555344000000006044820152606490fd5b60405162461bcd60e51b8152602060048201526015602482015274115e18d959591cc81d185c99d95d08185b5bdd5b9d605a1b6044820152606490fd5b60405162461bcd60e51b815260206004820152602260248201527f496e766573746d656e7420616d6f756e74206d75737420626520706f73697469604482015261766560f01b6064820152608490fd5b60405162461bcd60e51b815260206004820152601760248201527f46756e64696e6720646561646c696e65207061737365640000000000000000006044820152606490fd5b60405162461bcd60e51b815260206004820152600f60248201526e506f6f6c206e6f742061637469766560881b6044820152606490fd5b60405163d93c066560e01b8152600490fd5b346101df5760403660031901126101df576108a9600435610889611f0d565b908060005260016020526108a4600160406000200154612134565b612288565b005b346101df5760203660031901126101df576004356108c76120ba565b8060005260036020526006604060002001600260ff198254161790557ff904335b6224ded662a2fc2c71e26fe596a5f9622a67726f3c609af2fc5fac58602060405160028152a2005b346101df5760203660031901126101df576004356000526003602052602060406000206109e58154916109d660018060a01b0360018301541691600281015460038201546109b96004840154600585015460ff6006870154169160078701549460088801549661098e600a61098760098c01612014565b9a01612014565b9a6040519e8f9e8f908152015260408d015260608c015260808b015260a08a015260c0890190611eaa565b60e087015261010086015261016080610120870152850190611eb7565b90838203610140850152611eb7565b0390f35b346101df576020806003193601126101df576004356000526004815260406000209081546001600160401b0381116106a45760405190610a2e838260051b0183611e33565b8082528282018094600052836000206000915b838310610aac5760408051878152865181890181905289928201908960005b828110610a6d5784840385f35b855180516001600160a01b0316855280830151858401526040808201519086015260609081015115159085015294810194608090930192600101610a60565b600486600192604051610abe81611e18565b848060a01b03865416815284860154838201526002860154604082015260ff60038701541615156060820152815201920192019190610a41565b346101df5760003660031901126101df57602060405160008152f35b346101df5760803660031901126101df576004356024356001600160401b0381116101df57610b47903690600401611e54565b600082815260036020526040902060018101546001600160a01b03163303610e89576006015460ff16600481101561037c576001610b85911461242f565b8160005260056020526040600020906040519260c084018481106001600160401b038211176106a4576040528352602083015260443560408301526000606083015260643560808301526040518060208101106001600160401b036020830111176106a457602081016040526000815260a08301528054600160401b8110156106a457610c1791600182018155611fbe565b91909161068e578051825560208101519182516001600160401b0381116106a457610c456001830154611fda565b601f8111610e42575b506020601f8211600114610dd45781929394600092610dc9575b50508160011b916000199060031b1c19161760018201555b604082015160028201556003810190606083015190600382101561037c5760a09260059260ff8019835416911617905560808401516004820155019101519081516001600160401b0381116106a457610cd98254611fda565b601f8111610d81575b50602092601f8211600114610d205792819293600092610d15575b5050600019600383901b1c191660019190911b179055005b015190508380610cfd565b601f198216938360005260206000209160005b868110610d695750836001959610610d50575b505050811b019055005b015160001960f88460031b161c19169055838080610d46565b91926020600181928685015181550194019201610d33565b826000526020600020601f830160051c81019160208410610dbf575b601f0160051c01905b818110610db35750610ce2565b60008155600101610da6565b9091508190610d9d565b015190508480610c68565b6001830160005260206000209060005b601f1984168110610e2a5750600193949583601f19811610610e11575b505050811b016001820155610c80565b015160001960f88460031b161c19169055848080610e01565b9091602060018192858a015181550193019101610de4565b600183016000526020600020601f830160051c810160208410610e82575b601f830160051c82018110610e76575050610c4e565b60008155600101610e60565b5080610e60565b60405162461bcd60e51b815260206004820152601360248201527227b7363c90313ab9b4b732b9b99037bbb732b960691b6044820152606490fd5b346101df5760403660031901126101df57610edd611f0d565b600435600052600160205260406000209060018060a01b0316600052602052602060ff604060002054166040519015158152f35b346101df57610f1f36611f5e565b906000526004602052604060002080548210156101df57608091610f4291611fa2565b5060018060a01b038154169060018101549060ff6003600283015492015416916040519384526020840152604083015215156060820152f35b346101df5760003660031901126101df5760206040517fa49807205ce4d355092ef5a8a18f56e8913cf4a201fbe287825b095693c217758152f35b346101df57610fc436611f5e565b90610fcd61240c565b6000818152600360205260409020600101546001600160a01b031633036111ce57806000526006602052611005826040600020611fa2565b5090600382019260ff938481541661119a576002908185015462093a80810180911161032857421161115c57611061600186015430337f0000000000000000000000000000000000000000000000000000000000000000612350565b600160ff19825416179055600184015494836000526003602052604060002093600460205260406000209360005b855481101561111f57808460036110a96110b7948a611fa2565b50015416156110bc576122ff565b61108f565b6106826110e46110da60016110d1858c611fa2565b5001548d61246d565b888b015490612480565b6110ee838a611fa2565b50546001600160a01b03167f00000000000000000000000000000000000000000000000000000000000000006124a0565b5060407f1ad611755e340443b2da9ad4b0ba6431ca00c2f6bbda5b5bdf5c7306f9ffb84a9160018901549082519182526020820152a26001600055005b60405162461bcd60e51b815260206004820152601660248201527514185e5b595b9d081dda5b991bddc8195e1c1a5c995960521b6044820152606490fd5b60405162461bcd60e51b815260206004820152600c60248201526b105b1c9958591e481c185a5960a21b6044820152606490fd5b60405162461bcd60e51b815260206004820152601d60248201527f4f6e6c7920627573696e657373206f776e65722063616e2072657061790000006044820152606490fd5b346101df5761122136611f5e565b90600052600560205260406000209081548110156101df5761124291611fbe565b5080549061125260018201612014565b600282015460ff6003840154169161128c611274600560048701549601612014565b9160405196875260c0602088015260c0870190611eb7565b916040860152600383101561037c5784936109e5936060860152608085015283820360a0850152611eb7565b346101df576112c636611f5e565b906000526006602052604060002080548210156101df576080916112e991611fa2565b5080549060018101549060ff6003600283015492015416916040519384526020840152604083015215156060820152f35b346101df5760003660031901126101df57602060ff600254166040519015158152f35b346101df5760203660031901126101df576004356113596120ba565b8060005260036020526006604060002001600360ff198254161790557ff904335b6224ded662a2fc2c71e26fe596a5f9622a67726f3c609af2fc5fac58602060405160038152a2005b346101df5760003660031901126101df57600a546040516001600160a01b039091168152602090f35b346101df5760403660031901126101df576113e4611f0d565b336001600160a01b03821603611400576108a990600435612288565b60405163334bd91960e11b8152600490fd5b346101df5760003660031901126101df57602060405160c88152f35b346101df576020806003193601126101df576001600160a01b03611450611ef7565b1660005260078152604060002090604051908181845491828152019360005281600020916000905b82821061149b576109e58561148f81890382611e33565b60405191829182611f23565b835486529485019460019384019390910190611478565b346101df5760003660031901126101df5760206040517f966a00e53c991954f9346cf783097be60911b589dd69ff02c7a9fd1c792150298152f35b346101df5760403660031901126101df576108a960043561150c611f0d565b90806000526001602052611527600160406000200154612134565b61220d565b346101df5760403660031901126101df57611545611ef7565b6001600160a01b03166000908152600860205260409020805460243591908210156101df576020916101d191611f74565b346101df5760203660031901126101df5760043560005260016020526020600160406000200154604051908152f35b346101df5760036115d36115b836611f5e565b906115c16120ba565b60005260056020526040600020611fbe565b5001805460ff19166001179055005b346101df5760003660031901126101df576040517f00000000000000000000000000000000000000000000000000000000000000006001600160a01b03168152602090f35b346101df5760003660031901126101df576020600954604051908152f35b346101df576020806003193601126101df576001600160a01b03611667611ef7565b1660005260088152604060002090604051908181845491828152019360005281600020916000905b8282106116a6576109e58561148f81890382611e33565b83548652948501946001938401939091019061168f565b346101df5760203660031901126101df5760606101406040516116df81611dfc565b60008152600060208201526000604082015260008382015260006080820152600060a0820152600060c0820152600060e082015260006101008201528261012082015201526004356000526003602052604060002060405161174081611dfc565b8154815260018201546001600160a01b0316602082015260028201546040820152600382015460608201526004808301546080830152600583015460a0830152600683015460ff16929083101561037c57600a6117cd916109e59460c0850152600781015460e085015260088101546101008501526117c160098201612014565b61012085015201612014565b610140820152604051918291602083528051602084015260018060a01b0360208201511660408401526040810151606084015260608101516080840152608081015160a084015260a081015160c084015261183060c082015160e0850190611eaa565b60e0810151610100840152610100810151610120840152610120810151610140611867610160928383880152610180870190611eb7565b92015190601f198584030190850152611eb7565b346101df5760203660031901126101df5760043563ffffffff60e01b81168091036101df57602090637965db0b60e01b81149081156118c0575b506040519015158152f35b6301ffc9a760e01b149050826118b5565b346101df5760a03660031901126101df576064356001600160401b0381116101df57611901903690600401611e54565b6084356001600160401b0381116101df57611920903690600401611e54565b9060043515611db757602435151580611daa575b15611d65576101f4604435101580611d57575b15611d125760095490611959826122ff565b60095562278d0042014211610328576040519261197584611dfc565b828452336020850152600435604085015260006060850152602435608085015260443560a0850152600060c08501524260e085015262278d00420161010085015281610120850152610140840152816000526003602052604060002092805184556001840160018060a01b036020830151166bffffffffffffffffffffffff60a01b82541617905560408101516002850155606081015160038501556080810151600485015560a081015160058501556006840160c0820151600481101561037c5760ff8019835416911617905560e0810151600785015561010081015160088501556101208101518051906001600160401b0382116106a457611a7c6009870154611fda565b601f8111611ccb575b50602090601f8311600114611c595761014093929160009183611c4e575b50508160011b916000199060031b1c19161760098601555b01519283516001600160401b0381116106a457611adb600a830154611fda565b94601f8611611c03575b602095508590601f8311600114611b9757600a929160009183611b8c575b50508160011b916000199060031b1c1916179101555b3360005260088352611b2f82604060002061231b565b611b383361215a565b50817f0a28c57e091eb4161701253b973f2584fbc406a6d01452625f6d2e74cccb03336040516004358152602435868201526060604082015280611b8133956060830190611eb7565b0390a3604051908152f35b015190508780611b03565b90601f19831691600a8501600052876000209260005b818110611bec5750916001939185600a969410611bd3575b505050811b01910155611b19565b015160001960f88460031b161c19169055878080611bc5565b929389600181928786015181550195019301611bad565b600a83016000526020600020601f830160051c81019660208410611c44575b601f0160051c01955b868110611c385750611ae5565b60008155600101611c2b565b9096508690611c22565b015190508780611aa3565b90601f198316916009880160005260206000209260005b818110611cb3575091600193918561014097969410611c9a575b505050811b016009860155611abb565b015160001960f88460031b161c19169055878080611c8a565b92936020600181928786015181550195019301611c70565b600987016000526020600020601f840160051c810160208510611d0b575b601f830160051c82018110611cff575050611a85565b60008155600101611ce9565b5080611ce9565b60405162461bcd60e51b815260206004820152601b60248201527f496e7465726573742072617465206d75737420626520352d31352500000000006044820152606490fd5b506105dc6044351115611947565b60405162461bcd60e51b815260206004820152601c60248201527f4475726174696f6e206d75737420626520312d3630206d6f6e746873000000006044820152606490fd5b50603c6024351115611934565b60405162461bcd60e51b815260206004820152601e60248201527f54617267657420616d6f756e74206d75737420626520706f73697469766500006044820152606490fd5b61016081019081106001600160401b038211176106a457604052565b608081019081106001600160401b038211176106a457604052565b90601f801991011681019081106001600160401b038211176106a457604052565b81601f820112156101df578035906001600160401b0382116106a45760405192611e88601f8401601f191660200185611e33565b828452602083830101116101df57816000926020809301838601378301015290565b90600482101561037c5752565b919082519283825260005b848110611ee3575050826000602080949584010152601f8019910116010190565b602081830181015184830182015201611ec2565b600435906001600160a01b03821682036101df57565b602435906001600160a01b03821682036101df57565b6020908160408183019282815285518094520193019160005b828110611f4a575050505090565b835185529381019392810192600101611f3c565b60409060031901126101df576004359060243590565b8054821015611f8c5760005260206000200190600090565b634e487b7160e01b600052603260045260246000fd5b8054821015611f8c5760005260206000209060021b0190600090565b8054821015611f8c576000526006602060002091020190600090565b90600182811c9216801561200a575b6020831014611ff457565b634e487b7160e01b600052602260045260246000fd5b91607f1691611fe9565b906040519182600082549261202884611fda565b9081845260019485811690816000146120975750600114612054575b505061205292500383611e33565b565b9093915060005260209081600020936000915b81831061207f57505061205293508201013880612044565b85548884018501529485019487945091830191612067565b91505061205294506020925060ff191682840152151560051b8201013880612044565b3360009081527f50efbde2d46c37e9785f1791697f77e94bb7b701e19f1930a668820722d3769460205260409020547fa49807205ce4d355092ef5a8a18f56e8913cf4a201fbe287825b095693c217759060ff16156121165750565b6044906040519063e2517d3f60e01b82523360048301526024820152fd5b80600052600160205260406000203360005260205260ff60406000205416156121165750565b6001600160a01b031660008181527f249a641c682c1e9c5dc7dbab36c26f96131373e43e5b4319a60d61bcefc6b16260205260408120549091907f966a00e53c991954f9346cf783097be60911b589dd69ff02c7a9fd1c792150299060ff166122085780835260016020526040832082845260205260408320600160ff198254161790557f2f8788117e7eff1d82e926ec794901d17c78024a50270940304540a733656f0d339380a4600190565b505090565b906000918083526001602052604083209160018060a01b03169182845260205260ff604084205416156000146122085780835260016020526040832082845260205260408320600160ff198254161790557f2f8788117e7eff1d82e926ec794901d17c78024a50270940304540a733656f0d339380a4600190565b906000918083526001602052604083209160018060a01b03169182845260205260ff604084205416600014612208578083526001602052604083208284526020526040832060ff1981541690557ff6391f5c32d9c69d2a47ea670b442974b53935d1edc7fd64eb21e047a839171b339380a4600190565b60001981146103285760010190565b9190820180921161032857565b8054600160401b8110156106a45761233891600182018155611f74565b819291549060031b91821b91600019901b1916179055565b6040516323b872dd60e01b60208201526001600160a01b03928316602482015292909116604483015260648083019390935291815260a08101918183106001600160401b038411176106a457612052926040525b906000602091828151910182855af115612400576000513d6123f757506001600160a01b0381163b155b6123d55750565b604051635274afe760e01b81526001600160a01b039091166004820152602490fd5b600114156123ce565b6040513d6000823e3d90fd5b60026000541461241d576002600055565b604051633ee5aeb560e01b8152600490fd5b1561243657565b60405162461bcd60e51b815260206004820152600f60248201526e141bdbdb081b9bdd08199d5b991959608a1b6044820152606490fd5b8181029291811591840414171561032857565b811561248a570490565b634e487b7160e01b600052601260045260246000fd5b60405163a9059cbb60e01b60208201526001600160a01b039092166024830152604480830193909352918152612052916124d982611e18565b6123a456fea2646970667358221220d8da36f67b90544fdb76b9bc20cf2664c38cb4473da5ed875d52d501d23e282c64736f6c634300081400332f8788117e7eff1d82e926ec794901d17c78024a50270940304540a733656f0d",
  "linkReferences": {},
  "deployedLinkReferences": {}
}