{
  "_format": "hh-sol-artifact-1",
  "contractName": "MockERC20",
  "sourceName": "contracts/MockERC20.sol",
  "abi": [
    {
      "inputs": [
        {
          "internalType": "string",
          "name": "_name",
          "type": "string"
        },
        {
          "internalType": "string",
          "name": "_symbol",
          "type": "string"
        },
        {
          "internalType": "uint8",
          "name": "_decimals",
          "type": "uint8"
        }
      ],
      "stateMutability": "nonpayable",
      "type": "constructor"
    },
    {
      "anonymous": false,
      "inputs": [
        {
          "indexed": true,
          "internalType": "address",
          "name": "owner",
          "type": "address"
        },
        {
          "indexed": true,
          "internalType": "address",
          "name": "spender",
          "type": "address"
        },
        {
          "indexed": false,
          "internalType": "uint256",
          "name": "value",
          "type": "uint256"
        }
      ],
      "name": "Approval",
      "type": "event"
    },
    {
      "anonymous": false,
      "inputs": [
        {
          "indexed": true,
          "internalType": "address",
          "name": "from",
          "type": "address"
        },
        {
          "indexed": true,
          "internalType": "address",
          "name": "to",
          "type": "address"
        },
        {
          "indexed": false,
          "internalType": "uint256",
          "name": "value",
          "type": "uint256"
        }
      ],
      "name": "Transfer",
      "type": "event"
    },
    {
      "inputs": [
        {
          "internalType": "address",
          "name": "",
          "type": "address"
        },
        {
          "internalType": "address",
          "name": "",
          "type": "address"
        }
      ],
      "name": "allowance",
      "outputs": [
        {
          "internalType": "uint256",
          "name": "",
          "type": "uint256"
        }
      ],
      "stateMutability": "view",
      "type": "function"
    },
    {
      "inputs": [
        {
          "internalType": "address",
          "name": "spender",
          "type": "address"
        },
        {
          "internalType": "uint256",
          "name": "amount",
          "type": "uint256"
        }
      ],
      "name": "approve",
      "outputs": [
        {
          "internalType": "bool",
          "name": "",
          "type": "bool"
        }
      ],
      "stateMutability": "nonpayable",
      "type": "function"
    },
    {
      "inputs": [
        {
          "internalType": "address",
          "name": "",
          "type": "address"
        }
      ],
      "name": "balanceOf",
      "outputs": [
        {
          "internalType": "uint256",
          "name": "",
          "type": "uint256"
        }
      ],
      "stateMutability": "view",
      "type": "function"
    },
    {
      "inputs": [],
      "name": "decimals",
      "outputs": [
        {
          "internalType": "uint8",
          "name": "",
          "type": "uint8"
        }
      ],
      "stateMutability": "view",
      "type": "function"
    },
    {
      "inputs": [
        {
          "internalType": "address",
          "name": "to",
          "type": "address"
        },
        {
          "internalType": "uint256",
          "name": "amount",
          "type": "uint256"
        }
      ],
      "name": "mint",
      "outputs": [],
      "stateMutability": "nonpayable",
      "type": "function"
    },
    {
      "inputs": [],
      "name": "name",
      "outputs": [
        {
          "internalType": "string",
          "name": "",
          "type": "string"
        }
      ],
      "stateMutability": "view",
      "type": "function"
    },
    {
      "inputs": [],
      "name": "symbol",
      "outputs": [
        {
          "internalType": "string",
          "name": "",
          "type": "string"
        }
      ],
      "stateMutability": "view",
      "type": "function"
    },
    {
      "inputs": [],
      "name": "totalSupply",
      "outputs": [
        {
          "internalType": "uint256",
          "name": "",
          "type": "uint256"
        }
      ],
      "stateMutability": "view",
      "type": "function"
    },
    {
      "inputs": [
        {
          "internalType": "address",
          "name": "to",
          "type": "address"
        },
        {
          "internalType": "uint256",
          "name": "amount",
          "type": "uint256"
        }
      ],
      "name": "transfer",
      "outputs": [
        {
          "internalType": "bool",
          "name": "",
          "type": "bool"
        }
      ],
      "stateMutability": "nonpayable",
      "type": "function"
    },
    {
      "inputs": [
        {
          "internalType": "address",
          "name": "from",
          "type": "address"
        },
        {
          "internalType": "address",
          "name": "to",
          "type": "address"
        },
        {
          "internalType": "uint256",
          "name": "amount",
          "type": "uint256"
        }
      ],
      "name": "transferFrom",
      "outputs": [
        {
          "internalType": "bool",
          "name": "",
          "type": "bool"
        }
      ],
      "stateMutability": "nonpayable",
      "type": "function"
    }
  ],
  "bytecode": "0x6080604052346200033a5762000af6803803806200001d816200033f565b9283398101906060818303126200033a5780516001600160401b03908181116200033a57836200004f91840162000365565b90602093848401518281116200033a576040916200006f91860162000365565b9301519260ff84168094036200033a57825190828211620003245760008054926001958685811c9516801562000319575b8986101462000305578190601f95868111620002b2575b5089908683116001146200024e57849262000242575b5050600019600383901b1c191690861b1781555b81519384116200022e5784548581811c9116801562000223575b888210146200020f57838111620001c7575b5086928411600114620001615783949596509262000155575b5050600019600383901b1c191690821b1790555b60ff19600254161760025560405161071e9081620003d88239f35b01519050388062000126565b9190601f1984169685845280842093905b888210620001af575050838596971062000195575b505050811b0190556200013a565b015160001960f88460031b161c1916905538808062000187565b80878596829496860151815501950193019062000172565b8582528782208480870160051c8201928a881062000205575b0160051c019086905b828110620001f95750506200010d565b838155018690620001e9565b92508192620001e0565b634e487b7160e01b82526022600452602482fd5b90607f1690620000fb565b634e487b7160e01b81526041600452602490fd5b015190503880620000cd565b8480528a85208994509190601f198416865b8d8282106200029b575050841162000281575b505050811b018155620000e1565b015160001960f88460031b161c1916905538808062000273565b8385015186558c9790950194938401930162000260565b9091508380528984208680850160051c8201928c8610620002fb575b918a91869594930160051c01915b828110620002ec575050620000b7565b8681558594508a9101620002dc565b92508192620002ce565b634e487b7160e01b83526022600452602483fd5b94607f1694620000a0565b634e487b7160e01b600052604160045260246000fd5b600080fd5b6040519190601f01601f191682016001600160401b038111838210176200032457604052565b919080601f840112156200033a5782516001600160401b03811162000324576020906200039b601f8201601f191683016200033f565b928184528282870101116200033a5760005b818110620003c357508260009394955001015290565b8581018301518482018401528201620003ad56fe608060408181526004918236101561001657600080fd5b600092833560e01c91826306fdde031461052557508163095ea7b3146104b457816318160ddd1461049557816323b872dd14610377578163313ce567146103555783826340c10f19146102d85750816370a08231146102a257816395d89b4114610182578163a9059cbb146100e0575063dd62ed3e1461009557600080fd5b346100dc57806003193601126100dc57806020926100b1610644565b6100b961065f565b6001600160a01b0391821683526005865283832091168252845220549051908152f35b5080fd5b90503461017e578160031936011261017e57602092826100fe610644565b916024359233825284875261011884848420541015610698565b33825284875282822061012c8582546106db565b90556001600160a01b031680825293865220805461014b908390610675565b905582519081527fddf252ad1be2c89b69c2b068fc378daa952ba7f163c4a11628f55a4df523b3ef843392a35160018152f35b8280fd5b8383346100dc57816003193601126100dc5780519082600180549081811c90808316928315610298575b6020938484108114610285578388529081156102695750600114610214575b505050829003601f01601f191682019267ffffffffffffffff84118385101761020157508291826101fd9252826105fb565b0390f35b634e487b7160e01b815260418552602490fd5b8087529192508591837fb10e2d527612073b26eecdfd717e6a320cf44b4afac2b0732d9fcbe2b7fa0cf65b83851061025557505050508301018580806101cb565b80548886018301529301928490820161023f565b60ff1916878501525050151560051b84010190508580806101cb565b634e487b7160e01b895260228a52602489fd5b91607f16916101ac565b90503461017e57602036600319011261017e5760209282916001600160a01b036102ca610644565b168252845220549051908152f35b915091346100dc57806003193601126100dc5760207fddf252ad1be2c89b69c2b068fc378daa952ba7f163c4a11628f55a4df523b3ef91610317610644565b6001600160a01b0316808552948252808420805460243592919061033c908490610675565b905561034a82600354610675565b60035551908152a380f35b5050346100dc57816003193601126100dc5760209060ff600254169051908152f35b90503461017e57606036600319011261017e57610392610644565b61039a61065f565b936044359060018060a01b03809316928382526020968588526103c284888520541015610698565b84835260058852868320338452885283878420541061045957827fddf252ad1be2c89b69c2b068fc378daa952ba7f163c4a11628f55a4df523b3ef94928892878b96528886528383206104168682546106db565b90551696878252845281812061042d848254610675565b90558581526005845281812033825284522061044a8282546106db565b90558551908152a35160018152f35b865162461bcd60e51b81528087018990526016602482015275496e73756666696369656e7420616c6c6f77616e636560501b6044820152606490fd5b5050346100dc57816003193601126100dc576020906003549051908152f35b5050346100dc57806003193601126100dc57602091816104d2610644565b91602435918291338152600587528181209460018060a01b0316948582528752205582519081527f8c5be1e5ebec7d5bd14f71427d1e84f3dd0314c0f7b2291e5b200ac8c7c3b925843392a35160018152f35b8490843461017e578260031936011261017e57828354600181811c908083169283156105f1575b602093848410811461028557838852908115610269575060011461059c57505050829003601f01601f191682019267ffffffffffffffff84118385101761020157508291826101fd9252826105fb565b8680529192508591837f290decd9548b62a8d60345a988386fc84ba6bc95484008f6362f93160ef3e5635b8385106105dd57505050508301018580806101cb565b8054888601830152930192849082016105c7565b91607f169161054c565b6020808252825181830181905290939260005b82811061063057505060409293506000838284010152601f8019910116010190565b81810186015184820160400152850161060e565b600435906001600160a01b038216820361065a57565b600080fd5b602435906001600160a01b038216820361065a57565b9190820180921161068257565b634e487b7160e01b600052601160045260246000fd5b1561069f57565b60405162461bcd60e51b8152602060048201526014602482015273496e73756666696369656e742062616c616e636560601b6044820152606490fd5b919082039182116106825756fea264697066735822122006b0f69888bca149da48633c0545df92f8c1d9d69251e8f08ae53a6d35ea24b264736f6c63430008140033",
  "linkReferences": {},
  "deployedLinkReferences": {}
}