{
  "_format": "hh-sol-artifact-1",
  "contractName": "BusinessRegistry",
  "sourceName": "contracts/BusinessRegistry.sol",
  "abi": [
    {
      "inputs": [],
      "stateMutability": "nonpayable",
      "type": "constructor"
    },
    {
      "inputs": [],
      "name": "AccessControlBadConfirmation",
      "type": "error"
    },
    {
      "inputs": [
        {
          "internalType": "address",
          "name": "account",
          "type": "address"
        },
        {
          "internalType": "bytes32",
          "name": "neededRole",
          "type": "bytes32"
        }
      ],
      "name": "AccessControlUnauthorizedAccount",
      "type": "error"
    },
    {
      "inputs": [],
      "name": "EnforcedPause",
      "type": "error"
    },
    {
      "inputs": [],
      "name": "ExpectedPause",
      "type": "error"
    },
    {
      "anonymous": false,
      "inputs": [
        {
          "indexed": true,
          "internalType": "uint256",
          "name": "businessId",
          "type": "uint256"
        },
        {
          "indexed": false,
          "internalType": "string",
          "name": "field",
          "type": "string"
        },
        {
          "indexed": false,
          "internalType": "string",
          "name": "newValue",
          "type": "string"
        }
      ],
      "name": "BusinessDataUpdated",
      "type": "event"
    },
    {
      "anonymous": false,
      "inputs": [
        {
          "indexed": true,
          "internalType": "uint256",
          "name": "businessId",
          "type": "uint256"
        },
        {
          "indexed": true,
          "internalType": "address",
          "name": "owner",
          "type": "address"
        },
        {
          "indexed": false,
          "internalType": "string",
          "name": "name",
          "type": "string"
        },
        {
          "indexed": false,
          "internalType": "string",
          "name": "businessType",
          "type": "string"
        }
      ],
      "name": "BusinessRegistered",
      "type": "event"
    },
    {
      "anonymous": false,
      "inputs": [
        {
          "indexed": true,
          "internalType": "uint256",
          "name": "businessId",
          "type": "uint256"
        },
        {
          "indexed": true,
          "internalType": "address",
          "name": "verifier",
          "type": "address"
        },
        {
          "indexed": false,
          "internalType": "string",
          "name": "reason",
          "type": "string"
        }
      ],
      "name": "BusinessRejected",
      "type": "event"
    },
    {
      "anonymous": false,
      "inputs": [
        {
          "indexed": true,
          "internalType": "uint256",
          "name": "businessId",
          "type": "uint256"
        },
        {
          "indexed": false,
          "internalType": "enum BusinessRegistry.BusinessStatus",
          "name": "oldStatus",
          "type": "uint8"
        },
        {
          "indexed": false,
          "internalType": "enum BusinessRegistry.BusinessStatus",
          "name": "newStatus",
          "type": "uint8"
        }
      ],
      "name": "BusinessStatusUpdated",
      "type": "event"
    },
    {
      "anonymous": false,
      "inputs": [
        {
          "indexed": true,
          "internalType": "uint256",
          "name": "businessId",
          "type": "uint256"
        },
        {
          "indexed": true,
          "internalType": "address",
          "name": "verifier",
          "type": "address"
        },
        {
          "indexed": false,
          "internalType": "uint256",
          "name": "timestamp",
          "type": "uint256"
        }
      ],
      "name": "BusinessVerified",
      "type": "event"
    },
    {
      "anonymous": false,
      "inputs": [
        {
          "indexed": false,
          "internalType": "address",
          "name": "account",
          "type": "address"
        }
      ],
      "name": "Paused",
      "type": "event"
    },
    {
      "anonymous": false,
      "inputs": [
        {
          "indexed": true,
          "internalType": "bytes32",
          "name": "role",
          "type": "bytes32"
        },
        {
          "indexed": true,
          "internalType": "bytes32",
          "name": "previousAdminRole",
          "type": "bytes32"
        },
        {
          "indexed": true,
          "internalType": "bytes32",
          "name": "newAdminRole",
          "type": "bytes32"
        }
      ],
      "name": "RoleAdminChanged",
      "type": "event"
    },
    {
      "anonymous": false,
      "inputs": [
        {
          "indexed": true,
          "internalType": "bytes32",
          "name": "role",
          "type": "bytes32"
        },
        {
          "indexed": true,
          "internalType": "address",
          "name": "account",
          "type": "address"
        },
        {
          "indexed": true,
          "internalType": "address",
          "name": "sender",
          "type": "address"
        }
      ],
      "name": "RoleGranted",
      "type": "event"
    },
    {
      "anonymous": false,
      "inputs": [
        {
          "indexed": true,
          "internalType": "bytes32",
          "name": "role",
          "type": "bytes32"
        },
        {
          "indexed": true,
          "internalType": "address",
          "name": "account",
          "type": "address"
        },
        {
          "indexed": true,
          "internalType": "address",
          "name": "sender",
          "type": "address"
        }
      ],
      "name": "RoleRevoked",
      "type": "event"
    },
    {
      "anonymous": false,
      "inputs": [
        {
          "indexed": false,
          "internalType": "address",
          "name": "account",
          "type": "address"
        }
      ],
      "name": "Unpaused",
      "type": "event"
    },
    {
      "inputs": [],
      "name": "ADMIN_ROLE",
      "outputs": [
        {
          "internalType": "bytes32",
          "name": "",
          "type": "bytes32"
        }
      ],
      "stateMutability": "view",
      "type": "function"
    },
    {
      "inputs": [],
      "name": "DEFAULT_ADMIN_ROLE",
      "outputs": [
        {
          "internalType": "bytes32",
          "name": "",
          "type": "bytes32"
        }
      ],
      "stateMutability": "view",
      "type": "function"
    },
    {
      "inputs": [],
      "name": "VERIFIER_ROLE",
      "outputs": [
        {
          "internalType": "bytes32",
          "name": "",
          "type": "bytes32"
        }
      ],
      "stateMutability": "view",
      "type": "function"
    },
    {
      "inputs": [
        {
          "internalType": "uint256",
          "name": "_businessId",
          "type": "uint256"
        },
        {
          "internalType": "string",
          "name": "_category",
          "type": "string"
        }
      ],
      "name": "addBusinessCategory",
      "outputs": [],
      "stateMutability": "nonpayable",
      "type": "function"
    },
    {
      "inputs": [
        {
          "internalType": "string",
          "name": "",
          "type": "string"
        }
      ],
      "name": "businessNames",
      "outputs": [
        {
          "internalType": "bool",
          "name": "",
          "type": "bool"
        }
      ],
      "stateMutability": "view",
      "type": "function"
    },
    {
      "inputs": [
        {
          "internalType": "uint256",
          "name": "",
          "type": "uint256"
        }
      ],
      "name": "businesses",
      "outputs": [
        {
          "internalType": "uint256",
          "name": "id",
          "type": "uint256"
        },
        {
          "internalType": "address",
          "name": "owner",
          "type": "address"
        },
        {
          "internalType": "string",
          "name": "name",
          "type": "string"
        },
        {
          "internalType": "string",
          "name": "businessType",
          "type": "string"
        },
        {
          "internalType": "string",
          "name": "location",
          "type": "string"
        },
        {
          "internalType": "string",
          "name": "documentsHash",
          "type": "string"
        },
        {
          "internalType": "enum BusinessRegistry.BusinessStatus",
          "name": "status",
          "type": "uint8"
        },
        {
          "internalType": "uint256",
          "name": "registrationDate",
          "type": "uint256"
        },
        {
          "internalType": "uint256",
          "name": "verificationDate",
          "type": "uint256"
        },
        {
          "internalType": "string",
          "name": "rejectionReason",
          "type": "string"
        },
        {
          "internalType": "uint256",
          "name": "monthlyRevenue",
          "type": "uint256"
        },
        {
          "internalType": "uint256",
          "name": "yearsInOperation",
          "type": "uint256"
        },
        {
          "internalType": "uint256",
          "name": "employeeCount",
          "type": "uint256"
        }
      ],
      "stateMutability": "view",
      "type": "function"
    },
    {
      "inputs": [
        {
          "internalType": "uint256",
          "name": "_businessId",
          "type": "uint256"
        },
        {
          "internalType": "string",
          "name": "_key",
          "type": "string"
        }
      ],
      "name": "getAdditionalData",
      "outputs": [
        {
          "internalType": "string",
          "name": "",
          "type": "string"
        }
      ],
      "stateMutability": "view",
      "type": "function"
    },
    {
      "inputs": [
        {
          "internalType": "uint256",
          "name": "_businessId",
          "type": "uint256"
        }
      ],
      "name": "getBusiness",
      "outputs": [
        {
          "components": [
            {
              "internalType": "uint256",
              "name": "id",
              "type": "uint256"
            },
            {
              "internalType": "address",
              "name": "owner",
              "type": "address"
            },
            {
              "internalType": "string",
              "name": "name",
              "type": "string"
            },
            {
              "internalType": "string",
              "name": "businessType",
              "type": "string"
            },
            {
              "internalType": "string",
              "name": "location",
              "type": "string"
            },
            {
              "internalType": "string",
              "name": "documentsHash",
              "type": "string"
            },
            {
              "internalType": "enum BusinessRegistry.BusinessStatus",
              "name": "status",
              "type": "uint8"
            },
            {
              "internalType": "uint256",
              "name": "registrationDate",
              "type": "uint256"
            },
            {
              "internalType": "uint256",
              "name": "verificationDate",
              "type": "uint256"
            },
            {
              "internalType": "string",
              "name": "rejectionReason",
              "type": "string"
            },
            {
              "internalType": "uint256",
              "name": "monthlyRevenue",
              "type": "uint256"
            },
            {
              "internalType": "uint256",
              "name": "yearsInOperation",
              "type": "uint256"
            },
            {
              "internalType": "uint256",
              "name": "employeeCount",
              "type": "uint256"
            }
          ],
          "internalType": "struct BusinessRegistry.Business",
          "name": "",
          "type": "tuple"
        }
      ],
      "stateMutability": "view",
      "type": "function"
    },
    {
      "inputs": [
        {
          "internalType": "uint256",
          "name": "_businessId",
          "type": "uint256"
        }
      ],
      "name": "getBusinessMetadata",
      "outputs": [
        {
          "internalType": "string",
          "name": "description",
          "type": "string"
        },
        {
          "internalType": "string",
          "name": "website",
          "type": "string"
        },
        {
          "internalType": "string",
          "name": "email",
          "type": "string"
        },
        {
          "internalType": "string",
          "name": "phone",
          "type": "string"
        },
        {
          "internalType": "string[]",
          "name": "categories",
          "type": "string[]"
        }
      ],
      "stateMutability": "view",
      "type": "function"
    },
    {
      "inputs": [],
      "name": "getBusinessStats",
      "outputs": [
        {
          "internalType": "uint256",
          "name": "total",
          "type": "uint256"
        },
        {
          "internalType": "uint256",
          "name": "verified",
          "type": "uint256"
        },
        {
          "internalType": "uint256",
          "name": "pending",
          "type": "uint256"
        },
        {
          "internalType": "uint256",
          "name": "rejected",
          "type": "uint256"
        }
      ],
      "stateMutability": "view",
      "type": "function"
    },
    {
      "inputs": [
        {
          "internalType": "address",
          "name": "_owner",
          "type": "address"
        }
      ],
      "name": "getOwnerBusinesses",
      "outputs": [
        {
          "internalType": "uint256[]",
          "name": "",
          "type": "uint256[]"
        }
      ],
      "stateMutability": "view",
      "type": "function"
    },
    {
      "inputs": [
        {
          "internalType": "bytes32",
          "name": "role",
          "type": "bytes32"
        }
      ],
      "name": "getRoleAdmin",
      "outputs": [
        {
          "internalType": "bytes32",
          "name": "",
          "type": "bytes32"
        }
      ],
      "stateMutability": "view",
      "type": "function"
    },
    {
      "inputs": [
        {
          "internalType": "bytes32",
          "name": "role",
          "type": "bytes32"
        },
        {
          "internalType": "address",
          "name": "account",
          "type": "address"
        }
      ],
      "name": "grantRole",
      "outputs": [],
      "stateMutability": "nonpayable",
      "type": "function"
    },
    {
      "inputs": [
        {
          "internalType": "bytes32",
          "name": "role",
          "type": "bytes32"
        },
        {
          "internalType": "address",
          "name": "account",
          "type": "address"
        }
      ],
      "name": "hasRole",
      "outputs": [
        {
          "internalType": "bool",
          "name": "",
          "type": "bool"
        }
      ],
      "stateMutability": "view",
      "type": "function"
    },
    {
      "inputs": [
        {
          "internalType": "uint256",
          "name": "_businessId",
          "type": "uint256"
        }
      ],
      "name": "isBusinessVerified",
      "outputs": [
        {
          "internalType": "bool",
          "name": "",
          "type": "bool"
        }
      ],
      "stateMutability": "view",
      "type": "function"
    },
    {
      "inputs": [],
      "name": "nextBusinessId",
      "outputs": [
        {
          "internalType": "uint256",
          "name": "",
          "type": "uint256"
        }
      ],
      "stateMutability": "view",
      "type": "function"
    },
    {
      "inputs": [
        {
          "internalType": "address",
          "name": "",
          "type": "address"
        },
        {
          "internalType": "uint256",
          "name": "",
          "type": "uint256"
        }
      ],
      "name": "ownerBusinesses",
      "outputs": [
        {
          "internalType": "uint256",
          "name": "",
          "type": "uint256"
        }
      ],
      "stateMutability": "view",
      "type": "function"
    },
    {
      "inputs": [],
      "name": "pause",
      "outputs": [],
      "stateMutability": "nonpayable",
      "type": "function"
    },
    {
      "inputs": [],
      "name": "paused",
      "outputs": [
        {
          "internalType": "bool",
          "name": "",
          "type": "bool"
        }
      ],
      "stateMutability": "view",
      "type": "function"
    },
    {
      "inputs": [
        {
          "internalType": "string",
          "name": "_name",
          "type": "string"
        },
        {
          "internalType": "string",
          "name": "_businessType",
          "type": "string"
        },
        {
          "internalType": "string",
          "name": "_location",
          "type": "string"
        },
        {
          "internalType": "string",
          "name": "_documentsHash",
          "type": "string"
        },
        {
          "internalType": "uint256",
          "name": "_monthlyRevenue",
          "type": "uint256"
        },
        {
          "internalType": "uint256",
          "name": "_yearsInOperation",
          "type": "uint256"
        },
        {
          "internalType": "uint256",
          "name": "_employeeCount",
          "type": "uint256"
        },
        {
          "internalType": "string",
          "name": "_description",
          "type": "string"
        },
        {
          "internalType": "string",
          "name": "_website",
          "type": "string"
        },
        {
          "internalType": "string",
          "name": "_email",
          "type": "string"
        },
        {
          "internalType": "string",
          "name": "_phone",
          "type": "string"
        }
      ],
      "name": "registerBusiness",
      "outputs": [
        {
          "internalType": "uint256",
          "name": "",
          "type": "uint256"
        }
      ],
      "stateMutability": "nonpayable",
      "type": "function"
    },
    {
      "inputs": [
        {
          "internalType": "uint256",
          "name": "_businessId",
          "type": "uint256"
        },
        {
          "internalType": "string",
          "name": "_reason",
          "type": "string"
        }
      ],
      "name": "rejectBusiness",
      "outputs": [],
      "stateMutability": "nonpayable",
      "type": "function"
    },
    {
      "inputs": [
        {
          "internalType": "bytes32",
          "name": "role",
          "type": "bytes32"
        },
        {
          "internalType": "address",
          "name": "callerConfirmation",
          "type": "address"
        }
      ],
      "name": "renounceRole",
      "outputs": [],
      "stateMutability": "nonpayable",
      "type": "function"
    },
    {
      "inputs": [
        {
          "internalType": "bytes32",
          "name": "role",
          "type": "bytes32"
        },
        {
          "internalType": "address",
          "name": "account",
          "type": "address"
        }
      ],
      "name": "revokeRole",
      "outputs": [],
      "stateMutability": "nonpayable",
      "type": "function"
    },
    {
      "inputs": [
        {
          "internalType": "uint256",
          "name": "_businessId",
          "type": "uint256"
        },
        {
          "internalType": "string",
          "name": "_key",
          "type": "string"
        },
        {
          "internalType": "string",
          "name": "_value",
          "type": "string"
        }
      ],
      "name": "setAdditionalData",
      "outputs": [],
      "stateMutability": "nonpayable",
      "type": "function"
    },
    {
      "inputs": [
        {
          "internalType": "bytes4",
          "name": "interfaceId",
          "type": "bytes4"
        }
      ],
      "name": "supportsInterface",
      "outputs": [
        {
          "internalType": "bool",
          "name": "",
          "type": "bool"
        }
      ],
      "stateMutability": "view",
      "type": "function"
    },
    {
      "inputs": [],
      "name": "totalBusinesses",
      "outputs": [
        {
          "internalType": "uint256",
          "name": "",
          "type": "uint256"
        }
      ],
      "stateMutability": "view",
      "type": "function"
    },
    {
      "inputs": [],
      "name": "unpause",
      "outputs": [],
      "stateMutability": "nonpayable",
      "type": "function"
    },
    {
      "inputs": [
        {
          "internalType": "uint256",
          "name": "_businessId",
          "type": "uint256"
        },
        {
          "internalType": "string",
          "name": "_newDocumentsHash",
          "type": "string"
        }
      ],
      "name": "updateBusinessDocuments",
      "outputs": [],
      "stateMutability": "nonpayable",
      "type": "function"
    },
    {
      "inputs": [
        {
          "internalType": "uint256",
          "name": "_businessId",
          "type": "uint256"
        },
        {
          "internalType": "string",
          "name": "_description",
          "type": "string"
        },
        {
          "internalType": "string",
          "name": "_website",
          "type": "string"
        },
        {
          "internalType": "string",
          "name": "_email",
          "type": "string"
        },
        {
          "internalType": "string",
          "name": "_phone",
          "type": "string"
        }
      ],
      "name": "updateBusinessMetadata",
      "outputs": [],
      "stateMutability": "nonpayable",
      "type": "function"
    },
    {
      "inputs": [
        {
          "internalType": "uint256",
          "name": "_businessId",
          "type": "uint256"
        },
        {
          "internalType": "enum BusinessRegistry.BusinessStatus",
          "name": "_newStatus",
          "type": "uint8"
        }
      ],
      "name": "updateBusinessStatus",
      "outputs": [],
      "stateMutability": "nonpayable",
      "type": "function"
    },
    {
      "inputs": [],
      "name": "verifiedBusinesses",
      "outputs": [
        {
          "internalType": "uint256",
          "name": "",
          "type": "uint256"
        }
      ],
      "stateMutability": "view",
      "type": "function"
    },
    {
      "inputs": [
        {
          "internalType": "uint256",
          "name": "_businessId",
          "type": "uint256"
        }
      ],
      "name": "verifyBusiness",
      "outputs": [],
      "stateMutability": "nonpayable",
      "type": "function"
    }
  ],
  "bytecode": "0x608060405234620000435760016006556200001a3362000048565b506200002633620000c8565b5062000032336200016a565b506040516120199081620002088239f35b600080fd5b6001600160a01b031660008181527fad3228b676f7d3cd4284a5443f17f1962b36e491b30a40b2405849e597ba5fb5602052604081205490919060ff16620000c457818052816020526040822081835260205260408220600160ff198254161790553391600080516020620022218339815191528180a4600190565b5090565b6001600160a01b031660008181527f7d7ffb7a348e1c6a02869081a26547b49160dd3df72d1d75a570eb9b698292ec60205260408120549091907fa49807205ce4d355092ef5a8a18f56e8913cf4a201fbe287825b095693c217759060ff166200016557808352826020526040832082845260205260408320600160ff1982541617905560008051602062002221833981519152339380a4600190565b505090565b6001600160a01b031660008181527f1da0b5176dfe03406af5a6eed66ca01dda9b45ac4da671c3fa379cb93717ef8160205260408120549091907f0ce23c3e399818cfee81a7ab0880f714e53d7672b08df0fa62f2843416e1ea099060ff166200016557808352826020526040832082845260205260408320600160ff1982541617905560008051602062002221833981519152339380a460019056fe608080604052600436101561001357600080fd5b60003560e01c90816301ffc9a7146118285750806318dd2a12146117e9578063248a9ca3146117ba5780632f2ff15d1461177b57806336568abe146117345780633b354cca146116155780633e3398db1461156a5780633f4ba83a1461150057806343b127b41461143057806344e97a1c1461137c5780634d7439cb1461112b5780635c975abb146111085780635ffddd0d14610fdf57806360d2043114610fc157806362f20a0514610e445780636e42e33114610de057806375b238fc14610da5578063794829c514610c965780638456cb5914610c3d57806391d1485414610bf057806399dada8f14610b985780639ed042f614610a88578063a217fddf14610a6c578063abc8a2f514610990578063b984c6ec14610861578063c14b8d7b14610800578063c6b197ec146107e2578063d103d883146102fc578063d547741f146102bb578063e179aef41461029d578063e7705db6146102625763fab6a7ef1461017f57600080fd5b3461025d57600036600319011261025d5760008060019160069283545b8082106101c5576080848460075491600854604051938452602084015260408301526060820152f35b9092836000526002602081815260ff9081886040600020015416600481101561024757610207575050506101fb61020191611d30565b93611d30565b9061019c565b8290876000989598525286604060002001541660048110156102475714610232575b61020190611d30565b9161023f61020191611d30565b929050610229565b634e487b7160e01b600052602160045260246000fd5b600080fd5b3461025d57600036600319011261025d5760206040517f0ce23c3e399818cfee81a7ab0880f714e53d7672b08df0fa62f2843416e1ea098152f35b3461025d57600036600319011261025d576020600654604051908152f35b3461025d57604036600319011261025d576102fa6004356102da61187b565b908060005260006020526102f5600160406000200154611bcb565b611c6f565b005b3461025d5761016036600319011261025d576004356001600160401b03811161025d5761032d9036906004016118e4565b6024356001600160401b03811161025d5761034c9036906004016118e4565b906044356001600160401b03811161025d5761036c9036906004016118e4565b906064356001600160401b03811161025d5761038c9036906004016118e4565b9160e4356001600160401b03811161025d576103ac9036906004016118e4565b90610104356001600160401b03811161025d576103cd9036906004016118e4565b91610124356001600160401b03811161025d576103ee9036906004016118e4565b90610144356001600160401b03811161025d5761040f9036906004016118e4565b92610418611e97565b8551156107a4578751156107665780511561072d5761043987511515611ce4565b60ff604051602081816104528b8381519384920161196c565b8101600581520301902054166106e8576006549661046f88611d30565b6006556040519161047f836118a7565b888352336020840152876040840152896060840152608083015260a0820152600060c08201524260e082015260006101008201526040518060208101106001600160401b036020830111176106d257602081016040526000815261012082015260843561014082015260a43561016082015260c435610180820152866000526002602052604060002092815184556001840160018060a01b036020840151166bffffffffffffffffffffffff60a01b825416179055610545604083015160028601611d56565b610556606083015160038601611d56565b610567608083015160048601611d56565b61057860a083015160058601611d56565b60c08201516004811015610247576106179685600c610180610611966105a661060896600660039c01611e5a565b60e0810151600785015561010081015160088501556105cd61012082015160098601611d56565b610140810151600a850155610160810151600b850155015191015589600052856020526105ff60406000209586611d56565b60018501611d56565b60028301611d56565b01611d56565b336000526004602052604060002092835493600160401b8510156106d2576106c7849261066d877f0ff819ce10f4e6deca6ec9104708d9cdedfb666b9fe105fa862718e88da456fb94600160209a0181556119c1565b81549060031b9086821b91600019901b1916179055604051878187516106968183858c0161196c565b81016005815203019020600160ff198254161790556106b6600754611d30565b600755604051918291339683611e72565b0390a3604051908152f35b634e487b7160e01b600052604160045260246000fd5b60405162461bcd60e51b815260206004820152601c60248201527f427573696e657373206e616d6520616c726561647920657869737473000000006044820152606490fd5b60405162461bcd60e51b8152602060048201526011602482015270131bd8d85d1a5bdb881c995c5d5a5c9959607a1b6044820152606490fd5b60405162461bcd60e51b8152602060048201526016602482015275109d5cda5b995cdcc81d1e5c19481c995c5d5a5c995960521b6044820152606490fd5b60405162461bcd60e51b8152602060048201526016602482015275109d5cda5b995cdcc81b985b59481c995c5d5a5c995960521b6044820152606490fd5b3461025d57600036600319011261025d576020600854604051908152f35b3461025d57602036600319011261025d576004356001600160401b03811161025d5760ff61084b6020610838819436906004016118e4565b816040519382858094519384920161196c565b8101600581520301902054166040519015158152f35b3461025d57602036600319011261025d57600435600052600260205260406000208054600160a01b6001900360018301541691600281016108a190611a29565b6108ad60038301611a29565b916108ba60048201611a29565b6108c660058301611a29565b600683015460ff16906007840154600885015491600986016108e790611a29565b94600a87015498600b88015497600c0154986040519c8d9c8d5260208d01528b6101a06040819201528c0161091b9161198f565b8b810360608d015261092c9161198f565b8a810360808c015261093d9161198f565b89810360a08b015261094e9161198f565b9260c0890161095c916119b4565b60e08801526101008701528581036101208701526109799161198f565b926101408501526101608401526101808301520390f35b3461025d5761099e3661193a565b8160005260026020526109cf60406000206109bb81541515611eb5565b600101546001600160a01b03163314611f57565b81600052600360205260046040600020018054600160401b8110156106d2576109fd916001820181556119c1565b610a565781610a1e600080516020611fc483398151915293610a5193611d56565b60405191829160408352600860408401526763617465676f727960c01b606084015260806020840152608083019061198f565b0390a2005b634e487b7160e01b600052600060045260246000fd5b3461025d57600036600319011261025d57602060405160008152f35b3461025d5760a036600319011261025d576004356001600160401b0360243581811161025d57610abc9036906004016118e4565b60443582811161025d57610ad49036906004016118e4565b9060643583811161025d57610aed9036906004016118e4565b9060843593841161025d57610611600392610608610b12610b479736906004016118e4565b95886000526002602052610b3060406000206109bb81541515611eb5565b88600052856020526105ff60406000209586611d56565b600080516020611fc483398151915260c06040516040815260086040820152676d6574616461746160c01b60608201526080602082015260076080820152661d5c19185d195960ca1b60a0820152a2005b3461025d57604036600319011261025d57610bb1611891565b6001600160a01b031660009081526004602052604090208054602435919082101561025d57602091610be2916119c1565b90546040519160031b1c8152f35b3461025d57604036600319011261025d57610c0961187b565b600435600052600060205260406000209060018060a01b0316600052602052602060ff604060002054166040519015158152f35b3461025d57600036600319011261025d57610c56611b6f565b610c5e611e97565b600160ff19815416176001557f62e78cea01bee320cd4e420270b5ea74000d11b0c9f74754ebdbfc544b05a2586020604051338152a1005b3461025d57610ca43661193a565b816000526002602052604060002090610cbf82541515611eb5565b610cd660018060a01b036001840154163314611f57565b610ce281511515611ce4565b610cef8160058401611d56565b600682019081549160ff831692600484101561024757600080516020611fc4833981519152946002610a519514610d5c575b50505060405191829160408352600d60408401526c0c8dec6eadacadce8e690c2e6d609b1b606084015260806020840152608083019061198f565b60009260099260ff1916905501610d7381546119ef565b601f8111610d86575b5055848080610d21565b81835260208320610d9f91601f0160051c810190611d3f565b86610d7c565b3461025d57600036600319011261025d5760206040517fa49807205ce4d355092ef5a8a18f56e8913cf4a201fbe287825b095693c217758152f35b3461025d57610e40610e2c610e27610df73661193a565b90806000526002602052610e116040600020541515611eb5565b6000526003602052600560406000200190611acf565b611a29565b60405191829160208352602083019061198f565b0390f35b3461025d5760208060031936011261025d576004358060005260028252610e716040600020541515611eb5565b60005260038152604060002060048101610e8a82611a29565b91600193610e99858301611a29565b91610eb26003610eab60028401611a29565b9201611a29565b908454936001600160401b0385116106d25760409795975194610eda858260051b01876118c3565b8086528486018099600052856000206000915b838310610f9e5750505050610f429291610f26610f3492610f196040519a60a08c5260a08c019061198f565b908a8203888c015261198f565b9088820360408a015261198f565b90868203606088015261198f565b918483036080860152519081835280830192818360051b82010196936000915b848310610f6f5787890388f35b9091929394958480610f8c839b601f198682030187528a5161198f565b9a980196959491909101920190610f62565b90898089819e9c9594610fb085611a29565b8152019201920192509a989a610eed565b3461025d57600036600319011261025d576020600754604051908152f35b3461025d57604036600319011261025d576004356024356004811015908161025d57611009611b6f565b8260005260026020526006604060002061102581541515611eb5565b0160ff815416926004841015610247576001841480806110f9575b156110a8575050909160085480156110925783611079600080516020611fa48339815191529560409561108f9460001901600855611e5a565b611085845180946119b4565b60208301906119b4565ba2005b634e487b7160e01b600052601160045260246000fd5b1590816110e5575b5082611079604094600080516020611fa4833981519152969461108f9415611e5a576110dd600854611d30565b600855611e5a565b9050929092610247579160018214826110b0565b50600091506001841415611040565b3461025d57600036600319011261025d57602060ff600154166040519015158152f35b3461025d57602036600319011261025d576004356000610180604051611150816118a7565b8281528260208201526060604082015260608082015260606080820152606060a08201528260c08201528260e0820152826101008201526060610120820152826101408201528261016082015201528060005260026020526111b86040600020541515611eb5565b60005260026020526040600020604051906111d2826118a7565b8054825260018101546001600160a01b031660208301526111f560028201611a29565b604083015261120660038201611a29565b606083015261121760048201611a29565b608083015261122860058201611a29565b60a083015260ff60068201541690600482101561024757600c9160c0840152600781015460e0840152600881015461010084015261126860098201611a29565b610120840152600a810154610140840152600b81015461016084015201546101808201526040518091602082528051602083015260018060a01b0360208201511660408301526101806113596112cf60408401516101a060608701526101c086019061198f565b6113196113056112f1606087015193601f1994858a83030160808b015261198f565b6080870151848983030160a08a015261198f565b60a0860151838883030160c089015261198f565b9061132c60c086015160e08801906119b4565b60e0850151610100870152610100850151610120870152610120850151908683030161014087015261198f565b916101408101516101608501526101608101518285015201516101a08301520390f35b3461025d5760208060031936011261025d576001600160a01b0361139e611891565b1660005260048152604060002060405190818382549182815201908192600052846000209060005b8682821061141c5786866113dc828803836118c3565b604051928392818401908285525180915260408401929160005b82811061140557505050500390f35b8351855286955093810193928101926001016113f6565b8354855290930192600192830192016113c6565b3461025d57602036600319011261025d5760043561144c611af5565b611454611e97565b806000526002602052604060002061146e81541515611eb5565b600681019081549060ff821690600482101561024757600080516020611fa48339815191529360016040946114a38515611f01565b60ff19161790556008429101556114bb600854611d30565b6008558151428152847f6958986179c34f96dcc7e81235a38d71dd262238d91190ab0c8b1417740ebed860203393a36114f6825180926119b4565b60016020820152a2005b3461025d57600036600319011261025d57611519611b6f565b60015460ff8116156115585760ff19166001557f5db9ee0a495bf2e6ff9c91a7834c1ba4fdd244a5e8aa4e537bd38aeae4b073aa6020604051338152a1005b604051638dfc202b60e01b8152600490fd5b3461025d57606036600319011261025d576004356001600160401b0360243581811161025d5761159e9036906004016118e4565b60443591821161025d576115c5600080516020611fc48339815191529236906004016118e4565b908360005260026020526115e360406000206109bb81541515611eb5565b83600052600360205261160682611601600560406000200184611acf565b611d56565b610a5160405192839283611e72565b3461025d576116233661193a565b61162b611af5565b611633611e97565b81600052600260205260406000209061164e82541515611eb5565b600682019182549160ff83169160048310156102475761166e8315611f01565b8151156116ef5781600961169e92600080516020611fa483398151915297600260409860ff191617905501611d56565b847feedeaeb1d0e569196fb9902498d8a6577fde6ab76104a501bee5d4dd7735f5f2845160208152806116d63395602083019061198f565b0390a36116e5825180926119b4565b60026020820152a2005b60405162461bcd60e51b815260206004820152601960248201527f52656a656374696f6e20726561736f6e207265717569726564000000000000006044820152606490fd5b3461025d57604036600319011261025d5761174d61187b565b336001600160a01b03821603611769576102fa90600435611c6f565b60405163334bd91960e11b8152600490fd5b3461025d57604036600319011261025d576102fa60043561179a61187b565b908060005260006020526117b5600160406000200154611bcb565b611bf1565b3461025d57602036600319011261025d5760043560005260006020526020600160406000200154604051908152f35b3461025d57602036600319011261025d57600435600052600260205260ff60066040600020015416600481101561024757602090600160405191148152f35b3461025d57602036600319011261025d576004359063ffffffff60e01b821680920361025d57602091637965db0b60e01b811490811561186a575b5015158152f35b6301ffc9a760e01b14905083611863565b602435906001600160a01b038216820361025d57565b600435906001600160a01b038216820361025d57565b6101a081019081106001600160401b038211176106d257604052565b90601f801991011681019081106001600160401b038211176106d257604052565b81601f8201121561025d578035906001600160401b0382116106d25760405192611918601f8401601f1916602001856118c3565b8284526020838301011161025d57816000926020809301838601378301015290565b90604060031983011261025d5760043591602435906001600160401b03821161025d57611969916004016118e4565b90565b60005b83811061197f5750506000910152565b818101518382015260200161196f565b906020916119a88151809281855285808601910161196c565b601f01601f1916010190565b9060048210156102475752565b80548210156119d95760005260206000200190600090565b634e487b7160e01b600052603260045260246000fd5b90600182811c92168015611a1f575b6020831014611a0957565b634e487b7160e01b600052602260045260246000fd5b91607f16916119fe565b9060405191826000825492611a3d846119ef565b908184526001948581169081600014611aac5750600114611a69575b5050611a67925003836118c3565b565b9093915060005260209081600020936000915b818310611a94575050611a6793508201013880611a59565b85548884018501529485019487945091830191611a7c565b915050611a6794506020925060ff191682840152151560051b8201013880611a59565b602090611ae992826040519483868095519384920161196c565b82019081520301902090565b3360009081527f1da0b5176dfe03406af5a6eed66ca01dda9b45ac4da671c3fa379cb93717ef8160205260409020547f0ce23c3e399818cfee81a7ab0880f714e53d7672b08df0fa62f2843416e1ea099060ff1615611b515750565b6044906040519063e2517d3f60e01b82523360048301526024820152fd5b3360009081527f7d7ffb7a348e1c6a02869081a26547b49160dd3df72d1d75a570eb9b698292ec60205260409020547fa49807205ce4d355092ef5a8a18f56e8913cf4a201fbe287825b095693c217759060ff1615611b515750565b80600052600060205260406000203360005260205260ff6040600020541615611b515750565b9060009180835282602052604083209160018060a01b03169182845260205260ff60408420541615600014611c6a57808352826020526040832082845260205260408320600160ff198254161790557f2f8788117e7eff1d82e926ec794901d17c78024a50270940304540a733656f0d339380a4600190565b505090565b9060009180835282602052604083209160018060a01b03169182845260205260ff604084205416600014611c6a5780835282602052604083208284526020526040832060ff1981541690557ff6391f5c32d9c69d2a47ea670b442974b53935d1edc7fd64eb21e047a839171b339380a4600190565b15611ceb57565b60405162461bcd60e51b815260206004820152601760248201527f446f63756d656e747320686173682072657175697265640000000000000000006044820152606490fd5b60001981146110925760010190565b818110611d4a575050565b60008155600101611d3f565b91909182516001600160401b0381116106d257611d7382546119ef565b601f8111611e1d575b50602080601f8311600114611db9575081929394600092611dae575b50508160011b916000199060031b1c1916179055565b015190503880611d98565b90601f198316958460005282600020926000905b888210611e0557505083600195969710611dec575b505050811b019055565b015160001960f88460031b161c19169055388080611de2565b80600185968294968601518155019501930190611dcd565b611e4a90836000526020600020601f840160051c81019160208510611e50575b601f0160051c0190611d3f565b38611d7c565b9091508190611e3d565b9060048110156102475760ff80198354169116179055565b9091611e896119699360408452604084019061198f565b91602081840391015261198f565b60ff60015416611ea357565b60405163d93c066560e01b8152600490fd5b15611ebc57565b60405162461bcd60e51b815260206004820152601760248201527f427573696e65737320646f6573206e6f742065786973740000000000000000006044820152606490fd5b15611f0857565b60405162461bcd60e51b815260206004820152602160248201527f427573696e657373206e6f742070656e64696e6720766572696669636174696f6044820152603760f91b6064820152608490fd5b15611f5e57565b60405162461bcd60e51b815260206004820152601e60248201527f4f6e6c7920627573696e657373206f776e65722063616e2075706461746500006044820152606490fdfe3e5d8b8a8833997ef00c2c2080979ca2906a0150b17bd9c028203ae07644bdaef5d76ee117a5e86596d2c2c4f3dba496ee5f72b1cb60b436a3e57cafc3c3e9aaa264697066735822122057c4e412ef3e00033ff053504d7e659e2056354a69a023df5e3ae7b25aed658664736f6c634300081400332f8788117e7eff1d82e926ec794901d17c78024a50270940304540a733656f0d",
  "linkReferences": {},
  "deployedLinkReferences": {}
}